{
  "transactions": [
    {
      "hash": "0xfc14ff8d76959b3695d7bab1bc247a9e8471666bf2e9ab614921830598d53d60",
      "transactionType": "CALL",
      "contractName": null,
      "contractAddress": "0xe5f8c0bd7eda98f24f0b5002fa485d473fe7e7eb",
      "function": "mint(address,uint256)",
      "arguments": [
        "0xCa14e37C862465677caA064c20BDBB6673F6FE48",
        "50000000000"
      ],
      "transaction": {
        "from": "0xca14e37c862465677caa064c20bdbb6673f6fe48",
        "to": "0xe5f8c0bd7eda98f24f0b5002fa485d473fe7e7eb",
        "gas": "0x11325",
        "value": "0x0",
        "input": "0x40c10f19000000000000000000000000ca14e37c862465677caa064c20bdbb6673f6fe480000000000000000000000000000000000000000000000000000000ba43b7400",
        "nonce": "0x17",
        "chainId": "0x4cef52"
      },
      "additionalContracts": [],
      "isFixedGasLimit": false
    },
    {
      "hash": "0x2790afec64c7fa0c31d230daf12e48d16b50060c639d7f69e0c733603cbf9dca",
      "transactionType": "CALL",
      "contractName": null,
      "contractAddress": "0xe5f8c0bd7eda98f24f0b5002fa485d473fe7e7eb",
      "function": "mint(address,uint256)",
      "arguments": [
        "0xCBb3b40109E849a2cD1531258CE1797Fa9ECA7e7",
        "100000000000"
      ],
      "transaction": {
        "from": "0xca14e37c862465677caa064c20bdbb6673f6fe48",
        "to": "0xe5f8c0bd7eda98f24f0b5002fa485d473fe7e7eb",
        "gas": "0x11325",
        "value": "0x0",
        "input": "0x40c10f19000000000000000000000000cbb3b40109e849a2cd1531258ce1797fa9eca7e7000000000000000000000000000000000000000000000000000000174876e800",
        "nonce": "0x18",
        "chainId": "0x4cef52"
      },
      "additionalContracts": [],
      "isFixedGasLimit": false
    },
    {
      "hash": "0xefaa423b70eee32b0b7ede8d9087e573f24609baddf501acbb81a012ad4b380e",
      "transactionType": "CALL",
      "contractName": null,
      "contractAddress": "0xe5f8c0bd7eda98f24f0b5002fa485d473fe7e7eb",
      "function": "mint(address,uint256)",
      "arguments": [
        "0xE52C9AA4d90C9C1050228DC08E6c336da64251AF",
        "100000000000"
      ],
      "transaction": {
        "from": "0xca14e37c862465677caa064c20bdbb6673f6fe48",
        "to": "0xe5f8c0bd7eda98f24f0b5002fa485d473fe7e7eb",
        "gas": "0x11325",
        "value": "0x0",
        "input": "0x40c10f19000000000000000000000000e52c9aa4d90c9c1050228dc08e6c336da64251af000000000000000000000000000000000000000000000000000000174876e800",
        "nonce": "0x19",
        "chainId": "0x4cef52"
      },
      "additionalContracts": [],
      "isFixedGasLimit": false
    },
    {
      "hash": "0x5fc0963f0dbab7fff6b7389ee195080d26a29278608cc7f97961b935afe707f7",
      "transactionType": "CALL",
      "contractName": null,
      "contractAddress": "0xe5f8c0bd7eda98f24f0b5002fa485d473fe7e7eb",
      "function": "mint(address,uint256)",
      "arguments": [
        "0x2968871b9780B38FFcf2221653ABB09aD1038552",
        "50000000000"
      ],
      "transaction": {
        "from": "0xca14e37c862465677caa064c20bdbb6673f6fe48",
        "to": "0xe5f8c0bd7eda98f24f0b5002fa485d473fe7e7eb",
        "gas": "0x11325",
        "value": "0x0",
        "input": "0x40c10f190000000000000000000000002968871b9780b38ffcf2221653abb09ad10385520000000000000000000000000000000000000000000000000000000ba43b7400",
        "nonce": "0x1a",
        "chainId": "0x4cef52"
      },
      "additionalContracts": [],
      "isFixedGasLimit": false
    },
    {
      "hash": "0x29b8699174f14541d3f72db846f5e7c89bdec8d1660b658a2f87507ca55721d8",
      "transactionType": "CALL",
      "contractName": null,
      "contractAddress": "0x254a2627eb0e2e3ded4cb2225afb8815f05e04e9",
      "function": "mint(address,uint256)",
      "arguments": [
        "0xCa14e37C862465677caA064c20BDBB6673F6FE48",
        "20000000000"
      ],
      "transaction": {
        "from": "0xca14e37c862465677caa064c20bdbb6673f6fe48",
        "to": "0x254a2627eb0e2e3ded4cb2225afb8815f05e04e9",
        "gas": "0x11325",
        "value": "0x0",
        "input": "0x40c10f19000000000000000000000000ca14e37c862465677caa064c20bdbb6673f6fe4800000000000000000000000000000000000000000000000000000004a817c800",
        "nonce": "0x1b",
        "chainId": "0x4cef52"
      },
      "additionalContracts": [],
      "isFixedGasLimit": false
    },
    {
      "hash": "0xfb59c6ec5b140f16b9ce04769d9bb83e6b471fd2c2467942f09d9d28d682fd13",
      "transactionType": "CALL",
      "contractName": null,
      "contractAddress": "0x254a2627eb0e2e3ded4cb2225afb8815f05e04e9",
      "function": "mint(address,uint256)",
      "arguments": [
        "0xCBb3b40109E849a2cD1531258CE1797Fa9ECA7e7",
        "50000000000"
      ],
      "transaction": {
        "from": "0xca14e37c862465677caa064c20bdbb6673f6fe48",
        "to": "0x254a2627eb0e2e3ded4cb2225afb8815f05e04e9",
        "gas": "0x11325",
        "value": "0x0",
        "input": "0x40c10f19000000000000000000000000cbb3b40109e849a2cd1531258ce1797fa9eca7e70000000000000000000000000000000000000000000000000000000ba43b7400",
        "nonce": "0x1c",
        "chainId": "0x4cef52"
      },
      "additionalContracts": [],
      "isFixedGasLimit": false
    },
    {
      "hash": "0xb2f7b08ad101b1f86250f319cf6624b3d93f66af9f92b3cff9c589598fdd79e9",
      "transactionType": "CALL",
      "contractName": null,
      "contractAddress": "0x254a2627eb0e2e3ded4cb2225afb8815f05e04e9",
      "function": "mint(address,uint256)",
      "arguments": [
        "0xE52C9AA4d90C9C1050228DC08E6c336da64251AF",
        "50000000000"
      ],
      "transaction": {
        "from": "0xca14e37c862465677caa064c20bdbb6673f6fe48",
        "to": "0x254a2627eb0e2e3ded4cb2225afb8815f05e04e9",
        "gas": "0x11325",
        "value": "0x0",
        "input": "0x40c10f19000000000000000000000000e52c9aa4d90c9c1050228dc08e6c336da64251af0000000000000000000000000000000000000000000000000000000ba43b7400",
        "nonce": "0x1d",
        "chainId": "0x4cef52"
      },
      "additionalContracts": [],
      "isFixedGasLimit": false
    },
    {
      "hash": "0x9053f0652731935e57e060c25d7f1601e653ec4357a041adb92c556a73feda79",
      "transactionType": "CALL",
      "contractName": null,
      "contractAddress": "0x254a2627eb0e2e3ded4cb2225afb8815f05e04e9",
      "function": "mint(address,uint256)",
      "arguments": [
        "0x2968871b9780B38FFcf2221653ABB09aD1038552",
        "10000000000"
      ],
      "transaction": {
        "from": "0xca14e37c862465677caa064c20bdbb6673f6fe48",
        "to": "0x254a2627eb0e2e3ded4cb2225afb8815f05e04e9",
        "gas": "0x11325",
        "value": "0x0",
        "input": "0x40c10f190000000000000000000000002968871b9780b38ffcf2221653abb09ad103855200000000000000000000000000000000000000000000000000000002540be400",
        "nonce": "0x1e",
        "chainId": "0x4cef52"
      },
      "additionalContracts": [],
      "isFixedGasLimit": false
    },
    {
      "hash": "0x54ce045d95eb70df248b5f1522f2c297c103a033319b9a8b13a491f026e5bc1e",
      "transactionType": "CALL",
      "contractName": null,
      "contractAddress": "0xcdea155469985f1e6910bbc53278cb2008bff207",
      "function": "mint(address,uint256)",
      "arguments": [
        "0xCBb3b40109E849a2cD1531258CE1797Fa9ECA7e7",
        "10000000000000000000"
      ],
      "transaction": {
        "from": "0xca14e37c862465677caa064c20bdbb6673f6fe48",
        "to": "0xcdea155469985f1e6910bbc53278cb2008bff207",
        "gas": "0x11346",
        "value": "0x0",
        "input": "0x40c10f19000000000000000000000000cbb3b40109e849a2cd1531258ce1797fa9eca7e70000000000000000000000000000000000000000000000008ac7230489e80000",
        "nonce": "0x1f",
        "chainId": "0x4cef52"
      },
      "additionalContracts": [],
      "isFixedGasLimit": false
    },
    {
      "hash": "0xf99ea3b282906025c66af6bd50c8d279ae2be9a59b065814d2922d44852543ea",
      "transactionType": "CALL",
      "contractName": null,
      "contractAddress": "0xcdea155469985f1e6910bbc53278cb2008bff207",
      "function": "mint(address,uint256)",
      "arguments": [
        "0xE52C9AA4d90C9C1050228DC08E6c336da64251AF",
        "6000000000000000000"
      ],
      "transaction": {
        "from": "0xca14e37c862465677caa064c20bdbb6673f6fe48",
        "to": "0xcdea155469985f1e6910bbc53278cb2008bff207",
        "gas": "0x11346",
        "value": "0x0",
        "input": "0x40c10f19000000000000000000000000e52c9aa4d90c9c1050228dc08e6c336da64251af00000000000000000000000000000000000000000000000053444835ec580000",
        "nonce": "0x20",
        "chainId": "0x4cef52"
      },
      "additionalContracts": [],
      "isFixedGasLimit": false
    },
    {
      "hash": "0x351142a65450cdd8e9e174be27836023b33b338ed8edb83585f166b02854da5e",
      "transactionType": "CALL",
      "contractName": null,
      "contractAddress": "0xcdea155469985f1e6910bbc53278cb2008bff207",
      "function": "mint(address,uint256)",
      "arguments": [
        "0x2968871b9780B38FFcf2221653ABB09aD1038552",
        "20000000000000000000"
      ],
      "transaction": {
        "from": "0xca14e37c862465677caa064c20bdbb6673f6fe48",
        "to": "0xcdea155469985f1e6910bbc53278cb2008bff207",
        "gas": "0x11357",
        "value": "0x0",
        "input": "0x40c10f190000000000000000000000002968871b9780b38ffcf2221653abb09ad1038552000000000000000000000000000000000000000000000001158e460913d00000",
        "nonce": "0x21",
        "chainId": "0x4cef52"
      },
      "additionalContracts": [],
      "isFixedGasLimit": false
    },
    {
      "hash": "0xd8b7a600c2934d90634fc051cd67af827ee579479d304b5c820eea918f03f372",
      "transactionType": "CALL",
      "contractName": null,
      "contractAddress": "0xe5f8c0bd7eda98f24f0b5002fa485d473fe7e7eb",
      "function": "approve(address,uint256)",
      "arguments": [
        "0xB574Eb2FD1101A75070Cda9673a6dB207581C467",
        "115792089237316195423570985008687907853269984665640564039457584007913129639935"
      ],
      "transaction": {
        "from": "0xca14e37c862465677caa064c20bdbb6673f6fe48",
        "to": "0xe5f8c0bd7eda98f24f0b5002fa485d473fe7e7eb",
        "gas": "0x8e58",
        "value": "0x0",
        "input": "0x095ea7b3000000000000000000000000b574eb2fd1101a75070cda9673a6db207581c467ffffffffffffffffffffffffffffffffffffffffffffffffffffffffffffffff",
        "nonce": "0x22",
        "chainId": "0x4cef52"
      },
      "additionalContracts": [],
      "isFixedGasLimit": false
    },
    {
      "hash": "0xd41ba5d2e05fd9e4fe61c321dc6762f7d21f3d9e50cf7bd52fe18ce4f37fd943",
      "transactionType": "CALL",
      "contractName": null,
      "contractAddress": "0x254a2627eb0e2e3ded4cb2225afb8815f05e04e9",
      "function": "approve(address,uint256)",
      "arguments": [
        "0xB574Eb2FD1101A75070Cda9673a6dB207581C467",
        "115792089237316195423570985008687907853269984665640564039457584007913129639935"
      ],
      "transaction": {
        "from": "0xca14e37c862465677caa064c20bdbb6673f6fe48",
        "to": "0x254a2627eb0e2e3ded4cb2225afb8815f05e04e9",
        "gas": "0x8e58",
        "value": "0x0",
        "input": "0x095ea7b3000000000000000000000000b574eb2fd1101a75070cda9673a6db207581c467ffffffffffffffffffffffffffffffffffffffffffffffffffffffffffffffff",
        "nonce": "0x23",
        "chainId": "0x4cef52"
      },
      "additionalContracts": [],
      "isFixedGasLimit": false
    },
    {
      "hash": "0x48abfecf0a8109764af9787620b58aa25a8837a7ed58075b59df14f6d8cb38fd",
      "transactionType": "CALL",
      "contractName": null,
      "contractAddress": "0xcdea155469985f1e6910bbc53278cb2008bff207",
      "function": "approve(address,uint256)",
      "arguments": [
        "0xB574Eb2FD1101A75070Cda9673a6dB207581C467",
        "115792089237316195423570985008687907853269984665640564039457584007913129639935"
      ],
      "transaction": {
        "from": "0xcbb3b40109e849a2cd1531258ce1797fa9eca7e7",
        "to": "0xcdea155469985f1e6910bbc53278cb2008bff207",
        "gas": "0x10868",
        "value": "0x0",
        "input": "0x095ea7b3000000000000000000000000b574eb2fd1101a75070cda9673a6db207581c467ffffffffffffffffffffffffffffffffffffffffffffffffffffffffffffffff",
        "nonce": "0x0",
        "chainId": "0x4cef52"
      },
      "additionalContracts": [],
      "isFixedGasLimit": false
    },
    {
      "hash": "0x4bc023f9a9d4c4300d6a715a9e35fdfdf4cdbbcaf3e3da3014bcbef4c78d92db",
      "transactionType": "CALL",
      "contractName": null,
      "contractAddress": "0x254a2627eb0e2e3ded4cb2225afb8815f05e04e9",
      "function": "approve(address,uint256)",
      "arguments": [
        "0xB574Eb2FD1101A75070Cda9673a6dB207581C467",
        "115792089237316195423570985008687907853269984665640564039457584007913129639935"
      ],
      "transaction": {
        "from": "0xcbb3b40109e849a2cd1531258ce1797fa9eca7e7",
        "to": "0x254a2627eb0e2e3ded4cb2225afb8815f05e04e9",
        "gas": "0x10868",
        "value": "0x0",
        "input": "0x095ea7b3000000000000000000000000b574eb2fd1101a75070cda9673a6db207581c467ffffffffffffffffffffffffffffffffffffffffffffffffffffffffffffffff",
        "nonce": "0x1",
        "chainId": "0x4cef52"
      },
      "additionalContracts": [],
      "isFixedGasLimit": false
    },
    {
      "hash": "0x5d08d3aadb7a0330edcb63054dc5709857a3e39e8ed0a305897e51b38f610085",
      "transactionType": "CALL",
      "contractName": null,
      "contractAddress": "0xe5f8c0bd7eda98f24f0b5002fa485d473fe7e7eb",
      "function": "approve(address,uint256)",
      "arguments": [
        "0xB574Eb2FD1101A75070Cda9673a6dB207581C467",
        "115792089237316195423570985008687907853269984665640564039457584007913129639935"
      ],
      "transaction": {
        "from": "0xcbb3b40109e849a2cd1531258ce1797fa9eca7e7",
        "to": "0xe5f8c0bd7eda98f24f0b5002fa485d473fe7e7eb",
        "gas": "0x10868",
        "value": "0x0",
        "input": "0x095ea7b3000000000000000000000000b574eb2fd1101a75070cda9673a6db207581c467ffffffffffffffffffffffffffffffffffffffffffffffffffffffffffffffff",
        "nonce": "0x2",
        "chainId": "0x4cef52"
      },
      "additionalContracts": [],
      "isFixedGasLimit": false
    },
    {
      "hash": "0x6b760d8d279f026f4145ebf268c9f329b38da2769fa6eb9109d62472991f46ff",
      "transactionType": "CALL",
      "contractName": null,
      "contractAddress": "0xb574eb2fd1101a75070cda9673a6db207581c467",
      "function": "deposit(address,uint256)",
      "arguments": [
        "0xCDeA155469985F1E6910bbC53278Cb2008bff207",
        "10000000000000000000"
      ],
      "transaction": {
        "from": "0xcbb3b40109e849a2cd1531258ce1797fa9eca7e7",
        "to": "0xb574eb2fd1101a75070cda9673a6db207581c467",
        "gas": "0x1f39d",
        "value": "0x0",
        "input": "0x47e7ef24000000000000000000000000cdea155469985f1e6910bbc53278cb2008bff2070000000000000000000000000000000000000000000000008ac7230489e80000",
        "nonce": "0x3",
        "chainId": "0x4cef52"
      },
      "additionalContracts": [],
      "isFixedGasLimit": false
    },
    {
      "hash": "0x738545dd0cb6bfede35c7c8c34d250d77d7403830bc0a81cc51c123a1dd7ebc2",
      "transactionType": "CALL",
      "contractName": null,
      "contractAddress": "0xb574eb2fd1101a75070cda9673a6db207581c467",
      "function": "openPosition(address,uint256,address,uint256)",
      "arguments": [
        "0x254a2627EB0e2e3ded4CB2225AFb8815f05e04e9",
        "10000000000",
        "0xe5F8C0bD7Eda98F24f0B5002Fa485D473FE7E7Eb",
        "9000000000"
      ],
      "transaction": {
        "from": "0xcbb3b40109e849a2cd1531258ce1797fa9eca7e7",
        "to": "0xb574eb2fd1101a75070cda9673a6db207581c467",
        "gas": "0x5d385",
        "value": "0x0",
        "input": "0xd563eb29000000000000000000000000254a2627eb0e2e3ded4cb2225afb8815f05e04e900000000000000000000000000000000000000000000000000000002540be400000000000000000000000000e5f8c0bd7eda98f24f0b5002fa485d473fe7e7eb0000000000000000000000000000000000000000000000000000000218711a00",
        "nonce": "0x4",
        "chainId": "0x4cef52"
      },
      "additionalContracts": [],
      "isFixedGasLimit": false
    },
    {
      "hash": "0x19fadec901e224a5db8a0fb258104bc7430283865cb647c5ac44131260338ef4",
      "transactionType": "CALL",
      "contractName": null,
      "contractAddress": "0x254a2627eb0e2e3ded4cb2225afb8815f05e04e9",
      "function": "approve(address,uint256)",
      "arguments": [
        "0xB574Eb2FD1101A75070Cda9673a6dB207581C467",
        "115792089237316195423570985008687907853269984665640564039457584007913129639935"
      ],
      "transaction": {
        "from": "0xe52c9aa4d90c9c1050228dc08e6c336da64251af",
        "to": "0x254a2627eb0e2e3ded4cb2225afb8815f05e04e9",
        "gas": "0x10868",
        "value": "0x0",
        "input": "0x095ea7b3000000000000000000000000b574eb2fd1101a75070cda9673a6db207581c467ffffffffffffffffffffffffffffffffffffffffffffffffffffffffffffffff",
        "nonce": "0x0",
        "chainId": "0x4cef52"
      },
      "additionalContracts": [],
      "isFixedGasLimit": false
    },
    {
      "hash": "0x4fed153b0f4d967a062b102859fc8ffc24f21b667d111fb562b3df2db080cba5",
      "transactionType": "CALL",
      "contractName": null,
      "contractAddress": "0xcdea155469985f1e6910bbc53278cb2008bff207",
      "function": "approve(address,uint256)",
      "arguments": [
        "0xB574Eb2FD1101A75070Cda9673a6dB207581C467",
        "115792089237316195423570985008687907853269984665640564039457584007913129639935"
      ],
      "transaction": {
        "from": "0xe52c9aa4d90c9c1050228dc08e6c336da64251af",
        "to": "0xcdea155469985f1e6910bbc53278cb2008bff207",
        "gas": "0x10868",
        "value": "0x0",
        "input": "0x095ea7b3000000000000000000000000b574eb2fd1101a75070cda9673a6db207581c467ffffffffffffffffffffffffffffffffffffffffffffffffffffffffffffffff",
        "nonce": "0x1",
        "chainId": "0x4cef52"
      },
      "additionalContracts": [],
      "isFixedGasLimit": false
    },
    {
      "hash": "0xac00dd4899f12fee82c6d662f34f4540dad90e6bbc41e8dc4638254ee50fa446",
      "transactionType": "CALL",
      "contractName": null,
      "contractAddress": "0xe5f8c0bd7eda98f24f0b5002fa485d473fe7e7eb",
      "function": "approve(address,uint256)",
      "arguments": [
        "0xB574Eb2FD1101A75070Cda9673a6dB207581C467",
        "115792089237316195423570985008687907853269984665640564039457584007913129639935"
      ],
      "transaction": {
        "from": "0xe52c9aa4d90c9c1050228dc08e6c336da64251af",
        "to": "0xe5f8c0bd7eda98f24f0b5002fa485d473fe7e7eb",
        "gas": "0x10868",
        "value": "0x0",
        "input": "0x095ea7b3000000000000000000000000b574eb2fd1101a75070cda9673a6db207581c467ffffffffffffffffffffffffffffffffffffffffffffffffffffffffffffffff",
        "nonce": "0x2",
        "chainId": "0x4cef52"
      },
      "additionalContracts": [],
      "isFixedGasLimit": false
    },
    {
      "hash": "0x01f7c9b8a55bf52f80258b533bd7d65839373689cfefb1aca8068fc395278c79",
      "transactionType": "CALL",
      "contractName": null,
      "contractAddress": "0xb574eb2fd1101a75070cda9673a6db207581c467",
      "function": "deposit(address,uint256)",
      "arguments": [
        "0x254a2627EB0e2e3ded4CB2225AFb8815f05e04e9",
        "30000000000"
      ],
      "transaction": {
        "from": "0xe52c9aa4d90c9c1050228dc08e6c336da64251af",
        "to": "0xb574eb2fd1101a75070cda9673a6db207581c467",
        "gas": "0x20e1d",
        "value": "0x0",
        "input": "0x47e7ef24000000000000000000000000254a2627eb0e2e3ded4cb2225afb8815f05e04e900000000000000000000000000000000000000000000000000000006fc23ac00",
        "nonce": "0x3",
        "chainId": "0x4cef52"
      },
      "additionalContracts": [],
      "isFixedGasLimit": false
    },
    {
      "hash": "0x7458f3d078a7fb15b328814b65e7fa3ef8172537c79a57d6f159fe544a3ab6ff",
      "transactionType": "CALL",
      "contractName": null,
      "contractAddress": "0xb574eb2fd1101a75070cda9673a6db207581c467",
      "function": "openPosition(address,uint256,address,uint256)",
      "arguments": [
        "0xCDeA155469985F1E6910bbC53278Cb2008bff207",
        "5000000000000000000",
        "0xe5F8C0bD7Eda98F24f0B5002Fa485D473FE7E7Eb",
        "10000000000"
      ],
      "transaction": {
        "from": "0xe52c9aa4d90c9c1050228dc08e6c336da64251af",
        "to": "0xb574eb2fd1101a75070cda9673a6db207581c467",
        "gas": "0x5d19f",
        "value": "0x0",
        "input": "0xd563eb29000000000000000000000000cdea155469985f1e6910bbc53278cb2008bff2070000000000000000000000000000000000000000000000004563918244f40000000000000000000000000000e5f8c0bd7eda98f24f0b5002fa485d473fe7e7eb00000000000000000000000000000000000000000000000000000002540be400",
        "nonce": "0x4",
        "chainId": "0x4cef52"
      },
      "additionalContracts": [],
      "isFixedGasLimit": false
    },
    {
      "hash": "0x2943f774867e37599221b6362da683cabdd8d2361be828d9d4aa7b6abd1365b2",
      "transactionType": "CALL",
      "contractName": null,
      "contractAddress": "0xcdea155469985f1e6910bbc53278cb2008bff207",
      "function": "approve(address,uint256)",
      "arguments": [
        "0xB574Eb2FD1101A75070Cda9673a6dB207581C467",
        "115792089237316195423570985008687907853269984665640564039457584007913129639935"
      ],
      "transaction": {
        "from": "0x2968871b9780b38ffcf2221653abb09ad1038552",
        "to": "0xcdea155469985f1e6910bbc53278cb2008bff207",
        "gas": "0x10868",
        "value": "0x0",
        "input": "0x095ea7b3000000000000000000000000b574eb2fd1101a75070cda9673a6db207581c467ffffffffffffffffffffffffffffffffffffffffffffffffffffffffffffffff",
        "nonce": "0x0",
        "chainId": "0x4cef52"
      },
      "additionalContracts": [],
      "isFixedGasLimit": false
    },
    {
      "hash": "0x94f6e60ef7c1126502f06523b9f3375176dd31c801bef6e06755703941f0256c",
      "transactionType": "CALL",
      "contractName": null,
      "contractAddress": "0x254a2627eb0e2e3ded4cb2225afb8815f05e04e9",
      "function": "approve(address,uint256)",
      "arguments": [
        "0xB574Eb2FD1101A75070Cda9673a6dB207581C467",
        "115792089237316195423570985008687907853269984665640564039457584007913129639935"
      ],
      "transaction": {
        "from": "0x2968871b9780b38ffcf2221653abb09ad1038552",
        "to": "0x254a2627eb0e2e3ded4cb2225afb8815f05e04e9",
        "gas": "0x10868",
        "value": "0x0",
        "input": "0x095ea7b3000000000000000000000000b574eb2fd1101a75070cda9673a6db207581c467ffffffffffffffffffffffffffffffffffffffffffffffffffffffffffffffff",
        "nonce": "0x1",
        "chainId": "0x4cef52"
      },
      "additionalContracts": [],
      "isFixedGasLimit": false
    },
    {
      "hash": "0xe52daa13e943eec5e21bb97e84ad36449c1f729d00523e1ea2ec2d07bcd82195",
      "transactionType": "CALL",
      "contractName": null,
      "contractAddress": "0xe5f8c0bd7eda98f24f0b5002fa485d473fe7e7eb",
      "function": "approve(address,uint256)",
      "arguments": [
        "0xB574Eb2FD1101A75070Cda9673a6dB207581C467",
        "115792089237316195423570985008687907853269984665640564039457584007913129639935"
      ],
      "transaction": {
        "from": "0x2968871b9780b38ffcf2221653abb09ad1038552",
        "to": "0xe5f8c0bd7eda98f24f0b5002fa485d473fe7e7eb",
        "gas": "0x10868",
        "value": "0x0",
        "input": "0x095ea7b3000000000000000000000000b574eb2fd1101a75070cda9673a6db207581c467ffffffffffffffffffffffffffffffffffffffffffffffffffffffffffffffff",
        "nonce": "0x2",
        "chainId": "0x4cef52"
      },
      "additionalContracts": [],
      "isFixedGasLimit": false
    },
    {
      "hash": "0x4914fb82dfa8f15dc90c282ce8e57ba768a6e946f9cc87ee328ea2eccbde36d1",
      "transactionType": "CALL",
      "contractName": null,
      "contractAddress": "0xb574eb2fd1101a75070cda9673a6db207581c467",
      "function": "deposit(address,uint256)",
      "arguments": [
        "0xCDeA155469985F1E6910bbC53278Cb2008bff207",
        "15000000000000000000"
      ],
      "transaction": {
        "from": "0x2968871b9780b38ffcf2221653abb09ad1038552",
        "to": "0xb574eb2fd1101a75070cda9673a6db207581c467",
        "gas": "0x1fc8c",
        "value": "0x0",
        "input": "0x47e7ef24000000000000000000000000cdea155469985f1e6910bbc53278cb2008bff207000000000000000000000000000000000000000000000000d02ab486cedc0000",
        "nonce": "0x3",
        "chainId": "0x4cef52"
      },
      "additionalContracts": [],
      "isFixedGasLimit": false
    },
    {
      "hash": "0x5762adca5187a21fe4624566fe898cbb04dd796d3f6bf379f5c95bed79a27625",
      "transactionType": "CALL",
      "contractName": null,
      "contractAddress": "0xb574eb2fd1101a75070cda9673a6db207581c467",
      "function": "openPosition(address,uint256,address,uint256)",
      "arguments": [
        "0xe5F8C0bD7Eda98F24f0B5002Fa485D473FE7E7Eb",
        "10000000000",
        "0x254a2627EB0e2e3ded4CB2225AFb8815f05e04e9",
        "8000000000"
      ],
      "transaction": {
        "from": "0x2968871b9780b38ffcf2221653abb09ad1038552",
        "to": "0xb574eb2fd1101a75070cda9673a6db207581c467",
        "gas": "0x6288b",
        "value": "0x0",
        "input": "0xd563eb29000000000000000000000000e5f8c0bd7eda98f24f0b5002fa485d473fe7e7eb00000000000000000000000000000000000000000000000000000002540be400000000000000000000000000254a2627eb0e2e3ded4cb2225afb8815f05e04e900000000000000000000000000000000000000000000000000000001dcd65000",
        "nonce": "0x4",
        "chainId": "0x4cef52"
      },
      "additionalContracts": [],
      "isFixedGasLimit": false
    },
    {
      "hash": "0x309614a4c6ad58fa147ce9e8730f32f35cffcbd33b8eb30ba213b5452828f343",
      "transactionType": "CALL",
      "contractName": null,
      "contractAddress": "0xb574eb2fd1101a75070cda9673a6db207581c467",
      "function": "addCollateral(address,address,uint256)",
      "arguments": [
        "0xCDeA155469985F1E6910bbC53278Cb2008bff207",
        "0xe5F8C0bD7Eda98F24f0B5002Fa485D473FE7E7Eb",
        "1000000000000000000"
      ],
      "transaction": {
        "from": "0xe52c9aa4d90c9c1050228dc08e6c336da64251af",
        "to": "0xb574eb2fd1101a75070cda9673a6db207581c467",
        "gas": "0x134fe",
        "value": "0x0",
        "input": "0x59781034000000000000000000000000cdea155469985f1e6910bbc53278cb2008bff207000000000000000000000000e5f8c0bd7eda98f24f0b5002fa485d473fe7e7eb0000000000000000000000000000000000000000000000000de0b6b3a7640000",
        "nonce": "0x5",
        "chainId": "0x4cef52"
      },
      "additionalContracts": [],
      "isFixedGasLimit": false
    },
    {
      "hash": "0xc109fd9bacaf48c6f2b34a06c36694876836ab611caadd96b849c54a7af6d7ca",
      "transactionType": "CALL",
      "contractName": null,
      "contractAddress": "0xb574eb2fd1101a75070cda9673a6db207581c467",
      "function": "repay(address,address,address,uint256)",
      "arguments": [
        "0xE52C9AA4d90C9C1050228DC08E6c336da64251AF",
        "0xCDeA155469985F1E6910bbC53278Cb2008bff207",
        "0xe5F8C0bD7Eda98F24f0B5002Fa485D473FE7E7Eb",
        "1000000000"
      ],
      "transaction": {
        "from": "0xe52c9aa4d90c9c1050228dc08e6c336da64251af",
        "to": "0xb574eb2fd1101a75070cda9673a6db207581c467",
        "gas": "0x1abb4",
        "value": "0x0",
        "input": "0xc035bd21000000000000000000000000e52c9aa4d90c9c1050228dc08e6c336da64251af000000000000000000000000cdea155469985f1e6910bbc53278cb2008bff207000000000000000000000000e5f8c0bd7eda98f24f0b5002fa485d473fe7e7eb000000000000000000000000000000000000000000000000000000003b9aca00",
        "nonce": "0x6",
        "chainId": "0x4cef52"
      },
      "additionalContracts": [],
      "isFixedGasLimit": false
    },
    {
      "hash": "0xb1dfce251faff0a81cb85389a89b033a187699b383ff1d97ba7de460fc07f96c",
      "transactionType": "CALL",
      "contractName": null,
      "contractAddress": "0xb241a035fb7a8c46e1b8878d02bf666339a2005b",
      "function": "setPrice(address,uint256)",
      "arguments": [
        "0xCDeA155469985F1E6910bbC53278Cb2008bff207",
        "170000000000"
      ],
      "transaction": {
        "from": "0xca14e37c862465677caa064c20bdbb6673f6fe48",
        "to": "0xb241a035fb7a8c46e1b8878d02bf666339a2005b",
        "gas": "0x910e",
        "value": "0x0",
        "input": "0x00e4768b000000000000000000000000cdea155469985f1e6910bbc53278cb2008bff2070000000000000000000000000000000000000000000000000000002794ca2400",
        "nonce": "0x24",
        "chainId": "0x4cef52"
      },
      "additionalContracts": [],
      "isFixedGasLimit": false
    },
    {
      "hash": "0x8f688b1cea7a65e5b7e21a5bc83d1a75fb3533a36a5ca0e1fa2f1597d94cb84b",
      "transactionType": "CALL",
      "contractName": null,
      "contractAddress": "0xb574eb2fd1101a75070cda9673a6db207581c467",
      "function": "liquidate(address,address,address,uint256,uint256)",
      "arguments": [
        "0xE52C9AA4d90C9C1050228DC08E6c336da64251AF",
        "0xCDeA155469985F1E6910bbC53278Cb2008bff207",
        "0xe5F8C0bD7Eda98F24f0B5002Fa485D473FE7E7Eb",
        "9000000000",
        "0"
      ],
      "transaction": {
        "from": "0xca14e37c862465677caa064c20bdbb6673f6fe48",
        "to": "0xb574eb2fd1101a75070cda9673a6db207581c467",
        "gas": "0x317ec",
        "value": "0x0",
        "input": "0x6f70e66f000000000000000000000000e52c9aa4d90c9c1050228dc08e6c336da64251af000000000000000000000000cdea155469985f1e6910bbc53278cb2008bff207000000000000000000000000e5f8c0bd7eda98f24f0b5002fa485d473fe7e7eb0000000000000000000000000000000000000000000000000000000218711a000000000000000000000000000000000000000000000000000000000000000000",
        "nonce": "0x25",
        "chainId": "0x4cef52"
      },
      "additionalContracts": [],
      "isFixedGasLimit": false
    },
    {
      "hash": "0x509ba2aafad851bdc26beaafd154c153e70da1cece71adad73b6b1fb5651fd37",
      "transactionType": "CALL",
      "contractName": null,
      "contractAddress": "0xb241a035fb7a8c46e1b8878d02bf666339a2005b",
      "function": "setPrice(address,uint256)",
      "arguments": [
        "0xCDeA155469985F1E6910bbC53278Cb2008bff207",
        "300000000000"
      ],
      "transaction": {
        "from": "0xca14e37c862465677caa064c20bdbb6673f6fe48",
        "to": "0xb241a035fb7a8c46e1b8878d02bf666339a2005b",
        "gas": "0x910e",
        "value": "0x0",
        "input": "0x00e4768b000000000000000000000000cdea155469985f1e6910bbc53278cb2008bff20700000000000000000000000000000000000000000000000000000045d964b800",
        "nonce": "0x26",
        "chainId": "0x4cef52"
      },
      "additionalContracts": [],
      "isFixedGasLimit": false
    },
    {
      "hash": "0x81dac5d9cf78cff83ac737b87941bc6c39a1b2b0039e5d8c7a60e0725b1c58f8",
      "transactionType": "CALL",
      "contractName": null,
      "contractAddress": "0xb241a035fb7a8c46e1b8878d02bf666339a2005b",
      "function": "setPrice(address,uint256)",
      "arguments": [
        "0x254a2627EB0e2e3ded4CB2225AFb8815f05e04e9",
        "80000000"
      ],
      "transaction": {
        "from": "0xca14e37c862465677caa064c20bdbb6673f6fe48",
        "to": "0xb241a035fb7a8c46e1b8878d02bf666339a2005b",
        "gas": "0x9985",
        "value": "0x0",
        "input": "0x00e4768b000000000000000000000000254a2627eb0e2e3ded4cb2225afb8815f05e04e90000000000000000000000000000000000000000000000000000000004c4b400",
        "nonce": "0x27",
        "chainId": "0x4cef52"
      },
      "additionalContracts": [],
      "isFixedGasLimit": false
    },
    {
      "hash": "0xb6bf8c8c7aba6391bc042ca3e708c086fbe01300c196fc737b2e407822025116",
      "transactionType": "CALL",
      "contractName": null,
      "contractAddress": "0xb574eb2fd1101a75070cda9673a6db207581c467",
      "function": "liquidate(address,address,address,uint256,uint256)",
      "arguments": [
        "0xCBb3b40109E849a2cD1531258CE1797Fa9ECA7e7",
        "0x254a2627EB0e2e3ded4CB2225AFb8815f05e04e9",
        "0xe5F8C0bD7Eda98F24f0B5002Fa485D473FE7E7Eb",
        "115792089237316195423570985008687907853269984665640564039457584007913129639935",
        "0"
      ],
      "transaction": {
        "from": "0xca14e37c862465677caa064c20bdbb6673f6fe48",
        "to": "0xb574eb2fd1101a75070cda9673a6db207581c467",
        "gas": "0x2ce99",
        "value": "0x0",
        "input": "0x6f70e66f000000000000000000000000cbb3b40109e849a2cd1531258ce1797fa9eca7e7000000000000000000000000254a2627eb0e2e3ded4cb2225afb8815f05e04e9000000000000000000000000e5f8c0bd7eda98f24f0b5002fa485d473fe7e7ebffffffffffffffffffffffffffffffffffffffffffffffffffffffffffffffff0000000000000000000000000000000000000000000000000000000000000000",
        "nonce": "0x28",
        "chainId": "0x4cef52"
      },
      "additionalContracts": [],
      "isFixedGasLimit": false
    },
    {
      "hash": "0xcaf95629d859d52d595737b63a34ebc42a48feb2b27e55e72f6d867a385d5792",
      "transactionType": "CALL",
      "contractName": null,
      "contractAddress": "0xb241a035fb7a8c46e1b8878d02bf666339a2005b",
      "function": "setPrice(address,uint256)",
      "arguments": [
        "0x254a2627EB0e2e3ded4CB2225AFb8815f05e04e9",
        "108000000"
      ],
      "transaction": {
        "from": "0xca14e37c862465677caa064c20bdbb6673f6fe48",
        "to": "0xb241a035fb7a8c46e1b8878d02bf666339a2005b",
        "gas": "0x9985",
        "value": "0x0",
        "input": "0x00e4768b000000000000000000000000254a2627eb0e2e3ded4cb2225afb8815f05e04e900000000000000000000000000000000000000000000000000000000066ff300",
        "nonce": "0x29",
        "chainId": "0x4cef52"
      },
      "additionalContracts": [],
      "isFixedGasLimit": false
    }
  ],
  "receipts": [
    {
      "status": "0x1",
      "cumulativeGasUsed": "0x54bc5b",
      "logs": [
        {
          "address": "0xe5f8c0bd7eda98f24f0b5002fa485d473fe7e7eb",
          "topics": [
            "0xddf252ad1be2c89b69c2b068fc378daa952ba7f163c4a11628f55a4df523b3ef",
            "0x0000000000000000000000000000000000000000000000000000000000000000",
            "0x000000000000000000000000ca14e37c862465677caa064c20bdbb6673f6fe48"
          ],
          "data": "0x0000000000000000000000000000000000000000000000000000000ba43b7400",
          "blockHash": "0x098cf71fc695aa28349ffe690bf0f84ec0b21b75a245bf6c4f684761cb1278dd",
          "blockNumber": "0x2c64159",
          "blockTimestamp": "0x6a2a7a8d",
          "transactionHash": "0xfc14ff8d76959b3695d7bab1bc247a9e8471666bf2e9ab614921830598d53d60",
          "transactionIndex": "0x29",
          "logIndex": "0x6c",
          "removed": false
        }
      ],
      "logsBloom": "0x00000000000000000000000000000000000000000000040000000000000000000000000000000000000000000000000000000000000000000000000000000000000000000000000000000008000000000000000000000000100000000000000000000000020000000000000000000800000000000000000000000010000000000000000040000000000000000000000000000000000000000000000000000000000000000000000000000000000000000000000000000000000000000000000000400002000000000000000000000000000000000000000000000000000020000080000000000000000000000000000000000000000001000000000000000000",
      "type": "0x2",
      "transactionHash": "0xfc14ff8d76959b3695d7bab1bc247a9e8471666bf2e9ab614921830598d53d60",
      "transactionIndex": "0x29",
      "blockHash": "0x098cf71fc695aa28349ffe690bf0f84ec0b21b75a245bf6c4f684761cb1278dd",
      "blockNumber": "0x2c64159",
      "gasUsed": "0xc734",
      "effectiveGasPrice": "0x4a851361a",
      "from": "0xca14e37c862465677caa064c20bdbb6673f6fe48",
      "to": "0xe5f8c0bd7eda98f24f0b5002fa485d473fe7e7eb",
      "contractAddress": null
    },
    {
      "status": "0x1",
      "cumulativeGasUsed": "0x11baf9",
      "logs": [
        {
          "address": "0xe5f8c0bd7eda98f24f0b5002fa485d473fe7e7eb",
          "topics": [
            "0xddf252ad1be2c89b69c2b068fc378daa952ba7f163c4a11628f55a4df523b3ef",
            "0x0000000000000000000000000000000000000000000000000000000000000000",
            "0x000000000000000000000000cbb3b40109e849a2cd1531258ce1797fa9eca7e7"
          ],
          "data": "0x000000000000000000000000000000000000000000000000000000174876e800",
          "blockHash": "0x141308893278f25ae680863ee9e5200f8214f211f4d5d396ee151f8f5c8702d7",
          "blockNumber": "0x2c6415f",
          "blockTimestamp": "0x6a2a7a90",
          "transactionHash": "0x2790afec64c7fa0c31d230daf12e48d16b50060c639d7f69e0c733603cbf9dca",
          "transactionIndex": "0x6",
          "logIndex": "0x16",
          "removed": false
        }
      ],
      "logsBloom": "0x00000000000000000000000000000000020000000000000000000000000000000000000000000000000000000000000000000000000000000000000000000000000000000000000000000008000000000000000000000000100000000000000000000000020000000000000000000800000000000000000000000010000000000000000040000000000000000000000000000000000000000000000000000000000000000000000000000000000000000200000000000000000000000000000000400002000000000000000000000000002000000000000000000000000020000000000000000000000000000000000000000000000000000000000000000000",
      "type": "0x2",
      "transactionHash": "0x2790afec64c7fa0c31d230daf12e48d16b50060c639d7f69e0c733603cbf9dca",
      "transactionIndex": "0x6",
      "blockHash": "0x141308893278f25ae680863ee9e5200f8214f211f4d5d396ee151f8f5c8702d7",
      "blockNumber": "0x2c6415f",
      "gasUsed": "0xc734",
      "effectiveGasPrice": "0x4a851361a",
      "from": "0xca14e37c862465677caa064c20bdbb6673f6fe48",
      "to": "0xe5f8c0bd7eda98f24f0b5002fa485d473fe7e7eb",
      "contractAddress": null
    },
    {
      "status": "0x1",
      "cumulativeGasUsed": "0x189715",
      "logs": [
        {
          "address": "0xe5f8c0bd7eda98f24f0b5002fa485d473fe7e7eb",
          "topics": [
            "0xddf252ad1be2c89b69c2b068fc378daa952ba7f163c4a11628f55a4df523b3ef",
            "0x0000000000000000000000000000000000000000000000000000000000000000",
            "0x000000000000000000000000e52c9aa4d90c9c1050228dc08e6c336da64251af"
          ],
          "data": "0x000000000000000000000000000000000000000000000000000000174876e800",
          "blockHash": "0xd1a982dce650020b8d280a55e12b845a5a456955c7ce6d152106b71fc5f98e91",
          "blockNumber": "0x2c64164",
          "blockTimestamp": "0x6a2a7a93",
          "transactionHash": "0xefaa423b70eee32b0b7ede8d9087e573f24609baddf501acbb81a012ad4b380e",
          "transactionIndex": "0xd",
          "logIndex": "0x2a",
          "removed": false
        }
      ],
      "logsBloom": "0x00000000000000000000000000000000000000000000000000000000000000000000000000000000000000000000000000000000000000000000000000000000000100000000000000000008000000000000000000000000100000000000000000000000020000000000000000000800000000000000000000000010000000000000000040000000000000000000000000000000000000000000000000000000000000000000000000000000000000000000000000000000000000000000000000400002000000000000000000000000000000000000000000000000000020000000000000000000000000000000000000000000000000000000000110000000",
      "type": "0x2",
      "transactionHash": "0xefaa423b70eee32b0b7ede8d9087e573f24609baddf501acbb81a012ad4b380e",
      "transactionIndex": "0xd",
      "blockHash": "0xd1a982dce650020b8d280a55e12b845a5a456955c7ce6d152106b71fc5f98e91",
      "blockNumber": "0x2c64164",
      "gasUsed": "0xc734",
      "effectiveGasPrice": "0x4a851361a",
      "from": "0xca14e37c862465677caa064c20bdbb6673f6fe48",
      "to": "0xe5f8c0bd7eda98f24f0b5002fa485d473fe7e7eb",
      "contractAddress": null
    },
    {
      "status": "0x1",
      "cumulativeGasUsed": "0x58fd51",
      "logs": [
        {
          "address": "0xe5f8c0bd7eda98f24f0b5002fa485d473fe7e7eb",
          "topics": [
            "0xddf252ad1be2c89b69c2b068fc378daa952ba7f163c4a11628f55a4df523b3ef",
            "0x0000000000000000000000000000000000000000000000000000000000000000",
            "0x0000000000000000000000002968871b9780b38ffcf2221653abb09ad1038552"
          ],
          "data": "0x0000000000000000000000000000000000000000000000000000000ba43b7400",
          "blockHash": "0x208e3260be6649bdf320bbfe69f79acef49c0f803c9028fbe719b27548d730fc",
          "blockNumber": "0x2c64169",
          "blockTimestamp": "0x6a2a7a95",
          "transactionHash": "0x5fc0963f0dbab7fff6b7389ee195080d26a29278608cc7f97961b935afe707f7",
          "transactionIndex": "0x30",
          "logIndex": "0x95",
          "removed": false
        }
      ],
      "logsBloom": "0x00000000000000000000000000000000000000000000000000000000000000000000000000000000000000000000000000000000000000000000000000000000000000000000000000000008000000000000000000000000100000000000000000000000020000000000000000000800004000000000000000000010000000000000000040000000000000000000000000000000000000000000000000000000000000000000000000000000000000000000000000000000000000000000000000400002000000000000000000000000000000000000000000000000000020000000000000000000000800000000000000000000000000000000000000000000",
      "type": "0x2",
      "transactionHash": "0x5fc0963f0dbab7fff6b7389ee195080d26a29278608cc7f97961b935afe707f7",
      "transactionIndex": "0x30",
      "blockHash": "0x208e3260be6649bdf320bbfe69f79acef49c0f803c9028fbe719b27548d730fc",
      "blockNumber": "0x2c64169",
      "gasUsed": "0xc734",
      "effectiveGasPrice": "0x4a851361a",
      "from": "0xca14e37c862465677caa064c20bdbb6673f6fe48",
      "to": "0xe5f8c0bd7eda98f24f0b5002fa485d473fe7e7eb",
      "contractAddress": null
    },
    {
      "status": "0x1",
      "cumulativeGasUsed": "0x37cab4",
      "logs": [
        {
          "address": "0x254a2627eb0e2e3ded4cb2225afb8815f05e04e9",
          "topics": [
            "0xddf252ad1be2c89b69c2b068fc378daa952ba7f163c4a11628f55a4df523b3ef",
            "0x0000000000000000000000000000000000000000000000000000000000000000",
            "0x000000000000000000000000ca14e37c862465677caa064c20bdbb6673f6fe48"
          ],
          "data": "0x00000000000000000000000000000000000000000000000000000004a817c800",
          "blockHash": "0x803a487b62d9f636c1275c043a8de73fcf030c89ee703ada7dea26f5883cdc29",
          "blockNumber": "0x2c6416f",
          "blockTimestamp": "0x6a2a7a99",
          "transactionHash": "0x29b8699174f14541d3f72db846f5e7c89bdec8d1660b658a2f87507ca55721d8",
          "transactionIndex": "0x1e",
          "logIndex": "0x43",
          "removed": false
        }
      ],
      "logsBloom": "0x00000000000000000000000000000000000000000000040000000000000000000000000000000000000000000000000000200000000000000000000000000000000000000000000000000008000000000000000000000000000000000000000000000000020000000000000000000800000020000000000000000010000000000000000000000000000000000000000000000000000000000000000000000000000000000000000000000000000000000000000000000000000000000000000000000002000000000000000000000000000000000000000000000800000020000080000000000000000000000000000000000000000001000000000000000000",
      "type": "0x2",
      "transactionHash": "0x29b8699174f14541d3f72db846f5e7c89bdec8d1660b658a2f87507ca55721d8",
      "transactionIndex": "0x1e",
      "blockHash": "0x803a487b62d9f636c1275c043a8de73fcf030c89ee703ada7dea26f5883cdc29",
      "blockNumber": "0x2c6416f",
      "gasUsed": "0xc734",
      "effectiveGasPrice": "0x4a851361a",
      "from": "0xca14e37c862465677caa064c20bdbb6673f6fe48",
      "to": "0x254a2627eb0e2e3ded4cb2225afb8815f05e04e9",
      "contractAddress": null
    },
    {
      "status": "0x1",
      "cumulativeGasUsed": "0xbf748",
      "logs": [
        {
          "address": "0x254a2627eb0e2e3ded4cb2225afb8815f05e04e9",
          "topics": [
            "0xddf252ad1be2c89b69c2b068fc378daa952ba7f163c4a11628f55a4df523b3ef",
            "0x0000000000000000000000000000000000000000000000000000000000000000",
            "0x000000000000000000000000cbb3b40109e849a2cd1531258ce1797fa9eca7e7"
          ],
          "data": "0x0000000000000000000000000000000000000000000000000000000ba43b7400",
          "blockHash": "0xb695f1ff5dde2c005fb57ce3d1b883df9c53676e2b6e41f01922db0c0b56b775",
          "blockNumber": "0x2c64175",
          "blockTimestamp": "0x6a2a7a9c",
          "transactionHash": "0xfb59c6ec5b140f16b9ce04769d9bb83e6b471fd2c2467942f09d9d28d682fd13",
          "transactionIndex": "0x7",
          "logIndex": "0x1a",
          "removed": false
        }
      ],
      "logsBloom": "0x00000000000000000000000000000000020000000000000000000000000000000000000000000000000000000000000000200000000000000000000000000000000000000000000000000008000000000000000000000000000000000000000000000000020000000000000000000800000020000000000000000010000000000000000000000000000000000000000000000000000000000000000000000000000000000000000000000000000000000200000000000000000000000000000000000002000000000000000000000000002000000000000000000800000020000000000000000000000000000000000000000000000000000000000000000000",
      "type": "0x2",
      "transactionHash": "0xfb59c6ec5b140f16b9ce04769d9bb83e6b471fd2c2467942f09d9d28d682fd13",
      "transactionIndex": "0x7",
      "blockHash": "0xb695f1ff5dde2c005fb57ce3d1b883df9c53676e2b6e41f01922db0c0b56b775",
      "blockNumber": "0x2c64175",
      "gasUsed": "0xc734",
      "effectiveGasPrice": "0x4a851361a",
      "from": "0xca14e37c862465677caa064c20bdbb6673f6fe48",
      "to": "0x254a2627eb0e2e3ded4cb2225afb8815f05e04e9",
      "contractAddress": null
    },
    {
      "status": "0x1",
      "cumulativeGasUsed": "0x241a8b",
      "logs": [
        {
          "address": "0x254a2627eb0e2e3ded4cb2225afb8815f05e04e9",
          "topics": [
            "0xddf252ad1be2c89b69c2b068fc378daa952ba7f163c4a11628f55a4df523b3ef",
            "0x0000000000000000000000000000000000000000000000000000000000000000",
            "0x000000000000000000000000e52c9aa4d90c9c1050228dc08e6c336da64251af"
          ],
          "data": "0x0000000000000000000000000000000000000000000000000000000ba43b7400",
          "blockHash": "0x8890b71fb8e658b7bc051e63d8a5bd228f49480e98e347d8fdd16864af1b4c05",
          "blockNumber": "0x2c64178",
          "blockTimestamp": "0x6a2a7a9d",
          "transactionHash": "0xb2f7b08ad101b1f86250f319cf6624b3d93f66af9f92b3cff9c589598fdd79e9",
          "transactionIndex": "0xd",
          "logIndex": "0x25",
          "removed": false
        }
      ],
      "logsBloom": "0x00000000000000000000000000000000000000000000000000000000000000000000000000000000000000000000000000200000000000000000000000000000000100000000000000000008000000000000000000000000000000000000000000000000020000000000000000000800000020000000000000000010000000000000000000000000000000000000000000000000000000000000000000000000000000000000000000000000000000000000000000000000000000000000000000000002000000000000000000000000000000000000000000000800000020000000000000000000000000000000000000000000000000000000000110000000",
      "type": "0x2",
      "transactionHash": "0xb2f7b08ad101b1f86250f319cf6624b3d93f66af9f92b3cff9c589598fdd79e9",
      "transactionIndex": "0xd",
      "blockHash": "0x8890b71fb8e658b7bc051e63d8a5bd228f49480e98e347d8fdd16864af1b4c05",
      "blockNumber": "0x2c64178",
      "gasUsed": "0xc734",
      "effectiveGasPrice": "0x4a851361a",
      "from": "0xca14e37c862465677caa064c20bdbb6673f6fe48",
      "to": "0x254a2627eb0e2e3ded4cb2225afb8815f05e04e9",
      "contractAddress": null
    },
    {
      "status": "0x1",
      "cumulativeGasUsed": "0x142ee2",
      "logs": [
        {
          "address": "0x254a2627eb0e2e3ded4cb2225afb8815f05e04e9",
          "topics": [
            "0xddf252ad1be2c89b69c2b068fc378daa952ba7f163c4a11628f55a4df523b3ef",
            "0x0000000000000000000000000000000000000000000000000000000000000000",
            "0x0000000000000000000000002968871b9780b38ffcf2221653abb09ad1038552"
          ],
          "data": "0x00000000000000000000000000000000000000000000000000000002540be400",
          "blockHash": "0xffd335f89199fe268318f7939e5c958c4008e53fb59e8f6fd499a52dc097c8b0",
          "blockNumber": "0x2c6417c",
          "blockTimestamp": "0x6a2a7a9f",
          "transactionHash": "0x9053f0652731935e57e060c25d7f1601e653ec4357a041adb92c556a73feda79",
          "transactionIndex": "0xb",
          "logIndex": "0x18",
          "removed": false
        }
      ],
      "logsBloom": "0x00000000000000000000000000000000000000000000000000000000000000000000000000000000000000000000000000200000000000000000000000000000000000000000000000000008000000000000000000000000000000000000000000000000020000000000000000000800004020000000000000000010000000000000000000000000000000000000000000000000000000000000000000000000000000000000000000000000000000000000000000000000000000000000000000000002000000000000000000000000000000000000000000000800000020000000000000000000000800000000000000000000000000000000000000000000",
      "type": "0x2",
      "transactionHash": "0x9053f0652731935e57e060c25d7f1601e653ec4357a041adb92c556a73feda79",
      "transactionIndex": "0xb",
      "blockHash": "0xffd335f89199fe268318f7939e5c958c4008e53fb59e8f6fd499a52dc097c8b0",
      "blockNumber": "0x2c6417c",
      "gasUsed": "0xc734",
      "effectiveGasPrice": "0x4a851361a",
      "from": "0xca14e37c862465677caa064c20bdbb6673f6fe48",
      "to": "0x254a2627eb0e2e3ded4cb2225afb8815f05e04e9",
      "contractAddress": null
    },
    {
      "status": "0x1",
      "cumulativeGasUsed": "0x2a350f",
      "logs": [
        {
          "address": "0xcdea155469985f1e6910bbc53278cb2008bff207",
          "topics": [
            "0xddf252ad1be2c89b69c2b068fc378daa952ba7f163c4a11628f55a4df523b3ef",
            "0x0000000000000000000000000000000000000000000000000000000000000000",
            "0x000000000000000000000000cbb3b40109e849a2cd1531258ce1797fa9eca7e7"
          ],
          "data": "0x0000000000000000000000000000000000000000000000008ac7230489e80000",
          "blockHash": "0xeff0560aa603068ffb386beca3fe68cd5463f243ab37403aa6f0558a3c8a7593",
          "blockNumber": "0x2c6417e",
          "blockTimestamp": "0x6a2a7aa0",
          "transactionHash": "0x54ce045d95eb70df248b5f1522f2c297c103a033319b9a8b13a491f026e5bc1e",
          "transactionIndex": "0x13",
          "logIndex": "0x31",
          "removed": false
        }
      ],
      "logsBloom": "0x00000000000000000000000000000000020000000000000000000000000000000000000000000000000000000000000000000000000000000000000000000000000000000000000000000008000000000000000000000000000000000000000000000040020000000000000000000800000000000000000000000010000000000000000000000004000000000000000000000000000000000000000000000000000000000000000000000000000000000200000000000000000000000000000000000002000000000008000000000000002000000000000000000000000020000000000000000000000000000000000000000000000000000000000000000000",
      "type": "0x2",
      "transactionHash": "0x54ce045d95eb70df248b5f1522f2c297c103a033319b9a8b13a491f026e5bc1e",
      "transactionIndex": "0x13",
      "blockHash": "0xeff0560aa603068ffb386beca3fe68cd5463f243ab37403aa6f0558a3c8a7593",
      "blockNumber": "0x2c6417e",
      "gasUsed": "0xc74c",
      "effectiveGasPrice": "0x4a851361a",
      "from": "0xca14e37c862465677caa064c20bdbb6673f6fe48",
      "to": "0xcdea155469985f1e6910bbc53278cb2008bff207",
      "contractAddress": null
    },
    {
      "status": "0x1",
      "cumulativeGasUsed": "0x195295",
      "logs": [
        {
          "address": "0xcdea155469985f1e6910bbc53278cb2008bff207",
          "topics": [
            "0xddf252ad1be2c89b69c2b068fc378daa952ba7f163c4a11628f55a4df523b3ef",
            "0x0000000000000000000000000000000000000000000000000000000000000000",
            "0x000000000000000000000000e52c9aa4d90c9c1050228dc08e6c336da64251af"
          ],
          "data": "0x00000000000000000000000000000000000000000000000053444835ec580000",
          "blockHash": "0xcd46e965208216ea68fe6dded90efaca48c2a8f3344e38a82b76d0fb69e98c86",
          "blockNumber": "0x2c64180",
          "blockTimestamp": "0x6a2a7aa2",
          "transactionHash": "0xf99ea3b282906025c66af6bd50c8d279ae2be9a59b065814d2922d44852543ea",
          "transactionIndex": "0x10",
          "logIndex": "0x2e",
          "removed": false
        }
      ],
      "logsBloom": "0x00000000000000000000000000000000000000000000000000000000000000000000000000000000000000000000000000000000000000000000000000000000000100000000000000000008000000000000000000000000000000000000000000000040020000000000000000000800000000000000000000000010000000000000000000000004000000000000000000000000000000000000000000000000000000000000000000000000000000000000000000000000000000000000000000000002000000000008000000000000000000000000000000000000000020000000000000000000000000000000000000000000000000000000000110000000",
      "type": "0x2",
      "transactionHash": "0xf99ea3b282906025c66af6bd50c8d279ae2be9a59b065814d2922d44852543ea",
      "transactionIndex": "0x10",
      "blockHash": "0xcd46e965208216ea68fe6dded90efaca48c2a8f3344e38a82b76d0fb69e98c86",
      "blockNumber": "0x2c64180",
      "gasUsed": "0xc74c",
      "effectiveGasPrice": "0x4a851361a",
      "from": "0xca14e37c862465677caa064c20bdbb6673f6fe48",
      "to": "0xcdea155469985f1e6910bbc53278cb2008bff207",
      "contractAddress": null
    },
    {
      "status": "0x1",
      "cumulativeGasUsed": "0x27c662",
      "logs": [
        {
          "address": "0xcdea155469985f1e6910bbc53278cb2008bff207",
          "topics": [
            "0xddf252ad1be2c89b69c2b068fc378daa952ba7f163c4a11628f55a4df523b3ef",
            "0x0000000000000000000000000000000000000000000000000000000000000000",
            "0x0000000000000000000000002968871b9780b38ffcf2221653abb09ad1038552"
          ],
          "data": "0x000000000000000000000000000000000000000000000001158e460913d00000",
          "blockHash": "0x3ba77952f0a2e80bc931c00deb469e65659adb836b579c9c1001daefd9d9ec2f",
          "blockNumber": "0x2c64185",
          "blockTimestamp": "0x6a2a7aa4",
          "transactionHash": "0x351142a65450cdd8e9e174be27836023b33b338ed8edb83585f166b02854da5e",
          "transactionIndex": "0x19",
          "logIndex": "0x28",
          "removed": false
        }
      ],
      "logsBloom": "0x00000000000000000000000000000000000000000000000000000000000000000000000000000000000000000000000000000000000000000000000000000000000000000000000000000008000000000000000000000000000000000000000000000040020000000000000000000800004000000000000000000010000000000000000000000004000000000000000000000000000000000000000000000000000000000000000000000000000000000000000000000000000000000000000000000002000000000008000000000000000000000000000000000000000020000000000000000000000800000000000000000000000000000000000000000000",
      "type": "0x2",
      "transactionHash": "0x351142a65450cdd8e9e174be27836023b33b338ed8edb83585f166b02854da5e",
      "transactionIndex": "0x19",
      "blockHash": "0x3ba77952f0a2e80bc931c00deb469e65659adb836b579c9c1001daefd9d9ec2f",
      "blockNumber": "0x2c64185",
      "gasUsed": "0xc758",
      "effectiveGasPrice": "0x4a851361a",
      "from": "0xca14e37c862465677caa064c20bdbb6673f6fe48",
      "to": "0xcdea155469985f1e6910bbc53278cb2008bff207",
      "contractAddress": null
    },
    {
      "status": "0x1",
      "cumulativeGasUsed": "0x258dd6",
      "logs": [
        {
          "address": "0xe5f8c0bd7eda98f24f0b5002fa485d473fe7e7eb",
          "topics": [
            "0x8c5be1e5ebec7d5bd14f71427d1e84f3dd0314c0f7b2291e5b200ac8c7c3b925",
            "0x000000000000000000000000ca14e37c862465677caa064c20bdbb6673f6fe48",
            "0x000000000000000000000000b574eb2fd1101a75070cda9673a6db207581c467"
          ],
          "data": "0xffffffffffffffffffffffffffffffffffffffffffffffffffffffffffffffff",
          "blockHash": "0xe8fdbdd7c7cfa4ad68567aec7f371cd8f2f090aa589b2fd13e9ccfb4ef54a236",
          "blockNumber": "0x2c64188",
          "blockTimestamp": "0x6a2a7aa6",
          "transactionHash": "0xd8b7a600c2934d90634fc051cd67af827ee579479d304b5c820eea918f03f372",
          "transactionIndex": "0xe",
          "logIndex": "0x34",
          "removed": false
        }
      ],
      "logsBloom": "0x00000000000000000000000000000000000000000000040000000000000000000000000000000000000000000000000000000000000000000000000000200000000000000000000000000000000400000000000000000000100000000000000000000000000000000000000000010000000000000000000000000000000000000000000040000000000000000000000000000000000000000000000000000000021000000000000000000000000000000000000000000000000000000000000000400000000000000000000000000000000000000000000000000000000000000090000000000000000000000000000000000000000001000000000000000000",
      "type": "0x2",
      "transactionHash": "0xd8b7a600c2934d90634fc051cd67af827ee579479d304b5c820eea918f03f372",
      "transactionIndex": "0xe",
      "blockHash": "0xe8fdbdd7c7cfa4ad68567aec7f371cd8f2f090aa589b2fd13e9ccfb4ef54a236",
      "blockNumber": "0x2c64188",
      "gasUsed": "0x670f",
      "effectiveGasPrice": "0x4a851361a",
      "from": "0xca14e37c862465677caa064c20bdbb6673f6fe48",
      "to": "0xe5f8c0bd7eda98f24f0b5002fa485d473fe7e7eb",
      "contractAddress": null
    },
    {
      "status": "0x1",
      "cumulativeGasUsed": "0x3d8634",
      "logs": [
        {
          "address": "0x254a2627eb0e2e3ded4cb2225afb8815f05e04e9",
          "topics": [
            "0x8c5be1e5ebec7d5bd14f71427d1e84f3dd0314c0f7b2291e5b200ac8c7c3b925",
            "0x000000000000000000000000ca14e37c862465677caa064c20bdbb6673f6fe48",
            "0x000000000000000000000000b574eb2fd1101a75070cda9673a6db207581c467"
          ],
          "data": "0xffffffffffffffffffffffffffffffffffffffffffffffffffffffffffffffff",
          "blockHash": "0xc93ffbb91a319e108e71cea4af39cc8d688cf58544ba1c72480785bd8d2d9be4",
          "blockNumber": "0x2c6418b",
          "blockTimestamp": "0x6a2a7aa7",
          "transactionHash": "0xd41ba5d2e05fd9e4fe61c321dc6762f7d21f3d9e50cf7bd52fe18ce4f37fd943",
          "transactionIndex": "0x24",
          "logIndex": "0x9a",
          "removed": false
        }
      ],
      "logsBloom": "0x00000000000000000000000000000000000000000000040000000000000000000000000000000000000000000000000000200000000000000000000000200000000000000000000000000000000400000000000000000000000000000000000000000000000000000000000000010000000020000000000000000000000000000000000000000000000000000000000000000000000000000000000000000000021000000000000000000000000000000000000000000000000000000000000000000000000000000000000000000000000000000000000000000800000000000090000000000000000000000000000000000000000001000000000000000000",
      "type": "0x2",
      "transactionHash": "0xd41ba5d2e05fd9e4fe61c321dc6762f7d21f3d9e50cf7bd52fe18ce4f37fd943",
      "transactionIndex": "0x24",
      "blockHash": "0xc93ffbb91a319e108e71cea4af39cc8d688cf58544ba1c72480785bd8d2d9be4",
      "blockNumber": "0x2c6418b",
      "gasUsed": "0x670f",
      "effectiveGasPrice": "0x4a851361a",
      "from": "0xca14e37c862465677caa064c20bdbb6673f6fe48",
      "to": "0x254a2627eb0e2e3ded4cb2225afb8815f05e04e9",
      "contractAddress": null
    },
    {
      "status": "0x1",
      "cumulativeGasUsed": "0x718995",
      "logs": [
        {
          "address": "0xcdea155469985f1e6910bbc53278cb2008bff207",
          "topics": [
            "0x8c5be1e5ebec7d5bd14f71427d1e84f3dd0314c0f7b2291e5b200ac8c7c3b925",
            "0x000000000000000000000000cbb3b40109e849a2cd1531258ce1797fa9eca7e7",
            "0x000000000000000000000000b574eb2fd1101a75070cda9673a6db207581c467"
          ],
          "data": "0xffffffffffffffffffffffffffffffffffffffffffffffffffffffffffffffff",
          "blockHash": "0x67a42e51b91683f1247a518e7eccf1118a56e02b0827d14e049fb04b6fcc2297",
          "blockNumber": "0x2c64191",
          "blockTimestamp": "0x6a2a7aab",
          "transactionHash": "0x48abfecf0a8109764af9787620b58aa25a8837a7ed58075b59df14f6d8cb38fd",
          "transactionIndex": "0x16",
          "logIndex": "0x3e",
          "removed": false
        }
      ],
      "logsBloom": "0x00000000000000000000000000000000020000000000000000000000000000000000000000000000000000000000000000000000000000000000000000200000000000000000000000000000000400000000000000000000000000000000000000000040000000000000000000010000000000000000000000000000000000000000000000000004000000000000000000000000000000000000000000000000021000000000000000000000000000000200000000000000000000000000000000000000000000000008000000000000002000000000000000000000000000000010000000000000000000000000000000000000000000000000000000000000",
      "type": "0x2",
      "transactionHash": "0x48abfecf0a8109764af9787620b58aa25a8837a7ed58075b59df14f6d8cb38fd",
      "transactionIndex": "0x16",
      "blockHash": "0x67a42e51b91683f1247a518e7eccf1118a56e02b0827d14e049fb04b6fcc2297",
      "blockNumber": "0x2c64191",
      "gasUsed": "0xb4cb",
      "effectiveGasPrice": "0x4a851361a",
      "from": "0xcbb3b40109e849a2cd1531258ce1797fa9eca7e7",
      "to": "0xcdea155469985f1e6910bbc53278cb2008bff207",
      "contractAddress": null
    },
    {
      "status": "0x1",
      "cumulativeGasUsed": "0xf9c6a",
      "logs": [
        {
          "address": "0x254a2627eb0e2e3ded4cb2225afb8815f05e04e9",
          "topics": [
            "0x8c5be1e5ebec7d5bd14f71427d1e84f3dd0314c0f7b2291e5b200ac8c7c3b925",
            "0x000000000000000000000000cbb3b40109e849a2cd1531258ce1797fa9eca7e7",
            "0x000000000000000000000000b574eb2fd1101a75070cda9673a6db207581c467"
          ],
          "data": "0xffffffffffffffffffffffffffffffffffffffffffffffffffffffffffffffff",
          "blockHash": "0x4fdbce451db8f9c28d41b77a6b9feddeba98917295547acc1cea228412716759",
          "blockNumber": "0x2c64195",
          "blockTimestamp": "0x6a2a7aac",
          "transactionHash": "0x4bc023f9a9d4c4300d6a715a9e35fdfdf4cdbbcaf3e3da3014bcbef4c78d92db",
          "transactionIndex": "0xa",
          "logIndex": "0x1a",
          "removed": false
        }
      ],
      "logsBloom": "0x00000000000000000000000000000000020000000000000000000000000000000000000000000000000000000000000000200000000000000000000000200000000000000000000000000000000400000000000000000000000000000000000000000000000000000000000000010000000020000000000000000000000000000000000000000000000000000000000000000000000000000000000000000000021000000000000000000000000000000200000000000000000000000000000000000000000000000000000000000000002000000000000000000800000000000010000000000000000000000000000000000000000000000000000000000000",
      "type": "0x2",
      "transactionHash": "0x4bc023f9a9d4c4300d6a715a9e35fdfdf4cdbbcaf3e3da3014bcbef4c78d92db",
      "transactionIndex": "0xa",
      "blockHash": "0x4fdbce451db8f9c28d41b77a6b9feddeba98917295547acc1cea228412716759",
      "blockNumber": "0x2c64195",
      "gasUsed": "0xb4cb",
      "effectiveGasPrice": "0x4a851361a",
      "from": "0xcbb3b40109e849a2cd1531258ce1797fa9eca7e7",
      "to": "0x254a2627eb0e2e3ded4cb2225afb8815f05e04e9",
      "contractAddress": null
    },
    {
      "status": "0x1",
      "cumulativeGasUsed": "0x131512",
      "logs": [
        {
          "address": "0xe5f8c0bd7eda98f24f0b5002fa485d473fe7e7eb",
          "topics": [
            "0x8c5be1e5ebec7d5bd14f71427d1e84f3dd0314c0f7b2291e5b200ac8c7c3b925",
            "0x000000000000000000000000cbb3b40109e849a2cd1531258ce1797fa9eca7e7",
            "0x000000000000000000000000b574eb2fd1101a75070cda9673a6db207581c467"
          ],
          "data": "0xffffffffffffffffffffffffffffffffffffffffffffffffffffffffffffffff",
          "blockHash": "0x04a621abde6a632bb9d792a1f8865ebf468b073dc4b3d79bb920d46a9b934034",
          "blockNumber": "0x2c6419a",
          "blockTimestamp": "0x6a2a7aaf",
          "transactionHash": "0x5d08d3aadb7a0330edcb63054dc5709857a3e39e8ed0a305897e51b38f610085",
          "transactionIndex": "0xc",
          "logIndex": "0x29",
          "removed": false
        }
      ],
      "logsBloom": "0x00000000000000000000000000000000020000000000000000000000000000000000000000000000000000000000000000000000000000000000000000200000000000000000000000000000000400000000000000000000100000000000000000000000000000000000000000010000000000000000000000000000000000000000000040000000000000000000000000000000000000000000000000000000021000000000000000000000000000000200000000000000000000000000000000400000000000000000000000000000002000000000000000000000000000000010000000000000000000000000000000000000000000000000000000000000",
      "type": "0x2",
      "transactionHash": "0x5d08d3aadb7a0330edcb63054dc5709857a3e39e8ed0a305897e51b38f610085",
      "transactionIndex": "0xc",
      "blockHash": "0x04a621abde6a632bb9d792a1f8865ebf468b073dc4b3d79bb920d46a9b934034",
      "blockNumber": "0x2c6419a",
      "gasUsed": "0xb4cb",
      "effectiveGasPrice": "0x4a851361a",
      "from": "0xcbb3b40109e849a2cd1531258ce1797fa9eca7e7",
      "to": "0xe5f8c0bd7eda98f24f0b5002fa485d473fe7e7eb",
      "contractAddress": null
    },
    {
      "status": "0x1",
      "cumulativeGasUsed": "0x41364c",
      "logs": [
        {
          "address": "0xb574eb2fd1101a75070cda9673a6db207581c467",
          "topics": [
            "0x51eedbe668e048aec37e4dc0104031dbf295c9f3b35bfd9cb73a217b6ff81259",
            "0x000000000000000000000000cdea155469985f1e6910bbc53278cb2008bff207"
          ],
          "data": "0x0000000000000000000000000000000000000000033b2e3c9fd0803ce80000000000000000000000000000000000000000000000033b2e3c9fd0803ce80000000000000000000000000000000000000000000000000000000000000000000000",
          "blockHash": "0x73e908607afa086b543e33b3d5b6a608589b8d8ee2d9a799d37692eb933de8be",
          "blockNumber": "0x2c6419d",
          "blockTimestamp": "0x6a2a7ab2",
          "transactionHash": "0x6b760d8d279f026f4145ebf268c9f329b38da2769fa6eb9109d62472991f46ff",
          "transactionIndex": "0x1b",
          "logIndex": "0x64",
          "removed": false
        },
        {
          "address": "0xcdea155469985f1e6910bbc53278cb2008bff207",
          "topics": [
            "0xddf252ad1be2c89b69c2b068fc378daa952ba7f163c4a11628f55a4df523b3ef",
            "0x000000000000000000000000cbb3b40109e849a2cd1531258ce1797fa9eca7e7",
            "0x000000000000000000000000b574eb2fd1101a75070cda9673a6db207581c467"
          ],
          "data": "0x0000000000000000000000000000000000000000000000008ac7230489e80000",
          "blockHash": "0x73e908607afa086b543e33b3d5b6a608589b8d8ee2d9a799d37692eb933de8be",
          "blockNumber": "0x2c6419d",
          "blockTimestamp": "0x6a2a7ab2",
          "transactionHash": "0x6b760d8d279f026f4145ebf268c9f329b38da2769fa6eb9109d62472991f46ff",
          "transactionIndex": "0x1b",
          "logIndex": "0x65",
          "removed": false
        },
        {
          "address": "0xb574eb2fd1101a75070cda9673a6db207581c467",
          "topics": [
            "0xf5681f9d0db1b911ac18ee83d515a1cf1051853a9eae418316a2fdf7dea427c5",
            "0x000000000000000000000000cdea155469985f1e6910bbc53278cb2008bff207",
            "0x000000000000000000000000cbb3b40109e849a2cd1531258ce1797fa9eca7e7"
          ],
          "data": "0x0000000000000000000000000000000000000000000000008ac7230489e800000000000000000000000000000000000000000000000000008ac7230489e80000",
          "blockHash": "0x73e908607afa086b543e33b3d5b6a608589b8d8ee2d9a799d37692eb933de8be",
          "blockNumber": "0x2c6419d",
          "blockTimestamp": "0x6a2a7ab2",
          "transactionHash": "0x6b760d8d279f026f4145ebf268c9f329b38da2769fa6eb9109d62472991f46ff",
          "transactionIndex": "0x1b",
          "logIndex": "0x66",
          "removed": false
        }
      ],
      "logsBloom": "0x00040000000000000000000000000000020000000000001000000000000000000000100000000000000000000000000080000000000000000000000000000000000000800000000000000008000400000000000000000000000000000000000000000040000008000000000000010000000000000000100000000010000000000000000000000014000000000000000000000000000000000000000000000000001000000000000000000000000000000a00000000000000000000000000008080000002000000000008000000000010002000000000000000000000000000000000000000000000000000000000000000000000000000000000000000000000",
      "type": "0x2",
      "transactionHash": "0x6b760d8d279f026f4145ebf268c9f329b38da2769fa6eb9109d62472991f46ff",
      "transactionIndex": "0x1b",
      "blockHash": "0x73e908607afa086b543e33b3d5b6a608589b8d8ee2d9a799d37692eb933de8be",
      "blockNumber": "0x2c6419d",
      "gasUsed": "0x169b7",
      "effectiveGasPrice": "0x4a851361a",
      "from": "0xcbb3b40109e849a2cd1531258ce1797fa9eca7e7",
      "to": "0xb574eb2fd1101a75070cda9673a6db207581c467",
      "contractAddress": null
    },
    {
      "status": "0x1",
      "cumulativeGasUsed": "0x20830b",
      "logs": [
        {
          "address": "0xb574eb2fd1101a75070cda9673a6db207581c467",
          "topics": [
            "0x51eedbe668e048aec37e4dc0104031dbf295c9f3b35bfd9cb73a217b6ff81259",
            "0x000000000000000000000000e5f8c0bd7eda98f24f0b5002fa485d473fe7e7eb"
          ],
          "data": "0x0000000000000000000000000000000000000000033b2e3c9fd0803ce80000000000000000000000000000000000000000000000033b2e3c9fd0803ce800000000000000000000000000000000000000000000000008a4dfa29777199f400000",
          "blockHash": "0x42b0e003af1a8916bdb38b3af4d18f0dce053c08ba901ba6d7868410fcc46daf",
          "blockNumber": "0x2c641a2",
          "blockTimestamp": "0x6a2a7ab5",
          "transactionHash": "0x738545dd0cb6bfede35c7c8c34d250d77d7403830bc0a81cc51c123a1dd7ebc2",
          "transactionIndex": "0x13",
          "logIndex": "0x29",
          "removed": false
        },
        {
          "address": "0x254a2627eb0e2e3ded4cb2225afb8815f05e04e9",
          "topics": [
            "0xddf252ad1be2c89b69c2b068fc378daa952ba7f163c4a11628f55a4df523b3ef",
            "0x000000000000000000000000cbb3b40109e849a2cd1531258ce1797fa9eca7e7",
            "0x000000000000000000000000b574eb2fd1101a75070cda9673a6db207581c467"
          ],
          "data": "0x00000000000000000000000000000000000000000000000000000002540be400",
          "blockHash": "0x42b0e003af1a8916bdb38b3af4d18f0dce053c08ba901ba6d7868410fcc46daf",
          "blockNumber": "0x2c641a2",
          "blockTimestamp": "0x6a2a7ab5",
          "transactionHash": "0x738545dd0cb6bfede35c7c8c34d250d77d7403830bc0a81cc51c123a1dd7ebc2",
          "transactionIndex": "0x13",
          "logIndex": "0x2a",
          "removed": false
        },
        {
          "address": "0xe5f8c0bd7eda98f24f0b5002fa485d473fe7e7eb",
          "topics": [
            "0xddf252ad1be2c89b69c2b068fc378daa952ba7f163c4a11628f55a4df523b3ef",
            "0x000000000000000000000000b574eb2fd1101a75070cda9673a6db207581c467",
            "0x000000000000000000000000cbb3b40109e849a2cd1531258ce1797fa9eca7e7"
          ],
          "data": "0x0000000000000000000000000000000000000000000000000000000218711a00",
          "blockHash": "0x42b0e003af1a8916bdb38b3af4d18f0dce053c08ba901ba6d7868410fcc46daf",
          "blockNumber": "0x2c641a2",
          "blockTimestamp": "0x6a2a7ab5",
          "transactionHash": "0x738545dd0cb6bfede35c7c8c34d250d77d7403830bc0a81cc51c123a1dd7ebc2",
          "transactionIndex": "0x13",
          "logIndex": "0x2b",
          "removed": false
        },
        {
          "address": "0xb574eb2fd1101a75070cda9673a6db207581c467",
          "topics": [
            "0x9c9260125f1a087d9e46ee3dc78f1a4af18c5e00714012d9a35250d49391c4fe",
            "0x000000000000000000000000cbb3b40109e849a2cd1531258ce1797fa9eca7e7",
            "0x000000000000000000000000254a2627eb0e2e3ded4cb2225afb8815f05e04e9",
            "0x000000000000000000000000e5f8c0bd7eda98f24f0b5002fa485d473fe7e7eb"
          ],
          "data": "0x0000000000000000000000000000000000000000000000000000000218711a00",
          "blockHash": "0x42b0e003af1a8916bdb38b3af4d18f0dce053c08ba901ba6d7868410fcc46daf",
          "blockNumber": "0x2c641a2",
          "blockTimestamp": "0x6a2a7ab5",
          "transactionHash": "0x738545dd0cb6bfede35c7c8c34d250d77d7403830bc0a81cc51c123a1dd7ebc2",
          "transactionIndex": "0x13",
          "logIndex": "0x2c",
          "removed": false
        }
      ],
      "logsBloom": "0x00040000000000000000000000000000020000000000000000000000000000000000100000000000000000000000000080210000000000000000080000000000000000000000000000000008000400002000000000000000100000000000000000000000000008000000000000090000000020000000000000000010000000000000400040000010000000000000000000000000000200000000000000002000001000000000000000000000000000000a00000000000000000000000000000000400002000000000000000000000000002000000000000000200800000000000000000000000000000000000004000000000000000000000000000000000000",
      "type": "0x2",
      "transactionHash": "0x738545dd0cb6bfede35c7c8c34d250d77d7403830bc0a81cc51c123a1dd7ebc2",
      "transactionIndex": "0x13",
      "blockHash": "0x42b0e003af1a8916bdb38b3af4d18f0dce053c08ba901ba6d7868410fcc46daf",
      "blockNumber": "0x2c641a2",
      "gasUsed": "0x437d6",
      "effectiveGasPrice": "0x4a851361a",
      "from": "0xcbb3b40109e849a2cd1531258ce1797fa9eca7e7",
      "to": "0xb574eb2fd1101a75070cda9673a6db207581c467",
      "contractAddress": null
    },
    {
      "status": "0x1",
      "cumulativeGasUsed": "0x2b0b7f",
      "logs": [
        {
          "address": "0x254a2627eb0e2e3ded4cb2225afb8815f05e04e9",
          "topics": [
            "0x8c5be1e5ebec7d5bd14f71427d1e84f3dd0314c0f7b2291e5b200ac8c7c3b925",
            "0x000000000000000000000000e52c9aa4d90c9c1050228dc08e6c336da64251af",
            "0x000000000000000000000000b574eb2fd1101a75070cda9673a6db207581c467"
          ],
          "data": "0xffffffffffffffffffffffffffffffffffffffffffffffffffffffffffffffff",
          "blockHash": "0xfb68d6374e0ca9882429b3f0ae572cf0951b5a7d4deafb9f7b73e1b1a8e1698a",
          "blockNumber": "0x2c641a7",
          "blockTimestamp": "0x6a2a7ab7",
          "transactionHash": "0x19fadec901e224a5db8a0fb258104bc7430283865cb647c5ac44131260338ef4",
          "transactionIndex": "0x1c",
          "logIndex": "0x4d",
          "removed": false
        }
      ],
      "logsBloom": "0x00000000000000000000000000000000000000000000000000000000000000000000000000000000000000000000000000200000000000000000000000200000000100000000000000000000000400000000000000000000000000000000000000000000000000000000000000010000000020000000000000000000000000000000000000000000000000000000000000000000000000000000000000000000021000000000000000000000000000000000000000000000000000000000000000000000000000000000000000000000000000000000000000000800000000000010000000000000000000000000000000000000000000000000000110000000",
      "type": "0x2",
      "transactionHash": "0x19fadec901e224a5db8a0fb258104bc7430283865cb647c5ac44131260338ef4",
      "transactionIndex": "0x1c",
      "blockHash": "0xfb68d6374e0ca9882429b3f0ae572cf0951b5a7d4deafb9f7b73e1b1a8e1698a",
      "blockNumber": "0x2c641a7",
      "gasUsed": "0xb4cb",
      "effectiveGasPrice": "0x4a851361a",
      "from": "0xe52c9aa4d90c9c1050228dc08e6c336da64251af",
      "to": "0x254a2627eb0e2e3ded4cb2225afb8815f05e04e9",
      "contractAddress": null
    },
    {
      "status": "0x1",
      "cumulativeGasUsed": "0x238074",
      "logs": [
        {
          "address": "0xcdea155469985f1e6910bbc53278cb2008bff207",
          "topics": [
            "0x8c5be1e5ebec7d5bd14f71427d1e84f3dd0314c0f7b2291e5b200ac8c7c3b925",
            "0x000000000000000000000000e52c9aa4d90c9c1050228dc08e6c336da64251af",
            "0x000000000000000000000000b574eb2fd1101a75070cda9673a6db207581c467"
          ],
          "data": "0xffffffffffffffffffffffffffffffffffffffffffffffffffffffffffffffff",
          "blockHash": "0x0577082a3b60f2ada390f763278d009b64fa3b0ed0941248a3ccba4dee3820bd",
          "blockNumber": "0x2c641aa",
          "blockTimestamp": "0x6a2a7ab9",
          "transactionHash": "0x4fed153b0f4d967a062b102859fc8ffc24f21b667d111fb562b3df2db080cba5",
          "transactionIndex": "0x11",
          "logIndex": "0x38",
          "removed": false
        }
      ],
      "logsBloom": "0x00000000000000000000000000000000000000000000000000000000000000000000000000000000000000000000000000000000000000000000000000200000000100000000000000000000000400000000000000000000000000000000000000000040000000000000000000010000000000000000000000000000000000000000000000000004000000000000000000000000000000000000000000000000021000000000000000000000000000000000000000000000000000000000000000000000000000000008000000000000000000000000000000000000000000000010000000000000000000000000000000000000000000000000000110000000",
      "type": "0x2",
      "transactionHash": "0x4fed153b0f4d967a062b102859fc8ffc24f21b667d111fb562b3df2db080cba5",
      "transactionIndex": "0x11",
      "blockHash": "0x0577082a3b60f2ada390f763278d009b64fa3b0ed0941248a3ccba4dee3820bd",
      "blockNumber": "0x2c641aa",
      "gasUsed": "0xb4cb",
      "effectiveGasPrice": "0x4a851361a",
      "from": "0xe52c9aa4d90c9c1050228dc08e6c336da64251af",
      "to": "0xcdea155469985f1e6910bbc53278cb2008bff207",
      "contractAddress": null
    },
    {
      "status": "0x1",
      "cumulativeGasUsed": "0x8b142f",
      "logs": [
        {
          "address": "0xe5f8c0bd7eda98f24f0b5002fa485d473fe7e7eb",
          "topics": [
            "0x8c5be1e5ebec7d5bd14f71427d1e84f3dd0314c0f7b2291e5b200ac8c7c3b925",
            "0x000000000000000000000000e52c9aa4d90c9c1050228dc08e6c336da64251af",
            "0x000000000000000000000000b574eb2fd1101a75070cda9673a6db207581c467"
          ],
          "data": "0xffffffffffffffffffffffffffffffffffffffffffffffffffffffffffffffff",
          "blockHash": "0x8cbe9ad890f54ca65fed94467c45dc7a4f0587c75dcb8ff61c37992c75c31a98",
          "blockNumber": "0x2c641ad",
          "blockTimestamp": "0x6a2a7abb",
          "transactionHash": "0xac00dd4899f12fee82c6d662f34f4540dad90e6bbc41e8dc4638254ee50fa446",
          "transactionIndex": "0x42",
          "logIndex": "0x9a",
          "removed": false
        }
      ],
      "logsBloom": "0x00000000000000000000000000000000000000000000000000000000000000000000000000000000000000000000000000000000000000000000000000200000000100000000000000000000000400000000000000000000100000000000000000000000000000000000000000010000000000000000000000000000000000000000000040000000000000000000000000000000000000000000000000000000021000000000000000000000000000000000000000000000000000000000000000400000000000000000000000000000000000000000000000000000000000000010000000000000000000000000000000000000000000000000000110000000",
      "type": "0x2",
      "transactionHash": "0xac00dd4899f12fee82c6d662f34f4540dad90e6bbc41e8dc4638254ee50fa446",
      "transactionIndex": "0x42",
      "blockHash": "0x8cbe9ad890f54ca65fed94467c45dc7a4f0587c75dcb8ff61c37992c75c31a98",
      "blockNumber": "0x2c641ad",
      "gasUsed": "0xb4cb",
      "effectiveGasPrice": "0x4a851361a",
      "from": "0xe52c9aa4d90c9c1050228dc08e6c336da64251af",
      "to": "0xe5f8c0bd7eda98f24f0b5002fa485d473fe7e7eb",
      "contractAddress": null
    },
    {
      "status": "0x1",
      "cumulativeGasUsed": "0x3a9891",
      "logs": [
        {
          "address": "0xb574eb2fd1101a75070cda9673a6db207581c467",
          "topics": [
            "0x51eedbe668e048aec37e4dc0104031dbf295c9f3b35bfd9cb73a217b6ff81259",
            "0x000000000000000000000000254a2627eb0e2e3ded4cb2225afb8815f05e04e9"
          ],
          "data": "0x0000000000000000000000000000000000000000033b2e3c9fd0803ce80000000000000000000000000000000000000000000000033b2e3c9fd0803ce8000000000000000000000000000000000000000000000000108b2a2c28029094000000",
          "blockHash": "0x345d34e0cb190aeb460cf9e2c124c49b8f84247d2c6476fd70aa681c6f04d55a",
          "blockNumber": "0x2c641b1",
          "blockTimestamp": "0x6a2a7abd",
          "transactionHash": "0x01f7c9b8a55bf52f80258b533bd7d65839373689cfefb1aca8068fc395278c79",
          "transactionIndex": "0x10",
          "logIndex": "0x2e",
          "removed": false
        },
        {
          "address": "0x254a2627eb0e2e3ded4cb2225afb8815f05e04e9",
          "topics": [
            "0xddf252ad1be2c89b69c2b068fc378daa952ba7f163c4a11628f55a4df523b3ef",
            "0x000000000000000000000000e52c9aa4d90c9c1050228dc08e6c336da64251af",
            "0x000000000000000000000000b574eb2fd1101a75070cda9673a6db207581c467"
          ],
          "data": "0x00000000000000000000000000000000000000000000000000000006fc23ac00",
          "blockHash": "0x345d34e0cb190aeb460cf9e2c124c49b8f84247d2c6476fd70aa681c6f04d55a",
          "blockNumber": "0x2c641b1",
          "blockTimestamp": "0x6a2a7abd",
          "transactionHash": "0x01f7c9b8a55bf52f80258b533bd7d65839373689cfefb1aca8068fc395278c79",
          "transactionIndex": "0x10",
          "logIndex": "0x2f",
          "removed": false
        },
        {
          "address": "0xb574eb2fd1101a75070cda9673a6db207581c467",
          "topics": [
            "0xf5681f9d0db1b911ac18ee83d515a1cf1051853a9eae418316a2fdf7dea427c5",
            "0x000000000000000000000000254a2627eb0e2e3ded4cb2225afb8815f05e04e9",
            "0x000000000000000000000000e52c9aa4d90c9c1050228dc08e6c336da64251af"
          ],
          "data": "0x00000000000000000000000000000000000000000000000000000006fc23ac0000000000000000000000000000000000000000000000000000000006fc23ac00",
          "blockHash": "0x345d34e0cb190aeb460cf9e2c124c49b8f84247d2c6476fd70aa681c6f04d55a",
          "blockNumber": "0x2c641b1",
          "blockTimestamp": "0x6a2a7abd",
          "transactionHash": "0x01f7c9b8a55bf52f80258b533bd7d65839373689cfefb1aca8068fc395278c79",
          "transactionIndex": "0x10",
          "logIndex": "0x30",
          "removed": false
        }
      ],
      "logsBloom": "0x00040000000000000000000000000000000000000000000000000000000000000000100000000000000000000000000080200000000000000000000000000000000100800000000000000008000400000000000000000000000000000000000000000000000008000000000000010000000020000000100000000010000000000000400000000010000000000000000000000000000000000000000000000000001000000000000000000000000000000800000000000000000000000000000000000002000000000000000000000010000000000000000000200800000000000000000000000000000000000004000000000000000000000000000110000000",
      "type": "0x2",
      "transactionHash": "0x01f7c9b8a55bf52f80258b533bd7d65839373689cfefb1aca8068fc395278c79",
      "transactionIndex": "0x10",
      "blockHash": "0x345d34e0cb190aeb460cf9e2c124c49b8f84247d2c6476fd70aa681c6f04d55a",
      "blockNumber": "0x2c641b1",
      "gasUsed": "0x17ce6",
      "effectiveGasPrice": "0x4a851361a",
      "from": "0xe52c9aa4d90c9c1050228dc08e6c336da64251af",
      "to": "0xb574eb2fd1101a75070cda9673a6db207581c467",
      "contractAddress": null
    },
    {
      "status": "0x1",
      "cumulativeGasUsed": "0x4094da",
      "logs": [
        {
          "address": "0xb574eb2fd1101a75070cda9673a6db207581c467",
          "topics": [
            "0x51eedbe668e048aec37e4dc0104031dbf295c9f3b35bfd9cb73a217b6ff81259",
            "0x000000000000000000000000e5f8c0bd7eda98f24f0b5002fa485d473fe7e7eb"
          ],
          "data": "0x0000000000000000000000000000000000000000033b2e3ca02fdbc2cd616c7e0000000000000000000000000000000000000000033b2e3ccdcd08836d4dcd79000000000000000000000000000000000000000000090ec0b0841a7a4bc5b080",
          "blockHash": "0xc9a0870aca94979f98d9b614e39cb67ab5d0739eb58d16147407f65ca9fb0066",
          "blockNumber": "0x2c641b3",
          "blockTimestamp": "0x6a2a7abf",
          "transactionHash": "0x7458f3d078a7fb15b328814b65e7fa3ef8172537c79a57d6f159fe544a3ab6ff",
          "transactionIndex": "0x1e",
          "logIndex": "0x54",
          "removed": false
        },
        {
          "address": "0xcdea155469985f1e6910bbc53278cb2008bff207",
          "topics": [
            "0xddf252ad1be2c89b69c2b068fc378daa952ba7f163c4a11628f55a4df523b3ef",
            "0x000000000000000000000000e52c9aa4d90c9c1050228dc08e6c336da64251af",
            "0x000000000000000000000000b574eb2fd1101a75070cda9673a6db207581c467"
          ],
          "data": "0x0000000000000000000000000000000000000000000000004563918244f40000",
          "blockHash": "0xc9a0870aca94979f98d9b614e39cb67ab5d0739eb58d16147407f65ca9fb0066",
          "blockNumber": "0x2c641b3",
          "blockTimestamp": "0x6a2a7abf",
          "transactionHash": "0x7458f3d078a7fb15b328814b65e7fa3ef8172537c79a57d6f159fe544a3ab6ff",
          "transactionIndex": "0x1e",
          "logIndex": "0x55",
          "removed": false
        },
        {
          "address": "0xe5f8c0bd7eda98f24f0b5002fa485d473fe7e7eb",
          "topics": [
            "0xddf252ad1be2c89b69c2b068fc378daa952ba7f163c4a11628f55a4df523b3ef",
            "0x000000000000000000000000b574eb2fd1101a75070cda9673a6db207581c467",
            "0x000000000000000000000000e52c9aa4d90c9c1050228dc08e6c336da64251af"
          ],
          "data": "0x00000000000000000000000000000000000000000000000000000002540be400",
          "blockHash": "0xc9a0870aca94979f98d9b614e39cb67ab5d0739eb58d16147407f65ca9fb0066",
          "blockNumber": "0x2c641b3",
          "blockTimestamp": "0x6a2a7abf",
          "transactionHash": "0x7458f3d078a7fb15b328814b65e7fa3ef8172537c79a57d6f159fe544a3ab6ff",
          "transactionIndex": "0x1e",
          "logIndex": "0x56",
          "removed": false
        },
        {
          "address": "0xb574eb2fd1101a75070cda9673a6db207581c467",
          "topics": [
            "0x9c9260125f1a087d9e46ee3dc78f1a4af18c5e00714012d9a35250d49391c4fe",
            "0x000000000000000000000000e52c9aa4d90c9c1050228dc08e6c336da64251af",
            "0x000000000000000000000000cdea155469985f1e6910bbc53278cb2008bff207",
            "0x000000000000000000000000e5f8c0bd7eda98f24f0b5002fa485d473fe7e7eb"
          ],
          "data": "0x00000000000000000000000000000000000000000000000000000002540be400",
          "blockHash": "0xc9a0870aca94979f98d9b614e39cb67ab5d0739eb58d16147407f65ca9fb0066",
          "blockNumber": "0x2c641b3",
          "blockTimestamp": "0x6a2a7abf",
          "transactionHash": "0x7458f3d078a7fb15b328814b65e7fa3ef8172537c79a57d6f159fe544a3ab6ff",
          "transactionIndex": "0x1e",
          "logIndex": "0x57",
          "removed": false
        }
      ],
      "logsBloom": "0x00040000000000000000000000000000000000000000001000000000000000000000100000000000000000000000000080010000000000000000080000000000000100000000000000000008000400002000000000000000100000000000000000000040000008000000000000090000000000000000000000000010000000000000000040000014000000000000000000000000000200000000000000002000001000000000000000000000000000000800000000000000000000000000008080400002000000000008000000000000000000000000000000000000000000000000000000000000000000000000000000000000000000000000000110000000",
      "type": "0x2",
      "transactionHash": "0x7458f3d078a7fb15b328814b65e7fa3ef8172537c79a57d6f159fe544a3ab6ff",
      "transactionIndex": "0x1e",
      "blockHash": "0xc9a0870aca94979f98d9b614e39cb67ab5d0739eb58d16147407f65ca9fb0066",
      "blockNumber": "0x2c641b3",
      "gasUsed": "0x44f30",
      "effectiveGasPrice": "0x4a851361a",
      "from": "0xe52c9aa4d90c9c1050228dc08e6c336da64251af",
      "to": "0xb574eb2fd1101a75070cda9673a6db207581c467",
      "contractAddress": null
    },
    {
      "status": "0x1",
      "cumulativeGasUsed": "0x361d4d",
      "logs": [
        {
          "address": "0xcdea155469985f1e6910bbc53278cb2008bff207",
          "topics": [
            "0x8c5be1e5ebec7d5bd14f71427d1e84f3dd0314c0f7b2291e5b200ac8c7c3b925",
            "0x0000000000000000000000002968871b9780b38ffcf2221653abb09ad1038552",
            "0x000000000000000000000000b574eb2fd1101a75070cda9673a6db207581c467"
          ],
          "data": "0xffffffffffffffffffffffffffffffffffffffffffffffffffffffffffffffff",
          "blockHash": "0xffcde527ca801b5981d12014fa968cb620a0ad226f061de40c0dad81aab6bdcc",
          "blockNumber": "0x2c641b5",
          "blockTimestamp": "0x6a2a7ac0",
          "transactionHash": "0x2943f774867e37599221b6362da683cabdd8d2361be828d9d4aa7b6abd1365b2",
          "transactionIndex": "0x16",
          "logIndex": "0x40",
          "removed": false
        }
      ],
      "logsBloom": "0x00000000000000000000000000000000000000000000000000000000000000000000000000000000000000000000000000000000000000000000000000200000000000000000000000000000000400000000000000000000000000000000000000000040000000000000000000010000004000000000000000000000000000000000000000000004000000000000000000000000000000000000000000000000021000000000000000000000000000000000000000000000000000000000000000000000000000000008000000000000000000000000000000000000000000000010000000000000000800000000000000000000000000000000000000000000",
      "type": "0x2",
      "transactionHash": "0x2943f774867e37599221b6362da683cabdd8d2361be828d9d4aa7b6abd1365b2",
      "transactionIndex": "0x16",
      "blockHash": "0xffcde527ca801b5981d12014fa968cb620a0ad226f061de40c0dad81aab6bdcc",
      "blockNumber": "0x2c641b5",
      "gasUsed": "0xb4cb",
      "effectiveGasPrice": "0x4a851361a",
      "from": "0x2968871b9780b38ffcf2221653abb09ad1038552",
      "to": "0xcdea155469985f1e6910bbc53278cb2008bff207",
      "contractAddress": null
    },
    {
      "status": "0x1",
      "cumulativeGasUsed": "0x2c221f",
      "logs": [
        {
          "address": "0x254a2627eb0e2e3ded4cb2225afb8815f05e04e9",
          "topics": [
            "0x8c5be1e5ebec7d5bd14f71427d1e84f3dd0314c0f7b2291e5b200ac8c7c3b925",
            "0x0000000000000000000000002968871b9780b38ffcf2221653abb09ad1038552",
            "0x000000000000000000000000b574eb2fd1101a75070cda9673a6db207581c467"
          ],
          "data": "0xffffffffffffffffffffffffffffffffffffffffffffffffffffffffffffffff",
          "blockHash": "0x1ee3f946e503552f09ab46fa01f02961bcfef4ffeeb39d4d12cfd651d5154e2b",
          "blockNumber": "0x2c641bb",
          "blockTimestamp": "0x6a2a7ac2",
          "transactionHash": "0x94f6e60ef7c1126502f06523b9f3375176dd31c801bef6e06755703941f0256c",
          "transactionIndex": "0x13",
          "logIndex": "0x34",
          "removed": false
        }
      ],
      "logsBloom": "0x00000000000000000000000000000000000000000000000000000000000000000000000000000000000000000000000000200000000000000000000000200000000000000000000000000000000400000000000000000000000000000000000000000000000000000000000000010000004020000000000000000000000000000000000000000000000000000000000000000000000000000000000000000000021000000000000000000000000000000000000000000000000000000000000000000000000000000000000000000000000000000000000000000800000000000010000000000000000800000000000000000000000000000000000000000000",
      "type": "0x2",
      "transactionHash": "0x94f6e60ef7c1126502f06523b9f3375176dd31c801bef6e06755703941f0256c",
      "transactionIndex": "0x13",
      "blockHash": "0x1ee3f946e503552f09ab46fa01f02961bcfef4ffeeb39d4d12cfd651d5154e2b",
      "blockNumber": "0x2c641bb",
      "gasUsed": "0xb4cb",
      "effectiveGasPrice": "0x4a851361a",
      "from": "0x2968871b9780b38ffcf2221653abb09ad1038552",
      "to": "0x254a2627eb0e2e3ded4cb2225afb8815f05e04e9",
      "contractAddress": null
    },
    {
      "status": "0x1",
      "cumulativeGasUsed": "0x3aaabe",
      "logs": [
        {
          "address": "0xe5f8c0bd7eda98f24f0b5002fa485d473fe7e7eb",
          "topics": [
            "0x8c5be1e5ebec7d5bd14f71427d1e84f3dd0314c0f7b2291e5b200ac8c7c3b925",
            "0x0000000000000000000000002968871b9780b38ffcf2221653abb09ad1038552",
            "0x000000000000000000000000b574eb2fd1101a75070cda9673a6db207581c467"
          ],
          "data": "0xffffffffffffffffffffffffffffffffffffffffffffffffffffffffffffffff",
          "blockHash": "0x5043980f077b922609ebbe2c831fd3f930a172aea8720de4b623117551729125",
          "blockNumber": "0x2c641bf",
          "blockTimestamp": "0x6a2a7ac5",
          "transactionHash": "0xe52daa13e943eec5e21bb97e84ad36449c1f729d00523e1ea2ec2d07bcd82195",
          "transactionIndex": "0x1b",
          "logIndex": "0x2c",
          "removed": false
        }
      ],
      "logsBloom": "0x00000000000000000000000000000000000000000000000000000000000000000000000000000000000000000000000000000000000000000000000000200000000000000000000000000000000400000000000000000000100000000000000000000000000000000000000000010000004000000000000000000000000000000000000040000000000000000000000000000000000000000000000000000000021000000000000000000000000000000000000000000000000000000000000000400000000000000000000000000000000000000000000000000000000000000010000000000000000800000000000000000000000000000000000000000000",
      "type": "0x2",
      "transactionHash": "0xe52daa13e943eec5e21bb97e84ad36449c1f729d00523e1ea2ec2d07bcd82195",
      "transactionIndex": "0x1b",
      "blockHash": "0x5043980f077b922609ebbe2c831fd3f930a172aea8720de4b623117551729125",
      "blockNumber": "0x2c641bf",
      "gasUsed": "0xb4cb",
      "effectiveGasPrice": "0x4a851361a",
      "from": "0x2968871b9780b38ffcf2221653abb09ad1038552",
      "to": "0xe5f8c0bd7eda98f24f0b5002fa485d473fe7e7eb",
      "contractAddress": null
    },
    {
      "status": "0x1",
      "cumulativeGasUsed": "0x1c9c73",
      "logs": [
        {
          "address": "0xb574eb2fd1101a75070cda9673a6db207581c467",
          "topics": [
            "0x51eedbe668e048aec37e4dc0104031dbf295c9f3b35bfd9cb73a217b6ff81259",
            "0x000000000000000000000000cdea155469985f1e6910bbc53278cb2008bff207"
          ],
          "data": "0x0000000000000000000000000000000000000000033b2e3c9fd0803ce80000000000000000000000000000000000000000000000033b2e3c9fd0803ce80000000000000000000000000000000000000000000000000000000000000000000000",
          "blockHash": "0xec7cb43e155bc1423f774408b87b3fd7dd10f5043723e68bf435c17e2ab8b573",
          "blockNumber": "0x2c641c5",
          "blockTimestamp": "0x6a2a7ac8",
          "transactionHash": "0x4914fb82dfa8f15dc90c282ce8e57ba768a6e946f9cc87ee328ea2eccbde36d1",
          "transactionIndex": "0xd",
          "logIndex": "0x31",
          "removed": false
        },
        {
          "address": "0xcdea155469985f1e6910bbc53278cb2008bff207",
          "topics": [
            "0xddf252ad1be2c89b69c2b068fc378daa952ba7f163c4a11628f55a4df523b3ef",
            "0x0000000000000000000000002968871b9780b38ffcf2221653abb09ad1038552",
            "0x000000000000000000000000b574eb2fd1101a75070cda9673a6db207581c467"
          ],
          "data": "0x000000000000000000000000000000000000000000000000d02ab486cedc0000",
          "blockHash": "0xec7cb43e155bc1423f774408b87b3fd7dd10f5043723e68bf435c17e2ab8b573",
          "blockNumber": "0x2c641c5",
          "blockTimestamp": "0x6a2a7ac8",
          "transactionHash": "0x4914fb82dfa8f15dc90c282ce8e57ba768a6e946f9cc87ee328ea2eccbde36d1",
          "transactionIndex": "0xd",
          "logIndex": "0x32",
          "removed": false
        },
        {
          "address": "0xb574eb2fd1101a75070cda9673a6db207581c467",
          "topics": [
            "0xf5681f9d0db1b911ac18ee83d515a1cf1051853a9eae418316a2fdf7dea427c5",
            "0x000000000000000000000000cdea155469985f1e6910bbc53278cb2008bff207",
            "0x0000000000000000000000002968871b9780b38ffcf2221653abb09ad1038552"
          ],
          "data": "0x000000000000000000000000000000000000000000000000d02ab486cedc0000000000000000000000000000000000000000000000000000d02ab486cedc0000",
          "blockHash": "0xec7cb43e155bc1423f774408b87b3fd7dd10f5043723e68bf435c17e2ab8b573",
          "blockNumber": "0x2c641c5",
          "blockTimestamp": "0x6a2a7ac8",
          "transactionHash": "0x4914fb82dfa8f15dc90c282ce8e57ba768a6e946f9cc87ee328ea2eccbde36d1",
          "transactionIndex": "0xd",
          "logIndex": "0x33",
          "removed": false
        }
      ],
      "logsBloom": "0x00040000000000000000000000000000000000000000001000000000000000000000100000000000000000000000000080000000000000000000000000000000000000800000000000000008000400000000000000000000000000000000000000000040000008000000000000010000004000000000100000000010000000000000000000000014000000000000000000000000000000000000000000000000001000000000000000000000000000000800000000000000000000000000008080000002000000000008000000000010000000000000000000000000000000000000000000000000000800000000000000000000000000000000000000000000",
      "type": "0x2",
      "transactionHash": "0x4914fb82dfa8f15dc90c282ce8e57ba768a6e946f9cc87ee328ea2eccbde36d1",
      "transactionIndex": "0xd",
      "blockHash": "0xec7cb43e155bc1423f774408b87b3fd7dd10f5043723e68bf435c17e2ab8b573",
      "blockNumber": "0x2c641c5",
      "gasUsed": "0x17c77",
      "effectiveGasPrice": "0x4a851361a",
      "from": "0x2968871b9780b38ffcf2221653abb09ad1038552",
      "to": "0xb574eb2fd1101a75070cda9673a6db207581c467",
      "contractAddress": null
    },
    {
      "status": "0x1",
      "cumulativeGasUsed": "0xcb41f",
      "logs": [
        {
          "address": "0xb574eb2fd1101a75070cda9673a6db207581c467",
          "topics": [
            "0x51eedbe668e048aec37e4dc0104031dbf295c9f3b35bfd9cb73a217b6ff81259",
            "0x000000000000000000000000254a2627eb0e2e3ded4cb2225afb8815f05e04e9"
          ],
          "data": "0x0000000000000000000000000000000000000000033b2e3c9fd0803ce80000000000000000000000000000000000000000000000033b2e3c9fd0803ce8000000000000000000000000000000000000000000000000112afb7646803f172b78c1",
          "blockHash": "0x4ab46addf19aacf007b94730bb85a35200890a438f4ffceb2f454b8dbd7b0529",
          "blockNumber": "0x2c641cb",
          "blockTimestamp": "0x6a2a7acb",
          "transactionHash": "0x5762adca5187a21fe4624566fe898cbb04dd796d3f6bf379f5c95bed79a27625",
          "transactionIndex": "0x8",
          "logIndex": "0xd",
          "removed": false
        },
        {
          "address": "0xe5f8c0bd7eda98f24f0b5002fa485d473fe7e7eb",
          "topics": [
            "0xddf252ad1be2c89b69c2b068fc378daa952ba7f163c4a11628f55a4df523b3ef",
            "0x0000000000000000000000002968871b9780b38ffcf2221653abb09ad1038552",
            "0x000000000000000000000000b574eb2fd1101a75070cda9673a6db207581c467"
          ],
          "data": "0x00000000000000000000000000000000000000000000000000000002540be400",
          "blockHash": "0x4ab46addf19aacf007b94730bb85a35200890a438f4ffceb2f454b8dbd7b0529",
          "blockNumber": "0x2c641cb",
          "blockTimestamp": "0x6a2a7acb",
          "transactionHash": "0x5762adca5187a21fe4624566fe898cbb04dd796d3f6bf379f5c95bed79a27625",
          "transactionIndex": "0x8",
          "logIndex": "0xe",
          "removed": false
        },
        {
          "address": "0x254a2627eb0e2e3ded4cb2225afb8815f05e04e9",
          "topics": [
            "0xddf252ad1be2c89b69c2b068fc378daa952ba7f163c4a11628f55a4df523b3ef",
            "0x000000000000000000000000b574eb2fd1101a75070cda9673a6db207581c467",
            "0x0000000000000000000000002968871b9780b38ffcf2221653abb09ad1038552"
          ],
          "data": "0x00000000000000000000000000000000000000000000000000000001dcd65000",
          "blockHash": "0x4ab46addf19aacf007b94730bb85a35200890a438f4ffceb2f454b8dbd7b0529",
          "blockNumber": "0x2c641cb",
          "blockTimestamp": "0x6a2a7acb",
          "transactionHash": "0x5762adca5187a21fe4624566fe898cbb04dd796d3f6bf379f5c95bed79a27625",
          "transactionIndex": "0x8",
          "logIndex": "0xf",
          "removed": false
        },
        {
          "address": "0xb574eb2fd1101a75070cda9673a6db207581c467",
          "topics": [
            "0x9c9260125f1a087d9e46ee3dc78f1a4af18c5e00714012d9a35250d49391c4fe",
            "0x0000000000000000000000002968871b9780b38ffcf2221653abb09ad1038552",
            "0x000000000000000000000000e5f8c0bd7eda98f24f0b5002fa485d473fe7e7eb",
            "0x000000000000000000000000254a2627eb0e2e3ded4cb2225afb8815f05e04e9"
          ],
          "data": "0x00000000000000000000000000000000000000000000000000000001dcd65000",
          "blockHash": "0x4ab46addf19aacf007b94730bb85a35200890a438f4ffceb2f454b8dbd7b0529",
          "blockNumber": "0x2c641cb",
          "blockTimestamp": "0x6a2a7acb",
          "transactionHash": "0x5762adca5187a21fe4624566fe898cbb04dd796d3f6bf379f5c95bed79a27625",
          "transactionIndex": "0x8",
          "logIndex": "0x10",
          "removed": false
        }
      ],
      "logsBloom": "0x00040000000000000000000000000000000000000000000000000000000000000000100000000000000000000000000080210000000000000000080000000000000000000000000000000008000400002000000000000000100000000000000000000000000008000000000000090000004020000000000000000010000000000000400040000010000000000000000000000000000200000000000000002000001000000000000000000000000000000800000000000000000000000000000000400002000000000000000000000000000000000000000000200800000000000000000000000000000800000004000000000000000000000000000000000000",
      "type": "0x2",
      "transactionHash": "0x5762adca5187a21fe4624566fe898cbb04dd796d3f6bf379f5c95bed79a27625",
      "transactionIndex": "0x8",
      "blockHash": "0x4ab46addf19aacf007b94730bb85a35200890a438f4ffceb2f454b8dbd7b0529",
      "blockNumber": "0x2c641cb",
      "gasUsed": "0x437da",
      "effectiveGasPrice": "0x4a851361a",
      "from": "0x2968871b9780b38ffcf2221653abb09ad1038552",
      "to": "0xb574eb2fd1101a75070cda9673a6db207581c467",
      "contractAddress": null
    },
    {
      "status": "0x1",
      "cumulativeGasUsed": "0x56c775",
      "logs": [
        {
          "address": "0xcdea155469985f1e6910bbc53278cb2008bff207",
          "topics": [
            "0xddf252ad1be2c89b69c2b068fc378daa952ba7f163c4a11628f55a4df523b3ef",
            "0x000000000000000000000000e52c9aa4d90c9c1050228dc08e6c336da64251af",
            "0x000000000000000000000000b574eb2fd1101a75070cda9673a6db207581c467"
          ],
          "data": "0x0000000000000000000000000000000000000000000000000de0b6b3a7640000",
          "blockHash": "0xd761a83a8875f63908951ee697fd3ce6a7d47d7351ff19f57dbbbd57f802954c",
          "blockNumber": "0x2c641cf",
          "blockTimestamp": "0x6a2a7acd",
          "transactionHash": "0x309614a4c6ad58fa147ce9e8730f32f35cffcbd33b8eb30ba213b5452828f343",
          "transactionIndex": "0x30",
          "logIndex": "0x80",
          "removed": false
        },
        {
          "address": "0xb574eb2fd1101a75070cda9673a6db207581c467",
          "topics": [
            "0x794f99eb67739a2b47caf8ca3b39e5a140fbf84e1cb6a800a06cd42d61fa967a",
            "0x000000000000000000000000e52c9aa4d90c9c1050228dc08e6c336da64251af",
            "0x000000000000000000000000cdea155469985f1e6910bbc53278cb2008bff207",
            "0x000000000000000000000000e5f8c0bd7eda98f24f0b5002fa485d473fe7e7eb"
          ],
          "data": "0x0000000000000000000000000000000000000000000000000de0b6b3a7640000",
          "blockHash": "0xd761a83a8875f63908951ee697fd3ce6a7d47d7351ff19f57dbbbd57f802954c",
          "blockNumber": "0x2c641cf",
          "blockTimestamp": "0x6a2a7acd",
          "transactionHash": "0x309614a4c6ad58fa147ce9e8730f32f35cffcbd33b8eb30ba213b5452828f343",
          "transactionIndex": "0x30",
          "logIndex": "0x81",
          "removed": false
        }
      ],
      "logsBloom": "0x80040000000000000000000000000000000000000000001000000000000000000000000000000000000000000000000000010000000000000000000000000000000100000000000000000008000400000000000000000000000000000000000000000040000000000000000000090000000000000000000000000010000000000000000000000014000000000000000000000000000000000000000000002000001000000000000000000000000000000800000000000000002000000000008080000002000000000008000000000000000000000000000000000000000000000000000000000000000000000000000000000000000010000000000110000000",
      "type": "0x2",
      "transactionHash": "0x309614a4c6ad58fa147ce9e8730f32f35cffcbd33b8eb30ba213b5452828f343",
      "transactionIndex": "0x30",
      "blockHash": "0xd761a83a8875f63908951ee697fd3ce6a7d47d7351ff19f57dbbbd57f802954c",
      "blockNumber": "0x2c641cf",
      "gasUsed": "0xdfb5",
      "effectiveGasPrice": "0x4a851361a",
      "from": "0xe52c9aa4d90c9c1050228dc08e6c336da64251af",
      "to": "0xb574eb2fd1101a75070cda9673a6db207581c467",
      "contractAddress": null
    },
    {
      "status": "0x1",
      "cumulativeGasUsed": "0x1c8895",
      "logs": [
        {
          "address": "0xb574eb2fd1101a75070cda9673a6db207581c467",
          "topics": [
            "0x51eedbe668e048aec37e4dc0104031dbf295c9f3b35bfd9cb73a217b6ff81259",
            "0x000000000000000000000000e5f8c0bd7eda98f24f0b5002fa485d473fe7e7eb"
          ],
          "data": "0x0000000000000000000000000000000000000000033b2e3ca1ab8e01e2aa58de0000000000000000000000000000000000000000033b2e3d24897e6b4817f2a100000000000000000000000000000000000000000009042a2f34f6f7dfdbb384",
          "blockHash": "0x3ca044fe93261f72e2e6f560a26d18d41cb8ceda2d530e736db7dc88e423a88d",
          "blockNumber": "0x2c641d5",
          "blockTimestamp": "0x6a2a7ad1",
          "transactionHash": "0xc109fd9bacaf48c6f2b34a06c36694876836ab611caadd96b849c54a7af6d7ca",
          "transactionIndex": "0x12",
          "logIndex": "0x3e",
          "removed": false
        },
        {
          "address": "0xe5f8c0bd7eda98f24f0b5002fa485d473fe7e7eb",
          "topics": [
            "0xddf252ad1be2c89b69c2b068fc378daa952ba7f163c4a11628f55a4df523b3ef",
            "0x000000000000000000000000e52c9aa4d90c9c1050228dc08e6c336da64251af",
            "0x000000000000000000000000b574eb2fd1101a75070cda9673a6db207581c467"
          ],
          "data": "0x000000000000000000000000000000000000000000000000000000003b9aca00",
          "blockHash": "0x3ca044fe93261f72e2e6f560a26d18d41cb8ceda2d530e736db7dc88e423a88d",
          "blockNumber": "0x2c641d5",
          "blockTimestamp": "0x6a2a7ad1",
          "transactionHash": "0xc109fd9bacaf48c6f2b34a06c36694876836ab611caadd96b849c54a7af6d7ca",
          "transactionIndex": "0x12",
          "logIndex": "0x3f",
          "removed": false
        },
        {
          "address": "0xb574eb2fd1101a75070cda9673a6db207581c467",
          "topics": [
            "0x861660e9b7ead7183d53fe928b5638c7b57a7bcf16a89d7fdb04db65ce3ad6d5",
            "0x000000000000000000000000e52c9aa4d90c9c1050228dc08e6c336da64251af",
            "0x000000000000000000000000e52c9aa4d90c9c1050228dc08e6c336da64251af",
            "0x000000000000000000000000e5f8c0bd7eda98f24f0b5002fa485d473fe7e7eb"
          ],
          "data": "0x000000000000000000000000000000000000000000000000000000003b9aca00",
          "blockHash": "0x3ca044fe93261f72e2e6f560a26d18d41cb8ceda2d530e736db7dc88e423a88d",
          "blockNumber": "0x2c641d5",
          "blockTimestamp": "0x6a2a7ad1",
          "transactionHash": "0xc109fd9bacaf48c6f2b34a06c36694876836ab611caadd96b849c54a7af6d7ca",
          "transactionIndex": "0x12",
          "logIndex": "0x40",
          "removed": false
        }
      ],
      "logsBloom": "0x00040000000000000000000000000000000000000000000000000000000000000000100000000000000000000004000080010000000000000000000000000000000100000000000000000008000400000000000000000000100000000000000000000000000008000000000000090000000000000000000000000010000000000000000040000010000000000000000000000000000000000000000000003000001000000000000000000000000000000800000000000000000000000000000000400002000000000000000000000000000000000000000000000000000000000000000000000000000000000000000008000000000000000000000110000000",
      "type": "0x2",
      "transactionHash": "0xc109fd9bacaf48c6f2b34a06c36694876836ab611caadd96b849c54a7af6d7ca",
      "transactionIndex": "0x12",
      "blockHash": "0x3ca044fe93261f72e2e6f560a26d18d41cb8ceda2d530e736db7dc88e423a88d",
      "blockNumber": "0x2c641d5",
      "gasUsed": "0x13d2d",
      "effectiveGasPrice": "0x4a851361a",
      "from": "0xe52c9aa4d90c9c1050228dc08e6c336da64251af",
      "to": "0xb574eb2fd1101a75070cda9673a6db207581c467",
      "contractAddress": null
    },
    {
      "status": "0x1",
      "cumulativeGasUsed": "0x37e1ac",
      "logs": [],
      "logsBloom": "0x00000000000000000000000000000000000000000000000000000000000000000000000000000000000000000000000000000000000000000000000000000000000000000000000000000000000000000000000000000000000000000000000000000000000000000000000000000000000000000000000000000000000000000000000000000000000000000000000000000000000000000000000000000000000000000000000000000000000000000000000000000000000000000000000000000000000000000000000000000000000000000000000000000000000000000000000000000000000000000000000000000000000000000000000000000000",
      "type": "0x2",
      "transactionHash": "0xb1dfce251faff0a81cb85389a89b033a187699b383ff1d97ba7de460fc07f96c",
      "transactionIndex": "0x22",
      "blockHash": "0x468e97db2a7657bacc469d14e69fce49768026f1f11d4c8eeaa62b13519970ce",
      "blockNumber": "0x2c641da",
      "gasUsed": "0x6905",
      "effectiveGasPrice": "0x4a851361a",
      "from": "0xca14e37c862465677caa064c20bdbb6673f6fe48",
      "to": "0xb241a035fb7a8c46e1b8878d02bf666339a2005b",
      "contractAddress": null
    },
    {
      "status": "0x1",
      "cumulativeGasUsed": "0x3637a7",
      "logs": [
        {
          "address": "0xb574eb2fd1101a75070cda9673a6db207581c467",
          "topics": [
            "0x51eedbe668e048aec37e4dc0104031dbf295c9f3b35bfd9cb73a217b6ff81259",
            "0x000000000000000000000000e5f8c0bd7eda98f24f0b5002fa485d473fe7e7eb"
          ],
          "data": "0x0000000000000000000000000000000000000000033b2e3ca1fb2032752f7c2d0000000000000000000000000000000000000000033b2e3d37b9498a48e6e26900000000000000000000000000000000000000000008a4dfa2b64d550ae406bf",
          "blockHash": "0xa17f521b49a534803942b79a667d3aeaf7c1021e11499b0bfaa41cb6a0f805f8",
          "blockNumber": "0x2c641dd",
          "blockTimestamp": "0x6a2a7ad5",
          "transactionHash": "0x8f688b1cea7a65e5b7e21a5bc83d1a75fb3533a36a5ca0e1fa2f1597d94cb84b",
          "transactionIndex": "0x18",
          "logIndex": "0x4b",
          "removed": false
        },
        {
          "address": "0xe5f8c0bd7eda98f24f0b5002fa485d473fe7e7eb",
          "topics": [
            "0xddf252ad1be2c89b69c2b068fc378daa952ba7f163c4a11628f55a4df523b3ef",
            "0x000000000000000000000000ca14e37c862465677caa064c20bdbb6673f6fe48",
            "0x000000000000000000000000b574eb2fd1101a75070cda9673a6db207581c467"
          ],
          "data": "0x0000000000000000000000000000000000000000000000000000000218711a00",
          "blockHash": "0xa17f521b49a534803942b79a667d3aeaf7c1021e11499b0bfaa41cb6a0f805f8",
          "blockNumber": "0x2c641dd",
          "blockTimestamp": "0x6a2a7ad5",
          "transactionHash": "0x8f688b1cea7a65e5b7e21a5bc83d1a75fb3533a36a5ca0e1fa2f1597d94cb84b",
          "transactionIndex": "0x18",
          "logIndex": "0x4c",
          "removed": false
        },
        {
          "address": "0xcdea155469985f1e6910bbc53278cb2008bff207",
          "topics": [
            "0xddf252ad1be2c89b69c2b068fc378daa952ba7f163c4a11628f55a4df523b3ef",
            "0x000000000000000000000000b574eb2fd1101a75070cda9673a6db207581c467",
            "0x000000000000000000000000ca14e37c862465677caa064c20bdbb6673f6fe48"
          ],
          "data": "0x0000000000000000000000000000000000000000000000004efb1ed8cb791e1e",
          "blockHash": "0xa17f521b49a534803942b79a667d3aeaf7c1021e11499b0bfaa41cb6a0f805f8",
          "blockNumber": "0x2c641dd",
          "blockTimestamp": "0x6a2a7ad5",
          "transactionHash": "0x8f688b1cea7a65e5b7e21a5bc83d1a75fb3533a36a5ca0e1fa2f1597d94cb84b",
          "transactionIndex": "0x18",
          "logIndex": "0x4d",
          "removed": false
        },
        {
          "address": "0xb574eb2fd1101a75070cda9673a6db207581c467",
          "topics": [
            "0xda828cf61361478a6d2e2c531aa793167b754726e8b2d2798395b8bc571204c1",
            "0x000000000000000000000000ca14e37c862465677caa064c20bdbb6673f6fe48",
            "0x000000000000000000000000e52c9aa4d90c9c1050228dc08e6c336da64251af"
          ],
          "data": "0x000000000000000000000000cdea155469985f1e6910bbc53278cb2008bff207000000000000000000000000e5f8c0bd7eda98f24f0b5002fa485d473fe7e7eb0000000000000000000000000000000000000000000000000000000218711a000000000000000000000000000000000000000000000000004efb1ed8cb791e1e",
          "blockHash": "0xa17f521b49a534803942b79a667d3aeaf7c1021e11499b0bfaa41cb6a0f805f8",
          "blockNumber": "0x2c641dd",
          "blockTimestamp": "0x6a2a7ad5",
          "transactionHash": "0x8f688b1cea7a65e5b7e21a5bc83d1a75fb3533a36a5ca0e1fa2f1597d94cb84b",
          "transactionIndex": "0x18",
          "logIndex": "0x4e",
          "removed": false
        }
      ],
      "logsBloom": "0x00040000000000000004000000000000000000000000040000001000000000000000100000000000000000000000000080010000000000000000000000000000000100000000000000000008000400000000000000000000100000000800000000000040000008000000000000090000000000000000000000000010000000000000000040000014000000000000000000000000000000000000000000002000001000000000000000000000000000000800000000000000000000000000000000400002000000000008000000000000000000000000000000000000000000000080000000000000000000000000000000000000000001000000000110000000",
      "type": "0x2",
      "transactionHash": "0x8f688b1cea7a65e5b7e21a5bc83d1a75fb3533a36a5ca0e1fa2f1597d94cb84b",
      "transactionIndex": "0x18",
      "blockHash": "0xa17f521b49a534803942b79a667d3aeaf7c1021e11499b0bfaa41cb6a0f805f8",
      "blockNumber": "0x2c641dd",
      "gasUsed": "0x2568a",
      "effectiveGasPrice": "0x4a851361a",
      "from": "0xca14e37c862465677caa064c20bdbb6673f6fe48",
      "to": "0xb574eb2fd1101a75070cda9673a6db207581c467",
      "contractAddress": null
    },
    {
      "status": "0x1",
      "cumulativeGasUsed": "0xfc9b4",
      "logs": [],
      "logsBloom": "0x00000000000000000000000000000000000000000000000000000000000000000000000000000000000000000000000000000000000000000000000000000000000000000000000000000000000000000000000000000000000000000000000000000000000000000000000000000000000000000000000000000000000000000000000000000000000000000000000000000000000000000000000000000000000000000000000000000000000000000000000000000000000000000000000000000000000000000000000000000000000000000000000000000000000000000000000000000000000000000000000000000000000000000000000000000000",
      "type": "0x2",
      "transactionHash": "0x509ba2aafad851bdc26beaafd154c153e70da1cece71adad73b6b1fb5651fd37",
      "transactionIndex": "0xb",
      "blockHash": "0x62ede7a74d6828cbe573552c07ab7af6fc28d0ee8b9a1646d869d2683dd1ad60",
      "blockNumber": "0x2c641e2",
      "gasUsed": "0x6905",
      "effectiveGasPrice": "0x4a851361a",
      "from": "0xca14e37c862465677caa064c20bdbb6673f6fe48",
      "to": "0xb241a035fb7a8c46e1b8878d02bf666339a2005b",
      "contractAddress": null
    },
    {
      "status": "0x1",
      "cumulativeGasUsed": "0x203438",
      "logs": [],
      "logsBloom": "0x00000000000000000000000000000000000000000000000000000000000000000000000000000000000000000000000000000000000000000000000000000000000000000000000000000000000000000000000000000000000000000000000000000000000000000000000000000000000000000000000000000000000000000000000000000000000000000000000000000000000000000000000000000000000000000000000000000000000000000000000000000000000000000000000000000000000000000000000000000000000000000000000000000000000000000000000000000000000000000000000000000000000000000000000000000000",
      "type": "0x2",
      "transactionHash": "0x81dac5d9cf78cff83ac737b87941bc6c39a1b2b0039e5d8c7a60e0725b1c58f8",
      "transactionIndex": "0x11",
      "blockHash": "0x3c3553638e20996b9abf6ec72e71894c2fdc747410d15c787e890ace1f2b1dbd",
      "blockNumber": "0x2c641e8",
      "gasUsed": "0x68f9",
      "effectiveGasPrice": "0x4a851361a",
      "from": "0xca14e37c862465677caa064c20bdbb6673f6fe48",
      "to": "0xb241a035fb7a8c46e1b8878d02bf666339a2005b",
      "contractAddress": null
    },
    {
      "status": "0x1",
      "cumulativeGasUsed": "0x31cfe4",
      "logs": [
        {
          "address": "0xb574eb2fd1101a75070cda9673a6db207581c467",
          "topics": [
            "0x51eedbe668e048aec37e4dc0104031dbf295c9f3b35bfd9cb73a217b6ff81259",
            "0x000000000000000000000000e5f8c0bd7eda98f24f0b5002fa485d473fe7e7eb"
          ],
          "data": "0x0000000000000000000000000000000000000000033b2e3ca247696a79d6e5c80000000000000000000000000000000000000000033b2e3d5c8350305ec7c0b800000000000000000000000000000000000000000008523c78a8a6e81fc85489",
          "blockHash": "0x409169491e2b41fdad03a8ffbcc4a3d45c4569cfcea014da22d25bf274a78e7e",
          "blockNumber": "0x2c641ed",
          "blockTimestamp": "0x6a2a7add",
          "transactionHash": "0xb6bf8c8c7aba6391bc042ca3e708c086fbe01300c196fc737b2e407822025116",
          "transactionIndex": "0x14",
          "logIndex": "0x2b",
          "removed": false
        },
        {
          "address": "0xe5f8c0bd7eda98f24f0b5002fa485d473fe7e7eb",
          "topics": [
            "0xddf252ad1be2c89b69c2b068fc378daa952ba7f163c4a11628f55a4df523b3ef",
            "0x000000000000000000000000ca14e37c862465677caa064c20bdbb6673f6fe48",
            "0x000000000000000000000000b574eb2fd1101a75070cda9673a6db207581c467"
          ],
          "data": "0x00000000000000000000000000000000000000000000000000000001d134fce0",
          "blockHash": "0x409169491e2b41fdad03a8ffbcc4a3d45c4569cfcea014da22d25bf274a78e7e",
          "blockNumber": "0x2c641ed",
          "blockTimestamp": "0x6a2a7add",
          "transactionHash": "0xb6bf8c8c7aba6391bc042ca3e708c086fbe01300c196fc737b2e407822025116",
          "transactionIndex": "0x14",
          "logIndex": "0x2c",
          "removed": false
        },
        {
          "address": "0x254a2627eb0e2e3ded4cb2225afb8815f05e04e9",
          "topics": [
            "0xddf252ad1be2c89b69c2b068fc378daa952ba7f163c4a11628f55a4df523b3ef",
            "0x000000000000000000000000b574eb2fd1101a75070cda9673a6db207581c467",
            "0x000000000000000000000000ca14e37c862465677caa064c20bdbb6673f6fe48"
          ],
          "data": "0x00000000000000000000000000000000000000000000000000000002540be400",
          "blockHash": "0x409169491e2b41fdad03a8ffbcc4a3d45c4569cfcea014da22d25bf274a78e7e",
          "blockNumber": "0x2c641ed",
          "blockTimestamp": "0x6a2a7add",
          "transactionHash": "0xb6bf8c8c7aba6391bc042ca3e708c086fbe01300c196fc737b2e407822025116",
          "transactionIndex": "0x14",
          "logIndex": "0x2d",
          "removed": false
        },
        {
          "address": "0xb574eb2fd1101a75070cda9673a6db207581c467",
          "topics": [
            "0xda828cf61361478a6d2e2c531aa793167b754726e8b2d2798395b8bc571204c1",
            "0x000000000000000000000000ca14e37c862465677caa064c20bdbb6673f6fe48",
            "0x000000000000000000000000cbb3b40109e849a2cd1531258ce1797fa9eca7e7"
          ],
          "data": "0x000000000000000000000000254a2627eb0e2e3ded4cb2225afb8815f05e04e9000000000000000000000000e5f8c0bd7eda98f24f0b5002fa485d473fe7e7eb00000000000000000000000000000000000000000000000000000001d134fce000000000000000000000000000000000000000000000000000000002540be400",
          "blockHash": "0x409169491e2b41fdad03a8ffbcc4a3d45c4569cfcea014da22d25bf274a78e7e",
          "blockNumber": "0x2c641ed",
          "blockTimestamp": "0x6a2a7add",
          "transactionHash": "0xb6bf8c8c7aba6391bc042ca3e708c086fbe01300c196fc737b2e407822025116",
          "transactionIndex": "0x14",
          "logIndex": "0x2e",
          "removed": false
        }
      ],
      "logsBloom": "0x00040000000000000004000000000000020000000000040000001000000000000000100000000000000000000000000080210000000000000000000000000000000000000000000000000008000400000000000000000000100000000800000000000000000008000000000000090000000020000000000000000010000000000000000040000010000000000000000000000000000000000000000000002000001000000000000000000000000000000a00000000000000000000000000000000400002000000000000000000000000002000000000000000000800000000000080000000000000000000000000000000000000000001000000000000000000",
      "type": "0x2",
      "transactionHash": "0xb6bf8c8c7aba6391bc042ca3e708c086fbe01300c196fc737b2e407822025116",
      "transactionIndex": "0x14",
      "blockHash": "0x409169491e2b41fdad03a8ffbcc4a3d45c4569cfcea014da22d25bf274a78e7e",
      "blockNumber": "0x2c641ed",
      "gasUsed": "0x20414",
      "effectiveGasPrice": "0x4a851361a",
      "from": "0xca14e37c862465677caa064c20bdbb6673f6fe48",
      "to": "0xb574eb2fd1101a75070cda9673a6db207581c467",
      "contractAddress": null
    },
    {
      "status": "0x1",
      "cumulativeGasUsed": "0x20398c",
      "logs": [],
      "logsBloom": "0x00000000000000000000000000000000000000000000000000000000000000000000000000000000000000000000000000000000000000000000000000000000000000000000000000000000000000000000000000000000000000000000000000000000000000000000000000000000000000000000000000000000000000000000000000000000000000000000000000000000000000000000000000000000000000000000000000000000000000000000000000000000000000000000000000000000000000000000000000000000000000000000000000000000000000000000000000000000000000000000000000000000000000000000000000000000",
      "type": "0x2",
      "transactionHash": "0xcaf95629d859d52d595737b63a34ebc42a48feb2b27e55e72f6d867a385d5792",
      "transactionIndex": "0x17",
      "blockHash": "0xc8d8d57a5609a93d984e802fbcb929a563437699b84042543914f4679d99d190",
      "blockNumber": "0x2c641f1",
      "gasUsed": "0x68f9",
      "effectiveGasPrice": "0x4a851361a",
      "from": "0xca14e37c862465677caa064c20bdbb6673f6fe48",
      "to": "0xb241a035fb7a8c46e1b8878d02bf666339a2005b",
      "contractAddress": null
    }
  ],
  "libraries": [],
  "pending": [],
  "returns": {},
  "timestamp": 1781168865369,
  "chain": 5042002,
  "commit": "8420826"
}