{
  "transactions": [
    {
      "hash": "0xb170745d4b91a4bdaa01b3bd359e7547cdfb292b7a52309e7c4b48cad3770aaa",
      "transactionType": "CALL",
      "contractName": null,
      "contractAddress": "0xe5f8c0bd7eda98f24f0b5002fa485d473fe7e7eb",
      "function": "mint(address,uint256)",
      "arguments": [
        "0xCa14e37C862465677caA064c20BDBB6673F6FE48",
        "35000000000"
      ],
      "transaction": {
        "from": "0xca14e37c862465677caa064c20bdbb6673f6fe48",
        "to": "0xe5f8c0bd7eda98f24f0b5002fa485d473fe7e7eb",
        "gas": "0xb6e2",
        "value": "0x0",
        "input": "0x40c10f19000000000000000000000000ca14e37c862465677caa064c20bdbb6673f6fe480000000000000000000000000000000000000000000000000000000826299e00",
        "nonce": "0x2e",
        "chainId": "0x4cef52"
      },
      "additionalContracts": [],
      "isFixedGasLimit": false
    },
    {
      "hash": "0xe92a6bb2b595a3e245f4a4251ae96bddf6adb8f5cec1cc2d627a354065a9269c",
      "transactionType": "CALL",
      "contractName": null,
      "contractAddress": "0x254a2627eb0e2e3ded4cb2225afb8815f05e04e9",
      "function": "mint(address,uint256)",
      "arguments": [
        "0xCa14e37C862465677caA064c20BDBB6673F6FE48",
        "12000000000"
      ],
      "transaction": {
        "from": "0xca14e37c862465677caa064c20bdbb6673f6fe48",
        "to": "0x254a2627eb0e2e3ded4cb2225afb8815f05e04e9",
        "gas": "0xb6e2",
        "value": "0x0",
        "input": "0x40c10f19000000000000000000000000ca14e37c862465677caa064c20bdbb6673f6fe4800000000000000000000000000000000000000000000000000000002cb417800",
        "nonce": "0x2f",
        "chainId": "0x4cef52"
      },
      "additionalContracts": [],
      "isFixedGasLimit": false
    },
    {
      "hash": "0xae39028c7ee658bdd5c0c50247b040adc6310d04d5491bde55f6f08e81910eba",
      "transactionType": "CALL",
      "contractName": null,
      "contractAddress": "0xcdea155469985f1e6910bbc53278cb2008bff207",
      "function": "mint(address,uint256)",
      "arguments": [
        "0xCBb3b40109E849a2cD1531258CE1797Fa9ECA7e7",
        "15000000000000000000"
      ],
      "transaction": {
        "from": "0xca14e37c862465677caa064c20bdbb6673f6fe48",
        "to": "0xcdea155469985f1e6910bbc53278cb2008bff207",
        "gas": "0x11346",
        "value": "0x0",
        "input": "0x40c10f19000000000000000000000000cbb3b40109e849a2cd1531258ce1797fa9eca7e7000000000000000000000000000000000000000000000000d02ab486cedc0000",
        "nonce": "0x30",
        "chainId": "0x4cef52"
      },
      "additionalContracts": [],
      "isFixedGasLimit": false
    },
    {
      "hash": "0x87c96217fcda6f86ee7290b5dbf218a0f7a7f6c89d7f0f5a991b2c7fb2bc5f0d",
      "transactionType": "CALL",
      "contractName": null,
      "contractAddress": "0xe5f8c0bd7eda98f24f0b5002fa485d473fe7e7eb",
      "function": "mint(address,uint256)",
      "arguments": [
        "0xCBb3b40109E849a2cD1531258CE1797Fa9ECA7e7",
        "1000000000"
      ],
      "transaction": {
        "from": "0xca14e37c862465677caa064c20bdbb6673f6fe48",
        "to": "0xe5f8c0bd7eda98f24f0b5002fa485d473fe7e7eb",
        "gas": "0xb6d1",
        "value": "0x0",
        "input": "0x40c10f19000000000000000000000000cbb3b40109e849a2cd1531258ce1797fa9eca7e7000000000000000000000000000000000000000000000000000000003b9aca00",
        "nonce": "0x31",
        "chainId": "0x4cef52"
      },
      "additionalContracts": [],
      "isFixedGasLimit": false
    },
    {
      "hash": "0x605bc090f3c52082b85b639d067722409b5231f01f7742f9ff5d332738c1ba4c",
      "transactionType": "CALL",
      "contractName": null,
      "contractAddress": "0x254a2627eb0e2e3ded4cb2225afb8815f05e04e9",
      "function": "mint(address,uint256)",
      "arguments": [
        "0xE52C9AA4d90C9C1050228DC08E6c336da64251AF",
        "32000000000"
      ],
      "transaction": {
        "from": "0xca14e37c862465677caa064c20bdbb6673f6fe48",
        "to": "0x254a2627eb0e2e3ded4cb2225afb8815f05e04e9",
        "gas": "0xb6e2",
        "value": "0x0",
        "input": "0x40c10f19000000000000000000000000e52c9aa4d90c9c1050228dc08e6c336da64251af0000000000000000000000000000000000000000000000000000000773594000",
        "nonce": "0x32",
        "chainId": "0x4cef52"
      },
      "additionalContracts": [],
      "isFixedGasLimit": false
    },
    {
      "hash": "0x592adcda7ca578f0ee08a489418498dd743a4462c1e3683dff3fcf568e3d848c",
      "transactionType": "CALL",
      "contractName": null,
      "contractAddress": "0xcdea155469985f1e6910bbc53278cb2008bff207",
      "function": "mint(address,uint256)",
      "arguments": [
        "0xE52C9AA4d90C9C1050228DC08E6c336da64251AF",
        "5000000000000000000"
      ],
      "transaction": {
        "from": "0xca14e37c862465677caa064c20bdbb6673f6fe48",
        "to": "0xcdea155469985f1e6910bbc53278cb2008bff207",
        "gas": "0xb704",
        "value": "0x0",
        "input": "0x40c10f19000000000000000000000000e52c9aa4d90c9c1050228dc08e6c336da64251af0000000000000000000000000000000000000000000000004563918244f40000",
        "nonce": "0x33",
        "chainId": "0x4cef52"
      },
      "additionalContracts": [],
      "isFixedGasLimit": false
    },
    {
      "hash": "0x42c92016a326ac2aa73f96676820213a9c5abc9c815f47552a32dd990700576f",
      "transactionType": "CALL",
      "contractName": null,
      "contractAddress": "0xe5f8c0bd7eda98f24f0b5002fa485d473fe7e7eb",
      "function": "mint(address,uint256)",
      "arguments": [
        "0xE52C9AA4d90C9C1050228DC08E6c336da64251AF",
        "1000000000"
      ],
      "transaction": {
        "from": "0xca14e37c862465677caa064c20bdbb6673f6fe48",
        "to": "0xe5f8c0bd7eda98f24f0b5002fa485d473fe7e7eb",
        "gas": "0xb6d1",
        "value": "0x0",
        "input": "0x40c10f19000000000000000000000000e52c9aa4d90c9c1050228dc08e6c336da64251af000000000000000000000000000000000000000000000000000000003b9aca00",
        "nonce": "0x34",
        "chainId": "0x4cef52"
      },
      "additionalContracts": [],
      "isFixedGasLimit": false
    },
    {
      "hash": "0x5e9eb911846632d2fc7a4a6cffabd04573a6755b16d60b6fc9c8ff812135fd11",
      "transactionType": "CALL",
      "contractName": null,
      "contractAddress": "0xe5f8c0bd7eda98f24f0b5002fa485d473fe7e7eb",
      "function": "mint(address,uint256)",
      "arguments": [
        "0x2968871b9780B38FFcf2221653ABB09aD1038552",
        "27000000000"
      ],
      "transaction": {
        "from": "0xca14e37c862465677caa064c20bdbb6673f6fe48",
        "to": "0xe5f8c0bd7eda98f24f0b5002fa485d473fe7e7eb",
        "gas": "0xb6e2",
        "value": "0x0",
        "input": "0x40c10f190000000000000000000000002968871b9780b38ffcf2221653abb09ad10385520000000000000000000000000000000000000000000000000000000649534e00",
        "nonce": "0x35",
        "chainId": "0x4cef52"
      },
      "additionalContracts": [],
      "isFixedGasLimit": false
    },
    {
      "hash": "0x9d5b3892216805324fef0efa381b6e4ff5240922ebdef529a9a2c0f3a6a2f5b2",
      "transactionType": "CALL",
      "contractName": null,
      "contractAddress": "0x254a2627eb0e2e3ded4cb2225afb8815f05e04e9",
      "function": "mint(address,uint256)",
      "arguments": [
        "0x2968871b9780B38FFcf2221653ABB09aD1038552",
        "1000000000"
      ],
      "transaction": {
        "from": "0xca14e37c862465677caa064c20bdbb6673f6fe48",
        "to": "0x254a2627eb0e2e3ded4cb2225afb8815f05e04e9",
        "gas": "0xb6d1",
        "value": "0x0",
        "input": "0x40c10f190000000000000000000000002968871b9780b38ffcf2221653abb09ad1038552000000000000000000000000000000000000000000000000000000003b9aca00",
        "nonce": "0x36",
        "chainId": "0x4cef52"
      },
      "additionalContracts": [],
      "isFixedGasLimit": false
    },
    {
      "hash": "0x05a31ccdbcd368454f73937eb0450752cde3ec62634a002cd5303054d7eaf54f",
      "transactionType": "CALL",
      "contractName": null,
      "contractAddress": "0xe5f8c0bd7eda98f24f0b5002fa485d473fe7e7eb",
      "function": "approve(address,uint256)",
      "arguments": [
        "0xB574Eb2FD1101A75070Cda9673a6dB207581C467",
        "115792089237316195423570985008687907853269984665640564039457584007913129639935"
      ],
      "transaction": {
        "from": "0xca14e37c862465677caa064c20bdbb6673f6fe48",
        "to": "0xe5f8c0bd7eda98f24f0b5002fa485d473fe7e7eb",
        "gas": "0x8e58",
        "value": "0x0",
        "input": "0x095ea7b3000000000000000000000000b574eb2fd1101a75070cda9673a6db207581c467ffffffffffffffffffffffffffffffffffffffffffffffffffffffffffffffff",
        "nonce": "0x37",
        "chainId": "0x4cef52"
      },
      "additionalContracts": [],
      "isFixedGasLimit": false
    },
    {
      "hash": "0xec53827af73af0a3d934525de633442e4761ca65aab53cc8d3c369b65f36516d",
      "transactionType": "CALL",
      "contractName": null,
      "contractAddress": "0x254a2627eb0e2e3ded4cb2225afb8815f05e04e9",
      "function": "approve(address,uint256)",
      "arguments": [
        "0xB574Eb2FD1101A75070Cda9673a6dB207581C467",
        "115792089237316195423570985008687907853269984665640564039457584007913129639935"
      ],
      "transaction": {
        "from": "0xca14e37c862465677caa064c20bdbb6673f6fe48",
        "to": "0x254a2627eb0e2e3ded4cb2225afb8815f05e04e9",
        "gas": "0x8e58",
        "value": "0x0",
        "input": "0x095ea7b3000000000000000000000000b574eb2fd1101a75070cda9673a6db207581c467ffffffffffffffffffffffffffffffffffffffffffffffffffffffffffffffff",
        "nonce": "0x38",
        "chainId": "0x4cef52"
      },
      "additionalContracts": [],
      "isFixedGasLimit": false
    },
    {
      "hash": "0x76dd4e48e0f0145dcec0a23598395c31c5c4c35c758c851cc61761a3e81aed27",
      "transactionType": "CALL",
      "contractName": null,
      "contractAddress": "0xb574eb2fd1101a75070cda9673a6db207581c467",
      "function": "deposit(address,uint256)",
      "arguments": [
        "0xe5F8C0bD7Eda98F24f0B5002Fa485D473FE7E7Eb",
        "20000000000"
      ],
      "transaction": {
        "from": "0xca14e37c862465677caa064c20bdbb6673f6fe48",
        "to": "0xb574eb2fd1101a75070cda9673a6db207581c467",
        "gas": "0x1cb5f",
        "value": "0x0",
        "input": "0x47e7ef24000000000000000000000000e5f8c0bd7eda98f24f0b5002fa485d473fe7e7eb00000000000000000000000000000000000000000000000000000004a817c800",
        "nonce": "0x39",
        "chainId": "0x4cef52"
      },
      "additionalContracts": [],
      "isFixedGasLimit": false
    },
    {
      "hash": "0x29b04c5cc6712cb5d1c463296f8b538ef3157e20b13bc5c102bbdb43af8644ab",
      "transactionType": "CALL",
      "contractName": null,
      "contractAddress": "0xcdea155469985f1e6910bbc53278cb2008bff207",
      "function": "approve(address,uint256)",
      "arguments": [
        "0xB574Eb2FD1101A75070Cda9673a6dB207581C467",
        "115792089237316195423570985008687907853269984665640564039457584007913129639935"
      ],
      "transaction": {
        "from": "0xcbb3b40109e849a2cd1531258ce1797fa9eca7e7",
        "to": "0xcdea155469985f1e6910bbc53278cb2008bff207",
        "gas": "0x8e58",
        "value": "0x0",
        "input": "0x095ea7b3000000000000000000000000b574eb2fd1101a75070cda9673a6db207581c467ffffffffffffffffffffffffffffffffffffffffffffffffffffffffffffffff",
        "nonce": "0x5",
        "chainId": "0x4cef52"
      },
      "additionalContracts": [],
      "isFixedGasLimit": false
    },
    {
      "hash": "0x488cac0899c1ca900c3b07b312c6aab9e9a33cb9610072095955f83daa16eeb7",
      "transactionType": "CALL",
      "contractName": null,
      "contractAddress": "0xe5f8c0bd7eda98f24f0b5002fa485d473fe7e7eb",
      "function": "approve(address,uint256)",
      "arguments": [
        "0xB574Eb2FD1101A75070Cda9673a6dB207581C467",
        "115792089237316195423570985008687907853269984665640564039457584007913129639935"
      ],
      "transaction": {
        "from": "0xcbb3b40109e849a2cd1531258ce1797fa9eca7e7",
        "to": "0xe5f8c0bd7eda98f24f0b5002fa485d473fe7e7eb",
        "gas": "0x8e58",
        "value": "0x0",
        "input": "0x095ea7b3000000000000000000000000b574eb2fd1101a75070cda9673a6db207581c467ffffffffffffffffffffffffffffffffffffffffffffffffffffffffffffffff",
        "nonce": "0x6",
        "chainId": "0x4cef52"
      },
      "additionalContracts": [],
      "isFixedGasLimit": false
    },
    {
      "hash": "0x55a9cc7bfd21361e89e37d38646c8a6d1a0e5f35d6be7cc4e8ff8545223ee9bd",
      "transactionType": "CALL",
      "contractName": null,
      "contractAddress": "0xb574eb2fd1101a75070cda9673a6db207581c467",
      "function": "deposit(address,uint256)",
      "arguments": [
        "0xCDeA155469985F1E6910bbC53278Cb2008bff207",
        "10000000000000000000"
      ],
      "transaction": {
        "from": "0xcbb3b40109e849a2cd1531258ce1797fa9eca7e7",
        "to": "0xb574eb2fd1101a75070cda9673a6db207581c467",
        "gas": "0x1cabc",
        "value": "0x0",
        "input": "0x47e7ef24000000000000000000000000cdea155469985f1e6910bbc53278cb2008bff2070000000000000000000000000000000000000000000000008ac7230489e80000",
        "nonce": "0x7",
        "chainId": "0x4cef52"
      },
      "additionalContracts": [],
      "isFixedGasLimit": false
    },
    {
      "hash": "0xadc7e6d6c9fcd87563c841cc0f4a0b42794eca4db673e9134c0012c0da066acd",
      "transactionType": "CALL",
      "contractName": null,
      "contractAddress": "0x254a2627eb0e2e3ded4cb2225afb8815f05e04e9",
      "function": "approve(address,uint256)",
      "arguments": [
        "0xB574Eb2FD1101A75070Cda9673a6dB207581C467",
        "115792089237316195423570985008687907853269984665640564039457584007913129639935"
      ],
      "transaction": {
        "from": "0xe52c9aa4d90c9c1050228dc08e6c336da64251af",
        "to": "0x254a2627eb0e2e3ded4cb2225afb8815f05e04e9",
        "gas": "0x8e58",
        "value": "0x0",
        "input": "0x095ea7b3000000000000000000000000b574eb2fd1101a75070cda9673a6db207581c467ffffffffffffffffffffffffffffffffffffffffffffffffffffffffffffffff",
        "nonce": "0x8",
        "chainId": "0x4cef52"
      },
      "additionalContracts": [],
      "isFixedGasLimit": false
    },
    {
      "hash": "0x1669ac7b9912440c001ddf94eb44cc8cfb84f4830404c63e8e2865e85c859ee4",
      "transactionType": "CALL",
      "contractName": null,
      "contractAddress": "0xcdea155469985f1e6910bbc53278cb2008bff207",
      "function": "approve(address,uint256)",
      "arguments": [
        "0xB574Eb2FD1101A75070Cda9673a6dB207581C467",
        "115792089237316195423570985008687907853269984665640564039457584007913129639935"
      ],
      "transaction": {
        "from": "0xe52c9aa4d90c9c1050228dc08e6c336da64251af",
        "to": "0xcdea155469985f1e6910bbc53278cb2008bff207",
        "gas": "0x8e58",
        "value": "0x0",
        "input": "0x095ea7b3000000000000000000000000b574eb2fd1101a75070cda9673a6db207581c467ffffffffffffffffffffffffffffffffffffffffffffffffffffffffffffffff",
        "nonce": "0x9",
        "chainId": "0x4cef52"
      },
      "additionalContracts": [],
      "isFixedGasLimit": false
    },
    {
      "hash": "0x56e76f7bc1830dbe9918043736081cc4fb0172169aab93c5044fd9a81188706b",
      "transactionType": "CALL",
      "contractName": null,
      "contractAddress": "0xe5f8c0bd7eda98f24f0b5002fa485d473fe7e7eb",
      "function": "approve(address,uint256)",
      "arguments": [
        "0xB574Eb2FD1101A75070Cda9673a6dB207581C467",
        "115792089237316195423570985008687907853269984665640564039457584007913129639935"
      ],
      "transaction": {
        "from": "0xe52c9aa4d90c9c1050228dc08e6c336da64251af",
        "to": "0xe5f8c0bd7eda98f24f0b5002fa485d473fe7e7eb",
        "gas": "0x8e58",
        "value": "0x0",
        "input": "0x095ea7b3000000000000000000000000b574eb2fd1101a75070cda9673a6db207581c467ffffffffffffffffffffffffffffffffffffffffffffffffffffffffffffffff",
        "nonce": "0xa",
        "chainId": "0x4cef52"
      },
      "additionalContracts": [],
      "isFixedGasLimit": false
    },
    {
      "hash": "0xdb992df263602073a03e0d29f2d69c7d276df43f6e5506d145dc258e825a9c8e",
      "transactionType": "CALL",
      "contractName": null,
      "contractAddress": "0xb574eb2fd1101a75070cda9673a6db207581c467",
      "function": "deposit(address,uint256)",
      "arguments": [
        "0x254a2627EB0e2e3ded4CB2225AFb8815f05e04e9",
        "30000000000"
      ],
      "transaction": {
        "from": "0xe52c9aa4d90c9c1050228dc08e6c336da64251af",
        "to": "0xb574eb2fd1101a75070cda9673a6db207581c467",
        "gas": "0x1cb5f",
        "value": "0x0",
        "input": "0x47e7ef24000000000000000000000000254a2627eb0e2e3ded4cb2225afb8815f05e04e900000000000000000000000000000000000000000000000000000006fc23ac00",
        "nonce": "0xb",
        "chainId": "0x4cef52"
      },
      "additionalContracts": [],
      "isFixedGasLimit": false
    },
    {
      "hash": "0x690ce8a531953c472cfd778ed8988afebd83c6e4badff5604e3a3bdd036c1d3f",
      "transactionType": "CALL",
      "contractName": null,
      "contractAddress": "0xe5f8c0bd7eda98f24f0b5002fa485d473fe7e7eb",
      "function": "approve(address,uint256)",
      "arguments": [
        "0xB574Eb2FD1101A75070Cda9673a6dB207581C467",
        "115792089237316195423570985008687907853269984665640564039457584007913129639935"
      ],
      "transaction": {
        "from": "0x2968871b9780b38ffcf2221653abb09ad1038552",
        "to": "0xe5f8c0bd7eda98f24f0b5002fa485d473fe7e7eb",
        "gas": "0x8e58",
        "value": "0x0",
        "input": "0x095ea7b3000000000000000000000000b574eb2fd1101a75070cda9673a6db207581c467ffffffffffffffffffffffffffffffffffffffffffffffffffffffffffffffff",
        "nonce": "0x8",
        "chainId": "0x4cef52"
      },
      "additionalContracts": [],
      "isFixedGasLimit": false
    },
    {
      "hash": "0xe0f68223aad8e170a6d4b5c3496d24c25964b3dfd8e3dec0d8d2dfd0baf97a8a",
      "transactionType": "CALL",
      "contractName": null,
      "contractAddress": "0x254a2627eb0e2e3ded4cb2225afb8815f05e04e9",
      "function": "approve(address,uint256)",
      "arguments": [
        "0xB574Eb2FD1101A75070Cda9673a6dB207581C467",
        "115792089237316195423570985008687907853269984665640564039457584007913129639935"
      ],
      "transaction": {
        "from": "0x2968871b9780b38ffcf2221653abb09ad1038552",
        "to": "0x254a2627eb0e2e3ded4cb2225afb8815f05e04e9",
        "gas": "0x8e58",
        "value": "0x0",
        "input": "0x095ea7b3000000000000000000000000b574eb2fd1101a75070cda9673a6db207581c467ffffffffffffffffffffffffffffffffffffffffffffffffffffffffffffffff",
        "nonce": "0x9",
        "chainId": "0x4cef52"
      },
      "additionalContracts": [],
      "isFixedGasLimit": false
    },
    {
      "hash": "0x1e1f979bef3452ed71b55e672a4664f9459965e219450562cf35e283af29ab11",
      "transactionType": "CALL",
      "contractName": null,
      "contractAddress": "0xb574eb2fd1101a75070cda9673a6db207581c467",
      "function": "deposit(address,uint256)",
      "arguments": [
        "0xe5F8C0bD7Eda98F24f0B5002Fa485D473FE7E7Eb",
        "15000000000"
      ],
      "transaction": {
        "from": "0x2968871b9780b38ffcf2221653abb09ad1038552",
        "to": "0xb574eb2fd1101a75070cda9673a6db207581c467",
        "gas": "0x1fc6c",
        "value": "0x0",
        "input": "0x47e7ef24000000000000000000000000e5f8c0bd7eda98f24f0b5002fa485d473fe7e7eb000000000000000000000000000000000000000000000000000000037e11d600",
        "nonce": "0xa",
        "chainId": "0x4cef52"
      },
      "additionalContracts": [],
      "isFixedGasLimit": false
    },
    {
      "hash": "0x82cc29b439ae06a046ad2fdfbe68c2b035286e67e16b3ce1f0f98f7bd4ae3233",
      "transactionType": "CALL",
      "contractName": null,
      "contractAddress": "0xb574eb2fd1101a75070cda9673a6db207581c467",
      "function": "openPosition(address,uint256,address,uint256)",
      "arguments": [
        "0xCDeA155469985F1E6910bbC53278Cb2008bff207",
        "5000000000000000000",
        "0xe5F8C0bD7Eda98F24f0B5002Fa485D473FE7E7Eb",
        "10000000000"
      ],
      "transaction": {
        "from": "0xcbb3b40109e849a2cd1531258ce1797fa9eca7e7",
        "to": "0xb574eb2fd1101a75070cda9673a6db207581c467",
        "gas": "0x5b7b9",
        "value": "0x0",
        "input": "0xd563eb29000000000000000000000000cdea155469985f1e6910bbc53278cb2008bff2070000000000000000000000000000000000000000000000004563918244f40000000000000000000000000000e5f8c0bd7eda98f24f0b5002fa485d473fe7e7eb00000000000000000000000000000000000000000000000000000002540be400",
        "nonce": "0x8",
        "chainId": "0x4cef52"
      },
      "additionalContracts": [],
      "isFixedGasLimit": false
    },
    {
      "hash": "0x61b95f1e506597a474d3f69ecc24c84b93b5ebae2728d728a9103c0c05809b25",
      "transactionType": "CALL",
      "contractName": null,
      "contractAddress": "0xb574eb2fd1101a75070cda9673a6db207581c467",
      "function": "openPosition(address,uint256,address,uint256)",
      "arguments": [
        "0xCDeA155469985F1E6910bbC53278Cb2008bff207",
        "3000000000000000000",
        "0xe5F8C0bD7Eda98F24f0B5002Fa485D473FE7E7Eb",
        "6000000000"
      ],
      "transaction": {
        "from": "0xe52c9aa4d90c9c1050228dc08e6c336da64251af",
        "to": "0xb574eb2fd1101a75070cda9673a6db207581c467",
        "gas": "0x5c78e",
        "value": "0x0",
        "input": "0xd563eb29000000000000000000000000cdea155469985f1e6910bbc53278cb2008bff20700000000000000000000000000000000000000000000000029a2241af62c0000000000000000000000000000e5f8c0bd7eda98f24f0b5002fa485d473fe7e7eb0000000000000000000000000000000000000000000000000000000165a0bc00",
        "nonce": "0xc",
        "chainId": "0x4cef52"
      },
      "additionalContracts": [],
      "isFixedGasLimit": false
    },
    {
      "hash": "0x11f9fe511032437ac7bc9d2c05513d4b87c28be3197a8f68e86f6ae44b2942d8",
      "transactionType": "CALL",
      "contractName": null,
      "contractAddress": "0xb574eb2fd1101a75070cda9673a6db207581c467",
      "function": "openPosition(address,uint256,address,uint256)",
      "arguments": [
        "0xe5F8C0bD7Eda98F24f0B5002Fa485D473FE7E7Eb",
        "10000000000",
        "0x254a2627EB0e2e3ded4CB2225AFb8815f05e04e9",
        "7500000000"
      ],
      "transaction": {
        "from": "0x2968871b9780b38ffcf2221653abb09ad1038552",
        "to": "0xb574eb2fd1101a75070cda9673a6db207581c467",
        "gas": "0x6288b",
        "value": "0x0",
        "input": "0xd563eb29000000000000000000000000e5f8c0bd7eda98f24f0b5002fa485d473fe7e7eb00000000000000000000000000000000000000000000000000000002540be400000000000000000000000000254a2627eb0e2e3ded4cb2225afb8815f05e04e900000000000000000000000000000000000000000000000000000001bf08eb00",
        "nonce": "0xb",
        "chainId": "0x4cef52"
      },
      "additionalContracts": [],
      "isFixedGasLimit": false
    },
    {
      "hash": "0x1867fcd9e7e3db97a9ff0ee8a0dd544546404c862d696f944cea4fe331634987",
      "transactionType": "CALL",
      "contractName": null,
      "contractAddress": "0xb574eb2fd1101a75070cda9673a6db207581c467",
      "function": "openPosition(address,uint256,address,uint256)",
      "arguments": [
        "0x254a2627EB0e2e3ded4CB2225AFb8815f05e04e9",
        "10000000000",
        "0xe5F8C0bD7Eda98F24f0B5002Fa485D473FE7E7Eb",
        "8000000000"
      ],
      "transaction": {
        "from": "0xca14e37c862465677caa064c20bdbb6673f6fe48",
        "to": "0xb574eb2fd1101a75070cda9673a6db207581c467",
        "gas": "0x5d0ef",
        "value": "0x0",
        "input": "0xd563eb29000000000000000000000000254a2627eb0e2e3ded4cb2225afb8815f05e04e900000000000000000000000000000000000000000000000000000002540be400000000000000000000000000e5f8c0bd7eda98f24f0b5002fa485d473fe7e7eb00000000000000000000000000000000000000000000000000000001dcd65000",
        "nonce": "0x3a",
        "chainId": "0x4cef52"
      },
      "additionalContracts": [],
      "isFixedGasLimit": false
    }
  ],
  "receipts": [
    {
      "status": "0x1",
      "cumulativeGasUsed": "0x2cf9ec",
      "logs": [
        {
          "address": "0xe5f8c0bd7eda98f24f0b5002fa485d473fe7e7eb",
          "topics": [
            "0xddf252ad1be2c89b69c2b068fc378daa952ba7f163c4a11628f55a4df523b3ef",
            "0x0000000000000000000000000000000000000000000000000000000000000000",
            "0x000000000000000000000000ca14e37c862465677caa064c20bdbb6673f6fe48"
          ],
          "data": "0x0000000000000000000000000000000000000000000000000000000826299e00",
          "blockHash": "0x2522fb25f65dc7488845bcdcb51e15e39e2b711c6ea4e4142d06fd6c6df1d55e",
          "blockNumber": "0x2c86c66",
          "blockTimestamp": "0x6a2bab5c",
          "transactionHash": "0xb170745d4b91a4bdaa01b3bd359e7547cdfb292b7a52309e7c4b48cad3770aaa",
          "transactionIndex": "0x16",
          "logIndex": "0x4a",
          "removed": false
        }
      ],
      "logsBloom": "0x00000000000000000000000000000000000000000000040000000000000000000000000000000000000000000000000000000000000000000000000000000000000000000000000000000008000000000000000000000000100000000000000000000000020000000000000000000800000000000000000000000010000000000000000040000000000000000000000000000000000000000000000000000000000000000000000000000000000000000000000000000000000000000000000000400002000000000000000000000000000000000000000000000000000020000080000000000000000000000000000000000000000001000000000000000000",
      "type": "0x2",
      "transactionHash": "0xb170745d4b91a4bdaa01b3bd359e7547cdfb292b7a52309e7c4b48cad3770aaa",
      "transactionIndex": "0x16",
      "blockHash": "0x2522fb25f65dc7488845bcdcb51e15e39e2b711c6ea4e4142d06fd6c6df1d55e",
      "blockNumber": "0x2c86c66",
      "gasUsed": "0x8468",
      "effectiveGasPrice": "0x4a851361a",
      "from": "0xca14e37c862465677caa064c20bdbb6673f6fe48",
      "to": "0xe5f8c0bd7eda98f24f0b5002fa485d473fe7e7eb",
      "contractAddress": null
    },
    {
      "status": "0x1",
      "cumulativeGasUsed": "0x246ff8",
      "logs": [
        {
          "address": "0x254a2627eb0e2e3ded4cb2225afb8815f05e04e9",
          "topics": [
            "0xddf252ad1be2c89b69c2b068fc378daa952ba7f163c4a11628f55a4df523b3ef",
            "0x0000000000000000000000000000000000000000000000000000000000000000",
            "0x000000000000000000000000ca14e37c862465677caa064c20bdbb6673f6fe48"
          ],
          "data": "0x00000000000000000000000000000000000000000000000000000002cb417800",
          "blockHash": "0xada32301dc89c1daa94b94b1fa0b6f5462c5a84a0b74c19196698bd36524bf0e",
          "blockNumber": "0x2c86c6c",
          "blockTimestamp": "0x6a2bab5f",
          "transactionHash": "0xe92a6bb2b595a3e245f4a4251ae96bddf6adb8f5cec1cc2d627a354065a9269c",
          "transactionIndex": "0xf",
          "logIndex": "0x29",
          "removed": false
        }
      ],
      "logsBloom": "0x00000000000000000000000000000000000000000000040000000000000000000000000000000000000000000000000000200000000000000000000000000000000000000000000000000008000000000000000000000000000000000000000000000000020000000000000000000800000020000000000000000010000000000000000000000000000000000000000000000000000000000000000000000000000000000000000000000000000000000000000000000000000000000000000000000002000000000000000000000000000000000000000000000800000020000080000000000000000000000000000000000000000001000000000000000000",
      "type": "0x2",
      "transactionHash": "0xe92a6bb2b595a3e245f4a4251ae96bddf6adb8f5cec1cc2d627a354065a9269c",
      "transactionIndex": "0xf",
      "blockHash": "0xada32301dc89c1daa94b94b1fa0b6f5462c5a84a0b74c19196698bd36524bf0e",
      "blockNumber": "0x2c86c6c",
      "gasUsed": "0x8468",
      "effectiveGasPrice": "0x4a851361a",
      "from": "0xca14e37c862465677caa064c20bdbb6673f6fe48",
      "to": "0x254a2627eb0e2e3ded4cb2225afb8815f05e04e9",
      "contractAddress": null
    },
    {
      "status": "0x1",
      "cumulativeGasUsed": "0x11422f",
      "logs": [
        {
          "address": "0xcdea155469985f1e6910bbc53278cb2008bff207",
          "topics": [
            "0xddf252ad1be2c89b69c2b068fc378daa952ba7f163c4a11628f55a4df523b3ef",
            "0x0000000000000000000000000000000000000000000000000000000000000000",
            "0x000000000000000000000000cbb3b40109e849a2cd1531258ce1797fa9eca7e7"
          ],
          "data": "0x000000000000000000000000000000000000000000000000d02ab486cedc0000",
          "blockHash": "0x09587d016fae6575a6c2666525e2686c960572df98c9d6bd91dd78b1342105c6",
          "blockNumber": "0x2c86c71",
          "blockTimestamp": "0x6a2bab62",
          "transactionHash": "0xae39028c7ee658bdd5c0c50247b040adc6310d04d5491bde55f6f08e81910eba",
          "transactionIndex": "0xa",
          "logIndex": "0x20",
          "removed": false
        }
      ],
      "logsBloom": "0x00000000000000000000000000000000020000000000000000000000000000000000000000000000000000000000000000000000000000000000000000000000000000000000000000000008000000000000000000000000000000000000000000000040020000000000000000000800000000000000000000000010000000000000000000000004000000000000000000000000000000000000000000000000000000000000000000000000000000000200000000000000000000000000000000000002000000000008000000000000002000000000000000000000000020000000000000000000000000000000000000000000000000000000000000000000",
      "type": "0x2",
      "transactionHash": "0xae39028c7ee658bdd5c0c50247b040adc6310d04d5491bde55f6f08e81910eba",
      "transactionIndex": "0xa",
      "blockHash": "0x09587d016fae6575a6c2666525e2686c960572df98c9d6bd91dd78b1342105c6",
      "blockNumber": "0x2c86c71",
      "gasUsed": "0xc74c",
      "effectiveGasPrice": "0x4a851361a",
      "from": "0xca14e37c862465677caa064c20bdbb6673f6fe48",
      "to": "0xcdea155469985f1e6910bbc53278cb2008bff207",
      "contractAddress": null
    },
    {
      "status": "0x1",
      "cumulativeGasUsed": "0x3158af",
      "logs": [
        {
          "address": "0xe5f8c0bd7eda98f24f0b5002fa485d473fe7e7eb",
          "topics": [
            "0xddf252ad1be2c89b69c2b068fc378daa952ba7f163c4a11628f55a4df523b3ef",
            "0x0000000000000000000000000000000000000000000000000000000000000000",
            "0x000000000000000000000000cbb3b40109e849a2cd1531258ce1797fa9eca7e7"
          ],
          "data": "0x000000000000000000000000000000000000000000000000000000003b9aca00",
          "blockHash": "0x2f0aea767b17fe003203d22fcb8668e7e5cca28876d84ab002f819d6b8632714",
          "blockNumber": "0x2c86c75",
          "blockTimestamp": "0x6a2bab64",
          "transactionHash": "0x87c96217fcda6f86ee7290b5dbf218a0f7a7f6c89d7f0f5a991b2c7fb2bc5f0d",
          "transactionIndex": "0x13",
          "logIndex": "0x3b",
          "removed": false
        }
      ],
      "logsBloom": "0x00000000000000000000000000000000020000000000000000000000000000000000000000000000000000000000000000000000000000000000000000000000000000000000000000000008000000000000000000000000100000000000000000000000020000000000000000000800000000000000000000000010000000000000000040000000000000000000000000000000000000000000000000000000000000000000000000000000000000000200000000000000000000000000000000400002000000000000000000000000002000000000000000000000000020000000000000000000000000000000000000000000000000000000000000000000",
      "type": "0x2",
      "transactionHash": "0x87c96217fcda6f86ee7290b5dbf218a0f7a7f6c89d7f0f5a991b2c7fb2bc5f0d",
      "transactionIndex": "0x13",
      "blockHash": "0x2f0aea767b17fe003203d22fcb8668e7e5cca28876d84ab002f819d6b8632714",
      "blockNumber": "0x2c86c75",
      "gasUsed": "0x845c",
      "effectiveGasPrice": "0x4a851361a",
      "from": "0xca14e37c862465677caa064c20bdbb6673f6fe48",
      "to": "0xe5f8c0bd7eda98f24f0b5002fa485d473fe7e7eb",
      "contractAddress": null
    },
    {
      "status": "0x1",
      "cumulativeGasUsed": "0x16e3e3",
      "logs": [
        {
          "address": "0x254a2627eb0e2e3ded4cb2225afb8815f05e04e9",
          "topics": [
            "0xddf252ad1be2c89b69c2b068fc378daa952ba7f163c4a11628f55a4df523b3ef",
            "0x0000000000000000000000000000000000000000000000000000000000000000",
            "0x000000000000000000000000e52c9aa4d90c9c1050228dc08e6c336da64251af"
          ],
          "data": "0x0000000000000000000000000000000000000000000000000000000773594000",
          "blockHash": "0x00f042d3e6b365d07c4330c842cc6eb272b409677dc61d647568f18eab30c404",
          "blockNumber": "0x2c86c7a",
          "blockTimestamp": "0x6a2bab67",
          "transactionHash": "0x605bc090f3c52082b85b639d067722409b5231f01f7742f9ff5d332738c1ba4c",
          "transactionIndex": "0xf",
          "logIndex": "0x27",
          "removed": false
        }
      ],
      "logsBloom": "0x00000000000000000000000000000000000000000000000000000000000000000000000000000000000000000000000000200000000000000000000000000000000100000000000000000008000000000000000000000000000000000000000000000000020000000000000000000800000020000000000000000010000000000000000000000000000000000000000000000000000000000000000000000000000000000000000000000000000000000000000000000000000000000000000000000002000000000000000000000000000000000000000000000800000020000000000000000000000000000000000000000000000000000000000110000000",
      "type": "0x2",
      "transactionHash": "0x605bc090f3c52082b85b639d067722409b5231f01f7742f9ff5d332738c1ba4c",
      "transactionIndex": "0xf",
      "blockHash": "0x00f042d3e6b365d07c4330c842cc6eb272b409677dc61d647568f18eab30c404",
      "blockNumber": "0x2c86c7a",
      "gasUsed": "0x8468",
      "effectiveGasPrice": "0x4a851361a",
      "from": "0xca14e37c862465677caa064c20bdbb6673f6fe48",
      "to": "0x254a2627eb0e2e3ded4cb2225afb8815f05e04e9",
      "contractAddress": null
    },
    {
      "status": "0x1",
      "cumulativeGasUsed": "0x3a0bf1",
      "logs": [
        {
          "address": "0xcdea155469985f1e6910bbc53278cb2008bff207",
          "topics": [
            "0xddf252ad1be2c89b69c2b068fc378daa952ba7f163c4a11628f55a4df523b3ef",
            "0x0000000000000000000000000000000000000000000000000000000000000000",
            "0x000000000000000000000000e52c9aa4d90c9c1050228dc08e6c336da64251af"
          ],
          "data": "0x0000000000000000000000000000000000000000000000004563918244f40000",
          "blockHash": "0xa6787c2a8161b8cbb0a041ba480e2ac783c4bc815cb29205feb4fba27908d875",
          "blockNumber": "0x2c86c80",
          "blockTimestamp": "0x6a2bab6a",
          "transactionHash": "0x592adcda7ca578f0ee08a489418498dd743a4462c1e3683dff3fcf568e3d848c",
          "transactionIndex": "0x1b",
          "logIndex": "0x4c",
          "removed": false
        }
      ],
      "logsBloom": "0x00000000000000000000000000000000000000000000000000000000000000000000000000000000000000000000000000000000000000000000000000000000000100000000000000000008000000000000000000000000000000000000000000000040020000000000000000000800000000000000000000000010000000000000000000000004000000000000000000000000000000000000000000000000000000000000000000000000000000000000000000000000000000000000000000000002000000000008000000000000000000000000000000000000000020000000000000000000000000000000000000000000000000000000000110000000",
      "type": "0x2",
      "transactionHash": "0x592adcda7ca578f0ee08a489418498dd743a4462c1e3683dff3fcf568e3d848c",
      "transactionIndex": "0x1b",
      "blockHash": "0xa6787c2a8161b8cbb0a041ba480e2ac783c4bc815cb29205feb4fba27908d875",
      "blockNumber": "0x2c86c80",
      "gasUsed": "0x8480",
      "effectiveGasPrice": "0x4a851361a",
      "from": "0xca14e37c862465677caa064c20bdbb6673f6fe48",
      "to": "0xcdea155469985f1e6910bbc53278cb2008bff207",
      "contractAddress": null
    },
    {
      "status": "0x1",
      "cumulativeGasUsed": "0x252183",
      "logs": [
        {
          "address": "0xe5f8c0bd7eda98f24f0b5002fa485d473fe7e7eb",
          "topics": [
            "0xddf252ad1be2c89b69c2b068fc378daa952ba7f163c4a11628f55a4df523b3ef",
            "0x0000000000000000000000000000000000000000000000000000000000000000",
            "0x000000000000000000000000e52c9aa4d90c9c1050228dc08e6c336da64251af"
          ],
          "data": "0x000000000000000000000000000000000000000000000000000000003b9aca00",
          "blockHash": "0xb5b08a3364265ecdd375862c65f548572766e51a37805aa922f8a4c6d0162534",
          "blockNumber": "0x2c86c86",
          "blockTimestamp": "0x6a2bab6d",
          "transactionHash": "0x42c92016a326ac2aa73f96676820213a9c5abc9c815f47552a32dd990700576f",
          "transactionIndex": "0x14",
          "logIndex": "0x34",
          "removed": false
        }
      ],
      "logsBloom": "0x00000000000000000000000000000000000000000000000000000000000000000000000000000000000000000000000000000000000000000000000000000000000100000000000000000008000000000000000000000000100000000000000000000000020000000000000000000800000000000000000000000010000000000000000040000000000000000000000000000000000000000000000000000000000000000000000000000000000000000000000000000000000000000000000000400002000000000000000000000000000000000000000000000000000020000000000000000000000000000000000000000000000000000000000110000000",
      "type": "0x2",
      "transactionHash": "0x42c92016a326ac2aa73f96676820213a9c5abc9c815f47552a32dd990700576f",
      "transactionIndex": "0x14",
      "blockHash": "0xb5b08a3364265ecdd375862c65f548572766e51a37805aa922f8a4c6d0162534",
      "blockNumber": "0x2c86c86",
      "gasUsed": "0x845c",
      "effectiveGasPrice": "0x4a851361a",
      "from": "0xca14e37c862465677caa064c20bdbb6673f6fe48",
      "to": "0xe5f8c0bd7eda98f24f0b5002fa485d473fe7e7eb",
      "contractAddress": null
    },
    {
      "status": "0x1",
      "cumulativeGasUsed": "0x2776b4",
      "logs": [
        {
          "address": "0xe5f8c0bd7eda98f24f0b5002fa485d473fe7e7eb",
          "topics": [
            "0xddf252ad1be2c89b69c2b068fc378daa952ba7f163c4a11628f55a4df523b3ef",
            "0x0000000000000000000000000000000000000000000000000000000000000000",
            "0x0000000000000000000000002968871b9780b38ffcf2221653abb09ad1038552"
          ],
          "data": "0x0000000000000000000000000000000000000000000000000000000649534e00",
          "blockHash": "0x94bdd617a1037cd4c738942b31e010318f8ff2ff69a869832b92485a82c5268f",
          "blockNumber": "0x2c86c8b",
          "blockTimestamp": "0x6a2bab70",
          "transactionHash": "0x5e9eb911846632d2fc7a4a6cffabd04573a6755b16d60b6fc9c8ff812135fd11",
          "transactionIndex": "0x10",
          "logIndex": "0x1d",
          "removed": false
        }
      ],
      "logsBloom": "0x00000000000000000000000000000000000000000000000000000000000000000000000000000000000000000000000000000000000000000000000000000000000000000000000000000008000000000000000000000000100000000000000000000000020000000000000000000800004000000000000000000010000000000000000040000000000000000000000000000000000000000000000000000000000000000000000000000000000000000000000000000000000000000000000000400002000000000000000000000000000000000000000000000000000020000000000000000000000800000000000000000000000000000000000000000000",
      "type": "0x2",
      "transactionHash": "0x5e9eb911846632d2fc7a4a6cffabd04573a6755b16d60b6fc9c8ff812135fd11",
      "transactionIndex": "0x10",
      "blockHash": "0x94bdd617a1037cd4c738942b31e010318f8ff2ff69a869832b92485a82c5268f",
      "blockNumber": "0x2c86c8b",
      "gasUsed": "0x8468",
      "effectiveGasPrice": "0x4a851361a",
      "from": "0xca14e37c862465677caa064c20bdbb6673f6fe48",
      "to": "0xe5f8c0bd7eda98f24f0b5002fa485d473fe7e7eb",
      "contractAddress": null
    },
    {
      "status": "0x1",
      "cumulativeGasUsed": "0x447567",
      "logs": [
        {
          "address": "0x254a2627eb0e2e3ded4cb2225afb8815f05e04e9",
          "topics": [
            "0xddf252ad1be2c89b69c2b068fc378daa952ba7f163c4a11628f55a4df523b3ef",
            "0x0000000000000000000000000000000000000000000000000000000000000000",
            "0x0000000000000000000000002968871b9780b38ffcf2221653abb09ad1038552"
          ],
          "data": "0x000000000000000000000000000000000000000000000000000000003b9aca00",
          "blockHash": "0x309855582d3cd13158b56074485508e1691346975e5293d72b108ace6bfc6125",
          "blockNumber": "0x2c86c91",
          "blockTimestamp": "0x6a2bab73",
          "transactionHash": "0x9d5b3892216805324fef0efa381b6e4ff5240922ebdef529a9a2c0f3a6a2f5b2",
          "transactionIndex": "0x26",
          "logIndex": "0x5b",
          "removed": false
        }
      ],
      "logsBloom": "0x00000000000000000000000000000000000000000000000000000000000000000000000000000000000000000000000000200000000000000000000000000000000000000000000000000008000000000000000000000000000000000000000000000000020000000000000000000800004020000000000000000010000000000000000000000000000000000000000000000000000000000000000000000000000000000000000000000000000000000000000000000000000000000000000000000002000000000000000000000000000000000000000000000800000020000000000000000000000800000000000000000000000000000000000000000000",
      "type": "0x2",
      "transactionHash": "0x9d5b3892216805324fef0efa381b6e4ff5240922ebdef529a9a2c0f3a6a2f5b2",
      "transactionIndex": "0x26",
      "blockHash": "0x309855582d3cd13158b56074485508e1691346975e5293d72b108ace6bfc6125",
      "blockNumber": "0x2c86c91",
      "gasUsed": "0x845c",
      "effectiveGasPrice": "0x4a851361a",
      "from": "0xca14e37c862465677caa064c20bdbb6673f6fe48",
      "to": "0x254a2627eb0e2e3ded4cb2225afb8815f05e04e9",
      "contractAddress": null
    },
    {
      "status": "0x1",
      "cumulativeGasUsed": "0x480ced",
      "logs": [
        {
          "address": "0xe5f8c0bd7eda98f24f0b5002fa485d473fe7e7eb",
          "topics": [
            "0x8c5be1e5ebec7d5bd14f71427d1e84f3dd0314c0f7b2291e5b200ac8c7c3b925",
            "0x000000000000000000000000ca14e37c862465677caa064c20bdbb6673f6fe48",
            "0x000000000000000000000000b574eb2fd1101a75070cda9673a6db207581c467"
          ],
          "data": "0xffffffffffffffffffffffffffffffffffffffffffffffffffffffffffffffff",
          "blockHash": "0x470dfb7af15f9ea1c3237a1beec9016945e13b530ea5092a0a22680e6fbd23a7",
          "blockNumber": "0x2c86c97",
          "blockTimestamp": "0x6a2bab77",
          "transactionHash": "0x05a31ccdbcd368454f73937eb0450752cde3ec62634a002cd5303054d7eaf54f",
          "transactionIndex": "0x1d",
          "logIndex": "0x48",
          "removed": false
        }
      ],
      "logsBloom": "0x00000000000000000000000000000000000000000000040000000000000000000000000000000000000000000000000000000000000000000000000000200000000000000000000000000000000400000000000000000000100000000000000000000000000000000000000000010000000000000000000000000000000000000000000040000000000000000000000000000000000000000000000000000000021000000000000000000000000000000000000000000000000000000000000000400000000000000000000000000000000000000000000000000000000000000090000000000000000000000000000000000000000001000000000000000000",
      "type": "0x2",
      "transactionHash": "0x05a31ccdbcd368454f73937eb0450752cde3ec62634a002cd5303054d7eaf54f",
      "transactionIndex": "0x1d",
      "blockHash": "0x470dfb7af15f9ea1c3237a1beec9016945e13b530ea5092a0a22680e6fbd23a7",
      "blockNumber": "0x2c86c97",
      "gasUsed": "0x670f",
      "effectiveGasPrice": "0x4a851361a",
      "from": "0xca14e37c862465677caa064c20bdbb6673f6fe48",
      "to": "0xe5f8c0bd7eda98f24f0b5002fa485d473fe7e7eb",
      "contractAddress": null
    },
    {
      "status": "0x1",
      "cumulativeGasUsed": "0x194a1d",
      "logs": [
        {
          "address": "0x254a2627eb0e2e3ded4cb2225afb8815f05e04e9",
          "topics": [
            "0x8c5be1e5ebec7d5bd14f71427d1e84f3dd0314c0f7b2291e5b200ac8c7c3b925",
            "0x000000000000000000000000ca14e37c862465677caa064c20bdbb6673f6fe48",
            "0x000000000000000000000000b574eb2fd1101a75070cda9673a6db207581c467"
          ],
          "data": "0xffffffffffffffffffffffffffffffffffffffffffffffffffffffffffffffff",
          "blockHash": "0x829f9eb4c05bc021ede643ddf2a944d12c526cda4dc0662d97a689d89809f82b",
          "blockNumber": "0x2c86c9b",
          "blockTimestamp": "0x6a2bab79",
          "transactionHash": "0xec53827af73af0a3d934525de633442e4761ca65aab53cc8d3c369b65f36516d",
          "transactionIndex": "0xd",
          "logIndex": "0x1d",
          "removed": false
        }
      ],
      "logsBloom": "0x00000000000000000000000000000000000000000000040000000000000000000000000000000000000000000000000000200000000000000000000000200000000000000000000000000000000400000000000000000000000000000000000000000000000000000000000000010000000020000000000000000000000000000000000000000000000000000000000000000000000000000000000000000000021000000000000000000000000000000000000000000000000000000000000000000000000000000000000000000000000000000000000000000800000000000090000000000000000000000000000000000000000001000000000000000000",
      "type": "0x2",
      "transactionHash": "0xec53827af73af0a3d934525de633442e4761ca65aab53cc8d3c369b65f36516d",
      "transactionIndex": "0xd",
      "blockHash": "0x829f9eb4c05bc021ede643ddf2a944d12c526cda4dc0662d97a689d89809f82b",
      "blockNumber": "0x2c86c9b",
      "gasUsed": "0x670f",
      "effectiveGasPrice": "0x4a851361a",
      "from": "0xca14e37c862465677caa064c20bdbb6673f6fe48",
      "to": "0x254a2627eb0e2e3ded4cb2225afb8815f05e04e9",
      "contractAddress": null
    },
    {
      "status": "0x1",
      "cumulativeGasUsed": "0x223a36",
      "logs": [
        {
          "address": "0xb574eb2fd1101a75070cda9673a6db207581c467",
          "topics": [
            "0x51eedbe668e048aec37e4dc0104031dbf295c9f3b35bfd9cb73a217b6ff81259",
            "0x000000000000000000000000e5f8c0bd7eda98f24f0b5002fa485d473fe7e7eb"
          ],
          "data": "0x0000000000000000000000000000000000000000033b2e3dc925d77eacc981c50000000000000000000000000000000000000000033b326c4b32848502daac4b000000000000000000000000000000000000000000084595161401484a000000",
          "blockHash": "0x671241303ec7c04a5298c7289ce9026789d09ecb82e8fe8020adfd7c2860222d",
          "blockNumber": "0x2c86ca0",
          "blockTimestamp": "0x6a2bab7c",
          "transactionHash": "0x76dd4e48e0f0145dcec0a23598395c31c5c4c35c758c851cc61761a3e81aed27",
          "transactionIndex": "0x10",
          "logIndex": "0x23",
          "removed": false
        },
        {
          "address": "0xe5f8c0bd7eda98f24f0b5002fa485d473fe7e7eb",
          "topics": [
            "0xddf252ad1be2c89b69c2b068fc378daa952ba7f163c4a11628f55a4df523b3ef",
            "0x000000000000000000000000ca14e37c862465677caa064c20bdbb6673f6fe48",
            "0x000000000000000000000000b574eb2fd1101a75070cda9673a6db207581c467"
          ],
          "data": "0x00000000000000000000000000000000000000000000000000000004a817c800",
          "blockHash": "0x671241303ec7c04a5298c7289ce9026789d09ecb82e8fe8020adfd7c2860222d",
          "blockNumber": "0x2c86ca0",
          "blockTimestamp": "0x6a2bab7c",
          "transactionHash": "0x76dd4e48e0f0145dcec0a23598395c31c5c4c35c758c851cc61761a3e81aed27",
          "transactionIndex": "0x10",
          "logIndex": "0x24",
          "removed": false
        },
        {
          "address": "0xb574eb2fd1101a75070cda9673a6db207581c467",
          "topics": [
            "0xf5681f9d0db1b911ac18ee83d515a1cf1051853a9eae418316a2fdf7dea427c5",
            "0x000000000000000000000000e5f8c0bd7eda98f24f0b5002fa485d473fe7e7eb",
            "0x000000000000000000000000ca14e37c862465677caa064c20bdbb6673f6fe48"
          ],
          "data": "0x00000000000000000000000000000000000000000000000000000004a817c80000000000000000000000000000000000000000000000000000000004a817c653",
          "blockHash": "0x671241303ec7c04a5298c7289ce9026789d09ecb82e8fe8020adfd7c2860222d",
          "blockNumber": "0x2c86ca0",
          "blockTimestamp": "0x6a2bab7c",
          "transactionHash": "0x76dd4e48e0f0145dcec0a23598395c31c5c4c35c758c851cc61761a3e81aed27",
          "transactionIndex": "0x10",
          "logIndex": "0x25",
          "removed": false
        }
      ],
      "logsBloom": "0x00040000000000000000000000000000000000000000040000000000000000000000100000000000000000000000000080010000000000000000000000000000000000800000000000000008000400000000000000000000100000000000000000000000000008000000000000090000000000000000100000000010000000000000000040000010000000000000000000000000000000000000000000002000001000000000000000000000000000000800000000000000000000000000000000400002000000000000000000000010000000000000000000000000000000000080000000000000000000000000000000000000000001000000000000000000",
      "type": "0x2",
      "transactionHash": "0x76dd4e48e0f0145dcec0a23598395c31c5c4c35c758c851cc61761a3e81aed27",
      "transactionIndex": "0x10",
      "blockHash": "0x671241303ec7c04a5298c7289ce9026789d09ecb82e8fe8020adfd7c2860222d",
      "blockNumber": "0x2c86ca0",
      "gasUsed": "0x13a1a",
      "effectiveGasPrice": "0x4a851361a",
      "from": "0xca14e37c862465677caa064c20bdbb6673f6fe48",
      "to": "0xb574eb2fd1101a75070cda9673a6db207581c467",
      "contractAddress": null
    },
    {
      "status": "0x1",
      "cumulativeGasUsed": "0x38e602",
      "logs": [
        {
          "address": "0xcdea155469985f1e6910bbc53278cb2008bff207",
          "topics": [
            "0x8c5be1e5ebec7d5bd14f71427d1e84f3dd0314c0f7b2291e5b200ac8c7c3b925",
            "0x000000000000000000000000cbb3b40109e849a2cd1531258ce1797fa9eca7e7",
            "0x000000000000000000000000b574eb2fd1101a75070cda9673a6db207581c467"
          ],
          "data": "0xffffffffffffffffffffffffffffffffffffffffffffffffffffffffffffffff",
          "blockHash": "0xe3f3f350bcc2cd43d50a294b8ceee3757192d849c9777fa29844282bde331521",
          "blockNumber": "0x2c86ca5",
          "blockTimestamp": "0x6a2bab7f",
          "transactionHash": "0x29b04c5cc6712cb5d1c463296f8b538ef3157e20b13bc5c102bbdb43af8644ab",
          "transactionIndex": "0x1e",
          "logIndex": "0x41",
          "removed": false
        }
      ],
      "logsBloom": "0x00000000000000000000000000000000020000000000000000000000000000000000000000000000000000000000000000000000000000000000000000200000000000000000000000000000000400000000000000000000000000000000000000000040000000000000000000010000000000000000000000000000000000000000000000000004000000000000000000000000000000000000000000000000021000000000000000000000000000000200000000000000000000000000000000000000000000000008000000000000002000000000000000000000000000000010000000000000000000000000000000000000000000000000000000000000",
      "type": "0x2",
      "transactionHash": "0x29b04c5cc6712cb5d1c463296f8b538ef3157e20b13bc5c102bbdb43af8644ab",
      "transactionIndex": "0x1e",
      "blockHash": "0xe3f3f350bcc2cd43d50a294b8ceee3757192d849c9777fa29844282bde331521",
      "blockNumber": "0x2c86ca5",
      "gasUsed": "0x670f",
      "effectiveGasPrice": "0x4a851361a",
      "from": "0xcbb3b40109e849a2cd1531258ce1797fa9eca7e7",
      "to": "0xcdea155469985f1e6910bbc53278cb2008bff207",
      "contractAddress": null
    },
    {
      "status": "0x1",
      "cumulativeGasUsed": "0x214c74",
      "logs": [
        {
          "address": "0xe5f8c0bd7eda98f24f0b5002fa485d473fe7e7eb",
          "topics": [
            "0x8c5be1e5ebec7d5bd14f71427d1e84f3dd0314c0f7b2291e5b200ac8c7c3b925",
            "0x000000000000000000000000cbb3b40109e849a2cd1531258ce1797fa9eca7e7",
            "0x000000000000000000000000b574eb2fd1101a75070cda9673a6db207581c467"
          ],
          "data": "0xffffffffffffffffffffffffffffffffffffffffffffffffffffffffffffffff",
          "blockHash": "0xda252d73e7cf51f72e13101c98a1c7062278c3f405fc566bae20705ee4a5c8c0",
          "blockNumber": "0x2c86ca8",
          "blockTimestamp": "0x6a2bab80",
          "transactionHash": "0x488cac0899c1ca900c3b07b312c6aab9e9a33cb9610072095955f83daa16eeb7",
          "transactionIndex": "0x15",
          "logIndex": "0x2d",
          "removed": false
        }
      ],
      "logsBloom": "0x00000000000000000000000000000000020000000000000000000000000000000000000000000000000000000000000000000000000000000000000000200000000000000000000000000000000400000000000000000000100000000000000000000000000000000000000000010000000000000000000000000000000000000000000040000000000000000000000000000000000000000000000000000000021000000000000000000000000000000200000000000000000000000000000000400000000000000000000000000000002000000000000000000000000000000010000000000000000000000000000000000000000000000000000000000000",
      "type": "0x2",
      "transactionHash": "0x488cac0899c1ca900c3b07b312c6aab9e9a33cb9610072095955f83daa16eeb7",
      "transactionIndex": "0x15",
      "blockHash": "0xda252d73e7cf51f72e13101c98a1c7062278c3f405fc566bae20705ee4a5c8c0",
      "blockNumber": "0x2c86ca8",
      "gasUsed": "0x670f",
      "effectiveGasPrice": "0x4a851361a",
      "from": "0xcbb3b40109e849a2cd1531258ce1797fa9eca7e7",
      "to": "0xe5f8c0bd7eda98f24f0b5002fa485d473fe7e7eb",
      "contractAddress": null
    },
    {
      "status": "0x1",
      "cumulativeGasUsed": "0x1fc7e7",
      "logs": [
        {
          "address": "0xb574eb2fd1101a75070cda9673a6db207581c467",
          "topics": [
            "0x51eedbe668e048aec37e4dc0104031dbf295c9f3b35bfd9cb73a217b6ff81259",
            "0x000000000000000000000000cdea155469985f1e6910bbc53278cb2008bff207"
          ],
          "data": "0x0000000000000000000000000000000000000000033b2e3c9fd0803ce80000000000000000000000000000000000000000000000033b2e3c9fd0803ce80000000000000000000000000000000000000000000000000000000000000000000000",
          "blockHash": "0xf5bdb7033f096d144717f589d5d31b234e65b7ddcbe2b02b68dacb4c9f9a8852",
          "blockNumber": "0x2c86cab",
          "blockTimestamp": "0x6a2bab82",
          "transactionHash": "0x55a9cc7bfd21361e89e37d38646c8a6d1a0e5f35d6be7cc4e8ff8545223ee9bd",
          "transactionIndex": "0x12",
          "logIndex": "0x27",
          "removed": false
        },
        {
          "address": "0xcdea155469985f1e6910bbc53278cb2008bff207",
          "topics": [
            "0xddf252ad1be2c89b69c2b068fc378daa952ba7f163c4a11628f55a4df523b3ef",
            "0x000000000000000000000000cbb3b40109e849a2cd1531258ce1797fa9eca7e7",
            "0x000000000000000000000000b574eb2fd1101a75070cda9673a6db207581c467"
          ],
          "data": "0x0000000000000000000000000000000000000000000000008ac7230489e80000",
          "blockHash": "0xf5bdb7033f096d144717f589d5d31b234e65b7ddcbe2b02b68dacb4c9f9a8852",
          "blockNumber": "0x2c86cab",
          "blockTimestamp": "0x6a2bab82",
          "transactionHash": "0x55a9cc7bfd21361e89e37d38646c8a6d1a0e5f35d6be7cc4e8ff8545223ee9bd",
          "transactionIndex": "0x12",
          "logIndex": "0x28",
          "removed": false
        },
        {
          "address": "0xb574eb2fd1101a75070cda9673a6db207581c467",
          "topics": [
            "0xf5681f9d0db1b911ac18ee83d515a1cf1051853a9eae418316a2fdf7dea427c5",
            "0x000000000000000000000000cdea155469985f1e6910bbc53278cb2008bff207",
            "0x000000000000000000000000cbb3b40109e849a2cd1531258ce1797fa9eca7e7"
          ],
          "data": "0x0000000000000000000000000000000000000000000000008ac7230489e800000000000000000000000000000000000000000000000000008ac7230489e80000",
          "blockHash": "0xf5bdb7033f096d144717f589d5d31b234e65b7ddcbe2b02b68dacb4c9f9a8852",
          "blockNumber": "0x2c86cab",
          "blockTimestamp": "0x6a2bab82",
          "transactionHash": "0x55a9cc7bfd21361e89e37d38646c8a6d1a0e5f35d6be7cc4e8ff8545223ee9bd",
          "transactionIndex": "0x12",
          "logIndex": "0x29",
          "removed": false
        }
      ],
      "logsBloom": "0x00040000000000000000000000000000020000000000001000000000000000000000100000000000000000000000000080000000000000000000000000000000000000800000000000000008000400000000000000000000000000000000000000000040000008000000000000010000000000000000100000000010000000000000000000000014000000000000000000000000000000000000000000000000001000000000000000000000000000000a00000000000000000000000000008080000002000000000008000000000010002000000000000000000000000000000000000000000000000000000000000000000000000000000000000000000000",
      "type": "0x2",
      "transactionHash": "0x55a9cc7bfd21361e89e37d38646c8a6d1a0e5f35d6be7cc4e8ff8545223ee9bd",
      "transactionIndex": "0x12",
      "blockHash": "0xf5bdb7033f096d144717f589d5d31b234e65b7ddcbe2b02b68dacb4c9f9a8852",
      "blockNumber": "0x2c86cab",
      "gasUsed": "0x139ab",
      "effectiveGasPrice": "0x4a851361a",
      "from": "0xcbb3b40109e849a2cd1531258ce1797fa9eca7e7",
      "to": "0xb574eb2fd1101a75070cda9673a6db207581c467",
      "contractAddress": null
    },
    {
      "status": "0x1",
      "cumulativeGasUsed": "0x2d5c36",
      "logs": [
        {
          "address": "0x254a2627eb0e2e3ded4cb2225afb8815f05e04e9",
          "topics": [
            "0x8c5be1e5ebec7d5bd14f71427d1e84f3dd0314c0f7b2291e5b200ac8c7c3b925",
            "0x000000000000000000000000e52c9aa4d90c9c1050228dc08e6c336da64251af",
            "0x000000000000000000000000b574eb2fd1101a75070cda9673a6db207581c467"
          ],
          "data": "0xffffffffffffffffffffffffffffffffffffffffffffffffffffffffffffffff",
          "blockHash": "0x482ba763b109546a2e1fd400cfd3f5db2b6d7ed90b63b4a9f85a813530ed1003",
          "blockNumber": "0x2c86cb1",
          "blockTimestamp": "0x6a2bab85",
          "transactionHash": "0xadc7e6d6c9fcd87563c841cc0f4a0b42794eca4db673e9134c0012c0da066acd",
          "transactionIndex": "0xf",
          "logIndex": "0x38",
          "removed": false
        }
      ],
      "logsBloom": "0x00000000000000000000000000000000000000000000000000000000000000000000000000000000000000000000000000200000000000000000000000200000000100000000000000000000000400000000000000000000000000000000000000000000000000000000000000010000000020000000000000000000000000000000000000000000000000000000000000000000000000000000000000000000021000000000000000000000000000000000000000000000000000000000000000000000000000000000000000000000000000000000000000000800000000000010000000000000000000000000000000000000000000000000000110000000",
      "type": "0x2",
      "transactionHash": "0xadc7e6d6c9fcd87563c841cc0f4a0b42794eca4db673e9134c0012c0da066acd",
      "transactionIndex": "0xf",
      "blockHash": "0x482ba763b109546a2e1fd400cfd3f5db2b6d7ed90b63b4a9f85a813530ed1003",
      "blockNumber": "0x2c86cb1",
      "gasUsed": "0x670f",
      "effectiveGasPrice": "0x4a851361a",
      "from": "0xe52c9aa4d90c9c1050228dc08e6c336da64251af",
      "to": "0x254a2627eb0e2e3ded4cb2225afb8815f05e04e9",
      "contractAddress": null
    },
    {
      "status": "0x1",
      "cumulativeGasUsed": "0x3f2cff",
      "logs": [
        {
          "address": "0xcdea155469985f1e6910bbc53278cb2008bff207",
          "topics": [
            "0x8c5be1e5ebec7d5bd14f71427d1e84f3dd0314c0f7b2291e5b200ac8c7c3b925",
            "0x000000000000000000000000e52c9aa4d90c9c1050228dc08e6c336da64251af",
            "0x000000000000000000000000b574eb2fd1101a75070cda9673a6db207581c467"
          ],
          "data": "0xffffffffffffffffffffffffffffffffffffffffffffffffffffffffffffffff",
          "blockHash": "0x8205143175e29db5ca4680fee41ff8f5aebe5c84949bd2c546e321d908bc618e",
          "blockNumber": "0x2c86cb6",
          "blockTimestamp": "0x6a2bab88",
          "transactionHash": "0x1669ac7b9912440c001ddf94eb44cc8cfb84f4830404c63e8e2865e85c859ee4",
          "transactionIndex": "0x1b",
          "logIndex": "0x38",
          "removed": false
        }
      ],
      "logsBloom": "0x00000000000000000000000000000000000000000000000000000000000000000000000000000000000000000000000000000000000000000000000000200000000100000000000000000000000400000000000000000000000000000000000000000040000000000000000000010000000000000000000000000000000000000000000000000004000000000000000000000000000000000000000000000000021000000000000000000000000000000000000000000000000000000000000000000000000000000008000000000000000000000000000000000000000000000010000000000000000000000000000000000000000000000000000110000000",
      "type": "0x2",
      "transactionHash": "0x1669ac7b9912440c001ddf94eb44cc8cfb84f4830404c63e8e2865e85c859ee4",
      "transactionIndex": "0x1b",
      "blockHash": "0x8205143175e29db5ca4680fee41ff8f5aebe5c84949bd2c546e321d908bc618e",
      "blockNumber": "0x2c86cb6",
      "gasUsed": "0x670f",
      "effectiveGasPrice": "0x4a851361a",
      "from": "0xe52c9aa4d90c9c1050228dc08e6c336da64251af",
      "to": "0xcdea155469985f1e6910bbc53278cb2008bff207",
      "contractAddress": null
    },
    {
      "status": "0x1",
      "cumulativeGasUsed": "0x193cc9",
      "logs": [
        {
          "address": "0xe5f8c0bd7eda98f24f0b5002fa485d473fe7e7eb",
          "topics": [
            "0x8c5be1e5ebec7d5bd14f71427d1e84f3dd0314c0f7b2291e5b200ac8c7c3b925",
            "0x000000000000000000000000e52c9aa4d90c9c1050228dc08e6c336da64251af",
            "0x000000000000000000000000b574eb2fd1101a75070cda9673a6db207581c467"
          ],
          "data": "0xffffffffffffffffffffffffffffffffffffffffffffffffffffffffffffffff",
          "blockHash": "0xd32688b38e8b31a490734a647903c5a75c62ba486d20af92096ab7aa6acd63db",
          "blockNumber": "0x2c86cb9",
          "blockTimestamp": "0x6a2bab89",
          "transactionHash": "0x56e76f7bc1830dbe9918043736081cc4fb0172169aab93c5044fd9a81188706b",
          "transactionIndex": "0x12",
          "logIndex": "0x1a",
          "removed": false
        }
      ],
      "logsBloom": "0x00000000000000000000000000000000000000000000000000000000000000000000000000000000000000000000000000000000000000000000000000200000000100000000000000000000000400000000000000000000100000000000000000000000000000000000000000010000000000000000000000000000000000000000000040000000000000000000000000000000000000000000000000000000021000000000000000000000000000000000000000000000000000000000000000400000000000000000000000000000000000000000000000000000000000000010000000000000000000000000000000000000000000000000000110000000",
      "type": "0x2",
      "transactionHash": "0x56e76f7bc1830dbe9918043736081cc4fb0172169aab93c5044fd9a81188706b",
      "transactionIndex": "0x12",
      "blockHash": "0xd32688b38e8b31a490734a647903c5a75c62ba486d20af92096ab7aa6acd63db",
      "blockNumber": "0x2c86cb9",
      "gasUsed": "0x670f",
      "effectiveGasPrice": "0x4a851361a",
      "from": "0xe52c9aa4d90c9c1050228dc08e6c336da64251af",
      "to": "0xe5f8c0bd7eda98f24f0b5002fa485d473fe7e7eb",
      "contractAddress": null
    },
    {
      "status": "0x1",
      "cumulativeGasUsed": "0x1c86ff",
      "logs": [
        {
          "address": "0xb574eb2fd1101a75070cda9673a6db207581c467",
          "topics": [
            "0x51eedbe668e048aec37e4dc0104031dbf295c9f3b35bfd9cb73a217b6ff81259",
            "0x000000000000000000000000254a2627eb0e2e3ded4cb2225afb8815f05e04e9"
          ],
          "data": "0x0000000000000000000000000000000000000000033b2e5aa72dbef05476fffa0000000000000000000000000000000000000000033b36df133cced47bc5f027000000000000000000000000000000000000000000108b2a2c28029094000000",
          "blockHash": "0x121f2969dd4672f32a4c367bcf6fed35f6d49343c9bbf53e0ffa74c6a0ccc538",
          "blockNumber": "0x2c86cbf",
          "blockTimestamp": "0x6a2bab8c",
          "transactionHash": "0xdb992df263602073a03e0d29f2d69c7d276df43f6e5506d145dc258e825a9c8e",
          "transactionIndex": "0x10",
          "logIndex": "0x4a",
          "removed": false
        },
        {
          "address": "0x254a2627eb0e2e3ded4cb2225afb8815f05e04e9",
          "topics": [
            "0xddf252ad1be2c89b69c2b068fc378daa952ba7f163c4a11628f55a4df523b3ef",
            "0x000000000000000000000000e52c9aa4d90c9c1050228dc08e6c336da64251af",
            "0x000000000000000000000000b574eb2fd1101a75070cda9673a6db207581c467"
          ],
          "data": "0x00000000000000000000000000000000000000000000000000000006fc23ac00",
          "blockHash": "0x121f2969dd4672f32a4c367bcf6fed35f6d49343c9bbf53e0ffa74c6a0ccc538",
          "blockNumber": "0x2c86cbf",
          "blockTimestamp": "0x6a2bab8c",
          "transactionHash": "0xdb992df263602073a03e0d29f2d69c7d276df43f6e5506d145dc258e825a9c8e",
          "transactionIndex": "0x10",
          "logIndex": "0x4b",
          "removed": false
        },
        {
          "address": "0xb574eb2fd1101a75070cda9673a6db207581c467",
          "topics": [
            "0xf5681f9d0db1b911ac18ee83d515a1cf1051853a9eae418316a2fdf7dea427c5",
            "0x000000000000000000000000254a2627eb0e2e3ded4cb2225afb8815f05e04e9",
            "0x000000000000000000000000e52c9aa4d90c9c1050228dc08e6c336da64251af"
          ],
          "data": "0x00000000000000000000000000000000000000000000000000000006fc23ac0000000000000000000000000000000000000000000000000000000006fc236b16",
          "blockHash": "0x121f2969dd4672f32a4c367bcf6fed35f6d49343c9bbf53e0ffa74c6a0ccc538",
          "blockNumber": "0x2c86cbf",
          "blockTimestamp": "0x6a2bab8c",
          "transactionHash": "0xdb992df263602073a03e0d29f2d69c7d276df43f6e5506d145dc258e825a9c8e",
          "transactionIndex": "0x10",
          "logIndex": "0x4c",
          "removed": false
        }
      ],
      "logsBloom": "0x00040000000000000000000000000000000000000000000000000000000000000000100000000000000000000000000080200000000000000000000000000000000100800000000000000008000400000000000000000000000000000000000000000000000008000000000000010000000020000000100000000010000000000000400000000010000000000000000000000000000000000000000000000000001000000000000000000000000000000800000000000000000000000000000000000002000000000000000000000010000000000000000000200800000000000000000000000000000000000004000000000000000000000000000110000000",
      "type": "0x2",
      "transactionHash": "0xdb992df263602073a03e0d29f2d69c7d276df43f6e5506d145dc258e825a9c8e",
      "transactionIndex": "0x10",
      "blockHash": "0x121f2969dd4672f32a4c367bcf6fed35f6d49343c9bbf53e0ffa74c6a0ccc538",
      "blockNumber": "0x2c86cbf",
      "gasUsed": "0x13a1a",
      "effectiveGasPrice": "0x4a851361a",
      "from": "0xe52c9aa4d90c9c1050228dc08e6c336da64251af",
      "to": "0xb574eb2fd1101a75070cda9673a6db207581c467",
      "contractAddress": null
    },
    {
      "status": "0x1",
      "cumulativeGasUsed": "0x6c093f",
      "logs": [
        {
          "address": "0xe5f8c0bd7eda98f24f0b5002fa485d473fe7e7eb",
          "topics": [
            "0x8c5be1e5ebec7d5bd14f71427d1e84f3dd0314c0f7b2291e5b200ac8c7c3b925",
            "0x0000000000000000000000002968871b9780b38ffcf2221653abb09ad1038552",
            "0x000000000000000000000000b574eb2fd1101a75070cda9673a6db207581c467"
          ],
          "data": "0xffffffffffffffffffffffffffffffffffffffffffffffffffffffffffffffff",
          "blockHash": "0x26d3b34b80ebacda37adf92b5450e6395e67634de942105f6381d2890f60417b",
          "blockNumber": "0x2c86cc4",
          "blockTimestamp": "0x6a2bab8f",
          "transactionHash": "0x690ce8a531953c472cfd778ed8988afebd83c6e4badff5604e3a3bdd036c1d3f",
          "transactionIndex": "0x2f",
          "logIndex": "0x78",
          "removed": false
        }
      ],
      "logsBloom": "0x00000000000000000000000000000000000000000000000000000000000000000000000000000000000000000000000000000000000000000000000000200000000000000000000000000000000400000000000000000000100000000000000000000000000000000000000000010000004000000000000000000000000000000000000040000000000000000000000000000000000000000000000000000000021000000000000000000000000000000000000000000000000000000000000000400000000000000000000000000000000000000000000000000000000000000010000000000000000800000000000000000000000000000000000000000000",
      "type": "0x2",
      "transactionHash": "0x690ce8a531953c472cfd778ed8988afebd83c6e4badff5604e3a3bdd036c1d3f",
      "transactionIndex": "0x2f",
      "blockHash": "0x26d3b34b80ebacda37adf92b5450e6395e67634de942105f6381d2890f60417b",
      "blockNumber": "0x2c86cc4",
      "gasUsed": "0x670f",
      "effectiveGasPrice": "0x4a851361a",
      "from": "0x2968871b9780b38ffcf2221653abb09ad1038552",
      "to": "0xe5f8c0bd7eda98f24f0b5002fa485d473fe7e7eb",
      "contractAddress": null
    },
    {
      "status": "0x1",
      "cumulativeGasUsed": "0x18e552",
      "logs": [
        {
          "address": "0x254a2627eb0e2e3ded4cb2225afb8815f05e04e9",
          "topics": [
            "0x8c5be1e5ebec7d5bd14f71427d1e84f3dd0314c0f7b2291e5b200ac8c7c3b925",
            "0x0000000000000000000000002968871b9780b38ffcf2221653abb09ad1038552",
            "0x000000000000000000000000b574eb2fd1101a75070cda9673a6db207581c467"
          ],
          "data": "0xffffffffffffffffffffffffffffffffffffffffffffffffffffffffffffffff",
          "blockHash": "0x2dcf660c1f851ada4ed344c5d4af4f56ed2a56470026359a288d8d54f82ff0da",
          "blockNumber": "0x2c86cca",
          "blockTimestamp": "0x6a2bab92",
          "transactionHash": "0xe0f68223aad8e170a6d4b5c3496d24c25964b3dfd8e3dec0d8d2dfd0baf97a8a",
          "transactionIndex": "0xf",
          "logIndex": "0x35",
          "removed": false
        }
      ],
      "logsBloom": "0x00000000000000000000000000000000000000000000000000000000000000000000000000000000000000000000000000200000000000000000000000200000000000000000000000000000000400000000000000000000000000000000000000000000000000000000000000010000004020000000000000000000000000000000000000000000000000000000000000000000000000000000000000000000021000000000000000000000000000000000000000000000000000000000000000000000000000000000000000000000000000000000000000000800000000000010000000000000000800000000000000000000000000000000000000000000",
      "type": "0x2",
      "transactionHash": "0xe0f68223aad8e170a6d4b5c3496d24c25964b3dfd8e3dec0d8d2dfd0baf97a8a",
      "transactionIndex": "0xf",
      "blockHash": "0x2dcf660c1f851ada4ed344c5d4af4f56ed2a56470026359a288d8d54f82ff0da",
      "blockNumber": "0x2c86cca",
      "gasUsed": "0x670f",
      "effectiveGasPrice": "0x4a851361a",
      "from": "0x2968871b9780b38ffcf2221653abb09ad1038552",
      "to": "0x254a2627eb0e2e3ded4cb2225afb8815f05e04e9",
      "contractAddress": null
    },
    {
      "status": "0x1",
      "cumulativeGasUsed": "0x388e87",
      "logs": [
        {
          "address": "0xb574eb2fd1101a75070cda9673a6db207581c467",
          "topics": [
            "0x51eedbe668e048aec37e4dc0104031dbf295c9f3b35bfd9cb73a217b6ff81259",
            "0x000000000000000000000000e5f8c0bd7eda98f24f0b5002fa485d473fe7e7eb"
          ],
          "data": "0x0000000000000000000000000000000000000000033b2e3dc925d77eacc981c50000000000000000000000000000000000000000033b326c4b32848502daac4b000000000000000000000000000000000000000000084595161401484a000000",
          "blockHash": "0x3a91754e6faab0af271f506c0d7f7b4ba6d8c321313a137fbd6296224e84cdab",
          "blockNumber": "0x2c86cd0",
          "blockTimestamp": "0x6a2bab96",
          "transactionHash": "0x1e1f979bef3452ed71b55e672a4664f9459965e219450562cf35e283af29ab11",
          "transactionIndex": "0x15",
          "logIndex": "0x3d",
          "removed": false
        },
        {
          "address": "0xe5f8c0bd7eda98f24f0b5002fa485d473fe7e7eb",
          "topics": [
            "0xddf252ad1be2c89b69c2b068fc378daa952ba7f163c4a11628f55a4df523b3ef",
            "0x0000000000000000000000002968871b9780b38ffcf2221653abb09ad1038552",
            "0x000000000000000000000000b574eb2fd1101a75070cda9673a6db207581c467"
          ],
          "data": "0x000000000000000000000000000000000000000000000000000000037e11d600",
          "blockHash": "0x3a91754e6faab0af271f506c0d7f7b4ba6d8c321313a137fbd6296224e84cdab",
          "blockNumber": "0x2c86cd0",
          "blockTimestamp": "0x6a2bab96",
          "transactionHash": "0x1e1f979bef3452ed71b55e672a4664f9459965e219450562cf35e283af29ab11",
          "transactionIndex": "0x15",
          "logIndex": "0x3e",
          "removed": false
        },
        {
          "address": "0xb574eb2fd1101a75070cda9673a6db207581c467",
          "topics": [
            "0xf5681f9d0db1b911ac18ee83d515a1cf1051853a9eae418316a2fdf7dea427c5",
            "0x000000000000000000000000e5f8c0bd7eda98f24f0b5002fa485d473fe7e7eb",
            "0x0000000000000000000000002968871b9780b38ffcf2221653abb09ad1038552"
          ],
          "data": "0x000000000000000000000000000000000000000000000000000000037e11d600000000000000000000000000000000000000000000000000000000037e11d4be",
          "blockHash": "0x3a91754e6faab0af271f506c0d7f7b4ba6d8c321313a137fbd6296224e84cdab",
          "blockNumber": "0x2c86cd0",
          "blockTimestamp": "0x6a2bab96",
          "transactionHash": "0x1e1f979bef3452ed71b55e672a4664f9459965e219450562cf35e283af29ab11",
          "transactionIndex": "0x15",
          "logIndex": "0x3f",
          "removed": false
        }
      ],
      "logsBloom": "0x00040000000000000000000000000000000000000000000000000000000000000000100000000000000000000000000080010000000000000000000000000000000000800000000000000008000400000000000000000000100000000000000000000000000008000000000000090000004000000000100000000010000000000000000040000010000000000000000000000000000000000000000000002000001000000000000000000000000000000800000000000000000000000000000000400002000000000000000000000010000000000000000000000000000000000000000000000000000800000000000000000000000000000000000000000000",
      "type": "0x2",
      "transactionHash": "0x1e1f979bef3452ed71b55e672a4664f9459965e219450562cf35e283af29ab11",
      "transactionIndex": "0x15",
      "blockHash": "0x3a91754e6faab0af271f506c0d7f7b4ba6d8c321313a137fbd6296224e84cdab",
      "blockNumber": "0x2c86cd0",
      "gasUsed": "0x17ce6",
      "effectiveGasPrice": "0x4a851361a",
      "from": "0x2968871b9780b38ffcf2221653abb09ad1038552",
      "to": "0xb574eb2fd1101a75070cda9673a6db207581c467",
      "contractAddress": null
    },
    {
      "status": "0x1",
      "cumulativeGasUsed": "0x3e2d10",
      "logs": [
        {
          "address": "0xb574eb2fd1101a75070cda9673a6db207581c467",
          "topics": [
            "0x51eedbe668e048aec37e4dc0104031dbf295c9f3b35bfd9cb73a217b6ff81259",
            "0x000000000000000000000000e5f8c0bd7eda98f24f0b5002fa485d473fe7e7eb"
          ],
          "data": "0x0000000000000000000000000000000000000000033b2e3dc925d77eacc981c50000000000000000000000000000000000000000033b326c4b32848502daac4b00000000000000000000000000000000000000000008abe18b41d4e3d3b89791",
          "blockHash": "0xde94f264825d82581de1f05c8e60c0501be4a90a208c5a94c2e97247cadefcb2",
          "blockNumber": "0x2c86cd6",
          "blockTimestamp": "0x6a2bab99",
          "transactionHash": "0x82cc29b439ae06a046ad2fdfbe68c2b035286e67e16b3ce1f0f98f7bd4ae3233",
          "transactionIndex": "0x1b",
          "logIndex": "0x46",
          "removed": false
        },
        {
          "address": "0xcdea155469985f1e6910bbc53278cb2008bff207",
          "topics": [
            "0xddf252ad1be2c89b69c2b068fc378daa952ba7f163c4a11628f55a4df523b3ef",
            "0x000000000000000000000000cbb3b40109e849a2cd1531258ce1797fa9eca7e7",
            "0x000000000000000000000000b574eb2fd1101a75070cda9673a6db207581c467"
          ],
          "data": "0x0000000000000000000000000000000000000000000000004563918244f40000",
          "blockHash": "0xde94f264825d82581de1f05c8e60c0501be4a90a208c5a94c2e97247cadefcb2",
          "blockNumber": "0x2c86cd6",
          "blockTimestamp": "0x6a2bab99",
          "transactionHash": "0x82cc29b439ae06a046ad2fdfbe68c2b035286e67e16b3ce1f0f98f7bd4ae3233",
          "transactionIndex": "0x1b",
          "logIndex": "0x47",
          "removed": false
        },
        {
          "address": "0xe5f8c0bd7eda98f24f0b5002fa485d473fe7e7eb",
          "topics": [
            "0xddf252ad1be2c89b69c2b068fc378daa952ba7f163c4a11628f55a4df523b3ef",
            "0x000000000000000000000000b574eb2fd1101a75070cda9673a6db207581c467",
            "0x000000000000000000000000cbb3b40109e849a2cd1531258ce1797fa9eca7e7"
          ],
          "data": "0x00000000000000000000000000000000000000000000000000000002540be400",
          "blockHash": "0xde94f264825d82581de1f05c8e60c0501be4a90a208c5a94c2e97247cadefcb2",
          "blockNumber": "0x2c86cd6",
          "blockTimestamp": "0x6a2bab99",
          "transactionHash": "0x82cc29b439ae06a046ad2fdfbe68c2b035286e67e16b3ce1f0f98f7bd4ae3233",
          "transactionIndex": "0x1b",
          "logIndex": "0x48",
          "removed": false
        },
        {
          "address": "0xb574eb2fd1101a75070cda9673a6db207581c467",
          "topics": [
            "0x9c9260125f1a087d9e46ee3dc78f1a4af18c5e00714012d9a35250d49391c4fe",
            "0x000000000000000000000000cbb3b40109e849a2cd1531258ce1797fa9eca7e7",
            "0x000000000000000000000000cdea155469985f1e6910bbc53278cb2008bff207",
            "0x000000000000000000000000e5f8c0bd7eda98f24f0b5002fa485d473fe7e7eb"
          ],
          "data": "0x00000000000000000000000000000000000000000000000000000002540be400",
          "blockHash": "0xde94f264825d82581de1f05c8e60c0501be4a90a208c5a94c2e97247cadefcb2",
          "blockNumber": "0x2c86cd6",
          "blockTimestamp": "0x6a2bab99",
          "transactionHash": "0x82cc29b439ae06a046ad2fdfbe68c2b035286e67e16b3ce1f0f98f7bd4ae3233",
          "transactionIndex": "0x1b",
          "logIndex": "0x49",
          "removed": false
        }
      ],
      "logsBloom": "0x00040000000000000000000000000000020000000000001000000000000000000000100000000000000000000000000080010000000000000000080000000000000000000000000000000008000400002000000000000000100000000000000000000040000008000000000000090000000000000000000000000010000000000000000040000014000000000000000000000000000200000000000000002000001000000000000000000000000000000a00000000000000000000000000008080400002000000000008000000000000002000000000000000000000000000000000000000000000000000000000000000000000000000000000000000000000",
      "type": "0x2",
      "transactionHash": "0x82cc29b439ae06a046ad2fdfbe68c2b035286e67e16b3ce1f0f98f7bd4ae3233",
      "transactionIndex": "0x1b",
      "blockHash": "0xde94f264825d82581de1f05c8e60c0501be4a90a208c5a94c2e97247cadefcb2",
      "blockNumber": "0x2c86cd6",
      "gasUsed": "0x42595",
      "effectiveGasPrice": "0x4a851361a",
      "from": "0xcbb3b40109e849a2cd1531258ce1797fa9eca7e7",
      "to": "0xb574eb2fd1101a75070cda9673a6db207581c467",
      "contractAddress": null
    },
    {
      "status": "0x1",
      "cumulativeGasUsed": "0x37c32c",
      "logs": [
        {
          "address": "0xb574eb2fd1101a75070cda9673a6db207581c467",
          "topics": [
            "0x51eedbe668e048aec37e4dc0104031dbf295c9f3b35bfd9cb73a217b6ff81259",
            "0x000000000000000000000000e5f8c0bd7eda98f24f0b5002fa485d473fe7e7eb"
          ],
          "data": "0x0000000000000000000000000000000000000000033b2e3dc944a6653ca4a4090000000000000000000000000000000000000000033b326c5909880597d058ab00000000000000000000000000000000000000000008e9429e5f310c41ce75db",
          "blockHash": "0xb8728d8da00c1b29240c11ea7967f100a91ba953f4ffdbc2b2bfe0c24086f8cb",
          "blockNumber": "0x2c86cdb",
          "blockTimestamp": "0x6a2bab9c",
          "transactionHash": "0x61b95f1e506597a474d3f69ecc24c84b93b5ebae2728d728a9103c0c05809b25",
          "transactionIndex": "0x15",
          "logIndex": "0x2d",
          "removed": false
        },
        {
          "address": "0xcdea155469985f1e6910bbc53278cb2008bff207",
          "topics": [
            "0xddf252ad1be2c89b69c2b068fc378daa952ba7f163c4a11628f55a4df523b3ef",
            "0x000000000000000000000000e52c9aa4d90c9c1050228dc08e6c336da64251af",
            "0x000000000000000000000000b574eb2fd1101a75070cda9673a6db207581c467"
          ],
          "data": "0x00000000000000000000000000000000000000000000000029a2241af62c0000",
          "blockHash": "0xb8728d8da00c1b29240c11ea7967f100a91ba953f4ffdbc2b2bfe0c24086f8cb",
          "blockNumber": "0x2c86cdb",
          "blockTimestamp": "0x6a2bab9c",
          "transactionHash": "0x61b95f1e506597a474d3f69ecc24c84b93b5ebae2728d728a9103c0c05809b25",
          "transactionIndex": "0x15",
          "logIndex": "0x2e",
          "removed": false
        },
        {
          "address": "0xe5f8c0bd7eda98f24f0b5002fa485d473fe7e7eb",
          "topics": [
            "0xddf252ad1be2c89b69c2b068fc378daa952ba7f163c4a11628f55a4df523b3ef",
            "0x000000000000000000000000b574eb2fd1101a75070cda9673a6db207581c467",
            "0x000000000000000000000000e52c9aa4d90c9c1050228dc08e6c336da64251af"
          ],
          "data": "0x0000000000000000000000000000000000000000000000000000000165a0bc00",
          "blockHash": "0xb8728d8da00c1b29240c11ea7967f100a91ba953f4ffdbc2b2bfe0c24086f8cb",
          "blockNumber": "0x2c86cdb",
          "blockTimestamp": "0x6a2bab9c",
          "transactionHash": "0x61b95f1e506597a474d3f69ecc24c84b93b5ebae2728d728a9103c0c05809b25",
          "transactionIndex": "0x15",
          "logIndex": "0x2f",
          "removed": false
        },
        {
          "address": "0xb574eb2fd1101a75070cda9673a6db207581c467",
          "topics": [
            "0x9c9260125f1a087d9e46ee3dc78f1a4af18c5e00714012d9a35250d49391c4fe",
            "0x000000000000000000000000e52c9aa4d90c9c1050228dc08e6c336da64251af",
            "0x000000000000000000000000cdea155469985f1e6910bbc53278cb2008bff207",
            "0x000000000000000000000000e5f8c0bd7eda98f24f0b5002fa485d473fe7e7eb"
          ],
          "data": "0x0000000000000000000000000000000000000000000000000000000165a0bc00",
          "blockHash": "0xb8728d8da00c1b29240c11ea7967f100a91ba953f4ffdbc2b2bfe0c24086f8cb",
          "blockNumber": "0x2c86cdb",
          "blockTimestamp": "0x6a2bab9c",
          "transactionHash": "0x61b95f1e506597a474d3f69ecc24c84b93b5ebae2728d728a9103c0c05809b25",
          "transactionIndex": "0x15",
          "logIndex": "0x30",
          "removed": false
        }
      ],
      "logsBloom": "0x00040000000000000000000000000000000000000000001000000000000000000000100000000000000000000000000080010000000000000000080000000000000100000000000000000008000400002000000000000000100000000000000000000040000008000000000000090000000000000000000000000010000000000000000040000014000000000000000000000000000200000000000000002000001000000000000000000000000000000800000000000000000000000000008080400002000000000008000000000000000000000000000000000000000000000000000000000000000000000000000000000000000000000000000110000000",
      "type": "0x2",
      "transactionHash": "0x61b95f1e506597a474d3f69ecc24c84b93b5ebae2728d728a9103c0c05809b25",
      "transactionIndex": "0x15",
      "blockHash": "0xb8728d8da00c1b29240c11ea7967f100a91ba953f4ffdbc2b2bfe0c24086f8cb",
      "blockNumber": "0x2c86cdb",
      "gasUsed": "0x40c64",
      "effectiveGasPrice": "0x4a851361a",
      "from": "0xe52c9aa4d90c9c1050228dc08e6c336da64251af",
      "to": "0xb574eb2fd1101a75070cda9673a6db207581c467",
      "contractAddress": null
    },
    {
      "status": "0x1",
      "cumulativeGasUsed": "0x3aed00",
      "logs": [
        {
          "address": "0xb574eb2fd1101a75070cda9673a6db207581c467",
          "topics": [
            "0x51eedbe668e048aec37e4dc0104031dbf295c9f3b35bfd9cb73a217b6ff81259",
            "0x000000000000000000000000254a2627eb0e2e3ded4cb2225afb8815f05e04e9"
          ],
          "data": "0x0000000000000000000000000000000000000000033b2e5aa72dbef05476fffa0000000000000000000000000000000000000000033b36df133cced47bc5f0270000000000000000000000000000000000000000001118f790c393a5c62b3251",
          "blockHash": "0x951e45293ef5ef015c05771ffb09ba927c10a4c81219c003909d76ffe0bc54d7",
          "blockNumber": "0x2c86ce1",
          "blockTimestamp": "0x6a2bab9f",
          "transactionHash": "0x11f9fe511032437ac7bc9d2c05513d4b87c28be3197a8f68e86f6ae44b2942d8",
          "transactionIndex": "0x10",
          "logIndex": "0x25",
          "removed": false
        },
        {
          "address": "0xe5f8c0bd7eda98f24f0b5002fa485d473fe7e7eb",
          "topics": [
            "0xddf252ad1be2c89b69c2b068fc378daa952ba7f163c4a11628f55a4df523b3ef",
            "0x0000000000000000000000002968871b9780b38ffcf2221653abb09ad1038552",
            "0x000000000000000000000000b574eb2fd1101a75070cda9673a6db207581c467"
          ],
          "data": "0x00000000000000000000000000000000000000000000000000000002540be400",
          "blockHash": "0x951e45293ef5ef015c05771ffb09ba927c10a4c81219c003909d76ffe0bc54d7",
          "blockNumber": "0x2c86ce1",
          "blockTimestamp": "0x6a2bab9f",
          "transactionHash": "0x11f9fe511032437ac7bc9d2c05513d4b87c28be3197a8f68e86f6ae44b2942d8",
          "transactionIndex": "0x10",
          "logIndex": "0x26",
          "removed": false
        },
        {
          "address": "0x254a2627eb0e2e3ded4cb2225afb8815f05e04e9",
          "topics": [
            "0xddf252ad1be2c89b69c2b068fc378daa952ba7f163c4a11628f55a4df523b3ef",
            "0x000000000000000000000000b574eb2fd1101a75070cda9673a6db207581c467",
            "0x0000000000000000000000002968871b9780b38ffcf2221653abb09ad1038552"
          ],
          "data": "0x00000000000000000000000000000000000000000000000000000001bf08eb00",
          "blockHash": "0x951e45293ef5ef015c05771ffb09ba927c10a4c81219c003909d76ffe0bc54d7",
          "blockNumber": "0x2c86ce1",
          "blockTimestamp": "0x6a2bab9f",
          "transactionHash": "0x11f9fe511032437ac7bc9d2c05513d4b87c28be3197a8f68e86f6ae44b2942d8",
          "transactionIndex": "0x10",
          "logIndex": "0x27",
          "removed": false
        },
        {
          "address": "0xb574eb2fd1101a75070cda9673a6db207581c467",
          "topics": [
            "0x9c9260125f1a087d9e46ee3dc78f1a4af18c5e00714012d9a35250d49391c4fe",
            "0x0000000000000000000000002968871b9780b38ffcf2221653abb09ad1038552",
            "0x000000000000000000000000e5f8c0bd7eda98f24f0b5002fa485d473fe7e7eb",
            "0x000000000000000000000000254a2627eb0e2e3ded4cb2225afb8815f05e04e9"
          ],
          "data": "0x00000000000000000000000000000000000000000000000000000001bf08eb00",
          "blockHash": "0x951e45293ef5ef015c05771ffb09ba927c10a4c81219c003909d76ffe0bc54d7",
          "blockNumber": "0x2c86ce1",
          "blockTimestamp": "0x6a2bab9f",
          "transactionHash": "0x11f9fe511032437ac7bc9d2c05513d4b87c28be3197a8f68e86f6ae44b2942d8",
          "transactionIndex": "0x10",
          "logIndex": "0x28",
          "removed": false
        }
      ],
      "logsBloom": "0x00040000000000000000000000000000000000000000000000000000000000000000100000000000000000000000000080210000000000000000080000000000000000000000000000000008000400002000000000000000100000000000000000000000000008000000000000090000004020000000000000000010000000000000400040000010000000000000000000000000000200000000000000002000001000000000000000000000000000000800000000000000000000000000000000400002000000000000000000000000000000000000000000200800000000000000000000000000000800000004000000000000000000000000000000000000",
      "type": "0x2",
      "transactionHash": "0x11f9fe511032437ac7bc9d2c05513d4b87c28be3197a8f68e86f6ae44b2942d8",
      "transactionIndex": "0x10",
      "blockHash": "0x951e45293ef5ef015c05771ffb09ba927c10a4c81219c003909d76ffe0bc54d7",
      "blockNumber": "0x2c86ce1",
      "gasUsed": "0x437da",
      "effectiveGasPrice": "0x4a851361a",
      "from": "0x2968871b9780b38ffcf2221653abb09ad1038552",
      "to": "0xb574eb2fd1101a75070cda9673a6db207581c467",
      "contractAddress": null
    },
    {
      "status": "0x1",
      "cumulativeGasUsed": "0x12b44c4",
      "logs": [
        {
          "address": "0xb574eb2fd1101a75070cda9673a6db207581c467",
          "topics": [
            "0x51eedbe668e048aec37e4dc0104031dbf295c9f3b35bfd9cb73a217b6ff81259",
            "0x000000000000000000000000e5f8c0bd7eda98f24f0b5002fa485d473fe7e7eb"
          ],
          "data": "0x0000000000000000000000000000000000000000033b2e3dc9dc9e425ce5c9580000000000000000000000000000000000000000033b326c83b47681db524a9d000000000000000000000000000000000000000000093b19628c3f4bcd16f6c9",
          "blockHash": "0xa0efbdf197fbd700aa0102393f4217ce07d33bf9724cc2a63b98fe841b733ade",
          "blockNumber": "0x2c86ce7",
          "blockTimestamp": "0x6a2baba5",
          "transactionHash": "0x1867fcd9e7e3db97a9ff0ee8a0dd544546404c862d696f944cea4fe331634987",
          "transactionIndex": "0x91",
          "logIndex": "0x161",
          "removed": false
        },
        {
          "address": "0x254a2627eb0e2e3ded4cb2225afb8815f05e04e9",
          "topics": [
            "0xddf252ad1be2c89b69c2b068fc378daa952ba7f163c4a11628f55a4df523b3ef",
            "0x000000000000000000000000ca14e37c862465677caa064c20bdbb6673f6fe48",
            "0x000000000000000000000000b574eb2fd1101a75070cda9673a6db207581c467"
          ],
          "data": "0x00000000000000000000000000000000000000000000000000000002540be400",
          "blockHash": "0xa0efbdf197fbd700aa0102393f4217ce07d33bf9724cc2a63b98fe841b733ade",
          "blockNumber": "0x2c86ce7",
          "blockTimestamp": "0x6a2baba5",
          "transactionHash": "0x1867fcd9e7e3db97a9ff0ee8a0dd544546404c862d696f944cea4fe331634987",
          "transactionIndex": "0x91",
          "logIndex": "0x162",
          "removed": false
        },
        {
          "address": "0xe5f8c0bd7eda98f24f0b5002fa485d473fe7e7eb",
          "topics": [
            "0xddf252ad1be2c89b69c2b068fc378daa952ba7f163c4a11628f55a4df523b3ef",
            "0x000000000000000000000000b574eb2fd1101a75070cda9673a6db207581c467",
            "0x000000000000000000000000ca14e37c862465677caa064c20bdbb6673f6fe48"
          ],
          "data": "0x00000000000000000000000000000000000000000000000000000001dcd65000",
          "blockHash": "0xa0efbdf197fbd700aa0102393f4217ce07d33bf9724cc2a63b98fe841b733ade",
          "blockNumber": "0x2c86ce7",
          "blockTimestamp": "0x6a2baba5",
          "transactionHash": "0x1867fcd9e7e3db97a9ff0ee8a0dd544546404c862d696f944cea4fe331634987",
          "transactionIndex": "0x91",
          "logIndex": "0x163",
          "removed": false
        },
        {
          "address": "0xb574eb2fd1101a75070cda9673a6db207581c467",
          "topics": [
            "0x9c9260125f1a087d9e46ee3dc78f1a4af18c5e00714012d9a35250d49391c4fe",
            "0x000000000000000000000000ca14e37c862465677caa064c20bdbb6673f6fe48",
            "0x000000000000000000000000254a2627eb0e2e3ded4cb2225afb8815f05e04e9",
            "0x000000000000000000000000e5f8c0bd7eda98f24f0b5002fa485d473fe7e7eb"
          ],
          "data": "0x00000000000000000000000000000000000000000000000000000001dcd65000",
          "blockHash": "0xa0efbdf197fbd700aa0102393f4217ce07d33bf9724cc2a63b98fe841b733ade",
          "blockNumber": "0x2c86ce7",
          "blockTimestamp": "0x6a2baba5",
          "transactionHash": "0x1867fcd9e7e3db97a9ff0ee8a0dd544546404c862d696f944cea4fe331634987",
          "transactionIndex": "0x91",
          "logIndex": "0x164",
          "removed": false
        }
      ],
      "logsBloom": "0x00040000000000000000000000000000000000000000040000000000000000000000100000000000000000000000000080210000000000000000080000000000000000000000000000000008000400002000000000000000100000000000000000000000000008000000000000090000000020000000000000000010000000000000400040000010000000000000000000000000000200000000000000002000001000000000000000000000000000000800000000000000000000000000000000400002000000000000000000000000000000000000000000200800000000000080000000000000000000000004000000000000000001000000000000000000",
      "type": "0x2",
      "transactionHash": "0x1867fcd9e7e3db97a9ff0ee8a0dd544546404c862d696f944cea4fe331634987",
      "transactionIndex": "0x91",
      "blockHash": "0xa0efbdf197fbd700aa0102393f4217ce07d33bf9724cc2a63b98fe841b733ade",
      "blockNumber": "0x2c86ce7",
      "gasUsed": "0x44eb1",
      "effectiveGasPrice": "0x4a851361a",
      "from": "0xca14e37c862465677caa064c20bdbb6673f6fe48",
      "to": "0xb574eb2fd1101a75070cda9673a6db207581c467",
      "contractAddress": null
    }
  ],
  "libraries": [],
  "pending": [],
  "returns": {},
  "timestamp": 1781246888955,
  "chain": 5042002,
  "commit": "56b8140"
}