{
  "transactions": [
    {
      "hash": "0x1442fbb30bccd9bd1205f72b6409340fce92439c909b79d15f31dd1ece403f72",
      "transactionType": "CALL",
      "contractName": null,
      "contractAddress": "0xe94c3c122204a1011eed9ba9c11aa8dea861e91f",
      "function": "mint(address,uint256)",
      "arguments": [
        "0xCa14e37C862465677caA064c20BDBB6673F6FE48",
        "35000000000"
      ],
      "transaction": {
        "from": "0xca14e37c862465677caa064c20bdbb6673f6fe48",
        "to": "0xe94c3c122204a1011eed9ba9c11aa8dea861e91f",
        "gas": "0x11325",
        "value": "0x0",
        "input": "0x40c10f19000000000000000000000000ca14e37c862465677caa064c20bdbb6673f6fe480000000000000000000000000000000000000000000000000000000826299e00",
        "nonce": "0x57",
        "chainId": "0x4cef52"
      },
      "additionalContracts": [],
      "isFixedGasLimit": false
    },
    {
      "hash": "0x5c5a282beede2e6c3b40a67eda65822376007f24a8e3c866993938e9f880b534",
      "transactionType": "CALL",
      "contractName": null,
      "contractAddress": "0x657ff6937ac8913ad3dbec44430bcded3af1367c",
      "function": "mint(address,uint256)",
      "arguments": [
        "0xCa14e37C862465677caA064c20BDBB6673F6FE48",
        "12000000000"
      ],
      "transaction": {
        "from": "0xca14e37c862465677caa064c20bdbb6673f6fe48",
        "to": "0x657ff6937ac8913ad3dbec44430bcded3af1367c",
        "gas": "0x11325",
        "value": "0x0",
        "input": "0x40c10f19000000000000000000000000ca14e37c862465677caa064c20bdbb6673f6fe4800000000000000000000000000000000000000000000000000000002cb417800",
        "nonce": "0x58",
        "chainId": "0x4cef52"
      },
      "additionalContracts": [],
      "isFixedGasLimit": false
    },
    {
      "hash": "0x04afffc6f6a64dde373ede0428539f5d88aaa6c6317af604dfd37556db98d4e6",
      "transactionType": "CALL",
      "contractName": null,
      "contractAddress": "0x78f1d761bc1e5d01b136e78a63ae444189ee02fb",
      "function": "mint(address,uint256)",
      "arguments": [
        "0xCBb3b40109E849a2cD1531258CE1797Fa9ECA7e7",
        "15000000000000000000"
      ],
      "transaction": {
        "from": "0xca14e37c862465677caa064c20bdbb6673f6fe48",
        "to": "0x78f1d761bc1e5d01b136e78a63ae444189ee02fb",
        "gas": "0x11346",
        "value": "0x0",
        "input": "0x40c10f19000000000000000000000000cbb3b40109e849a2cd1531258ce1797fa9eca7e7000000000000000000000000000000000000000000000000d02ab486cedc0000",
        "nonce": "0x59",
        "chainId": "0x4cef52"
      },
      "additionalContracts": [],
      "isFixedGasLimit": false
    },
    {
      "hash": "0xb44ec3995ec0b9c82092eea19296be07b8be84156e837d78ebc6f15cbb36a323",
      "transactionType": "CALL",
      "contractName": null,
      "contractAddress": "0xe94c3c122204a1011eed9ba9c11aa8dea861e91f",
      "function": "mint(address,uint256)",
      "arguments": [
        "0xCBb3b40109E849a2cD1531258CE1797Fa9ECA7e7",
        "1000000000"
      ],
      "transaction": {
        "from": "0xca14e37c862465677caa064c20bdbb6673f6fe48",
        "to": "0xe94c3c122204a1011eed9ba9c11aa8dea861e91f",
        "gas": "0x11315",
        "value": "0x0",
        "input": "0x40c10f19000000000000000000000000cbb3b40109e849a2cd1531258ce1797fa9eca7e7000000000000000000000000000000000000000000000000000000003b9aca00",
        "nonce": "0x5a",
        "chainId": "0x4cef52"
      },
      "additionalContracts": [],
      "isFixedGasLimit": false
    },
    {
      "hash": "0x0c2e4bc329a18f5f227884d134e84a7795770eddc14f11802f48542b2e1774b8",
      "transactionType": "CALL",
      "contractName": null,
      "contractAddress": "0x657ff6937ac8913ad3dbec44430bcded3af1367c",
      "function": "mint(address,uint256)",
      "arguments": [
        "0xE52C9AA4d90C9C1050228DC08E6c336da64251AF",
        "32000000000"
      ],
      "transaction": {
        "from": "0xca14e37c862465677caa064c20bdbb6673f6fe48",
        "to": "0x657ff6937ac8913ad3dbec44430bcded3af1367c",
        "gas": "0x11325",
        "value": "0x0",
        "input": "0x40c10f19000000000000000000000000e52c9aa4d90c9c1050228dc08e6c336da64251af0000000000000000000000000000000000000000000000000000000773594000",
        "nonce": "0x5b",
        "chainId": "0x4cef52"
      },
      "additionalContracts": [],
      "isFixedGasLimit": false
    },
    {
      "hash": "0x69a17748e37382f6ad50be94bfb6ad7d88a053e9ef3cbf746b0a7e1f1e1a81f0",
      "transactionType": "CALL",
      "contractName": null,
      "contractAddress": "0x78f1d761bc1e5d01b136e78a63ae444189ee02fb",
      "function": "mint(address,uint256)",
      "arguments": [
        "0xE52C9AA4d90C9C1050228DC08E6c336da64251AF",
        "5000000000000000000"
      ],
      "transaction": {
        "from": "0xca14e37c862465677caa064c20bdbb6673f6fe48",
        "to": "0x78f1d761bc1e5d01b136e78a63ae444189ee02fb",
        "gas": "0x11346",
        "value": "0x0",
        "input": "0x40c10f19000000000000000000000000e52c9aa4d90c9c1050228dc08e6c336da64251af0000000000000000000000000000000000000000000000004563918244f40000",
        "nonce": "0x5c",
        "chainId": "0x4cef52"
      },
      "additionalContracts": [],
      "isFixedGasLimit": false
    },
    {
      "hash": "0x39d5c0d36d7c97b978872560968dc46115d06dcaf044befcb95fbf7df3eb991c",
      "transactionType": "CALL",
      "contractName": null,
      "contractAddress": "0xe94c3c122204a1011eed9ba9c11aa8dea861e91f",
      "function": "mint(address,uint256)",
      "arguments": [
        "0xE52C9AA4d90C9C1050228DC08E6c336da64251AF",
        "1000000000"
      ],
      "transaction": {
        "from": "0xca14e37c862465677caa064c20bdbb6673f6fe48",
        "to": "0xe94c3c122204a1011eed9ba9c11aa8dea861e91f",
        "gas": "0x11315",
        "value": "0x0",
        "input": "0x40c10f19000000000000000000000000e52c9aa4d90c9c1050228dc08e6c336da64251af000000000000000000000000000000000000000000000000000000003b9aca00",
        "nonce": "0x5d",
        "chainId": "0x4cef52"
      },
      "additionalContracts": [],
      "isFixedGasLimit": false
    },
    {
      "hash": "0x491d6d620844a9cd6a98ca264d1fe539e76d693ce428b3ea002ae7d003f8e047",
      "transactionType": "CALL",
      "contractName": null,
      "contractAddress": "0xe94c3c122204a1011eed9ba9c11aa8dea861e91f",
      "function": "mint(address,uint256)",
      "arguments": [
        "0x2968871b9780B38FFcf2221653ABB09aD1038552",
        "27000000000"
      ],
      "transaction": {
        "from": "0xca14e37c862465677caa064c20bdbb6673f6fe48",
        "to": "0xe94c3c122204a1011eed9ba9c11aa8dea861e91f",
        "gas": "0x11325",
        "value": "0x0",
        "input": "0x40c10f190000000000000000000000002968871b9780b38ffcf2221653abb09ad10385520000000000000000000000000000000000000000000000000000000649534e00",
        "nonce": "0x5e",
        "chainId": "0x4cef52"
      },
      "additionalContracts": [],
      "isFixedGasLimit": false
    },
    {
      "hash": "0x37a3235a88a85199b87002b727be3d969f4caad7a4776d1f4c38851e119aaa1a",
      "transactionType": "CALL",
      "contractName": null,
      "contractAddress": "0x657ff6937ac8913ad3dbec44430bcded3af1367c",
      "function": "mint(address,uint256)",
      "arguments": [
        "0x2968871b9780B38FFcf2221653ABB09aD1038552",
        "1000000000"
      ],
      "transaction": {
        "from": "0xca14e37c862465677caa064c20bdbb6673f6fe48",
        "to": "0x657ff6937ac8913ad3dbec44430bcded3af1367c",
        "gas": "0x11315",
        "value": "0x0",
        "input": "0x40c10f190000000000000000000000002968871b9780b38ffcf2221653abb09ad1038552000000000000000000000000000000000000000000000000000000003b9aca00",
        "nonce": "0x5f",
        "chainId": "0x4cef52"
      },
      "additionalContracts": [],
      "isFixedGasLimit": false
    },
    {
      "hash": "0x77344293f03ccd390a5bba07679a5dfe92308be9081f90666633ad0ed7f0c31e",
      "transactionType": "CALL",
      "contractName": null,
      "contractAddress": "0xe94c3c122204a1011eed9ba9c11aa8dea861e91f",
      "function": "approve(address,uint256)",
      "arguments": [
        "0x6fc50Bbd108F39Fc6B0069c29f42e4A120C9df97",
        "115792089237316195423570985008687907853269984665640564039457584007913129639935"
      ],
      "transaction": {
        "from": "0xca14e37c862465677caa064c20bdbb6673f6fe48",
        "to": "0xe94c3c122204a1011eed9ba9c11aa8dea861e91f",
        "gas": "0x96a7",
        "value": "0x0",
        "input": "0x095ea7b30000000000000000000000006fc50bbd108f39fc6b0069c29f42e4a120c9df97ffffffffffffffffffffffffffffffffffffffffffffffffffffffffffffffff",
        "nonce": "0x60",
        "chainId": "0x4cef52"
      },
      "additionalContracts": [],
      "isFixedGasLimit": false
    },
    {
      "hash": "0xf0247319dd7adc4fc934a6a7012706a174d77780baad15303ecced6d85c5a714",
      "transactionType": "CALL",
      "contractName": null,
      "contractAddress": "0x657ff6937ac8913ad3dbec44430bcded3af1367c",
      "function": "approve(address,uint256)",
      "arguments": [
        "0x6fc50Bbd108F39Fc6B0069c29f42e4A120C9df97",
        "115792089237316195423570985008687907853269984665640564039457584007913129639935"
      ],
      "transaction": {
        "from": "0xca14e37c862465677caa064c20bdbb6673f6fe48",
        "to": "0x657ff6937ac8913ad3dbec44430bcded3af1367c",
        "gas": "0x96a7",
        "value": "0x0",
        "input": "0x095ea7b30000000000000000000000006fc50bbd108f39fc6b0069c29f42e4a120c9df97ffffffffffffffffffffffffffffffffffffffffffffffffffffffffffffffff",
        "nonce": "0x61",
        "chainId": "0x4cef52"
      },
      "additionalContracts": [],
      "isFixedGasLimit": false
    },
    {
      "hash": "0xb9d655233c38308897771fef4e1f3a2ff3431a68d0615d03beb231f3ba5fdbc1",
      "transactionType": "CALL",
      "contractName": null,
      "contractAddress": "0x6fc50bbd108f39fc6b0069c29f42e4a120c9df97",
      "function": "deposit(address,uint256)",
      "arguments": [
        "0xe94C3c122204a1011EED9Ba9C11Aa8DEA861e91f",
        "20000000000"
      ],
      "transaction": {
        "from": "0xca14e37c862465677caa064c20bdbb6673f6fe48",
        "to": "0x6fc50bbd108f39fc6b0069c29f42e4a120c9df97",
        "gas": "0x1ce23",
        "value": "0x0",
        "input": "0x47e7ef24000000000000000000000000e94c3c122204a1011eed9ba9c11aa8dea861e91f00000000000000000000000000000000000000000000000000000004a817c800",
        "nonce": "0x62",
        "chainId": "0x4cef52"
      },
      "additionalContracts": [],
      "isFixedGasLimit": false
    },
    {
      "hash": "0xeab9c274c59f1e111fe8b152f7c814f7a68a9862ae6d63e3b707e3e56cd97ba4",
      "transactionType": "CALL",
      "contractName": null,
      "contractAddress": "0x78f1d761bc1e5d01b136e78a63ae444189ee02fb",
      "function": "approve(address,uint256)",
      "arguments": [
        "0x6fc50Bbd108F39Fc6B0069c29f42e4A120C9df97",
        "115792089237316195423570985008687907853269984665640564039457584007913129639935"
      ],
      "transaction": {
        "from": "0xcbb3b40109e849a2cd1531258ce1797fa9eca7e7",
        "to": "0x78f1d761bc1e5d01b136e78a63ae444189ee02fb",
        "gas": "0xf9a6",
        "value": "0x0",
        "input": "0x095ea7b30000000000000000000000006fc50bbd108f39fc6b0069c29f42e4a120c9df97ffffffffffffffffffffffffffffffffffffffffffffffffffffffffffffffff",
        "nonce": "0xc",
        "chainId": "0x4cef52"
      },
      "additionalContracts": [],
      "isFixedGasLimit": false
    },
    {
      "hash": "0x7302da1b86ea7ed060cbae37e41e269050d27f965b477a4560b210111fc911c3",
      "transactionType": "CALL",
      "contractName": null,
      "contractAddress": "0xe94c3c122204a1011eed9ba9c11aa8dea861e91f",
      "function": "approve(address,uint256)",
      "arguments": [
        "0x6fc50Bbd108F39Fc6B0069c29f42e4A120C9df97",
        "115792089237316195423570985008687907853269984665640564039457584007913129639935"
      ],
      "transaction": {
        "from": "0xcbb3b40109e849a2cd1531258ce1797fa9eca7e7",
        "to": "0xe94c3c122204a1011eed9ba9c11aa8dea861e91f",
        "gas": "0xf9a6",
        "value": "0x0",
        "input": "0x095ea7b30000000000000000000000006fc50bbd108f39fc6b0069c29f42e4a120c9df97ffffffffffffffffffffffffffffffffffffffffffffffffffffffffffffffff",
        "nonce": "0xd",
        "chainId": "0x4cef52"
      },
      "additionalContracts": [],
      "isFixedGasLimit": false
    },
    {
      "hash": "0xd3f8dd15beb9a2b41d5a91c4f91026406cb808492535a1f87c8f2871816cfad6",
      "transactionType": "CALL",
      "contractName": null,
      "contractAddress": "0x6fc50bbd108f39fc6b0069c29f42e4a120c9df97",
      "function": "deposit(address,uint256)",
      "arguments": [
        "0x78F1D761BC1E5D01b136e78A63AE444189ee02FB",
        "10000000000000000000"
      ],
      "transaction": {
        "from": "0xcbb3b40109e849a2cd1531258ce1797fa9eca7e7",
        "to": "0x6fc50bbd108f39fc6b0069c29f42e4a120c9df97",
        "gas": "0x28610",
        "value": "0x0",
        "input": "0x47e7ef2400000000000000000000000078f1d761bc1e5d01b136e78a63ae444189ee02fb0000000000000000000000000000000000000000000000008ac7230489e80000",
        "nonce": "0xe",
        "chainId": "0x4cef52"
      },
      "additionalContracts": [],
      "isFixedGasLimit": false
    },
    {
      "hash": "0x8efb94c99ad99159ad5e72c4d9fdb2139fdb1cdd0d9180586fefbdc8622d7c99",
      "transactionType": "CALL",
      "contractName": null,
      "contractAddress": "0x657ff6937ac8913ad3dbec44430bcded3af1367c",
      "function": "approve(address,uint256)",
      "arguments": [
        "0x6fc50Bbd108F39Fc6B0069c29f42e4A120C9df97",
        "115792089237316195423570985008687907853269984665640564039457584007913129639935"
      ],
      "transaction": {
        "from": "0xe52c9aa4d90c9c1050228dc08e6c336da64251af",
        "to": "0x657ff6937ac8913ad3dbec44430bcded3af1367c",
        "gas": "0xf9a6",
        "value": "0x0",
        "input": "0x095ea7b30000000000000000000000006fc50bbd108f39fc6b0069c29f42e4a120c9df97ffffffffffffffffffffffffffffffffffffffffffffffffffffffffffffffff",
        "nonce": "0xd",
        "chainId": "0x4cef52"
      },
      "additionalContracts": [],
      "isFixedGasLimit": false
    },
    {
      "hash": "0x7ba4a2e226838e1f7e49ed00d3f95fb93d32a6b4b5f9a8b6b1d6dd70dcb886fd",
      "transactionType": "CALL",
      "contractName": null,
      "contractAddress": "0x78f1d761bc1e5d01b136e78a63ae444189ee02fb",
      "function": "approve(address,uint256)",
      "arguments": [
        "0x6fc50Bbd108F39Fc6B0069c29f42e4A120C9df97",
        "115792089237316195423570985008687907853269984665640564039457584007913129639935"
      ],
      "transaction": {
        "from": "0xe52c9aa4d90c9c1050228dc08e6c336da64251af",
        "to": "0x78f1d761bc1e5d01b136e78a63ae444189ee02fb",
        "gas": "0xf9a6",
        "value": "0x0",
        "input": "0x095ea7b30000000000000000000000006fc50bbd108f39fc6b0069c29f42e4a120c9df97ffffffffffffffffffffffffffffffffffffffffffffffffffffffffffffffff",
        "nonce": "0xe",
        "chainId": "0x4cef52"
      },
      "additionalContracts": [],
      "isFixedGasLimit": false
    },
    {
      "hash": "0x68f35cfc249ad49f872ad577c90710aaa99ee1465b8e10e4b8867d0451cf077a",
      "transactionType": "CALL",
      "contractName": null,
      "contractAddress": "0xe94c3c122204a1011eed9ba9c11aa8dea861e91f",
      "function": "approve(address,uint256)",
      "arguments": [
        "0x6fc50Bbd108F39Fc6B0069c29f42e4A120C9df97",
        "115792089237316195423570985008687907853269984665640564039457584007913129639935"
      ],
      "transaction": {
        "from": "0xe52c9aa4d90c9c1050228dc08e6c336da64251af",
        "to": "0xe94c3c122204a1011eed9ba9c11aa8dea861e91f",
        "gas": "0xf9a6",
        "value": "0x0",
        "input": "0x095ea7b30000000000000000000000006fc50bbd108f39fc6b0069c29f42e4a120c9df97ffffffffffffffffffffffffffffffffffffffffffffffffffffffffffffffff",
        "nonce": "0xf",
        "chainId": "0x4cef52"
      },
      "additionalContracts": [],
      "isFixedGasLimit": false
    },
    {
      "hash": "0x9a007abad3cba165bad9e45e79c39a8b23cc980231967bb2db0a00dc43b31a31",
      "transactionType": "CALL",
      "contractName": null,
      "contractAddress": "0x6fc50bbd108f39fc6b0069c29f42e4a120c9df97",
      "function": "deposit(address,uint256)",
      "arguments": [
        "0x657ff6937aC8913AD3DbEC44430BcdeD3af1367C",
        "30000000000"
      ],
      "transaction": {
        "from": "0xe52c9aa4d90c9c1050228dc08e6c336da64251af",
        "to": "0x6fc50bbd108f39fc6b0069c29f42e4a120c9df97",
        "gas": "0x286a9",
        "value": "0x0",
        "input": "0x47e7ef24000000000000000000000000657ff6937ac8913ad3dbec44430bcded3af1367c00000000000000000000000000000000000000000000000000000006fc23ac00",
        "nonce": "0x10",
        "chainId": "0x4cef52"
      },
      "additionalContracts": [],
      "isFixedGasLimit": false
    },
    {
      "hash": "0x8659e62e87f1831c2a783708c6ca7d767c2d57a7dfbcb2f6e6bd9922a7898463",
      "transactionType": "CALL",
      "contractName": null,
      "contractAddress": "0xe94c3c122204a1011eed9ba9c11aa8dea861e91f",
      "function": "approve(address,uint256)",
      "arguments": [
        "0x6fc50Bbd108F39Fc6B0069c29f42e4A120C9df97",
        "115792089237316195423570985008687907853269984665640564039457584007913129639935"
      ],
      "transaction": {
        "from": "0x2968871b9780b38ffcf2221653abb09ad1038552",
        "to": "0xe94c3c122204a1011eed9ba9c11aa8dea861e91f",
        "gas": "0xf9a6",
        "value": "0x0",
        "input": "0x095ea7b30000000000000000000000006fc50bbd108f39fc6b0069c29f42e4a120c9df97ffffffffffffffffffffffffffffffffffffffffffffffffffffffffffffffff",
        "nonce": "0xc",
        "chainId": "0x4cef52"
      },
      "additionalContracts": [],
      "isFixedGasLimit": false
    },
    {
      "hash": "0x2bda78e62e1fad454ab597d09858fb32e26131f6059eaa1ea04297a5da9d1529",
      "transactionType": "CALL",
      "contractName": null,
      "contractAddress": "0x657ff6937ac8913ad3dbec44430bcded3af1367c",
      "function": "approve(address,uint256)",
      "arguments": [
        "0x6fc50Bbd108F39Fc6B0069c29f42e4A120C9df97",
        "115792089237316195423570985008687907853269984665640564039457584007913129639935"
      ],
      "transaction": {
        "from": "0x2968871b9780b38ffcf2221653abb09ad1038552",
        "to": "0x657ff6937ac8913ad3dbec44430bcded3af1367c",
        "gas": "0xf9a6",
        "value": "0x0",
        "input": "0x095ea7b30000000000000000000000006fc50bbd108f39fc6b0069c29f42e4a120c9df97ffffffffffffffffffffffffffffffffffffffffffffffffffffffffffffffff",
        "nonce": "0xd",
        "chainId": "0x4cef52"
      },
      "additionalContracts": [],
      "isFixedGasLimit": false
    },
    {
      "hash": "0x69296bb13da80111012d9d1b256ebdebbd754af00bd9a8d5d5e04c3e14724106",
      "transactionType": "CALL",
      "contractName": null,
      "contractAddress": "0x6fc50bbd108f39fc6b0069c29f42e4a120c9df97",
      "function": "deposit(address,uint256)",
      "arguments": [
        "0xe94C3c122204a1011EED9Ba9C11Aa8DEA861e91f",
        "15000000000"
      ],
      "transaction": {
        "from": "0x2968871b9780b38ffcf2221653abb09ad1038552",
        "to": "0x6fc50bbd108f39fc6b0069c29f42e4a120c9df97",
        "gas": "0x274f8",
        "value": "0x0",
        "input": "0x47e7ef24000000000000000000000000e94c3c122204a1011eed9ba9c11aa8dea861e91f000000000000000000000000000000000000000000000000000000037e11d600",
        "nonce": "0xe",
        "chainId": "0x4cef52"
      },
      "additionalContracts": [],
      "isFixedGasLimit": false
    },
    {
      "hash": "0x9d5564dcc062560fe36eda212fd529e394f357acfa92048284f92fd43f728e02",
      "transactionType": "CALL",
      "contractName": null,
      "contractAddress": "0x6fc50bbd108f39fc6b0069c29f42e4a120c9df97",
      "function": "openPosition(address,uint256,address,uint256)",
      "arguments": [
        "0x78F1D761BC1E5D01b136e78A63AE444189ee02FB",
        "5000000000000000000",
        "0xe94C3c122204a1011EED9Ba9C11Aa8DEA861e91f",
        "10000000000"
      ],
      "transaction": {
        "from": "0xcbb3b40109e849a2cd1531258ce1797fa9eca7e7",
        "to": "0x6fc50bbd108f39fc6b0069c29f42e4a120c9df97",
        "gas": "0x6306b",
        "value": "0x0",
        "input": "0xd563eb2900000000000000000000000078f1d761bc1e5d01b136e78a63ae444189ee02fb0000000000000000000000000000000000000000000000004563918244f40000000000000000000000000000e94c3c122204a1011eed9ba9c11aa8dea861e91f00000000000000000000000000000000000000000000000000000002540be400",
        "nonce": "0xf",
        "chainId": "0x4cef52"
      },
      "additionalContracts": [],
      "isFixedGasLimit": false
    },
    {
      "hash": null,
      "transactionType": "CALL",
      "contractName": null,
      "contractAddress": "0x6fc50bbd108f39fc6b0069c29f42e4a120c9df97",
      "function": "openPosition(address,uint256,address,uint256)",
      "arguments": [
        "0x78F1D761BC1E5D01b136e78A63AE444189ee02FB",
        "3000000000000000000",
        "0xe94C3c122204a1011EED9Ba9C11Aa8DEA861e91f",
        "6000000000"
      ],
      "transaction": {
        "from": "0xe52c9aa4d90c9c1050228dc08e6c336da64251af",
        "to": "0x6fc50bbd108f39fc6b0069c29f42e4a120c9df97",
        "gas": "0x5ee0e",
        "value": "0x0",
        "input": "0xd563eb2900000000000000000000000078f1d761bc1e5d01b136e78a63ae444189ee02fb00000000000000000000000000000000000000000000000029a2241af62c0000000000000000000000000000e94c3c122204a1011eed9ba9c11aa8dea861e91f0000000000000000000000000000000000000000000000000000000165a0bc00",
        "nonce": "0x11",
        "chainId": "0x4cef52"
      },
      "additionalContracts": [],
      "isFixedGasLimit": false
    },
    {
      "hash": null,
      "transactionType": "CALL",
      "contractName": null,
      "contractAddress": "0x6fc50bbd108f39fc6b0069c29f42e4a120c9df97",
      "function": "openPosition(address,uint256,address,uint256)",
      "arguments": [
        "0xe94C3c122204a1011EED9Ba9C11Aa8DEA861e91f",
        "10000000000",
        "0x657ff6937aC8913AD3DbEC44430BcdeD3af1367C",
        "7500000000"
      ],
      "transaction": {
        "from": "0x2968871b9780b38ffcf2221653abb09ad1038552",
        "to": "0x6fc50bbd108f39fc6b0069c29f42e4a120c9df97",
        "gas": "0x649a7",
        "value": "0x0",
        "input": "0xd563eb29000000000000000000000000e94c3c122204a1011eed9ba9c11aa8dea861e91f00000000000000000000000000000000000000000000000000000002540be400000000000000000000000000657ff6937ac8913ad3dbec44430bcded3af1367c00000000000000000000000000000000000000000000000000000001bf08eb00",
        "nonce": "0xf",
        "chainId": "0x4cef52"
      },
      "additionalContracts": [],
      "isFixedGasLimit": false
    },
    {
      "hash": null,
      "transactionType": "CALL",
      "contractName": null,
      "contractAddress": "0x6fc50bbd108f39fc6b0069c29f42e4a120c9df97",
      "function": "openPosition(address,uint256,address,uint256)",
      "arguments": [
        "0x657ff6937aC8913AD3DbEC44430BcdeD3af1367C",
        "10000000000",
        "0xe94C3c122204a1011EED9Ba9C11Aa8DEA861e91f",
        "8000000000"
      ],
      "transaction": {
        "from": "0xca14e37c862465677caa064c20bdbb6673f6fe48",
        "to": "0x6fc50bbd108f39fc6b0069c29f42e4a120c9df97",
        "gas": "0x6a852",
        "value": "0x0",
        "input": "0xd563eb29000000000000000000000000657ff6937ac8913ad3dbec44430bcded3af1367c00000000000000000000000000000000000000000000000000000002540be400000000000000000000000000e94c3c122204a1011eed9ba9c11aa8dea861e91f00000000000000000000000000000000000000000000000000000001dcd65000",
        "nonce": "0x63",
        "chainId": "0x4cef52"
      },
      "additionalContracts": [],
      "isFixedGasLimit": false
    }
  ],
  "receipts": [
    {
      "status": "0x1",
      "cumulativeGasUsed": "0x13cf2f1",
      "logs": [
        {
          "address": "0xe94c3c122204a1011eed9ba9c11aa8dea861e91f",
          "topics": [
            "0xddf252ad1be2c89b69c2b068fc378daa952ba7f163c4a11628f55a4df523b3ef",
            "0x0000000000000000000000000000000000000000000000000000000000000000",
            "0x000000000000000000000000ca14e37c862465677caa064c20bdbb6673f6fe48"
          ],
          "data": "0x0000000000000000000000000000000000000000000000000000000826299e00",
          "blockHash": "0x021895dcd5297b22619ace82800df9403cabef33c80ef80c8cd062152f6bbf3c",
          "blockNumber": "0x2cb4c26",
          "blockTimestamp": "0x6a2d49c9",
          "transactionHash": "0x1442fbb30bccd9bd1205f72b6409340fce92439c909b79d15f31dd1ece403f72",
          "transactionIndex": "0x35",
          "logIndex": "0x22c",
          "removed": false
        }
      ],
      "logsBloom": "0x00000000000000000000000000000000000000000000240000000000000000000000000000000000000000000000000000000000000000000000000000000000000000000000000000000008000000000000000000000000000000000000000000000000020000000000000000000800000000000000000000000010000000000000000000000000000000000000000000000000000000000000000000000000000000000000000000000004000000000000000000000000000002000000000000000002000000000000000000000000000000000000000000000000000020000080000000000000000000000000000000000000000001000000000000000000",
      "type": "0x2",
      "transactionHash": "0x1442fbb30bccd9bd1205f72b6409340fce92439c909b79d15f31dd1ece403f72",
      "transactionIndex": "0x35",
      "blockHash": "0x021895dcd5297b22619ace82800df9403cabef33c80ef80c8cd062152f6bbf3c",
      "blockNumber": "0x2cb4c26",
      "gasUsed": "0xc734",
      "effectiveGasPrice": "0x4a88ede4a",
      "from": "0xca14e37c862465677caa064c20bdbb6673f6fe48",
      "to": "0xe94c3c122204a1011eed9ba9c11aa8dea861e91f",
      "contractAddress": null
    },
    {
      "status": "0x1",
      "cumulativeGasUsed": "0x3de918",
      "logs": [
        {
          "address": "0x657ff6937ac8913ad3dbec44430bcded3af1367c",
          "topics": [
            "0xddf252ad1be2c89b69c2b068fc378daa952ba7f163c4a11628f55a4df523b3ef",
            "0x0000000000000000000000000000000000000000000000000000000000000000",
            "0x000000000000000000000000ca14e37c862465677caa064c20bdbb6673f6fe48"
          ],
          "data": "0x00000000000000000000000000000000000000000000000000000002cb417800",
          "blockHash": "0x48457d3a97f7afd971ab6317c8b916f94e3bc363facfad169dae2c94e5d28c5c",
          "blockNumber": "0x2cb4c2e",
          "blockTimestamp": "0x6a2d49ce",
          "transactionHash": "0x5c5a282beede2e6c3b40a67eda65822376007f24a8e3c866993938e9f880b534",
          "transactionIndex": "0x1a",
          "logIndex": "0x2d",
          "removed": false
        }
      ],
      "logsBloom": "0x00000000000000000000000000000000000000000000040000000000000000000000000000000000000000000008000000000000000000000000000000000000000000000000000000000008000000020000000000000000000000000000000000000000020000000000000000000800000000000000000000000010000000000000000000000000000000000000000000000000000000000000000000000000000000000000000000000000000000000000000000000000000000000000000000000002400000000000000000000000000000000000000000000000000020000080000000000000000000000000000000000000000001000000000000000000",
      "type": "0x2",
      "transactionHash": "0x5c5a282beede2e6c3b40a67eda65822376007f24a8e3c866993938e9f880b534",
      "transactionIndex": "0x1a",
      "blockHash": "0x48457d3a97f7afd971ab6317c8b916f94e3bc363facfad169dae2c94e5d28c5c",
      "blockNumber": "0x2cb4c2e",
      "gasUsed": "0xc734",
      "effectiveGasPrice": "0x4a88ede4a",
      "from": "0xca14e37c862465677caa064c20bdbb6673f6fe48",
      "to": "0x657ff6937ac8913ad3dbec44430bcded3af1367c",
      "contractAddress": null
    },
    {
      "status": "0x1",
      "cumulativeGasUsed": "0x5065cd",
      "logs": [
        {
          "address": "0x78f1d761bc1e5d01b136e78a63ae444189ee02fb",
          "topics": [
            "0xddf252ad1be2c89b69c2b068fc378daa952ba7f163c4a11628f55a4df523b3ef",
            "0x0000000000000000000000000000000000000000000000000000000000000000",
            "0x000000000000000000000000cbb3b40109e849a2cd1531258ce1797fa9eca7e7"
          ],
          "data": "0x000000000000000000000000000000000000000000000000d02ab486cedc0000",
          "blockHash": "0xed74f05880dbcfcf44adfa94e7ec3184808185f91a5a48253e838d13635389c9",
          "blockNumber": "0x2cb4c33",
          "blockTimestamp": "0x6a2d49d1",
          "transactionHash": "0x04afffc6f6a64dde373ede0428539f5d88aaa6c6317af604dfd37556db98d4e6",
          "transactionIndex": "0x17",
          "logIndex": "0x38",
          "removed": false
        }
      ],
      "logsBloom": "0x00000000000000000000000000000000020000000000000000000000000000000000000000000000000000000000000000000000000000000000000000000000000000000000000000000008000000000000000000000000000000000000000000000000020000000000000000000800000000000000000000000010000000000000000000000000000000000000000000000000000000000000000000000000000000002000000000000000000000000210000000000000000000000000000000000002000000000000000000000000002000000000000000000000000020000000000000000000000000000000000000000000000000000000040000000000",
      "type": "0x2",
      "transactionHash": "0x04afffc6f6a64dde373ede0428539f5d88aaa6c6317af604dfd37556db98d4e6",
      "transactionIndex": "0x17",
      "blockHash": "0xed74f05880dbcfcf44adfa94e7ec3184808185f91a5a48253e838d13635389c9",
      "blockNumber": "0x2cb4c33",
      "gasUsed": "0xc74c",
      "effectiveGasPrice": "0x4a88ede4a",
      "from": "0xca14e37c862465677caa064c20bdbb6673f6fe48",
      "to": "0x78f1d761bc1e5d01b136e78a63ae444189ee02fb",
      "contractAddress": null
    },
    {
      "status": "0x1",
      "cumulativeGasUsed": "0x92c786",
      "logs": [
        {
          "address": "0xe94c3c122204a1011eed9ba9c11aa8dea861e91f",
          "topics": [
            "0xddf252ad1be2c89b69c2b068fc378daa952ba7f163c4a11628f55a4df523b3ef",
            "0x0000000000000000000000000000000000000000000000000000000000000000",
            "0x000000000000000000000000cbb3b40109e849a2cd1531258ce1797fa9eca7e7"
          ],
          "data": "0x000000000000000000000000000000000000000000000000000000003b9aca00",
          "blockHash": "0xc5c1e328013b061ad63336f2a7b8b515e7b0f106687f07e938beb03bcc44aec4",
          "blockNumber": "0x2cb4c38",
          "blockTimestamp": "0x6a2d49d5",
          "transactionHash": "0xb44ec3995ec0b9c82092eea19296be07b8be84156e837d78ebc6f15cbb36a323",
          "transactionIndex": "0x4a",
          "logIndex": "0xcc",
          "removed": false
        }
      ],
      "logsBloom": "0x00000000000000000000000000000000020000000000200000000000000000000000000000000000000000000000000000000000000000000000000000000000000000000000000000000008000000000000000000000000000000000000000000000000020000000000000000000800000000000000000000000010000000000000000000000000000000000000000000000000000000000000000000000000000000000000000000000004000000000200000000000000000002000000000000000002000000000000000000000000002000000000000000000000000020000000000000000000000000000000000000000000000000000000000000000000",
      "type": "0x2",
      "transactionHash": "0xb44ec3995ec0b9c82092eea19296be07b8be84156e837d78ebc6f15cbb36a323",
      "transactionIndex": "0x4a",
      "blockHash": "0xc5c1e328013b061ad63336f2a7b8b515e7b0f106687f07e938beb03bcc44aec4",
      "blockNumber": "0x2cb4c38",
      "gasUsed": "0xc728",
      "effectiveGasPrice": "0x4a88ede4a",
      "from": "0xca14e37c862465677caa064c20bdbb6673f6fe48",
      "to": "0xe94c3c122204a1011eed9ba9c11aa8dea861e91f",
      "contractAddress": null
    },
    {
      "status": "0x1",
      "cumulativeGasUsed": "0x1f8543",
      "logs": [
        {
          "address": "0x657ff6937ac8913ad3dbec44430bcded3af1367c",
          "topics": [
            "0xddf252ad1be2c89b69c2b068fc378daa952ba7f163c4a11628f55a4df523b3ef",
            "0x0000000000000000000000000000000000000000000000000000000000000000",
            "0x000000000000000000000000e52c9aa4d90c9c1050228dc08e6c336da64251af"
          ],
          "data": "0x0000000000000000000000000000000000000000000000000000000773594000",
          "blockHash": "0xa3fcce84ed4f38a31c79fa21c794474b841d46aa2c98b4fe0ccadd53a87f6ed5",
          "blockNumber": "0x2cb4c3d",
          "blockTimestamp": "0x6a2d49d7",
          "transactionHash": "0x0c2e4bc329a18f5f227884d134e84a7795770eddc14f11802f48542b2e1774b8",
          "transactionIndex": "0x10",
          "logIndex": "0x3f",
          "removed": false
        }
      ],
      "logsBloom": "0x00000000000000000000000000000000000000000000000000000000000000000000000000000000000000000008000000000000000000000000000000000000000100000000000000000008000000020000000000000000000000000000000000000000020000000000000000000800000000000000000000000010000000000000000000000000000000000000000000000000000000000000000000000000000000000000000000000000000000000000000000000000000000000000000000000002400000000000000000000000000000000000000000000000000020000000000000000000000000000000000000000000000000000000000110000000",
      "type": "0x2",
      "transactionHash": "0x0c2e4bc329a18f5f227884d134e84a7795770eddc14f11802f48542b2e1774b8",
      "transactionIndex": "0x10",
      "blockHash": "0xa3fcce84ed4f38a31c79fa21c794474b841d46aa2c98b4fe0ccadd53a87f6ed5",
      "blockNumber": "0x2cb4c3d",
      "gasUsed": "0xc734",
      "effectiveGasPrice": "0x4a88ede4a",
      "from": "0xca14e37c862465677caa064c20bdbb6673f6fe48",
      "to": "0x657ff6937ac8913ad3dbec44430bcded3af1367c",
      "contractAddress": null
    },
    {
      "status": "0x1",
      "cumulativeGasUsed": "0x654f55",
      "logs": [
        {
          "address": "0x78f1d761bc1e5d01b136e78a63ae444189ee02fb",
          "topics": [
            "0xddf252ad1be2c89b69c2b068fc378daa952ba7f163c4a11628f55a4df523b3ef",
            "0x0000000000000000000000000000000000000000000000000000000000000000",
            "0x000000000000000000000000e52c9aa4d90c9c1050228dc08e6c336da64251af"
          ],
          "data": "0x0000000000000000000000000000000000000000000000004563918244f40000",
          "blockHash": "0x7cc9d61aeb755ea99be87748552a93549d65e04878a05f1e0501a869b0308724",
          "blockNumber": "0x2cb4c44",
          "blockTimestamp": "0x6a2d49dc",
          "transactionHash": "0x69a17748e37382f6ad50be94bfb6ad7d88a053e9ef3cbf746b0a7e1f1e1a81f0",
          "transactionIndex": "0x19",
          "logIndex": "0x58",
          "removed": false
        }
      ],
      "logsBloom": "0x00000000000000000000000000000000000000000000000000000000000000000000000000000000000000000000000000000000000000000000000000000000000100000000000000000008000000000000000000000000000000000000000000000000020000000000000000000800000000000000000000000010000000000000000000000000000000000000000000000000000000000000000000000000000000002000000000000000000000000010000000000000000000000000000000000002000000000000000000000000000000000000000000000000000020000000000000000000000000000000000000000000000000000000040110000000",
      "type": "0x2",
      "transactionHash": "0x69a17748e37382f6ad50be94bfb6ad7d88a053e9ef3cbf746b0a7e1f1e1a81f0",
      "transactionIndex": "0x19",
      "blockHash": "0x7cc9d61aeb755ea99be87748552a93549d65e04878a05f1e0501a869b0308724",
      "blockNumber": "0x2cb4c44",
      "gasUsed": "0xc74c",
      "effectiveGasPrice": "0x4a88ede4a",
      "from": "0xca14e37c862465677caa064c20bdbb6673f6fe48",
      "to": "0x78f1d761bc1e5d01b136e78a63ae444189ee02fb",
      "contractAddress": null
    },
    {
      "status": "0x1",
      "cumulativeGasUsed": "0xcbd20e",
      "logs": [
        {
          "address": "0xe94c3c122204a1011eed9ba9c11aa8dea861e91f",
          "topics": [
            "0xddf252ad1be2c89b69c2b068fc378daa952ba7f163c4a11628f55a4df523b3ef",
            "0x0000000000000000000000000000000000000000000000000000000000000000",
            "0x000000000000000000000000e52c9aa4d90c9c1050228dc08e6c336da64251af"
          ],
          "data": "0x000000000000000000000000000000000000000000000000000000003b9aca00",
          "blockHash": "0x53837fdde78d4f9dd3109994d36a92326b8e7ab79601aa09f64aa1c775d1c67d",
          "blockNumber": "0x2cb4c4a",
          "blockTimestamp": "0x6a2d49df",
          "transactionHash": "0x39d5c0d36d7c97b978872560968dc46115d06dcaf044befcb95fbf7df3eb991c",
          "transactionIndex": "0x12",
          "logIndex": "0x1bc",
          "removed": false
        }
      ],
      "logsBloom": "0x00000000000000000000000000000000000000000000200000000000000000000000000000000000000000000000000000000000000000000000000000000000000100000000000000000008000000000000000000000000000000000000000000000000020000000000000000000800000000000000000000000010000000000000000000000000000000000000000000000000000000000000000000000000000000000000000000000004000000000000000000000000000002000000000000000002000000000000000000000000000000000000000000000000000020000000000000000000000000000000000000000000000000000000000110000000",
      "type": "0x2",
      "transactionHash": "0x39d5c0d36d7c97b978872560968dc46115d06dcaf044befcb95fbf7df3eb991c",
      "transactionIndex": "0x12",
      "blockHash": "0x53837fdde78d4f9dd3109994d36a92326b8e7ab79601aa09f64aa1c775d1c67d",
      "blockNumber": "0x2cb4c4a",
      "gasUsed": "0xc728",
      "effectiveGasPrice": "0x4a88ede4a",
      "from": "0xca14e37c862465677caa064c20bdbb6673f6fe48",
      "to": "0xe94c3c122204a1011eed9ba9c11aa8dea861e91f",
      "contractAddress": null
    },
    {
      "status": "0x1",
      "cumulativeGasUsed": "0x22278e",
      "logs": [
        {
          "address": "0xe94c3c122204a1011eed9ba9c11aa8dea861e91f",
          "topics": [
            "0xddf252ad1be2c89b69c2b068fc378daa952ba7f163c4a11628f55a4df523b3ef",
            "0x0000000000000000000000000000000000000000000000000000000000000000",
            "0x0000000000000000000000002968871b9780b38ffcf2221653abb09ad1038552"
          ],
          "data": "0x0000000000000000000000000000000000000000000000000000000649534e00",
          "blockHash": "0xda7bc34e60db025746ca13bd0589cf3a57a3fe71f34856e143d2ae41d3cfcdb5",
          "blockNumber": "0x2cb4c4d",
          "blockTimestamp": "0x6a2d49e0",
          "transactionHash": "0x491d6d620844a9cd6a98ca264d1fe539e76d693ce428b3ea002ae7d003f8e047",
          "transactionIndex": "0xe",
          "logIndex": "0x11",
          "removed": false
        }
      ],
      "logsBloom": "0x00000000000000000000000000000000000000000000200000000000000000000000000000000000000000000000000000000000000000000000000000000000000000000000000000000008000000000000000000000000000000000000000000000000020000000000000000000800004000000000000000000010000000000000000000000000000000000000000000000000000000000000000000000000000000000000000000000004000000000000000000000000000002000000000000000002000000000000000000000000000000000000000000000000000020000000000000000000000800000000000000000000000000000000000000000000",
      "type": "0x2",
      "transactionHash": "0x491d6d620844a9cd6a98ca264d1fe539e76d693ce428b3ea002ae7d003f8e047",
      "transactionIndex": "0xe",
      "blockHash": "0xda7bc34e60db025746ca13bd0589cf3a57a3fe71f34856e143d2ae41d3cfcdb5",
      "blockNumber": "0x2cb4c4d",
      "gasUsed": "0xc734",
      "effectiveGasPrice": "0x4a88ede4a",
      "from": "0xca14e37c862465677caa064c20bdbb6673f6fe48",
      "to": "0xe94c3c122204a1011eed9ba9c11aa8dea861e91f",
      "contractAddress": null
    },
    {
      "status": "0x1",
      "cumulativeGasUsed": "0x512df4",
      "logs": [
        {
          "address": "0x657ff6937ac8913ad3dbec44430bcded3af1367c",
          "topics": [
            "0xddf252ad1be2c89b69c2b068fc378daa952ba7f163c4a11628f55a4df523b3ef",
            "0x0000000000000000000000000000000000000000000000000000000000000000",
            "0x0000000000000000000000002968871b9780b38ffcf2221653abb09ad1038552"
          ],
          "data": "0x000000000000000000000000000000000000000000000000000000003b9aca00",
          "blockHash": "0xb6b38380c4e3b9937b8ed23cad7cb781267872409df55020afe7e5e51c180f49",
          "blockNumber": "0x2cb4c54",
          "blockTimestamp": "0x6a2d49e5",
          "transactionHash": "0x37a3235a88a85199b87002b727be3d969f4caad7a4776d1f4c38851e119aaa1a",
          "transactionIndex": "0x2d",
          "logIndex": "0x61",
          "removed": false
        }
      ],
      "logsBloom": "0x00000000000000000000000000000000000000000000000000000000000000000000000000000000000000000008000000000000000000000000000000000000000000000000000000000008000000020000000000000000000000000000000000000000020000000000000000000800004000000000000000000010000000000000000000000000000000000000000000000000000000000000000000000000000000000000000000000000000000000000000000000000000000000000000000000002400000000000000000000000000000000000000000000000000020000000000000000000000800000000000000000000000000000000000000000000",
      "type": "0x2",
      "transactionHash": "0x37a3235a88a85199b87002b727be3d969f4caad7a4776d1f4c38851e119aaa1a",
      "transactionIndex": "0x2d",
      "blockHash": "0xb6b38380c4e3b9937b8ed23cad7cb781267872409df55020afe7e5e51c180f49",
      "blockNumber": "0x2cb4c54",
      "gasUsed": "0xc728",
      "effectiveGasPrice": "0x4a88ede4a",
      "from": "0xca14e37c862465677caa064c20bdbb6673f6fe48",
      "to": "0x657ff6937ac8913ad3dbec44430bcded3af1367c",
      "contractAddress": null
    },
    {
      "status": "0x1",
      "cumulativeGasUsed": "0x2d5aba",
      "logs": [
        {
          "address": "0xe94c3c122204a1011eed9ba9c11aa8dea861e91f",
          "topics": [
            "0x8c5be1e5ebec7d5bd14f71427d1e84f3dd0314c0f7b2291e5b200ac8c7c3b925",
            "0x000000000000000000000000ca14e37c862465677caa064c20bdbb6673f6fe48",
            "0x0000000000000000000000006fc50bbd108f39fc6b0069c29f42e4a120c9df97"
          ],
          "data": "0xffffffffffffffffffffffffffffffffffffffffffffffffffffffffffffffff",
          "blockHash": "0xa5dcff07650ac1e0812f6b67ed3ddcc4a635d7e66847977937711a07195bbf48",
          "blockNumber": "0x2cb4c59",
          "blockTimestamp": "0x6a2d49e7",
          "transactionHash": "0x77344293f03ccd390a5bba07679a5dfe92308be9081f90666633ad0ed7f0c31e",
          "transactionIndex": "0x17",
          "logIndex": "0x21",
          "removed": false
        }
      ],
      "logsBloom": "0x00010000000000000000000000000000000000000000240000000000000000000000000000000000000000000000000000000000000000000000000000200000000000000000000000000000000000000000000000000000000000000000000000000000000000000000000000000000000000000000000008000000000000000000000000000000000000000000000000000000000000000000000000000000020000000000000000000004000000000000000000000000000002000000000000000000000000000000000000000000000000000000000000000000000080000090000000000000000000000000000000000000000001000000000000000000",
      "type": "0x2",
      "transactionHash": "0x77344293f03ccd390a5bba07679a5dfe92308be9081f90666633ad0ed7f0c31e",
      "transactionIndex": "0x17",
      "blockHash": "0xa5dcff07650ac1e0812f6b67ed3ddcc4a635d7e66847977937711a07195bbf48",
      "blockNumber": "0x2cb4c59",
      "gasUsed": "0x6703",
      "effectiveGasPrice": "0x4a88ede4a",
      "from": "0xca14e37c862465677caa064c20bdbb6673f6fe48",
      "to": "0xe94c3c122204a1011eed9ba9c11aa8dea861e91f",
      "contractAddress": null
    },
    {
      "status": "0x1",
      "cumulativeGasUsed": "0x407bef",
      "logs": [
        {
          "address": "0x657ff6937ac8913ad3dbec44430bcded3af1367c",
          "topics": [
            "0x8c5be1e5ebec7d5bd14f71427d1e84f3dd0314c0f7b2291e5b200ac8c7c3b925",
            "0x000000000000000000000000ca14e37c862465677caa064c20bdbb6673f6fe48",
            "0x0000000000000000000000006fc50bbd108f39fc6b0069c29f42e4a120c9df97"
          ],
          "data": "0xffffffffffffffffffffffffffffffffffffffffffffffffffffffffffffffff",
          "blockHash": "0x71aec3e1e53b315f99fbf78bb812b4a699d73f7d849e37554117f5005dd5277c",
          "blockNumber": "0x2cb4c60",
          "blockTimestamp": "0x6a2d49ec",
          "transactionHash": "0xf0247319dd7adc4fc934a6a7012706a174d77780baad15303ecced6d85c5a714",
          "transactionIndex": "0x18",
          "logIndex": "0x34",
          "removed": false
        }
      ],
      "logsBloom": "0x00010000000000000000000000000000000000000000040000000000000000000000000000000000000000000008000000000000000000000000000000200000000000000000000000000000000000020000000000000000000000000000000000000000000000000000000000000000000000000000000008000000000000000000000000000000000000000000000000000000000000000000000000000000020000000000000000000000000000000000000000000000000000000000000000000000400000000000000000000000000000000000000000000000000080000090000000000000000000000000000000000000000001000000000000000000",
      "type": "0x2",
      "transactionHash": "0xf0247319dd7adc4fc934a6a7012706a174d77780baad15303ecced6d85c5a714",
      "transactionIndex": "0x18",
      "blockHash": "0x71aec3e1e53b315f99fbf78bb812b4a699d73f7d849e37554117f5005dd5277c",
      "blockNumber": "0x2cb4c60",
      "gasUsed": "0x6703",
      "effectiveGasPrice": "0x4a88ede4a",
      "from": "0xca14e37c862465677caa064c20bdbb6673f6fe48",
      "to": "0x657ff6937ac8913ad3dbec44430bcded3af1367c",
      "contractAddress": null
    },
    {
      "status": "0x1",
      "cumulativeGasUsed": "0x5955c8",
      "logs": [
        {
          "address": "0x6fc50bbd108f39fc6b0069c29f42e4a120c9df97",
          "topics": [
            "0x51eedbe668e048aec37e4dc0104031dbf295c9f3b35bfd9cb73a217b6ff81259",
            "0x000000000000000000000000e94c3c122204a1011eed9ba9c11aa8dea861e91f"
          ],
          "data": "0x0000000000000000000000000000000000000000033b2e3c9fd0803ce80000000000000000000000000000000000000000000000033b2e3c9fd0803ce8000000000000000000000000000000000000000000000000084595161401484a000000",
          "blockHash": "0x318d53a9177f6869b5f45bcf63708aa4d04ce977119c5b20e59abf2562df8fdb",
          "blockNumber": "0x2cb4c65",
          "blockTimestamp": "0x6a2d49ef",
          "transactionHash": "0xb9d655233c38308897771fef4e1f3a2ff3431a68d0615d03beb231f3ba5fdbc1",
          "transactionIndex": "0x18",
          "logIndex": "0x5c",
          "removed": false
        },
        {
          "address": "0xe94c3c122204a1011eed9ba9c11aa8dea861e91f",
          "topics": [
            "0xddf252ad1be2c89b69c2b068fc378daa952ba7f163c4a11628f55a4df523b3ef",
            "0x000000000000000000000000ca14e37c862465677caa064c20bdbb6673f6fe48",
            "0x0000000000000000000000006fc50bbd108f39fc6b0069c29f42e4a120c9df97"
          ],
          "data": "0x00000000000000000000000000000000000000000000000000000004a817c800",
          "blockHash": "0x318d53a9177f6869b5f45bcf63708aa4d04ce977119c5b20e59abf2562df8fdb",
          "blockNumber": "0x2cb4c65",
          "blockTimestamp": "0x6a2d49ef",
          "transactionHash": "0xb9d655233c38308897771fef4e1f3a2ff3431a68d0615d03beb231f3ba5fdbc1",
          "transactionIndex": "0x18",
          "logIndex": "0x5d",
          "removed": false
        },
        {
          "address": "0x6fc50bbd108f39fc6b0069c29f42e4a120c9df97",
          "topics": [
            "0xf5681f9d0db1b911ac18ee83d515a1cf1051853a9eae418316a2fdf7dea427c5",
            "0x000000000000000000000000e94c3c122204a1011eed9ba9c11aa8dea861e91f",
            "0x000000000000000000000000ca14e37c862465677caa064c20bdbb6673f6fe48"
          ],
          "data": "0x00000000000000000000000000000000000000000000000000000004a817c80000000000000000000000000000000000000000000000000000000004a817c800",
          "blockHash": "0x318d53a9177f6869b5f45bcf63708aa4d04ce977119c5b20e59abf2562df8fdb",
          "blockNumber": "0x2cb4c65",
          "blockTimestamp": "0x6a2d49ef",
          "transactionHash": "0xb9d655233c38308897771fef4e1f3a2ff3431a68d0615d03beb231f3ba5fdbc1",
          "transactionIndex": "0x18",
          "logIndex": "0x5e",
          "removed": false
        }
      ],
      "logsBloom": "0x00010000000000000000000000000000000000000000240000000000000000000000100000000000000000000000000280000000000000000000000000000000000000800000000000000008000000000000000000000000000000000000000000000000000008000000000000000000000000000000180008000010000010000000000000000020000000000000000000000004000000000000000000000000000000000000000000000004000000000000000000000000000002000000000000000002000000000000000000000010000000000000000000000000000080000080004000000000000000000000000000000000000001000000000000000000",
      "type": "0x2",
      "transactionHash": "0xb9d655233c38308897771fef4e1f3a2ff3431a68d0615d03beb231f3ba5fdbc1",
      "transactionIndex": "0x18",
      "blockHash": "0x318d53a9177f6869b5f45bcf63708aa4d04ce977119c5b20e59abf2562df8fdb",
      "blockNumber": "0x2cb4c65",
      "gasUsed": "0x14e95",
      "effectiveGasPrice": "0x4a88ede4a",
      "from": "0xca14e37c862465677caa064c20bdbb6673f6fe48",
      "to": "0x6fc50bbd108f39fc6b0069c29f42e4a120c9df97",
      "contractAddress": null
    },
    {
      "status": "0x1",
      "cumulativeGasUsed": "0x1f4b64",
      "logs": [
        {
          "address": "0x78f1d761bc1e5d01b136e78a63ae444189ee02fb",
          "topics": [
            "0x8c5be1e5ebec7d5bd14f71427d1e84f3dd0314c0f7b2291e5b200ac8c7c3b925",
            "0x000000000000000000000000cbb3b40109e849a2cd1531258ce1797fa9eca7e7",
            "0x0000000000000000000000006fc50bbd108f39fc6b0069c29f42e4a120c9df97"
          ],
          "data": "0xffffffffffffffffffffffffffffffffffffffffffffffffffffffffffffffff",
          "blockHash": "0xde5e6cbc10e6a2db8cfd327cbf661ee123c408f34257a48b205c25b39c6abd26",
          "blockNumber": "0x2cb4c6d",
          "blockTimestamp": "0x6a2d49f3",
          "transactionHash": "0xeab9c274c59f1e111fe8b152f7c814f7a68a9862ae6d63e3b707e3e56cd97ba4",
          "transactionIndex": "0x10",
          "logIndex": "0x29",
          "removed": false
        }
      ],
      "logsBloom": "0x00010000000000000000000000000000020000000000000000000000000000000000000000000000000000000000000000000000000000000000000000200000000000000000000000000000000000000000000000000000000000000000000000000000000000000000000000000000000000000000000008000000000000000000000000000000000000000000000000000000000000000000000000000000020000002000000000000000000000000210000000000000000000000000000000000000000000000000000000000000002000000000000000000000000080000010000000000000000000000000000000000000000000000000040000000000",
      "type": "0x2",
      "transactionHash": "0xeab9c274c59f1e111fe8b152f7c814f7a68a9862ae6d63e3b707e3e56cd97ba4",
      "transactionIndex": "0x10",
      "blockHash": "0xde5e6cbc10e6a2db8cfd327cbf661ee123c408f34257a48b205c25b39c6abd26",
      "blockNumber": "0x2cb4c6d",
      "gasUsed": "0xb4bf",
      "effectiveGasPrice": "0x4a88ede4a",
      "from": "0xcbb3b40109e849a2cd1531258ce1797fa9eca7e7",
      "to": "0x78f1d761bc1e5d01b136e78a63ae444189ee02fb",
      "contractAddress": null
    },
    {
      "status": "0x1",
      "cumulativeGasUsed": "0x2a717f",
      "logs": [
        {
          "address": "0xe94c3c122204a1011eed9ba9c11aa8dea861e91f",
          "topics": [
            "0x8c5be1e5ebec7d5bd14f71427d1e84f3dd0314c0f7b2291e5b200ac8c7c3b925",
            "0x000000000000000000000000cbb3b40109e849a2cd1531258ce1797fa9eca7e7",
            "0x0000000000000000000000006fc50bbd108f39fc6b0069c29f42e4a120c9df97"
          ],
          "data": "0xffffffffffffffffffffffffffffffffffffffffffffffffffffffffffffffff",
          "blockHash": "0x207dd1077d6601ebbe85ec3e11fdced80ce8d4091a5c49ffb0626ee3deddbd47",
          "blockNumber": "0x2cb4c73",
          "blockTimestamp": "0x6a2d49f7",
          "transactionHash": "0x7302da1b86ea7ed060cbae37e41e269050d27f965b477a4560b210111fc911c3",
          "transactionIndex": "0x17",
          "logIndex": "0x37",
          "removed": false
        }
      ],
      "logsBloom": "0x00010000000000000000000000000000020000000000200000000000000000000000000000000000000000000000000000000000000000000000000000200000000000000000000000000000000000000000000000000000000000000000000000000000000000000000000000000000000000000000000008000000000000000000000000000000000000000000000000000000000000000000000000000000020000000000000000000004000000000200000000000000000002000000000000000000000000000000000000000000002000000000000000000000000080000010000000000000000000000000000000000000000000000000000000000000",
      "type": "0x2",
      "transactionHash": "0x7302da1b86ea7ed060cbae37e41e269050d27f965b477a4560b210111fc911c3",
      "transactionIndex": "0x17",
      "blockHash": "0x207dd1077d6601ebbe85ec3e11fdced80ce8d4091a5c49ffb0626ee3deddbd47",
      "blockNumber": "0x2cb4c73",
      "gasUsed": "0xb4bf",
      "effectiveGasPrice": "0x4a88ede4a",
      "from": "0xcbb3b40109e849a2cd1531258ce1797fa9eca7e7",
      "to": "0xe94c3c122204a1011eed9ba9c11aa8dea861e91f",
      "contractAddress": null
    },
    {
      "status": "0x1",
      "cumulativeGasUsed": "0x6170b1",
      "logs": [
        {
          "address": "0x6fc50bbd108f39fc6b0069c29f42e4a120c9df97",
          "topics": [
            "0x51eedbe668e048aec37e4dc0104031dbf295c9f3b35bfd9cb73a217b6ff81259",
            "0x00000000000000000000000078f1d761bc1e5d01b136e78a63ae444189ee02fb"
          ],
          "data": "0x0000000000000000000000000000000000000000033b2e3c9fd0803ce80000000000000000000000000000000000000000000000033b2e3c9fd0803ce80000000000000000000000000000000000000000000000000000000000000000000000",
          "blockHash": "0xbfe946120a15393312e0f5e41adafe202dd196c53ef2170817e783104900ac58",
          "blockNumber": "0x2cb4c76",
          "blockTimestamp": "0x6a2d49f9",
          "transactionHash": "0xd3f8dd15beb9a2b41d5a91c4f91026406cb808492535a1f87c8f2871816cfad6",
          "transactionIndex": "0x23",
          "logIndex": "0x65",
          "removed": false
        },
        {
          "address": "0x78f1d761bc1e5d01b136e78a63ae444189ee02fb",
          "topics": [
            "0xddf252ad1be2c89b69c2b068fc378daa952ba7f163c4a11628f55a4df523b3ef",
            "0x000000000000000000000000cbb3b40109e849a2cd1531258ce1797fa9eca7e7",
            "0x0000000000000000000000006fc50bbd108f39fc6b0069c29f42e4a120c9df97"
          ],
          "data": "0x0000000000000000000000000000000000000000000000008ac7230489e80000",
          "blockHash": "0xbfe946120a15393312e0f5e41adafe202dd196c53ef2170817e783104900ac58",
          "blockNumber": "0x2cb4c76",
          "blockTimestamp": "0x6a2d49f9",
          "transactionHash": "0xd3f8dd15beb9a2b41d5a91c4f91026406cb808492535a1f87c8f2871816cfad6",
          "transactionIndex": "0x23",
          "logIndex": "0x66",
          "removed": false
        },
        {
          "address": "0x6fc50bbd108f39fc6b0069c29f42e4a120c9df97",
          "topics": [
            "0xf5681f9d0db1b911ac18ee83d515a1cf1051853a9eae418316a2fdf7dea427c5",
            "0x00000000000000000000000078f1d761bc1e5d01b136e78a63ae444189ee02fb",
            "0x000000000000000000000000cbb3b40109e849a2cd1531258ce1797fa9eca7e7"
          ],
          "data": "0x0000000000000000000000000000000000000000000000008ac7230489e800000000000000000000000000000000000000000000000000008ac7230489e80000",
          "blockHash": "0xbfe946120a15393312e0f5e41adafe202dd196c53ef2170817e783104900ac58",
          "blockNumber": "0x2cb4c76",
          "blockTimestamp": "0x6a2d49f9",
          "transactionHash": "0xd3f8dd15beb9a2b41d5a91c4f91026406cb808492535a1f87c8f2871816cfad6",
          "transactionIndex": "0x23",
          "logIndex": "0x67",
          "removed": false
        }
      ],
      "logsBloom": "0x00010000000000000000000000000000020000000000000000000000000000000000100000000000000000000000000280000000000200000000000000000000000000800000000000000008008000000000000000000000000000000000000000000000000008000000000000000000000000000000100008000010000010000000000000000000000000000000000000000004000000000000000000000000000000002000000000000000000000000210000000000000000000000000000000000002000000000000000000000010002000000000000000000000000080000000000000000000000000000000000000000000000000000000040000000000",
      "type": "0x2",
      "transactionHash": "0xd3f8dd15beb9a2b41d5a91c4f91026406cb808492535a1f87c8f2871816cfad6",
      "transactionIndex": "0x23",
      "blockHash": "0xbfe946120a15393312e0f5e41adafe202dd196c53ef2170817e783104900ac58",
      "blockNumber": "0x2cb4c76",
      "gasUsed": "0x1d3be",
      "effectiveGasPrice": "0x4a88ede4a",
      "from": "0xcbb3b40109e849a2cd1531258ce1797fa9eca7e7",
      "to": "0x6fc50bbd108f39fc6b0069c29f42e4a120c9df97",
      "contractAddress": null
    },
    {
      "status": "0x1",
      "cumulativeGasUsed": "0x22e9f5",
      "logs": [
        {
          "address": "0x657ff6937ac8913ad3dbec44430bcded3af1367c",
          "topics": [
            "0x8c5be1e5ebec7d5bd14f71427d1e84f3dd0314c0f7b2291e5b200ac8c7c3b925",
            "0x000000000000000000000000e52c9aa4d90c9c1050228dc08e6c336da64251af",
            "0x0000000000000000000000006fc50bbd108f39fc6b0069c29f42e4a120c9df97"
          ],
          "data": "0xffffffffffffffffffffffffffffffffffffffffffffffffffffffffffffffff",
          "blockHash": "0x13e4993c3ccf9836dc9b1baae633894800abd380d98d5f47d7463c5cec1d6e39",
          "blockNumber": "0x2cb4c7c",
          "blockTimestamp": "0x6a2d49fc",
          "transactionHash": "0x8efb94c99ad99159ad5e72c4d9fdb2139fdb1cdd0d9180586fefbdc8622d7c99",
          "transactionIndex": "0x15",
          "logIndex": "0x29",
          "removed": false
        }
      ],
      "logsBloom": "0x00010000000000000000000000000000000000000000000000000000000000000000000000000000000000000008000000000000000000000000000000200000000100000000000000000000000000020000000000000000000000000000000000000000000000000000000000000000000000000000000008000000000000000000000000000000000000000000000000000000000000000000000000000000020000000000000000000000000000000000000000000000000000000000000000000000400000000000000000000000000000000000000000000000000080000010000000000000000000000000000000000000000000000000000110000000",
      "type": "0x2",
      "transactionHash": "0x8efb94c99ad99159ad5e72c4d9fdb2139fdb1cdd0d9180586fefbdc8622d7c99",
      "transactionIndex": "0x15",
      "blockHash": "0x13e4993c3ccf9836dc9b1baae633894800abd380d98d5f47d7463c5cec1d6e39",
      "blockNumber": "0x2cb4c7c",
      "gasUsed": "0xb4bf",
      "effectiveGasPrice": "0x4a88ede4a",
      "from": "0xe52c9aa4d90c9c1050228dc08e6c336da64251af",
      "to": "0x657ff6937ac8913ad3dbec44430bcded3af1367c",
      "contractAddress": null
    },
    {
      "status": "0x1",
      "cumulativeGasUsed": "0x5ce82c",
      "logs": [
        {
          "address": "0x78f1d761bc1e5d01b136e78a63ae444189ee02fb",
          "topics": [
            "0x8c5be1e5ebec7d5bd14f71427d1e84f3dd0314c0f7b2291e5b200ac8c7c3b925",
            "0x000000000000000000000000e52c9aa4d90c9c1050228dc08e6c336da64251af",
            "0x0000000000000000000000006fc50bbd108f39fc6b0069c29f42e4a120c9df97"
          ],
          "data": "0xffffffffffffffffffffffffffffffffffffffffffffffffffffffffffffffff",
          "blockHash": "0xf461c5ac2cf68bbfb3b93fab36810cbdb03a48a3a69350a52bb0b76960ab8e0f",
          "blockNumber": "0x2cb4c81",
          "blockTimestamp": "0x6a2d49ff",
          "transactionHash": "0x7ba4a2e226838e1f7e49ed00d3f95fb93d32a6b4b5f9a8b6b1d6dd70dcb886fd",
          "transactionIndex": "0x2c",
          "logIndex": "0x7d",
          "removed": false
        }
      ],
      "logsBloom": "0x00010000000000000000000000000000000000000000000000000000000000000000000000000000000000000000000000000000000000000000000000200000000100000000000000000000000000000000000000000000000000000000000000000000000000000000000000000000000000000000000008000000000000000000000000000000000000000000000000000000000000000000000000000000020000002000000000000000000000000010000000000000000000000000000000000000000000000000000000000000000000000000000000000000000080000010000000000000000000000000000000000000000000000000040110000000",
      "type": "0x2",
      "transactionHash": "0x7ba4a2e226838e1f7e49ed00d3f95fb93d32a6b4b5f9a8b6b1d6dd70dcb886fd",
      "transactionIndex": "0x2c",
      "blockHash": "0xf461c5ac2cf68bbfb3b93fab36810cbdb03a48a3a69350a52bb0b76960ab8e0f",
      "blockNumber": "0x2cb4c81",
      "gasUsed": "0xb4bf",
      "effectiveGasPrice": "0x4a88ede4a",
      "from": "0xe52c9aa4d90c9c1050228dc08e6c336da64251af",
      "to": "0x78f1d761bc1e5d01b136e78a63ae444189ee02fb",
      "contractAddress": null
    },
    {
      "status": "0x1",
      "cumulativeGasUsed": "0xd7c31",
      "logs": [
        {
          "address": "0xe94c3c122204a1011eed9ba9c11aa8dea861e91f",
          "topics": [
            "0x8c5be1e5ebec7d5bd14f71427d1e84f3dd0314c0f7b2291e5b200ac8c7c3b925",
            "0x000000000000000000000000e52c9aa4d90c9c1050228dc08e6c336da64251af",
            "0x0000000000000000000000006fc50bbd108f39fc6b0069c29f42e4a120c9df97"
          ],
          "data": "0xffffffffffffffffffffffffffffffffffffffffffffffffffffffffffffffff",
          "blockHash": "0x43c6386a98a810a2dd4953b8316a36d4b6b10f0aeefef8ad6083d9daa13e0006",
          "blockNumber": "0x2cb4c84",
          "blockTimestamp": "0x6a2d4a01",
          "transactionHash": "0x68f35cfc249ad49f872ad577c90710aaa99ee1465b8e10e4b8867d0451cf077a",
          "transactionIndex": "0xa",
          "logIndex": "0xc",
          "removed": false
        }
      ],
      "logsBloom": "0x00010000000000000000000000000000000000000000200000000000000000000000000000000000000000000000000000000000000000000000000000200000000100000000000000000000000000000000000000000000000000000000000000000000000000000000000000000000000000000000000008000000000000000000000000000000000000000000000000000000000000000000000000000000020000000000000000000004000000000000000000000000000002000000000000000000000000000000000000000000000000000000000000000000000080000010000000000000000000000000000000000000000000000000000110000000",
      "type": "0x2",
      "transactionHash": "0x68f35cfc249ad49f872ad577c90710aaa99ee1465b8e10e4b8867d0451cf077a",
      "transactionIndex": "0xa",
      "blockHash": "0x43c6386a98a810a2dd4953b8316a36d4b6b10f0aeefef8ad6083d9daa13e0006",
      "blockNumber": "0x2cb4c84",
      "gasUsed": "0xb4bf",
      "effectiveGasPrice": "0x4a88ede4a",
      "from": "0xe52c9aa4d90c9c1050228dc08e6c336da64251af",
      "to": "0xe94c3c122204a1011eed9ba9c11aa8dea861e91f",
      "contractAddress": null
    },
    {
      "status": "0x1",
      "cumulativeGasUsed": "0x392744",
      "logs": [
        {
          "address": "0x6fc50bbd108f39fc6b0069c29f42e4a120c9df97",
          "topics": [
            "0x51eedbe668e048aec37e4dc0104031dbf295c9f3b35bfd9cb73a217b6ff81259",
            "0x000000000000000000000000657ff6937ac8913ad3dbec44430bcded3af1367c"
          ],
          "data": "0x0000000000000000000000000000000000000000033b2e3c9fd0803ce80000000000000000000000000000000000000000000000033b2e3c9fd0803ce8000000000000000000000000000000000000000000000000108b2a2c28029094000000",
          "blockHash": "0x4ffdc051050900165f61a47c5bb1c6c80bdf5731aa055f50380cca833a69d179",
          "blockNumber": "0x2cb4c86",
          "blockTimestamp": "0x6a2d4a02",
          "transactionHash": "0x9a007abad3cba165bad9e45e79c39a8b23cc980231967bb2db0a00dc43b31a31",
          "transactionIndex": "0x28",
          "logIndex": "0x31",
          "removed": false
        },
        {
          "address": "0x657ff6937ac8913ad3dbec44430bcded3af1367c",
          "topics": [
            "0xddf252ad1be2c89b69c2b068fc378daa952ba7f163c4a11628f55a4df523b3ef",
            "0x000000000000000000000000e52c9aa4d90c9c1050228dc08e6c336da64251af",
            "0x0000000000000000000000006fc50bbd108f39fc6b0069c29f42e4a120c9df97"
          ],
          "data": "0x00000000000000000000000000000000000000000000000000000006fc23ac00",
          "blockHash": "0x4ffdc051050900165f61a47c5bb1c6c80bdf5731aa055f50380cca833a69d179",
          "blockNumber": "0x2cb4c86",
          "blockTimestamp": "0x6a2d4a02",
          "transactionHash": "0x9a007abad3cba165bad9e45e79c39a8b23cc980231967bb2db0a00dc43b31a31",
          "transactionIndex": "0x28",
          "logIndex": "0x32",
          "removed": false
        },
        {
          "address": "0x6fc50bbd108f39fc6b0069c29f42e4a120c9df97",
          "topics": [
            "0xf5681f9d0db1b911ac18ee83d515a1cf1051853a9eae418316a2fdf7dea427c5",
            "0x000000000000000000000000657ff6937ac8913ad3dbec44430bcded3af1367c",
            "0x000000000000000000000000e52c9aa4d90c9c1050228dc08e6c336da64251af"
          ],
          "data": "0x00000000000000000000000000000000000000000000000000000006fc23ac0000000000000000000000000000000000000000000000000000000006fc23ac00",
          "blockHash": "0x4ffdc051050900165f61a47c5bb1c6c80bdf5731aa055f50380cca833a69d179",
          "blockNumber": "0x2cb4c86",
          "blockTimestamp": "0x6a2d4a02",
          "transactionHash": "0x9a007abad3cba165bad9e45e79c39a8b23cc980231967bb2db0a00dc43b31a31",
          "transactionIndex": "0x28",
          "logIndex": "0x33",
          "removed": false
        }
      ],
      "logsBloom": "0x00010000000000000400000000000000000000000000000002000000000000000000100000000000000000000008000280000000000000000000000000000000000100800000000000400008000000020000000000000000000000000000000000000000000008000000000000000000000000000000100008000010000010000000000000000000000000000000000000000004000000000000000000000000000000000000000000000000000000000000000000000000000000000000000000000002400000000000000000000010000000000000000000000000000080000000000000000000000000000000000000000000000000000000000110000000",
      "type": "0x2",
      "transactionHash": "0x9a007abad3cba165bad9e45e79c39a8b23cc980231967bb2db0a00dc43b31a31",
      "transactionIndex": "0x28",
      "blockHash": "0x4ffdc051050900165f61a47c5bb1c6c80bdf5731aa055f50380cca833a69d179",
      "blockNumber": "0x2cb4c86",
      "gasUsed": "0x1d42d",
      "effectiveGasPrice": "0x4a88ede4a",
      "from": "0xe52c9aa4d90c9c1050228dc08e6c336da64251af",
      "to": "0x6fc50bbd108f39fc6b0069c29f42e4a120c9df97",
      "contractAddress": null
    },
    {
      "status": "0x1",
      "cumulativeGasUsed": "0x65f1b3",
      "logs": [
        {
          "address": "0xe94c3c122204a1011eed9ba9c11aa8dea861e91f",
          "topics": [
            "0x8c5be1e5ebec7d5bd14f71427d1e84f3dd0314c0f7b2291e5b200ac8c7c3b925",
            "0x0000000000000000000000002968871b9780b38ffcf2221653abb09ad1038552",
            "0x0000000000000000000000006fc50bbd108f39fc6b0069c29f42e4a120c9df97"
          ],
          "data": "0xffffffffffffffffffffffffffffffffffffffffffffffffffffffffffffffff",
          "blockHash": "0x3073998e61de50ff0adc274d5a23f357a112f247113fb26200e4be3fe0ffec84",
          "blockNumber": "0x2cb4c89",
          "blockTimestamp": "0x6a2d4a04",
          "transactionHash": "0x8659e62e87f1831c2a783708c6ca7d767c2d57a7dfbcb2f6e6bd9922a7898463",
          "transactionIndex": "0x19",
          "logIndex": "0x39",
          "removed": false
        }
      ],
      "logsBloom": "0x00010000000000000000000000000000000000000000200000000000000000000000000000000000000000000000000000000000000000000000000000200000000000000000000000000000000000000000000000000000000000000000000000000000000000000000000000000000004000000000000008000000000000000000000000000000000000000000000000000000000000000000000000000000020000000000000000000004000000000000000000000000000002000000000000000000000000000000000000000000000000000000000000000000000080000010000000000000000800000000000000000000000000000000000000000000",
      "type": "0x2",
      "transactionHash": "0x8659e62e87f1831c2a783708c6ca7d767c2d57a7dfbcb2f6e6bd9922a7898463",
      "transactionIndex": "0x19",
      "blockHash": "0x3073998e61de50ff0adc274d5a23f357a112f247113fb26200e4be3fe0ffec84",
      "blockNumber": "0x2cb4c89",
      "gasUsed": "0xb4bf",
      "effectiveGasPrice": "0x4a88ede4a",
      "from": "0x2968871b9780b38ffcf2221653abb09ad1038552",
      "to": "0xe94c3c122204a1011eed9ba9c11aa8dea861e91f",
      "contractAddress": null
    },
    {
      "status": "0x1",
      "cumulativeGasUsed": "0x3dd4ab",
      "logs": [
        {
          "address": "0x657ff6937ac8913ad3dbec44430bcded3af1367c",
          "topics": [
            "0x8c5be1e5ebec7d5bd14f71427d1e84f3dd0314c0f7b2291e5b200ac8c7c3b925",
            "0x0000000000000000000000002968871b9780b38ffcf2221653abb09ad1038552",
            "0x0000000000000000000000006fc50bbd108f39fc6b0069c29f42e4a120c9df97"
          ],
          "data": "0xffffffffffffffffffffffffffffffffffffffffffffffffffffffffffffffff",
          "blockHash": "0xc2144102fa3e94cfcbbb7c4de7192f70a11dbeb7d10f9822200e1c7ca3ce08ab",
          "blockNumber": "0x2cb4c8e",
          "blockTimestamp": "0x6a2d4a07",
          "transactionHash": "0x2bda78e62e1fad454ab597d09858fb32e26131f6059eaa1ea04297a5da9d1529",
          "transactionIndex": "0x19",
          "logIndex": "0x39",
          "removed": false
        }
      ],
      "logsBloom": "0x00010000000000000000000000000000000000000000000000000000000000000000000000000000000000000008000000000000000000000000000000200000000000000000000000000000000000020000000000000000000000000000000000000000000000000000000000000000004000000000000008000000000000000000000000000000000000000000000000000000000000000000000000000000020000000000000000000000000000000000000000000000000000000000000000000000400000000000000000000000000000000000000000000000000080000010000000000000000800000000000000000000000000000000000000000000",
      "type": "0x2",
      "transactionHash": "0x2bda78e62e1fad454ab597d09858fb32e26131f6059eaa1ea04297a5da9d1529",
      "transactionIndex": "0x19",
      "blockHash": "0xc2144102fa3e94cfcbbb7c4de7192f70a11dbeb7d10f9822200e1c7ca3ce08ab",
      "blockNumber": "0x2cb4c8e",
      "gasUsed": "0xb4bf",
      "effectiveGasPrice": "0x4a88ede4a",
      "from": "0x2968871b9780b38ffcf2221653abb09ad1038552",
      "to": "0x657ff6937ac8913ad3dbec44430bcded3af1367c",
      "contractAddress": null
    },
    {
      "status": "0x1",
      "cumulativeGasUsed": "0x18b149",
      "logs": [
        {
          "address": "0x6fc50bbd108f39fc6b0069c29f42e4a120c9df97",
          "topics": [
            "0x51eedbe668e048aec37e4dc0104031dbf295c9f3b35bfd9cb73a217b6ff81259",
            "0x000000000000000000000000e94c3c122204a1011eed9ba9c11aa8dea861e91f"
          ],
          "data": "0x0000000000000000000000000000000000000000033b2e3c9fd0803ce80000000000000000000000000000000000000000000000033b2e3c9fd0803ce8000000000000000000000000000000000000000000000000084595161401484a000000",
          "blockHash": "0x00b6116ec065e9907dbdafac2edcf89f514dc166bc4cf03993c641f21a996d62",
          "blockNumber": "0x2cb4c92",
          "blockTimestamp": "0x6a2d4a09",
          "transactionHash": "0x69296bb13da80111012d9d1b256ebdebbd754af00bd9a8d5d5e04c3e14724106",
          "transactionIndex": "0xf",
          "logIndex": "0x20",
          "removed": false
        },
        {
          "address": "0xe94c3c122204a1011eed9ba9c11aa8dea861e91f",
          "topics": [
            "0xddf252ad1be2c89b69c2b068fc378daa952ba7f163c4a11628f55a4df523b3ef",
            "0x0000000000000000000000002968871b9780b38ffcf2221653abb09ad1038552",
            "0x0000000000000000000000006fc50bbd108f39fc6b0069c29f42e4a120c9df97"
          ],
          "data": "0x000000000000000000000000000000000000000000000000000000037e11d600",
          "blockHash": "0x00b6116ec065e9907dbdafac2edcf89f514dc166bc4cf03993c641f21a996d62",
          "blockNumber": "0x2cb4c92",
          "blockTimestamp": "0x6a2d4a09",
          "transactionHash": "0x69296bb13da80111012d9d1b256ebdebbd754af00bd9a8d5d5e04c3e14724106",
          "transactionIndex": "0xf",
          "logIndex": "0x21",
          "removed": false
        },
        {
          "address": "0x6fc50bbd108f39fc6b0069c29f42e4a120c9df97",
          "topics": [
            "0xf5681f9d0db1b911ac18ee83d515a1cf1051853a9eae418316a2fdf7dea427c5",
            "0x000000000000000000000000e94c3c122204a1011eed9ba9c11aa8dea861e91f",
            "0x0000000000000000000000002968871b9780b38ffcf2221653abb09ad1038552"
          ],
          "data": "0x000000000000000000000000000000000000000000000000000000037e11d600000000000000000000000000000000000000000000000000000000037e11d600",
          "blockHash": "0x00b6116ec065e9907dbdafac2edcf89f514dc166bc4cf03993c641f21a996d62",
          "blockNumber": "0x2cb4c92",
          "blockTimestamp": "0x6a2d4a09",
          "transactionHash": "0x69296bb13da80111012d9d1b256ebdebbd754af00bd9a8d5d5e04c3e14724106",
          "transactionIndex": "0xf",
          "logIndex": "0x22",
          "removed": false
        }
      ],
      "logsBloom": "0x00010000000000000000000000000000000000000000200000000000000000000000100000000000000000000000000280000000000000000000000000000000000000800000000000000008000000000000000000000000000000000000000000000000000008000000000000000000004000000000180008000010000010000000000000000020000000000000000000000004000000000000000000000000000000000000000000000004000000000000000000000000000002000000000000000002000000000000000000000010000000000000000000000000000080000000004000000000000800000000000000000000000000000000000000000000",
      "type": "0x2",
      "transactionHash": "0x69296bb13da80111012d9d1b256ebdebbd754af00bd9a8d5d5e04c3e14724106",
      "transactionIndex": "0xf",
      "blockHash": "0x00b6116ec065e9907dbdafac2edcf89f514dc166bc4cf03993c641f21a996d62",
      "blockNumber": "0x2cb4c92",
      "gasUsed": "0x1d42d",
      "effectiveGasPrice": "0x4a88ede4a",
      "from": "0x2968871b9780b38ffcf2221653abb09ad1038552",
      "to": "0x6fc50bbd108f39fc6b0069c29f42e4a120c9df97",
      "contractAddress": null
    }
  ],
  "libraries": [],
  "pending": [],
  "returns": {},
  "timestamp": 1781353278420,
  "chain": 5042002,
  "commit": "56b8140"
}