{
  "transactions": [
    {
      "hash": "0x555db5f864e69847e07446df7773de10fd44a1afb23a5a2a90a003d1d806021d",
      "transactionType": "CALL",
      "contractName": null,
      "contractAddress": "0xb574eb2fd1101a75070cda9673a6db207581c467",
      "function": "withdraw(address,uint256)",
      "arguments": [
        "0xe5F8C0bD7Eda98F24f0B5002Fa485D473FE7E7Eb",
        "985000000000"
      ],
      "transaction": {
        "from": "0xca14e37c862465677caa064c20bdbb6673f6fe48",
        "to": "0xb574eb2fd1101a75070cda9673a6db207581c467",
        "gas": "0x19cc3",
        "value": "0x0",
        "input": "0xf3fef3a3000000000000000000000000e5f8c0bd7eda98f24f0b5002fa485d473fe7e7eb000000000000000000000000000000000000000000000000000000e556933a00",
        "nonce": "0x3b",
        "chainId": "0x4cef52"
      },
      "additionalContracts": [],
      "isFixedGasLimit": false
    },
    {
      "hash": "0x52f192a612f8dadc087e403fe5d6423c979a511b8fc1ee4c358e7f104f2ec5b8",
      "transactionType": "CALL",
      "contractName": null,
      "contractAddress": "0xb574eb2fd1101a75070cda9673a6db207581c467",
      "function": "withdraw(address,uint256)",
      "arguments": [
        "0x254a2627EB0e2e3ded4CB2225AFb8815f05e04e9",
        "500000000000"
      ],
      "transaction": {
        "from": "0xca14e37c862465677caa064c20bdbb6673f6fe48",
        "to": "0xb574eb2fd1101a75070cda9673a6db207581c467",
        "gas": "0x19cc3",
        "value": "0x0",
        "input": "0xf3fef3a3000000000000000000000000254a2627eb0e2e3ded4cb2225afb8815f05e04e9000000000000000000000000000000000000000000000000000000746a528800",
        "nonce": "0x3c",
        "chainId": "0x4cef52"
      },
      "additionalContracts": [],
      "isFixedGasLimit": false
    },
    {
      "hash": "0x02cf1abae403278603bb5478d57ca1eba7bddad669f442e406f0d8a7d074a5f1",
      "transactionType": "CALL",
      "contractName": null,
      "contractAddress": "0xb574eb2fd1101a75070cda9673a6db207581c467",
      "function": "withdraw(address,uint256)",
      "arguments": [
        "0xCDeA155469985F1E6910bbC53278Cb2008bff207",
        "100000000000000000000"
      ],
      "transaction": {
        "from": "0xca14e37c862465677caa064c20bdbb6673f6fe48",
        "to": "0xb574eb2fd1101a75070cda9673a6db207581c467",
        "gas": "0x161fc",
        "value": "0x0",
        "input": "0xf3fef3a3000000000000000000000000cdea155469985f1e6910bbc53278cb2008bff2070000000000000000000000000000000000000000000000056bc75e2d63100000",
        "nonce": "0x3d",
        "chainId": "0x4cef52"
      },
      "additionalContracts": [],
      "isFixedGasLimit": false
    },
    {
      "hash": "0x92e87af5afacaaa1bb078abff80e49de336c54007add974eac0b2c0926b1b6c5",
      "transactionType": "CALL",
      "contractName": null,
      "contractAddress": "0xe5f8c0bd7eda98f24f0b5002fa485d473fe7e7eb",
      "function": "mint(address,uint256)",
      "arguments": [
        "0x9Aaaa925668A46fD1928b7e5AF19B502242d72F4",
        "100000000000"
      ],
      "transaction": {
        "from": "0x9aaaa925668a46fd1928b7e5af19b502242d72f4",
        "to": "0xe5f8c0bd7eda98f24f0b5002fa485d473fe7e7eb",
        "gas": "0xb6e2",
        "value": "0x0",
        "input": "0x40c10f190000000000000000000000009aaaa925668a46fd1928b7e5af19b502242d72f4000000000000000000000000000000000000000000000000000000174876e800",
        "nonce": "0x3",
        "chainId": "0x4cef52"
      },
      "additionalContracts": [],
      "isFixedGasLimit": false
    },
    {
      "hash": "0x5b446a03b6b0c3320218c3abf5edd53129175c2d959e1f895ddd0fbdd9323b16",
      "transactionType": "CALL",
      "contractName": null,
      "contractAddress": "0xe5f8c0bd7eda98f24f0b5002fa485d473fe7e7eb",
      "function": "approve(address,uint256)",
      "arguments": [
        "0xB574Eb2FD1101A75070Cda9673a6dB207581C467",
        "115792089237316195423570985008687907853269984665640564039457584007913129639935"
      ],
      "transaction": {
        "from": "0x9aaaa925668a46fd1928b7e5af19b502242d72f4",
        "to": "0xe5f8c0bd7eda98f24f0b5002fa485d473fe7e7eb",
        "gas": "0x10868",
        "value": "0x0",
        "input": "0x095ea7b3000000000000000000000000b574eb2fd1101a75070cda9673a6db207581c467ffffffffffffffffffffffffffffffffffffffffffffffffffffffffffffffff",
        "nonce": "0x4",
        "chainId": "0x4cef52"
      },
      "additionalContracts": [],
      "isFixedGasLimit": false
    },
    {
      "hash": "0x487e4628052e5b49eb2bb0bb60bf8c42e9181ef8d76f4e689f0d0d9472e07bec",
      "transactionType": "CALL",
      "contractName": null,
      "contractAddress": "0x254a2627eb0e2e3ded4cb2225afb8815f05e04e9",
      "function": "approve(address,uint256)",
      "arguments": [
        "0xB574Eb2FD1101A75070Cda9673a6dB207581C467",
        "115792089237316195423570985008687907853269984665640564039457584007913129639935"
      ],
      "transaction": {
        "from": "0x9aaaa925668a46fd1928b7e5af19b502242d72f4",
        "to": "0x254a2627eb0e2e3ded4cb2225afb8815f05e04e9",
        "gas": "0x10868",
        "value": "0x0",
        "input": "0x095ea7b3000000000000000000000000b574eb2fd1101a75070cda9673a6db207581c467ffffffffffffffffffffffffffffffffffffffffffffffffffffffffffffffff",
        "nonce": "0x5",
        "chainId": "0x4cef52"
      },
      "additionalContracts": [],
      "isFixedGasLimit": false
    },
    {
      "hash": "0xf9b060ad76390a9caab389412842d8160e12b23acd4e800bfb047488e2a5ef12",
      "transactionType": "CALL",
      "contractName": null,
      "contractAddress": "0xcdea155469985f1e6910bbc53278cb2008bff207",
      "function": "approve(address,uint256)",
      "arguments": [
        "0xB574Eb2FD1101A75070Cda9673a6dB207581C467",
        "115792089237316195423570985008687907853269984665640564039457584007913129639935"
      ],
      "transaction": {
        "from": "0x9aaaa925668a46fd1928b7e5af19b502242d72f4",
        "to": "0xcdea155469985f1e6910bbc53278cb2008bff207",
        "gas": "0x10868",
        "value": "0x0",
        "input": "0x095ea7b3000000000000000000000000b574eb2fd1101a75070cda9673a6db207581c467ffffffffffffffffffffffffffffffffffffffffffffffffffffffffffffffff",
        "nonce": "0x6",
        "chainId": "0x4cef52"
      },
      "additionalContracts": [],
      "isFixedGasLimit": false
    },
    {
      "hash": "0xadad59933f72f5a41237d6a89f05166426edba5f5b00ead38b6d1fb4c9197b1a",
      "transactionType": "CALL",
      "contractName": null,
      "contractAddress": "0xb574eb2fd1101a75070cda9673a6db207581c467",
      "function": "openPosition(address,uint256,address,uint256)",
      "arguments": [
        "0xe5F8C0bD7Eda98F24f0B5002Fa485D473FE7E7Eb",
        "50000000000",
        "0x254a2627EB0e2e3ded4CB2225AFb8815f05e04e9",
        "25000000000"
      ],
      "transaction": {
        "from": "0x9aaaa925668a46fd1928b7e5af19b502242d72f4",
        "to": "0xb574eb2fd1101a75070cda9673a6db207581c467",
        "gas": "0x574b1",
        "value": "0x0",
        "input": "0xd563eb29000000000000000000000000e5f8c0bd7eda98f24f0b5002fa485d473fe7e7eb0000000000000000000000000000000000000000000000000000000ba43b7400000000000000000000000000254a2627eb0e2e3ded4cb2225afb8815f05e04e900000000000000000000000000000000000000000000000000000005d21dba00",
        "nonce": "0x7",
        "chainId": "0x4cef52"
      },
      "additionalContracts": [],
      "isFixedGasLimit": false
    },
    {
      "hash": "0x0e5b71daea60d112181ee89ba792b1c6c919eeb01fedfba074a8d29ba9e47219",
      "transactionType": "CALL",
      "contractName": null,
      "contractAddress": "0xb574eb2fd1101a75070cda9673a6db207581c467",
      "function": "openPosition(address,uint256,address,uint256)",
      "arguments": [
        "0xe5F8C0bD7Eda98F24f0B5002Fa485D473FE7E7Eb",
        "40000000000",
        "0xCDeA155469985F1E6910bbC53278Cb2008bff207",
        "9000000000000000000"
      ],
      "transaction": {
        "from": "0x9aaaa925668a46fd1928b7e5af19b502242d72f4",
        "to": "0xb574eb2fd1101a75070cda9673a6db207581c467",
        "gas": "0x565e3",
        "value": "0x0",
        "input": "0xd563eb29000000000000000000000000e5f8c0bd7eda98f24f0b5002fa485d473fe7e7eb00000000000000000000000000000000000000000000000000000009502f9000000000000000000000000000cdea155469985f1e6910bbc53278cb2008bff2070000000000000000000000000000000000000000000000007ce66c50e2840000",
        "nonce": "0x8",
        "chainId": "0x4cef52"
      },
      "additionalContracts": [],
      "isFixedGasLimit": false
    },
    {
      "hash": "0x7d98d6527fb4172a9f8bbdd75c4bdd765f1317adfe67e6ef2c805ea91a5088cc",
      "transactionType": "CALL",
      "contractName": null,
      "contractAddress": "0xb574eb2fd1101a75070cda9673a6db207581c467",
      "function": "openPosition(address,uint256,address,uint256)",
      "arguments": [
        "0x254a2627EB0e2e3ded4CB2225AFb8815f05e04e9",
        "15000000000",
        "0xe5F8C0bD7Eda98F24f0B5002Fa485D473FE7E7Eb",
        "12000000000"
      ],
      "transaction": {
        "from": "0x9aaaa925668a46fd1928b7e5af19b502242d72f4",
        "to": "0xb574eb2fd1101a75070cda9673a6db207581c467",
        "gas": "0x51868",
        "value": "0x0",
        "input": "0xd563eb29000000000000000000000000254a2627eb0e2e3ded4cb2225afb8815f05e04e9000000000000000000000000000000000000000000000000000000037e11d600000000000000000000000000e5f8c0bd7eda98f24f0b5002fa485d473fe7e7eb00000000000000000000000000000000000000000000000000000002cb417800",
        "nonce": "0x9",
        "chainId": "0x4cef52"
      },
      "additionalContracts": [],
      "isFixedGasLimit": false
    },
    {
      "hash": "0x1aa0766453c2d80bcc58652709233246d443e413219d065053a07c50a0a057e4",
      "transactionType": "CALL",
      "contractName": null,
      "contractAddress": "0xe5f8c0bd7eda98f24f0b5002fa485d473fe7e7eb",
      "function": "approve(address,uint256)",
      "arguments": [
        "0xB574Eb2FD1101A75070Cda9673a6dB207581C467",
        "115792089237316195423570985008687907853269984665640564039457584007913129639935"
      ],
      "transaction": {
        "from": "0xcbb3b40109e849a2cd1531258ce1797fa9eca7e7",
        "to": "0xe5f8c0bd7eda98f24f0b5002fa485d473fe7e7eb",
        "gas": "0x8e58",
        "value": "0x0",
        "input": "0x095ea7b3000000000000000000000000b574eb2fd1101a75070cda9673a6db207581c467ffffffffffffffffffffffffffffffffffffffffffffffffffffffffffffffff",
        "nonce": "0xa",
        "chainId": "0x4cef52"
      },
      "additionalContracts": [],
      "isFixedGasLimit": false
    },
    {
      "hash": "0xbf2dc179cac9ec4af9e8b1946f3b3a59a14c919f1616d29bee1235d396208ffc",
      "transactionType": "CALL",
      "contractName": null,
      "contractAddress": "0xb574eb2fd1101a75070cda9673a6db207581c467",
      "function": "openPosition(address,uint256,address,uint256)",
      "arguments": [
        "0xe5F8C0bD7Eda98F24f0B5002Fa485D473FE7E7Eb",
        "30000000000",
        "0xCDeA155469985F1E6910bbC53278Cb2008bff207",
        "7000000000000000000"
      ],
      "transaction": {
        "from": "0xcbb3b40109e849a2cd1531258ce1797fa9eca7e7",
        "to": "0xb574eb2fd1101a75070cda9673a6db207581c467",
        "gas": "0x57560",
        "value": "0x0",
        "input": "0xd563eb29000000000000000000000000e5f8c0bd7eda98f24f0b5002fa485d473fe7e7eb00000000000000000000000000000000000000000000000000000006fc23ac00000000000000000000000000cdea155469985f1e6910bbc53278cb2008bff2070000000000000000000000000000000000000000000000006124fee993bc0000",
        "nonce": "0xb",
        "chainId": "0x4cef52"
      },
      "additionalContracts": [],
      "isFixedGasLimit": false
    },
    {
      "hash": "0xce822d345907e20180c2cdb85cbdbf9f6c5ba3202c9f813681a8536626e431c5",
      "transactionType": "CALL",
      "contractName": null,
      "contractAddress": "0xe5f8c0bd7eda98f24f0b5002fa485d473fe7e7eb",
      "function": "approve(address,uint256)",
      "arguments": [
        "0xB574Eb2FD1101A75070Cda9673a6dB207581C467",
        "115792089237316195423570985008687907853269984665640564039457584007913129639935"
      ],
      "transaction": {
        "from": "0xca14e37c862465677caa064c20bdbb6673f6fe48",
        "to": "0xe5f8c0bd7eda98f24f0b5002fa485d473fe7e7eb",
        "gas": "0x8e58",
        "value": "0x0",
        "input": "0x095ea7b3000000000000000000000000b574eb2fd1101a75070cda9673a6db207581c467ffffffffffffffffffffffffffffffffffffffffffffffffffffffffffffffff",
        "nonce": "0x3e",
        "chainId": "0x4cef52"
      },
      "additionalContracts": [],
      "isFixedGasLimit": false
    },
    {
      "hash": "0x0f513b32ae38b7123a0d4e33670bf68e6b5611137e9c79c010bc7544e8e202f7",
      "transactionType": "CALL",
      "contractName": null,
      "contractAddress": "0xb574eb2fd1101a75070cda9673a6db207581c467",
      "function": "openPosition(address,uint256,address,uint256)",
      "arguments": [
        "0xe5F8C0bD7Eda98F24f0B5002Fa485D473FE7E7Eb",
        "15000000000",
        "0x254a2627EB0e2e3ded4CB2225AFb8815f05e04e9",
        "10000000000"
      ],
      "transaction": {
        "from": "0xca14e37c862465677caa064c20bdbb6673f6fe48",
        "to": "0xb574eb2fd1101a75070cda9673a6db207581c467",
        "gas": "0x56529",
        "value": "0x0",
        "input": "0xd563eb29000000000000000000000000e5f8c0bd7eda98f24f0b5002fa485d473fe7e7eb000000000000000000000000000000000000000000000000000000037e11d600000000000000000000000000254a2627eb0e2e3ded4cb2225afb8815f05e04e900000000000000000000000000000000000000000000000000000002540be400",
        "nonce": "0x3f",
        "chainId": "0x4cef52"
      },
      "additionalContracts": [],
      "isFixedGasLimit": false
    }
  ],
  "receipts": [
    {
      "status": "0x1",
      "cumulativeGasUsed": "0x11f2f7",
      "logs": [
        {
          "address": "0xb574eb2fd1101a75070cda9673a6db207581c467",
          "topics": [
            "0x51eedbe668e048aec37e4dc0104031dbf295c9f3b35bfd9cb73a217b6ff81259",
            "0x000000000000000000000000e5f8c0bd7eda98f24f0b5002fa485d473fe7e7eb"
          ],
          "data": "0x0000000000000000000000000000000000000000033b2e3e2b04fa1fe90b05070000000000000000000000000000000000000000033b327eb3448d742b1020160000000000000000000000000000000000000000001c1fc762b56fb677df8bed",
          "blockHash": "0xf23790ae3a616904cd973dc261863c950b8b5f65555ad2e97e22771196442081",
          "blockNumber": "0x2c873d0",
          "blockTimestamp": "0x6a2baf59",
          "transactionHash": "0x555db5f864e69847e07446df7773de10fd44a1afb23a5a2a90a003d1d806021d",
          "transactionIndex": "0xc",
          "logIndex": "0x14",
          "removed": false
        },
        {
          "address": "0xe5f8c0bd7eda98f24f0b5002fa485d473fe7e7eb",
          "topics": [
            "0xddf252ad1be2c89b69c2b068fc378daa952ba7f163c4a11628f55a4df523b3ef",
            "0x000000000000000000000000b574eb2fd1101a75070cda9673a6db207581c467",
            "0x000000000000000000000000ca14e37c862465677caa064c20bdbb6673f6fe48"
          ],
          "data": "0x000000000000000000000000000000000000000000000000000000e556933a00",
          "blockHash": "0xf23790ae3a616904cd973dc261863c950b8b5f65555ad2e97e22771196442081",
          "blockNumber": "0x2c873d0",
          "blockTimestamp": "0x6a2baf59",
          "transactionHash": "0x555db5f864e69847e07446df7773de10fd44a1afb23a5a2a90a003d1d806021d",
          "transactionIndex": "0xc",
          "logIndex": "0x15",
          "removed": false
        },
        {
          "address": "0xb574eb2fd1101a75070cda9673a6db207581c467",
          "topics": [
            "0x91fb9d98b786c57d74c099ccd2beca1739e9f6a81fb49001ca465c4b7591bbe2",
            "0x000000000000000000000000e5f8c0bd7eda98f24f0b5002fa485d473fe7e7eb",
            "0x000000000000000000000000ca14e37c862465677caa064c20bdbb6673f6fe48"
          ],
          "data": "0x000000000000000000000000000000000000000000000000000000e556933a00000000000000000000000000000000000000000000000000000000e55692cc6e",
          "blockHash": "0xf23790ae3a616904cd973dc261863c950b8b5f65555ad2e97e22771196442081",
          "blockNumber": "0x2c873d0",
          "blockTimestamp": "0x6a2baf59",
          "transactionHash": "0x555db5f864e69847e07446df7773de10fd44a1afb23a5a2a90a003d1d806021d",
          "transactionIndex": "0xc",
          "logIndex": "0x16",
          "removed": false
        }
      ],
      "logsBloom": "0x00040000000000000000000000000000000000000000040000000000000000000000100000000000000000000000000480010000000000000000000000000000000000000000000000000008000400000000000000000000100000000000000000000000000008000000000000090000000000000000000000000010000000000000000040000010000000000000000000000000000000000000000010002000001200000000000000000000000000000800000000000000000000000000000000400002000000000000000000000000000000000000000000000000000000000080000000000000000000000000000000000000000001000000000000000000",
      "type": "0x2",
      "transactionHash": "0x555db5f864e69847e07446df7773de10fd44a1afb23a5a2a90a003d1d806021d",
      "transactionIndex": "0xc",
      "blockHash": "0xf23790ae3a616904cd973dc261863c950b8b5f65555ad2e97e22771196442081",
      "blockNumber": "0x2c873d0",
      "gasUsed": "0x12ad6",
      "effectiveGasPrice": "0x4a851361a",
      "from": "0xca14e37c862465677caa064c20bdbb6673f6fe48",
      "to": "0xb574eb2fd1101a75070cda9673a6db207581c467",
      "contractAddress": null
    },
    {
      "status": "0x1",
      "cumulativeGasUsed": "0xdfaea",
      "logs": [
        {
          "address": "0xb574eb2fd1101a75070cda9673a6db207581c467",
          "topics": [
            "0x51eedbe668e048aec37e4dc0104031dbf295c9f3b35bfd9cb73a217b6ff81259",
            "0x000000000000000000000000254a2627eb0e2e3ded4cb2225afb8815f05e04e9"
          ],
          "data": "0x0000000000000000000000000000000000000000033b2e5b0fe21f1f7f5a0efe0000000000000000000000000000000000000000033b37010231d8eb48af04af00000000000000000000000000000000000000000015b6a5e1bd838d5901e1bc",
          "blockHash": "0x979aa88423fc1f232f4da961b92a0747757497528c8b63b0e6057212b4f7d2a1",
          "blockNumber": "0x2c873d3",
          "blockTimestamp": "0x6a2baf5a",
          "transactionHash": "0x52f192a612f8dadc087e403fe5d6423c979a511b8fc1ee4c358e7f104f2ec5b8",
          "transactionIndex": "0x7",
          "logIndex": "0xd",
          "removed": false
        },
        {
          "address": "0x254a2627eb0e2e3ded4cb2225afb8815f05e04e9",
          "topics": [
            "0xddf252ad1be2c89b69c2b068fc378daa952ba7f163c4a11628f55a4df523b3ef",
            "0x000000000000000000000000b574eb2fd1101a75070cda9673a6db207581c467",
            "0x000000000000000000000000ca14e37c862465677caa064c20bdbb6673f6fe48"
          ],
          "data": "0x000000000000000000000000000000000000000000000000000000746a528800",
          "blockHash": "0x979aa88423fc1f232f4da961b92a0747757497528c8b63b0e6057212b4f7d2a1",
          "blockNumber": "0x2c873d3",
          "blockTimestamp": "0x6a2baf5a",
          "transactionHash": "0x52f192a612f8dadc087e403fe5d6423c979a511b8fc1ee4c358e7f104f2ec5b8",
          "transactionIndex": "0x7",
          "logIndex": "0xe",
          "removed": false
        },
        {
          "address": "0xb574eb2fd1101a75070cda9673a6db207581c467",
          "topics": [
            "0x91fb9d98b786c57d74c099ccd2beca1739e9f6a81fb49001ca465c4b7591bbe2",
            "0x000000000000000000000000254a2627eb0e2e3ded4cb2225afb8815f05e04e9",
            "0x000000000000000000000000ca14e37c862465677caa064c20bdbb6673f6fe48"
          ],
          "data": "0x000000000000000000000000000000000000000000000000000000746a528800000000000000000000000000000000000000000000000000000000746a4e3f5e",
          "blockHash": "0x979aa88423fc1f232f4da961b92a0747757497528c8b63b0e6057212b4f7d2a1",
          "blockNumber": "0x2c873d3",
          "blockTimestamp": "0x6a2baf5a",
          "transactionHash": "0x52f192a612f8dadc087e403fe5d6423c979a511b8fc1ee4c358e7f104f2ec5b8",
          "transactionIndex": "0x7",
          "logIndex": "0xf",
          "removed": false
        }
      ],
      "logsBloom": "0x00040000000000000000000000000000000000000000040000000000000000000000100000000000000000000000000480200000000000000000000000000000000000000000000000000008000400000000000000000000000000000000000000000000000008000000000000010000000020000000000000000010000000000000400000000010000000000000000000000000000000000000000010000000001200000000000000000000000000000800000000000000000000000000000000000002000000000000000000000000000000000000000000200800000000000080000000000000000000000004000000000000000001000000000000000000",
      "type": "0x2",
      "transactionHash": "0x52f192a612f8dadc087e403fe5d6423c979a511b8fc1ee4c358e7f104f2ec5b8",
      "transactionIndex": "0x7",
      "blockHash": "0x979aa88423fc1f232f4da961b92a0747757497528c8b63b0e6057212b4f7d2a1",
      "blockNumber": "0x2c873d3",
      "gasUsed": "0x12ad6",
      "effectiveGasPrice": "0x4a851361a",
      "from": "0xca14e37c862465677caa064c20bdbb6673f6fe48",
      "to": "0xb574eb2fd1101a75070cda9673a6db207581c467",
      "contractAddress": null
    },
    {
      "status": "0x1",
      "cumulativeGasUsed": "0x355695",
      "logs": [
        {
          "address": "0xb574eb2fd1101a75070cda9673a6db207581c467",
          "topics": [
            "0x51eedbe668e048aec37e4dc0104031dbf295c9f3b35bfd9cb73a217b6ff81259",
            "0x000000000000000000000000cdea155469985f1e6910bbc53278cb2008bff207"
          ],
          "data": "0x0000000000000000000000000000000000000000033b2e3c9fd0803ce80000000000000000000000000000000000000000000000033b2e3c9fd0803ce80000000000000000000000000000000000000000000000000000000000000000000000",
          "blockHash": "0x70beafaa2cbb5732150ec529941a6fc5384466158a2fa1b66857012e7fa377c3",
          "blockNumber": "0x2c873d8",
          "blockTimestamp": "0x6a2baf5d",
          "transactionHash": "0x02cf1abae403278603bb5478d57ca1eba7bddad669f442e406f0d8a7d074a5f1",
          "transactionIndex": "0x12",
          "logIndex": "0x3f",
          "removed": false
        },
        {
          "address": "0xcdea155469985f1e6910bbc53278cb2008bff207",
          "topics": [
            "0xddf252ad1be2c89b69c2b068fc378daa952ba7f163c4a11628f55a4df523b3ef",
            "0x000000000000000000000000b574eb2fd1101a75070cda9673a6db207581c467",
            "0x000000000000000000000000ca14e37c862465677caa064c20bdbb6673f6fe48"
          ],
          "data": "0x0000000000000000000000000000000000000000000000056bc75e2d63100000",
          "blockHash": "0x70beafaa2cbb5732150ec529941a6fc5384466158a2fa1b66857012e7fa377c3",
          "blockNumber": "0x2c873d8",
          "blockTimestamp": "0x6a2baf5d",
          "transactionHash": "0x02cf1abae403278603bb5478d57ca1eba7bddad669f442e406f0d8a7d074a5f1",
          "transactionIndex": "0x12",
          "logIndex": "0x40",
          "removed": false
        },
        {
          "address": "0xb574eb2fd1101a75070cda9673a6db207581c467",
          "topics": [
            "0x91fb9d98b786c57d74c099ccd2beca1739e9f6a81fb49001ca465c4b7591bbe2",
            "0x000000000000000000000000cdea155469985f1e6910bbc53278cb2008bff207",
            "0x000000000000000000000000ca14e37c862465677caa064c20bdbb6673f6fe48"
          ],
          "data": "0x0000000000000000000000000000000000000000000000056bc75e2d631000000000000000000000000000000000000000000000000000056bc75e2d63100000",
          "blockHash": "0x70beafaa2cbb5732150ec529941a6fc5384466158a2fa1b66857012e7fa377c3",
          "blockNumber": "0x2c873d8",
          "blockTimestamp": "0x6a2baf5d",
          "transactionHash": "0x02cf1abae403278603bb5478d57ca1eba7bddad669f442e406f0d8a7d074a5f1",
          "transactionIndex": "0x12",
          "logIndex": "0x41",
          "removed": false
        }
      ],
      "logsBloom": "0x00040000000000000000000000000000000000000000041000000000000000000000100000000000000000000000000480000000000000000000000000000000000000000000000000000008000400000000000000000000000000000000000000000040000008000000000000010000000000000000000000000010000000000000000000000014000000000000000000000000000000000000000010000000001200000000000000000000000000000800000000000000000000000000008080000002000000000008000000000000000000000000000000000000000000000080000000000000000000000000000000000000000001000000000000000000",
      "type": "0x2",
      "transactionHash": "0x02cf1abae403278603bb5478d57ca1eba7bddad669f442e406f0d8a7d074a5f1",
      "transactionIndex": "0x12",
      "blockHash": "0x70beafaa2cbb5732150ec529941a6fc5384466158a2fa1b66857012e7fa377c3",
      "blockNumber": "0x2c873d8",
      "gasUsed": "0x10048",
      "effectiveGasPrice": "0x4a851361a",
      "from": "0xca14e37c862465677caa064c20bdbb6673f6fe48",
      "to": "0xb574eb2fd1101a75070cda9673a6db207581c467",
      "contractAddress": null
    },
    {
      "status": "0x1",
      "cumulativeGasUsed": "0x1bf2f2",
      "logs": [
        {
          "address": "0xe5f8c0bd7eda98f24f0b5002fa485d473fe7e7eb",
          "topics": [
            "0xddf252ad1be2c89b69c2b068fc378daa952ba7f163c4a11628f55a4df523b3ef",
            "0x0000000000000000000000000000000000000000000000000000000000000000",
            "0x0000000000000000000000009aaaa925668a46fd1928b7e5af19b502242d72f4"
          ],
          "data": "0x000000000000000000000000000000000000000000000000000000174876e800",
          "blockHash": "0xa499a963daf86418d46a60d2c826d9e98a2d670b7910508e5406e27de32a608e",
          "blockNumber": "0x2c873df",
          "blockTimestamp": "0x6a2baf60",
          "transactionHash": "0x92e87af5afacaaa1bb078abff80e49de336c54007add974eac0b2c0926b1b6c5",
          "transactionIndex": "0x13",
          "logIndex": "0x31",
          "removed": false
        }
      ],
      "logsBloom": "0x00000000000000000000000000000000000000000000000000000000000000000000000000000000000000000000000000000000000000000000000000000080000000000000000000000008000000000000000000000000100000000000000000000000020000000000000000000800000000000000000000000010000000000000000040000000000010000000000000000000000000000000000000000000000000000000000000000000000000000000000000000000000000000000000000400002000000000000000000000000000000001000000000000000000020000000000000000000000000000000000000000000000000000000000000000000",
      "type": "0x2",
      "transactionHash": "0x92e87af5afacaaa1bb078abff80e49de336c54007add974eac0b2c0926b1b6c5",
      "transactionIndex": "0x13",
      "blockHash": "0xa499a963daf86418d46a60d2c826d9e98a2d670b7910508e5406e27de32a608e",
      "blockNumber": "0x2c873df",
      "gasUsed": "0x8468",
      "effectiveGasPrice": "0x4a851361a",
      "from": "0x9aaaa925668a46fd1928b7e5af19b502242d72f4",
      "to": "0xe5f8c0bd7eda98f24f0b5002fa485d473fe7e7eb",
      "contractAddress": null
    },
    {
      "status": "0x1",
      "cumulativeGasUsed": "0x85f0b7",
      "logs": [
        {
          "address": "0xe5f8c0bd7eda98f24f0b5002fa485d473fe7e7eb",
          "topics": [
            "0x8c5be1e5ebec7d5bd14f71427d1e84f3dd0314c0f7b2291e5b200ac8c7c3b925",
            "0x0000000000000000000000009aaaa925668a46fd1928b7e5af19b502242d72f4",
            "0x000000000000000000000000b574eb2fd1101a75070cda9673a6db207581c467"
          ],
          "data": "0xffffffffffffffffffffffffffffffffffffffffffffffffffffffffffffffff",
          "blockHash": "0xaab3c364c83ed9d62d547dcfa7f862a811dbf0cd66191e4d8cc2b9bd23bb9180",
          "blockNumber": "0x2c873e3",
          "blockTimestamp": "0x6a2baf63",
          "transactionHash": "0x5b446a03b6b0c3320218c3abf5edd53129175c2d959e1f895ddd0fbdd9323b16",
          "transactionIndex": "0x1b",
          "logIndex": "0x47",
          "removed": false
        }
      ],
      "logsBloom": "0x00000000000000000000000000000000000000000000000000000000000000000000000000000000000000000000000000000000000000000000000000200080000000000000000000000000000400000000000000000000100000000000000000000000000000000000000000010000000000000000000000000000000000000000000040000000000010000000000000000000000000000000000000000000021000000000000000000000000000000000000000000000000000000000000000400000000000000000000000000000000000001000000000000000000000000010000000000000000000000000000000000000000000000000000000000000",
      "type": "0x2",
      "transactionHash": "0x5b446a03b6b0c3320218c3abf5edd53129175c2d959e1f895ddd0fbdd9323b16",
      "transactionIndex": "0x1b",
      "blockHash": "0xaab3c364c83ed9d62d547dcfa7f862a811dbf0cd66191e4d8cc2b9bd23bb9180",
      "blockNumber": "0x2c873e3",
      "gasUsed": "0xb4cb",
      "effectiveGasPrice": "0x4a851361a",
      "from": "0x9aaaa925668a46fd1928b7e5af19b502242d72f4",
      "to": "0xe5f8c0bd7eda98f24f0b5002fa485d473fe7e7eb",
      "contractAddress": null
    },
    {
      "status": "0x1",
      "cumulativeGasUsed": "0x36b5dd",
      "logs": [
        {
          "address": "0x254a2627eb0e2e3ded4cb2225afb8815f05e04e9",
          "topics": [
            "0x8c5be1e5ebec7d5bd14f71427d1e84f3dd0314c0f7b2291e5b200ac8c7c3b925",
            "0x0000000000000000000000009aaaa925668a46fd1928b7e5af19b502242d72f4",
            "0x000000000000000000000000b574eb2fd1101a75070cda9673a6db207581c467"
          ],
          "data": "0xffffffffffffffffffffffffffffffffffffffffffffffffffffffffffffffff",
          "blockHash": "0xc36ade89b1e271050454b7e7407e3776c469bf85257c9a5640b937586e6741ba",
          "blockNumber": "0x2c873e6",
          "blockTimestamp": "0x6a2baf65",
          "transactionHash": "0x487e4628052e5b49eb2bb0bb60bf8c42e9181ef8d76f4e689f0d0d9472e07bec",
          "transactionIndex": "0x19",
          "logIndex": "0x38",
          "removed": false
        }
      ],
      "logsBloom": "0x00000000000000000000000000000000000000000000000000000000000000000000000000000000000000000000000000200000000000000000000000200080000000000000000000000000000400000000000000000000000000000000000000000000000000000000000000010000000020000000000000000000000000000000000000000000000010000000000000000000000000000000000000000000021000000000000000000000000000000000000000000000000000000000000000000000000000000000000000000000000000001000000000000800000000000010000000000000000000000000000000000000000000000000000000000000",
      "type": "0x2",
      "transactionHash": "0x487e4628052e5b49eb2bb0bb60bf8c42e9181ef8d76f4e689f0d0d9472e07bec",
      "transactionIndex": "0x19",
      "blockHash": "0xc36ade89b1e271050454b7e7407e3776c469bf85257c9a5640b937586e6741ba",
      "blockNumber": "0x2c873e6",
      "gasUsed": "0xb4cb",
      "effectiveGasPrice": "0x4a851361a",
      "from": "0x9aaaa925668a46fd1928b7e5af19b502242d72f4",
      "to": "0x254a2627eb0e2e3ded4cb2225afb8815f05e04e9",
      "contractAddress": null
    },
    {
      "status": "0x1",
      "cumulativeGasUsed": "0x3b3f5e",
      "logs": [
        {
          "address": "0xcdea155469985f1e6910bbc53278cb2008bff207",
          "topics": [
            "0x8c5be1e5ebec7d5bd14f71427d1e84f3dd0314c0f7b2291e5b200ac8c7c3b925",
            "0x0000000000000000000000009aaaa925668a46fd1928b7e5af19b502242d72f4",
            "0x000000000000000000000000b574eb2fd1101a75070cda9673a6db207581c467"
          ],
          "data": "0xffffffffffffffffffffffffffffffffffffffffffffffffffffffffffffffff",
          "blockHash": "0x94a8b0664b283b1c1e839c4efdf4830d7e89e2cd7d9d87c2b776655cc3bded79",
          "blockNumber": "0x2c873ed",
          "blockTimestamp": "0x6a2baf68",
          "transactionHash": "0xf9b060ad76390a9caab389412842d8160e12b23acd4e800bfb047488e2a5ef12",
          "transactionIndex": "0x17",
          "logIndex": "0x2d",
          "removed": false
        }
      ],
      "logsBloom": "0x00000000000000000000000000000000000000000000000000000000000000000000000000000000000000000000000000000000000000000000000000200080000000000000000000000000000400000000000000000000000000000000000000000040000000000000000000010000000000000000000000000000000000000000000000000004000010000000000000000000000000000000000000000000021000000000000000000000000000000000000000000000000000000000000000000000000000000008000000000000000000001000000000000000000000000010000000000000000000000000000000000000000000000000000000000000",
      "type": "0x2",
      "transactionHash": "0xf9b060ad76390a9caab389412842d8160e12b23acd4e800bfb047488e2a5ef12",
      "transactionIndex": "0x17",
      "blockHash": "0x94a8b0664b283b1c1e839c4efdf4830d7e89e2cd7d9d87c2b776655cc3bded79",
      "blockNumber": "0x2c873ed",
      "gasUsed": "0xb4cb",
      "effectiveGasPrice": "0x4a851361a",
      "from": "0x9aaaa925668a46fd1928b7e5af19b502242d72f4",
      "to": "0xcdea155469985f1e6910bbc53278cb2008bff207",
      "contractAddress": null
    },
    {
      "status": "0x1",
      "cumulativeGasUsed": "0x34dff7",
      "logs": [
        {
          "address": "0xb574eb2fd1101a75070cda9673a6db207581c467",
          "topics": [
            "0x51eedbe668e048aec37e4dc0104031dbf295c9f3b35bfd9cb73a217b6ff81259",
            "0x000000000000000000000000254a2627eb0e2e3ded4cb2225afb8815f05e04e9"
          ],
          "data": "0x0000000000000000000000000000000000000000033b2e5b24ad1544dd010b7a0000000000000000000000000000000000000000033b3701bb0732c62509083600000000000000000000000000000000000000000026f2418aa2ce8b52fdaba6",
          "blockHash": "0x6786c6cdd865ce49bb23ff376743bde41a1445182f53ea1ab014fc402e17fbb0",
          "blockNumber": "0x2c873f1",
          "blockTimestamp": "0x6a2baf6a",
          "transactionHash": "0xadad59933f72f5a41237d6a89f05166426edba5f5b00ead38b6d1fb4c9197b1a",
          "transactionIndex": "0x16",
          "logIndex": "0x3f",
          "removed": false
        },
        {
          "address": "0xe5f8c0bd7eda98f24f0b5002fa485d473fe7e7eb",
          "topics": [
            "0xddf252ad1be2c89b69c2b068fc378daa952ba7f163c4a11628f55a4df523b3ef",
            "0x0000000000000000000000009aaaa925668a46fd1928b7e5af19b502242d72f4",
            "0x000000000000000000000000b574eb2fd1101a75070cda9673a6db207581c467"
          ],
          "data": "0x0000000000000000000000000000000000000000000000000000000ba43b7400",
          "blockHash": "0x6786c6cdd865ce49bb23ff376743bde41a1445182f53ea1ab014fc402e17fbb0",
          "blockNumber": "0x2c873f1",
          "blockTimestamp": "0x6a2baf6a",
          "transactionHash": "0xadad59933f72f5a41237d6a89f05166426edba5f5b00ead38b6d1fb4c9197b1a",
          "transactionIndex": "0x16",
          "logIndex": "0x40",
          "removed": false
        },
        {
          "address": "0x254a2627eb0e2e3ded4cb2225afb8815f05e04e9",
          "topics": [
            "0xddf252ad1be2c89b69c2b068fc378daa952ba7f163c4a11628f55a4df523b3ef",
            "0x000000000000000000000000b574eb2fd1101a75070cda9673a6db207581c467",
            "0x0000000000000000000000009aaaa925668a46fd1928b7e5af19b502242d72f4"
          ],
          "data": "0x00000000000000000000000000000000000000000000000000000005d21dba00",
          "blockHash": "0x6786c6cdd865ce49bb23ff376743bde41a1445182f53ea1ab014fc402e17fbb0",
          "blockNumber": "0x2c873f1",
          "blockTimestamp": "0x6a2baf6a",
          "transactionHash": "0xadad59933f72f5a41237d6a89f05166426edba5f5b00ead38b6d1fb4c9197b1a",
          "transactionIndex": "0x16",
          "logIndex": "0x41",
          "removed": false
        },
        {
          "address": "0xb574eb2fd1101a75070cda9673a6db207581c467",
          "topics": [
            "0x9c9260125f1a087d9e46ee3dc78f1a4af18c5e00714012d9a35250d49391c4fe",
            "0x0000000000000000000000009aaaa925668a46fd1928b7e5af19b502242d72f4",
            "0x000000000000000000000000e5f8c0bd7eda98f24f0b5002fa485d473fe7e7eb",
            "0x000000000000000000000000254a2627eb0e2e3ded4cb2225afb8815f05e04e9"
          ],
          "data": "0x00000000000000000000000000000000000000000000000000000005d21dba00",
          "blockHash": "0x6786c6cdd865ce49bb23ff376743bde41a1445182f53ea1ab014fc402e17fbb0",
          "blockNumber": "0x2c873f1",
          "blockTimestamp": "0x6a2baf6a",
          "transactionHash": "0xadad59933f72f5a41237d6a89f05166426edba5f5b00ead38b6d1fb4c9197b1a",
          "transactionIndex": "0x16",
          "logIndex": "0x42",
          "removed": false
        }
      ],
      "logsBloom": "0x00040000000000000000000000000000000000000000000000000000000000000000100000000000000000000000000080210000000000000000080000000080000000000000000000000008000400002000000000000000100000000000000000000000000008000000000000090000000020000000000000000010000000000000400040000010000010000000000000000000000200000000000000002000001000000000000000000000000000000800000000000000000000000000000000400002000000000000000000000000000000001000000000200800000000000000000000000000000000000004000000000000000000000000000000000000",
      "type": "0x2",
      "transactionHash": "0xadad59933f72f5a41237d6a89f05166426edba5f5b00ead38b6d1fb4c9197b1a",
      "transactionIndex": "0x16",
      "blockHash": "0x6786c6cdd865ce49bb23ff376743bde41a1445182f53ea1ab014fc402e17fbb0",
      "blockNumber": "0x2c873f1",
      "gasUsed": "0x40be9",
      "effectiveGasPrice": "0x4a851361a",
      "from": "0x9aaaa925668a46fd1928b7e5af19b502242d72f4",
      "to": "0xb574eb2fd1101a75070cda9673a6db207581c467",
      "contractAddress": null
    },
    {
      "status": "0x1",
      "cumulativeGasUsed": "0x30ec9a",
      "logs": [
        {
          "address": "0xb574eb2fd1101a75070cda9673a6db207581c467",
          "topics": [
            "0x51eedbe668e048aec37e4dc0104031dbf295c9f3b35bfd9cb73a217b6ff81259",
            "0x000000000000000000000000cdea155469985f1e6910bbc53278cb2008bff207"
          ],
          "data": "0x0000000000000000000000000000000000000000033b2e3c9fd0803ce80000000000000000000000000000000000000000000000033b2e3c9fd0803ce80000000000000000000000000000000000000000000000000aa29b1c62dd13ccdb6db6",
          "blockHash": "0x87dd611648e87ec449367c9d09f9bf6274409f2f7d5456dfe5f07ec00deae550",
          "blockNumber": "0x2c873f7",
          "blockTimestamp": "0x6a2baf6d",
          "transactionHash": "0x0e5b71daea60d112181ee89ba792b1c6c919eeb01fedfba074a8d29ba9e47219",
          "transactionIndex": "0x19",
          "logIndex": "0x28",
          "removed": false
        },
        {
          "address": "0xe5f8c0bd7eda98f24f0b5002fa485d473fe7e7eb",
          "topics": [
            "0xddf252ad1be2c89b69c2b068fc378daa952ba7f163c4a11628f55a4df523b3ef",
            "0x0000000000000000000000009aaaa925668a46fd1928b7e5af19b502242d72f4",
            "0x000000000000000000000000b574eb2fd1101a75070cda9673a6db207581c467"
          ],
          "data": "0x00000000000000000000000000000000000000000000000000000009502f9000",
          "blockHash": "0x87dd611648e87ec449367c9d09f9bf6274409f2f7d5456dfe5f07ec00deae550",
          "blockNumber": "0x2c873f7",
          "blockTimestamp": "0x6a2baf6d",
          "transactionHash": "0x0e5b71daea60d112181ee89ba792b1c6c919eeb01fedfba074a8d29ba9e47219",
          "transactionIndex": "0x19",
          "logIndex": "0x29",
          "removed": false
        },
        {
          "address": "0xcdea155469985f1e6910bbc53278cb2008bff207",
          "topics": [
            "0xddf252ad1be2c89b69c2b068fc378daa952ba7f163c4a11628f55a4df523b3ef",
            "0x000000000000000000000000b574eb2fd1101a75070cda9673a6db207581c467",
            "0x0000000000000000000000009aaaa925668a46fd1928b7e5af19b502242d72f4"
          ],
          "data": "0x0000000000000000000000000000000000000000000000007ce66c50e2840000",
          "blockHash": "0x87dd611648e87ec449367c9d09f9bf6274409f2f7d5456dfe5f07ec00deae550",
          "blockNumber": "0x2c873f7",
          "blockTimestamp": "0x6a2baf6d",
          "transactionHash": "0x0e5b71daea60d112181ee89ba792b1c6c919eeb01fedfba074a8d29ba9e47219",
          "transactionIndex": "0x19",
          "logIndex": "0x2a",
          "removed": false
        },
        {
          "address": "0xb574eb2fd1101a75070cda9673a6db207581c467",
          "topics": [
            "0x9c9260125f1a087d9e46ee3dc78f1a4af18c5e00714012d9a35250d49391c4fe",
            "0x0000000000000000000000009aaaa925668a46fd1928b7e5af19b502242d72f4",
            "0x000000000000000000000000e5f8c0bd7eda98f24f0b5002fa485d473fe7e7eb",
            "0x000000000000000000000000cdea155469985f1e6910bbc53278cb2008bff207"
          ],
          "data": "0x0000000000000000000000000000000000000000000000007ce66c50e2840000",
          "blockHash": "0x87dd611648e87ec449367c9d09f9bf6274409f2f7d5456dfe5f07ec00deae550",
          "blockNumber": "0x2c873f7",
          "blockTimestamp": "0x6a2baf6d",
          "transactionHash": "0x0e5b71daea60d112181ee89ba792b1c6c919eeb01fedfba074a8d29ba9e47219",
          "transactionIndex": "0x19",
          "logIndex": "0x2b",
          "removed": false
        }
      ],
      "logsBloom": "0x00040000000000000000000000000000000000000000001000000000000000000000100000000000000000000000000080010000000000000000080000000080000000000000000000000008000400002000000000000000100000000000000000000040000008000000000000090000000000000000000000000010000000000000000040000014000010000000000000000000000200000000000000002000001000000000000000000000000000000800000000000000000000000000008080400002000000000008000000000000000000001000000000000000000000000000000000000000000000000000000000000000000000000000000000000000",
      "type": "0x2",
      "transactionHash": "0x0e5b71daea60d112181ee89ba792b1c6c919eeb01fedfba074a8d29ba9e47219",
      "transactionIndex": "0x19",
      "blockHash": "0x87dd611648e87ec449367c9d09f9bf6274409f2f7d5456dfe5f07ec00deae550",
      "blockNumber": "0x2c873f7",
      "gasUsed": "0x3b23a",
      "effectiveGasPrice": "0x4a851361a",
      "from": "0x9aaaa925668a46fd1928b7e5af19b502242d72f4",
      "to": "0xb574eb2fd1101a75070cda9673a6db207581c467",
      "contractAddress": null
    },
    {
      "status": "0x1",
      "cumulativeGasUsed": "0x588fbb",
      "logs": [
        {
          "address": "0xb574eb2fd1101a75070cda9673a6db207581c467",
          "topics": [
            "0x51eedbe668e048aec37e4dc0104031dbf295c9f3b35bfd9cb73a217b6ff81259",
            "0x000000000000000000000000e5f8c0bd7eda98f24f0b5002fa485d473fe7e7eb"
          ],
          "data": "0x0000000000000000000000000000000000000000033b2e3ebfaeccbabe5bbbcb0000000000000000000000000000000000000000033b32800b672773846f97d5000000000000000000000000000000000000000000260ce053a94407ab4ed2ea",
          "blockHash": "0xf16f93ea6122a361fec48934f190902fbbaf91fc77b8f7dd8c77edd69a201e1f",
          "blockNumber": "0x2c873fd",
          "blockTimestamp": "0x6a2baf70",
          "transactionHash": "0x7d98d6527fb4172a9f8bbdd75c4bdd765f1317adfe67e6ef2c805ea91a5088cc",
          "transactionIndex": "0x1a",
          "logIndex": "0x43",
          "removed": false
        },
        {
          "address": "0x254a2627eb0e2e3ded4cb2225afb8815f05e04e9",
          "topics": [
            "0xddf252ad1be2c89b69c2b068fc378daa952ba7f163c4a11628f55a4df523b3ef",
            "0x0000000000000000000000009aaaa925668a46fd1928b7e5af19b502242d72f4",
            "0x000000000000000000000000b574eb2fd1101a75070cda9673a6db207581c467"
          ],
          "data": "0x000000000000000000000000000000000000000000000000000000037e11d600",
          "blockHash": "0xf16f93ea6122a361fec48934f190902fbbaf91fc77b8f7dd8c77edd69a201e1f",
          "blockNumber": "0x2c873fd",
          "blockTimestamp": "0x6a2baf70",
          "transactionHash": "0x7d98d6527fb4172a9f8bbdd75c4bdd765f1317adfe67e6ef2c805ea91a5088cc",
          "transactionIndex": "0x1a",
          "logIndex": "0x44",
          "removed": false
        },
        {
          "address": "0xe5f8c0bd7eda98f24f0b5002fa485d473fe7e7eb",
          "topics": [
            "0xddf252ad1be2c89b69c2b068fc378daa952ba7f163c4a11628f55a4df523b3ef",
            "0x000000000000000000000000b574eb2fd1101a75070cda9673a6db207581c467",
            "0x0000000000000000000000009aaaa925668a46fd1928b7e5af19b502242d72f4"
          ],
          "data": "0x00000000000000000000000000000000000000000000000000000002cb417800",
          "blockHash": "0xf16f93ea6122a361fec48934f190902fbbaf91fc77b8f7dd8c77edd69a201e1f",
          "blockNumber": "0x2c873fd",
          "blockTimestamp": "0x6a2baf70",
          "transactionHash": "0x7d98d6527fb4172a9f8bbdd75c4bdd765f1317adfe67e6ef2c805ea91a5088cc",
          "transactionIndex": "0x1a",
          "logIndex": "0x45",
          "removed": false
        },
        {
          "address": "0xb574eb2fd1101a75070cda9673a6db207581c467",
          "topics": [
            "0x9c9260125f1a087d9e46ee3dc78f1a4af18c5e00714012d9a35250d49391c4fe",
            "0x0000000000000000000000009aaaa925668a46fd1928b7e5af19b502242d72f4",
            "0x000000000000000000000000254a2627eb0e2e3ded4cb2225afb8815f05e04e9",
            "0x000000000000000000000000e5f8c0bd7eda98f24f0b5002fa485d473fe7e7eb"
          ],
          "data": "0x00000000000000000000000000000000000000000000000000000002cb417800",
          "blockHash": "0xf16f93ea6122a361fec48934f190902fbbaf91fc77b8f7dd8c77edd69a201e1f",
          "blockNumber": "0x2c873fd",
          "blockTimestamp": "0x6a2baf70",
          "transactionHash": "0x7d98d6527fb4172a9f8bbdd75c4bdd765f1317adfe67e6ef2c805ea91a5088cc",
          "transactionIndex": "0x1a",
          "logIndex": "0x46",
          "removed": false
        }
      ],
      "logsBloom": "0x00040000000000000000000000000000000000000000000000000000000000000000100000000000000000000000000080210000000000000000080000000080000000000000000000000008000400002000000000000000100000000000000000000000000008000000000000090000000020000000000000000010000000000000400040000010000010000000000000000000000200000000000000002000001000000000000000000000000000000800000000000000000000000000000000400002000000000000000000000000000000001000000000200800000000000000000000000000000000000004000000000000000000000000000000000000",
      "type": "0x2",
      "transactionHash": "0x7d98d6527fb4172a9f8bbdd75c4bdd765f1317adfe67e6ef2c805ea91a5088cc",
      "transactionIndex": "0x1a",
      "blockHash": "0xf16f93ea6122a361fec48934f190902fbbaf91fc77b8f7dd8c77edd69a201e1f",
      "blockNumber": "0x2c873fd",
      "gasUsed": "0x3c919",
      "effectiveGasPrice": "0x4a851361a",
      "from": "0x9aaaa925668a46fd1928b7e5af19b502242d72f4",
      "to": "0xb574eb2fd1101a75070cda9673a6db207581c467",
      "contractAddress": null
    },
    {
      "status": "0x1",
      "cumulativeGasUsed": "0x11a075b",
      "logs": [
        {
          "address": "0xe5f8c0bd7eda98f24f0b5002fa485d473fe7e7eb",
          "topics": [
            "0x8c5be1e5ebec7d5bd14f71427d1e84f3dd0314c0f7b2291e5b200ac8c7c3b925",
            "0x000000000000000000000000cbb3b40109e849a2cd1531258ce1797fa9eca7e7",
            "0x000000000000000000000000b574eb2fd1101a75070cda9673a6db207581c467"
          ],
          "data": "0xffffffffffffffffffffffffffffffffffffffffffffffffffffffffffffffff",
          "blockHash": "0x90509a73426947150f4140069a779ed0f08e7c6366ad4cfbc5b8bafe04bd491b",
          "blockNumber": "0x2c87401",
          "blockTimestamp": "0x6a2baf74",
          "transactionHash": "0x1aa0766453c2d80bcc58652709233246d443e413219d065053a07c50a0a057e4",
          "transactionIndex": "0x7c",
          "logIndex": "0x149",
          "removed": false
        }
      ],
      "logsBloom": "0x00000000000000000000000000000000020000000000000000000000000000000000000000000000000000000000000000000000000000000000000000200000000000000000000000000000000400000000000000000000100000000000000000000000000000000000000000010000000000000000000000000000000000000000000040000000000000000000000000000000000000000000000000000000021000000000000000000000000000000200000000000000000000000000000000400000000000000000000000000000002000000000000000000000000000000010000000000000000000000000000000000000000000000000000000000000",
      "type": "0x2",
      "transactionHash": "0x1aa0766453c2d80bcc58652709233246d443e413219d065053a07c50a0a057e4",
      "transactionIndex": "0x7c",
      "blockHash": "0x90509a73426947150f4140069a779ed0f08e7c6366ad4cfbc5b8bafe04bd491b",
      "blockNumber": "0x2c87401",
      "gasUsed": "0x670f",
      "effectiveGasPrice": "0x4a851361a",
      "from": "0xcbb3b40109e849a2cd1531258ce1797fa9eca7e7",
      "to": "0xe5f8c0bd7eda98f24f0b5002fa485d473fe7e7eb",
      "contractAddress": null
    },
    {
      "status": "0x1",
      "cumulativeGasUsed": "0x23f178",
      "logs": [
        {
          "address": "0xb574eb2fd1101a75070cda9673a6db207581c467",
          "topics": [
            "0x51eedbe668e048aec37e4dc0104031dbf295c9f3b35bfd9cb73a217b6ff81259",
            "0x000000000000000000000000cdea155469985f1e6910bbc53278cb2008bff207"
          ],
          "data": "0x0000000000000000000000000000000000000000033b2e3cace8960ad7cfdc370000000000000000000000000000000000000000033b2e3cd864d1d00a59133400000000000000000000000000000000000000000012e83032e479f9159bd19e",
          "blockHash": "0xce4cf2b0b71bfbcfc05f878c9a4e6e0c095fd0b6d1edb118b475ed03dec704a7",
          "blockNumber": "0x2c87405",
          "blockTimestamp": "0x6a2baf77",
          "transactionHash": "0xbf2dc179cac9ec4af9e8b1946f3b3a59a14c919f1616d29bee1235d396208ffc",
          "transactionIndex": "0x9",
          "logIndex": "0x1b",
          "removed": false
        },
        {
          "address": "0xe5f8c0bd7eda98f24f0b5002fa485d473fe7e7eb",
          "topics": [
            "0xddf252ad1be2c89b69c2b068fc378daa952ba7f163c4a11628f55a4df523b3ef",
            "0x000000000000000000000000cbb3b40109e849a2cd1531258ce1797fa9eca7e7",
            "0x000000000000000000000000b574eb2fd1101a75070cda9673a6db207581c467"
          ],
          "data": "0x00000000000000000000000000000000000000000000000000000006fc23ac00",
          "blockHash": "0xce4cf2b0b71bfbcfc05f878c9a4e6e0c095fd0b6d1edb118b475ed03dec704a7",
          "blockNumber": "0x2c87405",
          "blockTimestamp": "0x6a2baf77",
          "transactionHash": "0xbf2dc179cac9ec4af9e8b1946f3b3a59a14c919f1616d29bee1235d396208ffc",
          "transactionIndex": "0x9",
          "logIndex": "0x1c",
          "removed": false
        },
        {
          "address": "0xcdea155469985f1e6910bbc53278cb2008bff207",
          "topics": [
            "0xddf252ad1be2c89b69c2b068fc378daa952ba7f163c4a11628f55a4df523b3ef",
            "0x000000000000000000000000b574eb2fd1101a75070cda9673a6db207581c467",
            "0x000000000000000000000000cbb3b40109e849a2cd1531258ce1797fa9eca7e7"
          ],
          "data": "0x0000000000000000000000000000000000000000000000006124fee993bc0000",
          "blockHash": "0xce4cf2b0b71bfbcfc05f878c9a4e6e0c095fd0b6d1edb118b475ed03dec704a7",
          "blockNumber": "0x2c87405",
          "blockTimestamp": "0x6a2baf77",
          "transactionHash": "0xbf2dc179cac9ec4af9e8b1946f3b3a59a14c919f1616d29bee1235d396208ffc",
          "transactionIndex": "0x9",
          "logIndex": "0x1d",
          "removed": false
        },
        {
          "address": "0xb574eb2fd1101a75070cda9673a6db207581c467",
          "topics": [
            "0x9c9260125f1a087d9e46ee3dc78f1a4af18c5e00714012d9a35250d49391c4fe",
            "0x000000000000000000000000cbb3b40109e849a2cd1531258ce1797fa9eca7e7",
            "0x000000000000000000000000e5f8c0bd7eda98f24f0b5002fa485d473fe7e7eb",
            "0x000000000000000000000000cdea155469985f1e6910bbc53278cb2008bff207"
          ],
          "data": "0x0000000000000000000000000000000000000000000000006124fee993bc0000",
          "blockHash": "0xce4cf2b0b71bfbcfc05f878c9a4e6e0c095fd0b6d1edb118b475ed03dec704a7",
          "blockNumber": "0x2c87405",
          "blockTimestamp": "0x6a2baf77",
          "transactionHash": "0xbf2dc179cac9ec4af9e8b1946f3b3a59a14c919f1616d29bee1235d396208ffc",
          "transactionIndex": "0x9",
          "logIndex": "0x1e",
          "removed": false
        }
      ],
      "logsBloom": "0x00040000000000000000000000000000020000000000001000000000000000000000100000000000000000000000000080010000000000000000080000000000000000000000000000000008000400002000000000000000100000000000000000000040000008000000000000090000000000000000000000000010000000000000000040000014000000000000000000000000000200000000000000002000001000000000000000000000000000000a00000000000000000000000000008080400002000000000008000000000000002000000000000000000000000000000000000000000000000000000000000000000000000000000000000000000000",
      "type": "0x2",
      "transactionHash": "0xbf2dc179cac9ec4af9e8b1946f3b3a59a14c919f1616d29bee1235d396208ffc",
      "transactionIndex": "0x9",
      "blockHash": "0xce4cf2b0b71bfbcfc05f878c9a4e6e0c095fd0b6d1edb118b475ed03dec704a7",
      "blockNumber": "0x2c87405",
      "gasUsed": "0x40c68",
      "effectiveGasPrice": "0x4a851361a",
      "from": "0xcbb3b40109e849a2cd1531258ce1797fa9eca7e7",
      "to": "0xb574eb2fd1101a75070cda9673a6db207581c467",
      "contractAddress": null
    },
    {
      "status": "0x1",
      "cumulativeGasUsed": "0x40aa47",
      "logs": [
        {
          "address": "0xe5f8c0bd7eda98f24f0b5002fa485d473fe7e7eb",
          "topics": [
            "0x8c5be1e5ebec7d5bd14f71427d1e84f3dd0314c0f7b2291e5b200ac8c7c3b925",
            "0x000000000000000000000000ca14e37c862465677caa064c20bdbb6673f6fe48",
            "0x000000000000000000000000b574eb2fd1101a75070cda9673a6db207581c467"
          ],
          "data": "0xffffffffffffffffffffffffffffffffffffffffffffffffffffffffffffffff",
          "blockHash": "0x83c9d7a6020f7d27f3195f5baebb031693c3a5b6824963fabee84ef49bbf6d9c",
          "blockNumber": "0x2c87407",
          "blockTimestamp": "0x6a2baf78",
          "transactionHash": "0xce822d345907e20180c2cdb85cbdbf9f6c5ba3202c9f813681a8536626e431c5",
          "transactionIndex": "0x1b",
          "logIndex": "0x42",
          "removed": false
        }
      ],
      "logsBloom": "0x00000000000000000000000000000000000000000000040000000000000000000000000000000000000000000000000000000000000000000000000000200000000000000000000000000000000400000000000000000000100000000000000000000000000000000000000000010000000000000000000000000000000000000000000040000000000000000000000000000000000000000000000000000000021000000000000000000000000000000000000000000000000000000000000000400000000000000000000000000000000000000000000000000000000000000090000000000000000000000000000000000000000001000000000000000000",
      "type": "0x2",
      "transactionHash": "0xce822d345907e20180c2cdb85cbdbf9f6c5ba3202c9f813681a8536626e431c5",
      "transactionIndex": "0x1b",
      "blockHash": "0x83c9d7a6020f7d27f3195f5baebb031693c3a5b6824963fabee84ef49bbf6d9c",
      "blockNumber": "0x2c87407",
      "gasUsed": "0x670f",
      "effectiveGasPrice": "0x4a851361a",
      "from": "0xca14e37c862465677caa064c20bdbb6673f6fe48",
      "to": "0xe5f8c0bd7eda98f24f0b5002fa485d473fe7e7eb",
      "contractAddress": null
    },
    {
      "status": "0x1",
      "cumulativeGasUsed": "0x213a00",
      "logs": [
        {
          "address": "0xb574eb2fd1101a75070cda9673a6db207581c467",
          "topics": [
            "0x51eedbe668e048aec37e4dc0104031dbf295c9f3b35bfd9cb73a217b6ff81259",
            "0x000000000000000000000000254a2627eb0e2e3ded4cb2225afb8815f05e04e9"
          ],
          "data": "0x0000000000000000000000000000000000000000033b2e5bbc2fdac17d9d13b40000000000000000000000000000000000000000033b3702f1d570a31e57ba110000000000000000000000000000000000000000002dd6e6373b8fef9f3e8552",
          "blockHash": "0xdaba3b7a4d794cee88529252e5e6a062dbbd36f11a510ef4b70bedc9b3c1af5e",
          "blockNumber": "0x2c8740a",
          "blockTimestamp": "0x6a2baf79",
          "transactionHash": "0x0f513b32ae38b7123a0d4e33670bf68e6b5611137e9c79c010bc7544e8e202f7",
          "transactionIndex": "0xa",
          "logIndex": "0x14",
          "removed": false
        },
        {
          "address": "0xe5f8c0bd7eda98f24f0b5002fa485d473fe7e7eb",
          "topics": [
            "0xddf252ad1be2c89b69c2b068fc378daa952ba7f163c4a11628f55a4df523b3ef",
            "0x000000000000000000000000ca14e37c862465677caa064c20bdbb6673f6fe48",
            "0x000000000000000000000000b574eb2fd1101a75070cda9673a6db207581c467"
          ],
          "data": "0x000000000000000000000000000000000000000000000000000000037e11d600",
          "blockHash": "0xdaba3b7a4d794cee88529252e5e6a062dbbd36f11a510ef4b70bedc9b3c1af5e",
          "blockNumber": "0x2c8740a",
          "blockTimestamp": "0x6a2baf79",
          "transactionHash": "0x0f513b32ae38b7123a0d4e33670bf68e6b5611137e9c79c010bc7544e8e202f7",
          "transactionIndex": "0xa",
          "logIndex": "0x15",
          "removed": false
        },
        {
          "address": "0x254a2627eb0e2e3ded4cb2225afb8815f05e04e9",
          "topics": [
            "0xddf252ad1be2c89b69c2b068fc378daa952ba7f163c4a11628f55a4df523b3ef",
            "0x000000000000000000000000b574eb2fd1101a75070cda9673a6db207581c467",
            "0x000000000000000000000000ca14e37c862465677caa064c20bdbb6673f6fe48"
          ],
          "data": "0x00000000000000000000000000000000000000000000000000000002540be400",
          "blockHash": "0xdaba3b7a4d794cee88529252e5e6a062dbbd36f11a510ef4b70bedc9b3c1af5e",
          "blockNumber": "0x2c8740a",
          "blockTimestamp": "0x6a2baf79",
          "transactionHash": "0x0f513b32ae38b7123a0d4e33670bf68e6b5611137e9c79c010bc7544e8e202f7",
          "transactionIndex": "0xa",
          "logIndex": "0x16",
          "removed": false
        },
        {
          "address": "0xb574eb2fd1101a75070cda9673a6db207581c467",
          "topics": [
            "0x9c9260125f1a087d9e46ee3dc78f1a4af18c5e00714012d9a35250d49391c4fe",
            "0x000000000000000000000000ca14e37c862465677caa064c20bdbb6673f6fe48",
            "0x000000000000000000000000e5f8c0bd7eda98f24f0b5002fa485d473fe7e7eb",
            "0x000000000000000000000000254a2627eb0e2e3ded4cb2225afb8815f05e04e9"
          ],
          "data": "0x00000000000000000000000000000000000000000000000000000002540be400",
          "blockHash": "0xdaba3b7a4d794cee88529252e5e6a062dbbd36f11a510ef4b70bedc9b3c1af5e",
          "blockNumber": "0x2c8740a",
          "blockTimestamp": "0x6a2baf79",
          "transactionHash": "0x0f513b32ae38b7123a0d4e33670bf68e6b5611137e9c79c010bc7544e8e202f7",
          "transactionIndex": "0xa",
          "logIndex": "0x17",
          "removed": false
        }
      ],
      "logsBloom": "0x00040000000000000000000000000000000000000000040000000000000000000000100000000000000000000000000080210000000000000000080000000000000000000000000000000008000400002000000000000000100000000000000000000000000008000000000000090000000020000000000000000010000000000000400040000010000000000000000000000000000200000000000000002000001000000000000000000000000000000800000000000000000000000000000000400002000000000000000000000000000000000000000000200800000000000080000000000000000000000004000000000000000001000000000000000000",
      "type": "0x2",
      "transactionHash": "0x0f513b32ae38b7123a0d4e33670bf68e6b5611137e9c79c010bc7544e8e202f7",
      "transactionIndex": "0xa",
      "blockHash": "0xdaba3b7a4d794cee88529252e5e6a062dbbd36f11a510ef4b70bedc9b3c1af5e",
      "blockNumber": "0x2c8740a",
      "gasUsed": "0x3c91d",
      "effectiveGasPrice": "0x4a851361a",
      "from": "0xca14e37c862465677caa064c20bdbb6673f6fe48",
      "to": "0xb574eb2fd1101a75070cda9673a6db207581c467",
      "contractAddress": null
    }
  ],
  "libraries": [],
  "pending": [],
  "returns": {},
  "timestamp": 1781247866704,
  "chain": 5042002,
  "commit": "56b8140"
}