{
  "transactions": [
    {
      "hash": "0x8b41ed8739755bbe17dde591c837be00799868a63ed48f1b151339a45928c76f",
      "transactionType": "CALL",
      "contractName": null,
      "contractAddress": "0xe94c3c122204a1011eed9ba9c11aa8dea861e91f",
      "function": "mint(address,uint256)",
      "arguments": [
        "0xCBb3b40109E849a2cD1531258CE1797Fa9ECA7e7",
        "10001001482"
      ],
      "transaction": {
        "from": "0xca14e37c862465677caa064c20bdbb6673f6fe48",
        "to": "0xe94c3c122204a1011eed9ba9c11aa8dea861e91f",
        "gas": "0xb6f3",
        "value": "0x0",
        "input": "0x40c10f19000000000000000000000000cbb3b40109e849a2cd1531258ce1797fa9eca7e700000000000000000000000000000000000000000000000000000002541b2c0a",
        "nonce": "0x65",
        "chainId": "0x4cef52"
      },
      "additionalContracts": [],
      "isFixedGasLimit": false
    },
    {
      "hash": "0x9327764d39db20ca774e5fe443549ca6ebb7b29aa42e42bf47046e385dbc7b2e",
      "transactionType": "CALL",
      "contractName": null,
      "contractAddress": "0xe94c3c122204a1011eed9ba9c11aa8dea861e91f",
      "function": "approve(address,uint256)",
      "arguments": [
        "0x6fc50Bbd108F39Fc6B0069c29f42e4A120C9df97",
        "115792089237316195423570985008687907853269984665640564039457584007913129639935"
      ],
      "transaction": {
        "from": "0xcbb3b40109e849a2cd1531258ce1797fa9eca7e7",
        "to": "0xe94c3c122204a1011eed9ba9c11aa8dea861e91f",
        "gas": "0x96a7",
        "value": "0x0",
        "input": "0x095ea7b30000000000000000000000006fc50bbd108f39fc6b0069c29f42e4a120c9df97ffffffffffffffffffffffffffffffffffffffffffffffffffffffffffffffff",
        "nonce": "0x10",
        "chainId": "0x4cef52"
      },
      "additionalContracts": [],
      "isFixedGasLimit": false
    },
    {
      "hash": "0xf598e6e3383f8665b7aed3cdeb31056ae6487f4c8e5f930363e500d2fb272df5",
      "transactionType": "CALL",
      "contractName": null,
      "contractAddress": "0x6fc50bbd108f39fc6b0069c29f42e4a120c9df97",
      "function": "repay(address,address,address,uint256)",
      "arguments": [
        "0xCBb3b40109E849a2cD1531258CE1797Fa9ECA7e7",
        "0x78F1D761BC1E5D01b136e78A63AE444189ee02FB",
        "0xe94C3c122204a1011EED9Ba9C11Aa8DEA861e91f",
        "340282366920938463463374607431768211455"
      ],
      "transaction": {
        "from": "0xcbb3b40109e849a2cd1531258ce1797fa9eca7e7",
        "to": "0x6fc50bbd108f39fc6b0069c29f42e4a120c9df97",
        "gas": "0x1b961",
        "value": "0x0",
        "input": "0xc035bd21000000000000000000000000cbb3b40109e849a2cd1531258ce1797fa9eca7e700000000000000000000000078f1d761bc1e5d01b136e78a63ae444189ee02fb000000000000000000000000e94c3c122204a1011eed9ba9c11aa8dea861e91f00000000000000000000000000000000ffffffffffffffffffffffffffffffff",
        "nonce": "0x11",
        "chainId": "0x4cef52"
      },
      "additionalContracts": [],
      "isFixedGasLimit": false
    },
    {
      "hash": "0x69b7f80ed871d4b6f1e59cc55c9e6103c59e579852dad39a8cb93dbab77264a8",
      "transactionType": "CALL",
      "contractName": null,
      "contractAddress": "0x6fc50bbd108f39fc6b0069c29f42e4a120c9df97",
      "function": "withdrawCollateral(address,address,uint256)",
      "arguments": [
        "0x78F1D761BC1E5D01b136e78A63AE444189ee02FB",
        "0xe94C3c122204a1011EED9Ba9C11Aa8DEA861e91f",
        "5000000000000000000"
      ],
      "transaction": {
        "from": "0xcbb3b40109e849a2cd1531258ce1797fa9eca7e7",
        "to": "0x6fc50bbd108f39fc6b0069c29f42e4a120c9df97",
        "gas": "0x1fed8",
        "value": "0x0",
        "input": "0x2ae8bdfe00000000000000000000000078f1d761bc1e5d01b136e78a63ae444189ee02fb000000000000000000000000e94c3c122204a1011eed9ba9c11aa8dea861e91f0000000000000000000000000000000000000000000000004563918244f40000",
        "nonce": "0x12",
        "chainId": "0x4cef52"
      },
      "additionalContracts": [],
      "isFixedGasLimit": false
    },
    {
      "hash": null,
      "transactionType": "CALL",
      "contractName": null,
      "contractAddress": "0xe94c3c122204a1011eed9ba9c11aa8dea861e91f",
      "function": "mint(address,uint256)",
      "arguments": [
        "0xE52C9AA4d90C9C1050228DC08E6c336da64251AF",
        "6001002657"
      ],
      "transaction": {
        "from": "0xca14e37c862465677caa064c20bdbb6673f6fe48",
        "to": "0xe94c3c122204a1011eed9ba9c11aa8dea861e91f",
        "gas": "0xb6f3",
        "value": "0x0",
        "input": "0x40c10f19000000000000000000000000e52c9aa4d90c9c1050228dc08e6c336da64251af0000000000000000000000000000000000000000000000000000000165b008a1",
        "nonce": "0x66",
        "chainId": "0x4cef52"
      },
      "additionalContracts": [],
      "isFixedGasLimit": false
    },
    {
      "hash": null,
      "transactionType": "CALL",
      "contractName": null,
      "contractAddress": "0xe94c3c122204a1011eed9ba9c11aa8dea861e91f",
      "function": "approve(address,uint256)",
      "arguments": [
        "0x6fc50Bbd108F39Fc6B0069c29f42e4A120C9df97",
        "115792089237316195423570985008687907853269984665640564039457584007913129639935"
      ],
      "transaction": {
        "from": "0xe52c9aa4d90c9c1050228dc08e6c336da64251af",
        "to": "0xe94c3c122204a1011eed9ba9c11aa8dea861e91f",
        "gas": "0x96a7",
        "value": "0x0",
        "input": "0x095ea7b30000000000000000000000006fc50bbd108f39fc6b0069c29f42e4a120c9df97ffffffffffffffffffffffffffffffffffffffffffffffffffffffffffffffff",
        "nonce": "0x12",
        "chainId": "0x4cef52"
      },
      "additionalContracts": [],
      "isFixedGasLimit": false
    },
    {
      "hash": null,
      "transactionType": "CALL",
      "contractName": null,
      "contractAddress": "0x6fc50bbd108f39fc6b0069c29f42e4a120c9df97",
      "function": "repay(address,address,address,uint256)",
      "arguments": [
        "0xE52C9AA4d90C9C1050228DC08E6c336da64251AF",
        "0x78F1D761BC1E5D01b136e78A63AE444189ee02FB",
        "0xe94C3c122204a1011EED9Ba9C11Aa8DEA861e91f",
        "340282366920938463463374607431768211455"
      ],
      "transaction": {
        "from": "0xe52c9aa4d90c9c1050228dc08e6c336da64251af",
        "to": "0x6fc50bbd108f39fc6b0069c29f42e4a120c9df97",
        "gas": "0x19711",
        "value": "0x0",
        "input": "0xc035bd21000000000000000000000000e52c9aa4d90c9c1050228dc08e6c336da64251af00000000000000000000000078f1d761bc1e5d01b136e78a63ae444189ee02fb000000000000000000000000e94c3c122204a1011eed9ba9c11aa8dea861e91f00000000000000000000000000000000ffffffffffffffffffffffffffffffff",
        "nonce": "0x13",
        "chainId": "0x4cef52"
      },
      "additionalContracts": [],
      "isFixedGasLimit": false
    },
    {
      "hash": null,
      "transactionType": "CALL",
      "contractName": null,
      "contractAddress": "0x6fc50bbd108f39fc6b0069c29f42e4a120c9df97",
      "function": "withdrawCollateral(address,address,uint256)",
      "arguments": [
        "0x78F1D761BC1E5D01b136e78A63AE444189ee02FB",
        "0xe94C3c122204a1011EED9Ba9C11Aa8DEA861e91f",
        "3000000000000000000"
      ],
      "transaction": {
        "from": "0xe52c9aa4d90c9c1050228dc08e6c336da64251af",
        "to": "0x6fc50bbd108f39fc6b0069c29f42e4a120c9df97",
        "gas": "0x1b508",
        "value": "0x0",
        "input": "0x2ae8bdfe00000000000000000000000078f1d761bc1e5d01b136e78a63ae444189ee02fb000000000000000000000000e94c3c122204a1011eed9ba9c11aa8dea861e91f00000000000000000000000000000000000000000000000029a2241af62c0000",
        "nonce": "0x14",
        "chainId": "0x4cef52"
      },
      "additionalContracts": [],
      "isFixedGasLimit": false
    },
    {
      "hash": null,
      "transactionType": "CALL",
      "contractName": null,
      "contractAddress": "0x657ff6937ac8913ad3dbec44430bcded3af1367c",
      "function": "mint(address,uint256)",
      "arguments": [
        "0x2968871b9780B38FFcf2221653ABB09aD1038552",
        "7501000000"
      ],
      "transaction": {
        "from": "0xca14e37c862465677caa064c20bdbb6673f6fe48",
        "to": "0x657ff6937ac8913ad3dbec44430bcded3af1367c",
        "gas": "0xb6f3",
        "value": "0x0",
        "input": "0x40c10f190000000000000000000000002968871b9780b38ffcf2221653abb09ad103855200000000000000000000000000000000000000000000000000000001bf182d40",
        "nonce": "0x67",
        "chainId": "0x4cef52"
      },
      "additionalContracts": [],
      "isFixedGasLimit": false
    },
    {
      "hash": null,
      "transactionType": "CALL",
      "contractName": null,
      "contractAddress": "0x657ff6937ac8913ad3dbec44430bcded3af1367c",
      "function": "approve(address,uint256)",
      "arguments": [
        "0x6fc50Bbd108F39Fc6B0069c29f42e4A120C9df97",
        "115792089237316195423570985008687907853269984665640564039457584007913129639935"
      ],
      "transaction": {
        "from": "0x2968871b9780b38ffcf2221653abb09ad1038552",
        "to": "0x657ff6937ac8913ad3dbec44430bcded3af1367c",
        "gas": "0x96a7",
        "value": "0x0",
        "input": "0x095ea7b30000000000000000000000006fc50bbd108f39fc6b0069c29f42e4a120c9df97ffffffffffffffffffffffffffffffffffffffffffffffffffffffffffffffff",
        "nonce": "0x11",
        "chainId": "0x4cef52"
      },
      "additionalContracts": [],
      "isFixedGasLimit": false
    },
    {
      "hash": null,
      "transactionType": "CALL",
      "contractName": null,
      "contractAddress": "0x6fc50bbd108f39fc6b0069c29f42e4a120c9df97",
      "function": "repay(address,address,address,uint256)",
      "arguments": [
        "0x2968871b9780B38FFcf2221653ABB09aD1038552",
        "0xe94C3c122204a1011EED9Ba9C11Aa8DEA861e91f",
        "0x657ff6937aC8913AD3DbEC44430BcdeD3af1367C",
        "340282366920938463463374607431768211455"
      ],
      "transaction": {
        "from": "0x2968871b9780b38ffcf2221653abb09ad1038552",
        "to": "0x6fc50bbd108f39fc6b0069c29f42e4a120c9df97",
        "gas": "0x1b89a",
        "value": "0x0",
        "input": "0xc035bd210000000000000000000000002968871b9780b38ffcf2221653abb09ad1038552000000000000000000000000e94c3c122204a1011eed9ba9c11aa8dea861e91f000000000000000000000000657ff6937ac8913ad3dbec44430bcded3af1367c00000000000000000000000000000000ffffffffffffffffffffffffffffffff",
        "nonce": "0x12",
        "chainId": "0x4cef52"
      },
      "additionalContracts": [],
      "isFixedGasLimit": false
    },
    {
      "hash": null,
      "transactionType": "CALL",
      "contractName": null,
      "contractAddress": "0x6fc50bbd108f39fc6b0069c29f42e4a120c9df97",
      "function": "withdrawCollateral(address,address,uint256)",
      "arguments": [
        "0xe94C3c122204a1011EED9Ba9C11Aa8DEA861e91f",
        "0x657ff6937aC8913AD3DbEC44430BcdeD3af1367C",
        "10000000000"
      ],
      "transaction": {
        "from": "0x2968871b9780b38ffcf2221653abb09ad1038552",
        "to": "0x6fc50bbd108f39fc6b0069c29f42e4a120c9df97",
        "gas": "0x1b4ed",
        "value": "0x0",
        "input": "0x2ae8bdfe000000000000000000000000e94c3c122204a1011eed9ba9c11aa8dea861e91f000000000000000000000000657ff6937ac8913ad3dbec44430bcded3af1367c00000000000000000000000000000000000000000000000000000002540be400",
        "nonce": "0x13",
        "chainId": "0x4cef52"
      },
      "additionalContracts": [],
      "isFixedGasLimit": false
    },
    {
      "hash": null,
      "transactionType": "CALL",
      "contractName": null,
      "contractAddress": "0xe94c3c122204a1011eed9ba9c11aa8dea861e91f",
      "function": "mint(address,uint256)",
      "arguments": [
        "0xCa14e37C862465677caA064c20BDBB6673F6FE48",
        "8001002560"
      ],
      "transaction": {
        "from": "0xca14e37c862465677caa064c20bdbb6673f6fe48",
        "to": "0xe94c3c122204a1011eed9ba9c11aa8dea861e91f",
        "gas": "0xb6f3",
        "value": "0x0",
        "input": "0x40c10f19000000000000000000000000ca14e37c862465677caa064c20bdbb6673f6fe4800000000000000000000000000000000000000000000000000000001dce59c40",
        "nonce": "0x68",
        "chainId": "0x4cef52"
      },
      "additionalContracts": [],
      "isFixedGasLimit": false
    },
    {
      "hash": null,
      "transactionType": "CALL",
      "contractName": null,
      "contractAddress": "0xe94c3c122204a1011eed9ba9c11aa8dea861e91f",
      "function": "approve(address,uint256)",
      "arguments": [
        "0x6fc50Bbd108F39Fc6B0069c29f42e4A120C9df97",
        "115792089237316195423570985008687907853269984665640564039457584007913129639935"
      ],
      "transaction": {
        "from": "0xca14e37c862465677caa064c20bdbb6673f6fe48",
        "to": "0xe94c3c122204a1011eed9ba9c11aa8dea861e91f",
        "gas": "0x96a7",
        "value": "0x0",
        "input": "0x095ea7b30000000000000000000000006fc50bbd108f39fc6b0069c29f42e4a120c9df97ffffffffffffffffffffffffffffffffffffffffffffffffffffffffffffffff",
        "nonce": "0x69",
        "chainId": "0x4cef52"
      },
      "additionalContracts": [],
      "isFixedGasLimit": false
    },
    {
      "hash": null,
      "transactionType": "CALL",
      "contractName": null,
      "contractAddress": "0x6fc50bbd108f39fc6b0069c29f42e4a120c9df97",
      "function": "repay(address,address,address,uint256)",
      "arguments": [
        "0xCa14e37C862465677caA064c20BDBB6673F6FE48",
        "0x657ff6937aC8913AD3DbEC44430BcdeD3af1367C",
        "0xe94C3c122204a1011EED9Ba9C11Aa8DEA861e91f",
        "340282366920938463463374607431768211455"
      ],
      "transaction": {
        "from": "0xca14e37c862465677caa064c20bdbb6673f6fe48",
        "to": "0x6fc50bbd108f39fc6b0069c29f42e4a120c9df97",
        "gas": "0x1964a",
        "value": "0x0",
        "input": "0xc035bd21000000000000000000000000ca14e37c862465677caa064c20bdbb6673f6fe48000000000000000000000000657ff6937ac8913ad3dbec44430bcded3af1367c000000000000000000000000e94c3c122204a1011eed9ba9c11aa8dea861e91f00000000000000000000000000000000ffffffffffffffffffffffffffffffff",
        "nonce": "0x6a",
        "chainId": "0x4cef52"
      },
      "additionalContracts": [],
      "isFixedGasLimit": false
    },
    {
      "hash": null,
      "transactionType": "CALL",
      "contractName": null,
      "contractAddress": "0x6fc50bbd108f39fc6b0069c29f42e4a120c9df97",
      "function": "withdrawCollateral(address,address,uint256)",
      "arguments": [
        "0x657ff6937aC8913AD3DbEC44430BcdeD3af1367C",
        "0xe94C3c122204a1011EED9Ba9C11Aa8DEA861e91f",
        "10000000000"
      ],
      "transaction": {
        "from": "0xca14e37c862465677caa064c20bdbb6673f6fe48",
        "to": "0x6fc50bbd108f39fc6b0069c29f42e4a120c9df97",
        "gas": "0x1b4ed",
        "value": "0x0",
        "input": "0x2ae8bdfe000000000000000000000000657ff6937ac8913ad3dbec44430bcded3af1367c000000000000000000000000e94c3c122204a1011eed9ba9c11aa8dea861e91f00000000000000000000000000000000000000000000000000000002540be400",
        "nonce": "0x6b",
        "chainId": "0x4cef52"
      },
      "additionalContracts": [],
      "isFixedGasLimit": false
    },
    {
      "hash": null,
      "transactionType": "CALL",
      "contractName": null,
      "contractAddress": "0x6fc50bbd108f39fc6b0069c29f42e4a120c9df97",
      "function": "withdraw(address,uint256)",
      "arguments": [
        "0x78F1D761BC1E5D01b136e78A63AE444189ee02FB",
        "10000000000000000000"
      ],
      "transaction": {
        "from": "0xcbb3b40109e849a2cd1531258ce1797fa9eca7e7",
        "to": "0x6fc50bbd108f39fc6b0069c29f42e4a120c9df97",
        "gas": "0x179ec",
        "value": "0x0",
        "input": "0xf3fef3a300000000000000000000000078f1d761bc1e5d01b136e78a63ae444189ee02fb0000000000000000000000000000000000000000000000008ac7230489e80000",
        "nonce": "0x13",
        "chainId": "0x4cef52"
      },
      "additionalContracts": [],
      "isFixedGasLimit": false
    },
    {
      "hash": null,
      "transactionType": "CALL",
      "contractName": null,
      "contractAddress": "0x6fc50bbd108f39fc6b0069c29f42e4a120c9df97",
      "function": "withdraw(address,uint256)",
      "arguments": [
        "0x657ff6937aC8913AD3DbEC44430BcdeD3af1367C",
        "30000000217"
      ],
      "transaction": {
        "from": "0xe52c9aa4d90c9c1050228dc08e6c336da64251af",
        "to": "0x6fc50bbd108f39fc6b0069c29f42e4a120c9df97",
        "gas": "0x1891e",
        "value": "0x0",
        "input": "0xf3fef3a3000000000000000000000000657ff6937ac8913ad3dbec44430bcded3af1367c00000000000000000000000000000000000000000000000000000006fc23acd9",
        "nonce": "0x15",
        "chainId": "0x4cef52"
      },
      "additionalContracts": [],
      "isFixedGasLimit": false
    },
    {
      "hash": null,
      "transactionType": "CALL",
      "contractName": null,
      "contractAddress": "0x6fc50bbd108f39fc6b0069c29f42e4a120c9df97",
      "function": "withdraw(address,uint256)",
      "arguments": [
        "0xe94C3c122204a1011EED9Ba9C11Aa8DEA861e91f",
        "15000000129"
      ],
      "transaction": {
        "from": "0x2968871b9780b38ffcf2221653abb09ad1038552",
        "to": "0x6fc50bbd108f39fc6b0069c29f42e4a120c9df97",
        "gas": "0x1891e",
        "value": "0x0",
        "input": "0xf3fef3a3000000000000000000000000e94c3c122204a1011eed9ba9c11aa8dea861e91f000000000000000000000000000000000000000000000000000000037e11d681",
        "nonce": "0x14",
        "chainId": "0x4cef52"
      },
      "additionalContracts": [],
      "isFixedGasLimit": false
    },
    {
      "hash": null,
      "transactionType": "CALL",
      "contractName": null,
      "contractAddress": "0x6fc50bbd108f39fc6b0069c29f42e4a120c9df97",
      "function": "withdraw(address,uint256)",
      "arguments": [
        "0xe94C3c122204a1011EED9Ba9C11Aa8DEA861e91f",
        "1020000008778"
      ],
      "transaction": {
        "from": "0xca14e37c862465677caa064c20bdbb6673f6fe48",
        "to": "0x6fc50bbd108f39fc6b0069c29f42e4a120c9df97",
        "gas": "0x1891e",
        "value": "0x0",
        "input": "0xf3fef3a3000000000000000000000000e94c3c122204a1011eed9ba9c11aa8dea861e91f000000000000000000000000000000000000000000000000000000ed7cbcfa4a",
        "nonce": "0x6c",
        "chainId": "0x4cef52"
      },
      "additionalContracts": [],
      "isFixedGasLimit": false
    },
    {
      "hash": null,
      "transactionType": "CALL",
      "contractName": null,
      "contractAddress": "0x6fc50bbd108f39fc6b0069c29f42e4a120c9df97",
      "function": "withdraw(address,uint256)",
      "arguments": [
        "0x657ff6937aC8913AD3DbEC44430BcdeD3af1367C",
        "500000003616"
      ],
      "transaction": {
        "from": "0xca14e37c862465677caa064c20bdbb6673f6fe48",
        "to": "0x6fc50bbd108f39fc6b0069c29f42e4a120c9df97",
        "gas": "0x1891e",
        "value": "0x0",
        "input": "0xf3fef3a3000000000000000000000000657ff6937ac8913ad3dbec44430bcded3af1367c000000000000000000000000000000000000000000000000000000746a529620",
        "nonce": "0x6d",
        "chainId": "0x4cef52"
      },
      "additionalContracts": [],
      "isFixedGasLimit": false
    },
    {
      "hash": null,
      "transactionType": "CALL",
      "contractName": null,
      "contractAddress": "0x6fc50bbd108f39fc6b0069c29f42e4a120c9df97",
      "function": "withdraw(address,uint256)",
      "arguments": [
        "0x78F1D761BC1E5D01b136e78A63AE444189ee02FB",
        "100000000000000000000"
      ],
      "transaction": {
        "from": "0xca14e37c862465677caa064c20bdbb6673f6fe48",
        "to": "0x6fc50bbd108f39fc6b0069c29f42e4a120c9df97",
        "gas": "0x18d68",
        "value": "0x0",
        "input": "0xf3fef3a300000000000000000000000078f1d761bc1e5d01b136e78a63ae444189ee02fb0000000000000000000000000000000000000000000000056bc75e2d63100000",
        "nonce": "0x6e",
        "chainId": "0x4cef52"
      },
      "additionalContracts": [],
      "isFixedGasLimit": false
    },
    {
      "hash": null,
      "transactionType": "CALL",
      "contractName": null,
      "contractAddress": "0xe94c3c122204a1011eed9ba9c11aa8dea861e91f",
      "function": "mint(address,uint256)",
      "arguments": [
        "0xCBb3b40109E849a2cD1531258CE1797Fa9ECA7e7",
        "600000000"
      ],
      "transaction": {
        "from": "0xca14e37c862465677caa064c20bdbb6673f6fe48",
        "to": "0xe94c3c122204a1011eed9ba9c11aa8dea861e91f",
        "gas": "0xb6d1",
        "value": "0x0",
        "input": "0x40c10f19000000000000000000000000cbb3b40109e849a2cd1531258ce1797fa9eca7e70000000000000000000000000000000000000000000000000000000023c34600",
        "nonce": "0x6f",
        "chainId": "0x4cef52"
      },
      "additionalContracts": [],
      "isFixedGasLimit": false
    },
    {
      "hash": null,
      "transactionType": "CALL",
      "contractName": null,
      "contractAddress": "0x78f1d761bc1e5d01b136e78a63ae444189ee02fb",
      "function": "mint(address,uint256)",
      "arguments": [
        "0xE52C9AA4d90C9C1050228DC08E6c336da64251AF",
        "400000000000000000"
      ],
      "transaction": {
        "from": "0xca14e37c862465677caa064c20bdbb6673f6fe48",
        "to": "0x78f1d761bc1e5d01b136e78a63ae444189ee02fb",
        "gas": "0xb704",
        "value": "0x0",
        "input": "0x40c10f19000000000000000000000000e52c9aa4d90c9c1050228dc08e6c336da64251af000000000000000000000000000000000000000000000000058d15e176280000",
        "nonce": "0x70",
        "chainId": "0x4cef52"
      },
      "additionalContracts": [],
      "isFixedGasLimit": false
    },
    {
      "hash": null,
      "transactionType": "CALL",
      "contractName": null,
      "contractAddress": "0x657ff6937ac8913ad3dbec44430bcded3af1367c",
      "function": "mint(address,uint256)",
      "arguments": [
        "0x2968871b9780B38FFcf2221653ABB09aD1038552",
        "900000000"
      ],
      "transaction": {
        "from": "0xca14e37c862465677caa064c20bdbb6673f6fe48",
        "to": "0x657ff6937ac8913ad3dbec44430bcded3af1367c",
        "gas": "0xb6d1",
        "value": "0x0",
        "input": "0x40c10f190000000000000000000000002968871b9780b38ffcf2221653abb09ad10385520000000000000000000000000000000000000000000000000000000035a4e900",
        "nonce": "0x71",
        "chainId": "0x4cef52"
      },
      "additionalContracts": [],
      "isFixedGasLimit": false
    },
    {
      "hash": null,
      "transactionType": "CALL",
      "contractName": null,
      "contractAddress": "0xe94c3c122204a1011eed9ba9c11aa8dea861e91f",
      "function": "mint(address,uint256)",
      "arguments": [
        "0xCa14e37C862465677caA064c20BDBB6673F6FE48",
        "1500000000"
      ],
      "transaction": {
        "from": "0xca14e37c862465677caa064c20bdbb6673f6fe48",
        "to": "0xe94c3c122204a1011eed9ba9c11aa8dea861e91f",
        "gas": "0xb6d1",
        "value": "0x0",
        "input": "0x40c10f19000000000000000000000000ca14e37c862465677caa064c20bdbb6673f6fe480000000000000000000000000000000000000000000000000000000059682f00",
        "nonce": "0x72",
        "chainId": "0x4cef52"
      },
      "additionalContracts": [],
      "isFixedGasLimit": false
    },
    {
      "hash": null,
      "transactionType": "CALL",
      "contractName": null,
      "contractAddress": "0xe94c3c122204a1011eed9ba9c11aa8dea861e91f",
      "function": "approve(address,uint256)",
      "arguments": [
        "0x6fc50Bbd108F39Fc6B0069c29f42e4A120C9df97",
        "115792089237316195423570985008687907853269984665640564039457584007913129639935"
      ],
      "transaction": {
        "from": "0xcbb3b40109e849a2cd1531258ce1797fa9eca7e7",
        "to": "0xe94c3c122204a1011eed9ba9c11aa8dea861e91f",
        "gas": "0x96a7",
        "value": "0x0",
        "input": "0x095ea7b30000000000000000000000006fc50bbd108f39fc6b0069c29f42e4a120c9df97ffffffffffffffffffffffffffffffffffffffffffffffffffffffffffffffff",
        "nonce": "0x14",
        "chainId": "0x4cef52"
      },
      "additionalContracts": [],
      "isFixedGasLimit": false
    },
    {
      "hash": null,
      "transactionType": "CALL",
      "contractName": null,
      "contractAddress": "0x6fc50bbd108f39fc6b0069c29f42e4a120c9df97",
      "function": "deposit(address,uint256)",
      "arguments": [
        "0xe94C3c122204a1011EED9Ba9C11Aa8DEA861e91f",
        "500000000"
      ],
      "transaction": {
        "from": "0xcbb3b40109e849a2cd1531258ce1797fa9eca7e7",
        "to": "0x6fc50bbd108f39fc6b0069c29f42e4a120c9df97",
        "gas": "0x299e7",
        "value": "0x0",
        "input": "0x47e7ef24000000000000000000000000e94c3c122204a1011eed9ba9c11aa8dea861e91f000000000000000000000000000000000000000000000000000000001dcd6500",
        "nonce": "0x15",
        "chainId": "0x4cef52"
      },
      "additionalContracts": [],
      "isFixedGasLimit": false
    },
    {
      "hash": null,
      "transactionType": "CALL",
      "contractName": null,
      "contractAddress": "0x78f1d761bc1e5d01b136e78a63ae444189ee02fb",
      "function": "approve(address,uint256)",
      "arguments": [
        "0x6fc50Bbd108F39Fc6B0069c29f42e4A120C9df97",
        "115792089237316195423570985008687907853269984665640564039457584007913129639935"
      ],
      "transaction": {
        "from": "0xe52c9aa4d90c9c1050228dc08e6c336da64251af",
        "to": "0x78f1d761bc1e5d01b136e78a63ae444189ee02fb",
        "gas": "0x96a7",
        "value": "0x0",
        "input": "0x095ea7b30000000000000000000000006fc50bbd108f39fc6b0069c29f42e4a120c9df97ffffffffffffffffffffffffffffffffffffffffffffffffffffffffffffffff",
        "nonce": "0x16",
        "chainId": "0x4cef52"
      },
      "additionalContracts": [],
      "isFixedGasLimit": false
    },
    {
      "hash": null,
      "transactionType": "CALL",
      "contractName": null,
      "contractAddress": "0x6fc50bbd108f39fc6b0069c29f42e4a120c9df97",
      "function": "deposit(address,uint256)",
      "arguments": [
        "0x78F1D761BC1E5D01b136e78A63AE444189ee02FB",
        "300000000000000000"
      ],
      "transaction": {
        "from": "0xe52c9aa4d90c9c1050228dc08e6c336da64251af",
        "to": "0x6fc50bbd108f39fc6b0069c29f42e4a120c9df97",
        "gas": "0x32da0",
        "value": "0x0",
        "input": "0x47e7ef2400000000000000000000000078f1d761bc1e5d01b136e78a63ae444189ee02fb0000000000000000000000000000000000000000000000000429d069189e0000",
        "nonce": "0x17",
        "chainId": "0x4cef52"
      },
      "additionalContracts": [],
      "isFixedGasLimit": false
    },
    {
      "hash": null,
      "transactionType": "CALL",
      "contractName": null,
      "contractAddress": "0x657ff6937ac8913ad3dbec44430bcded3af1367c",
      "function": "approve(address,uint256)",
      "arguments": [
        "0x6fc50Bbd108F39Fc6B0069c29f42e4A120C9df97",
        "115792089237316195423570985008687907853269984665640564039457584007913129639935"
      ],
      "transaction": {
        "from": "0x2968871b9780b38ffcf2221653abb09ad1038552",
        "to": "0x657ff6937ac8913ad3dbec44430bcded3af1367c",
        "gas": "0x96a7",
        "value": "0x0",
        "input": "0x095ea7b30000000000000000000000006fc50bbd108f39fc6b0069c29f42e4a120c9df97ffffffffffffffffffffffffffffffffffffffffffffffffffffffffffffffff",
        "nonce": "0x15",
        "chainId": "0x4cef52"
      },
      "additionalContracts": [],
      "isFixedGasLimit": false
    },
    {
      "hash": null,
      "transactionType": "CALL",
      "contractName": null,
      "contractAddress": "0x6fc50bbd108f39fc6b0069c29f42e4a120c9df97",
      "function": "deposit(address,uint256)",
      "arguments": [
        "0x657ff6937aC8913AD3DbEC44430BcdeD3af1367C",
        "800000000"
      ],
      "transaction": {
        "from": "0x2968871b9780b38ffcf2221653abb09ad1038552",
        "to": "0x6fc50bbd108f39fc6b0069c29f42e4a120c9df97",
        "gas": "0x299e7",
        "value": "0x0",
        "input": "0x47e7ef24000000000000000000000000657ff6937ac8913ad3dbec44430bcded3af1367c000000000000000000000000000000000000000000000000000000002faf0800",
        "nonce": "0x16",
        "chainId": "0x4cef52"
      },
      "additionalContracts": [],
      "isFixedGasLimit": false
    },
    {
      "hash": null,
      "transactionType": "CALL",
      "contractName": null,
      "contractAddress": "0xe94c3c122204a1011eed9ba9c11aa8dea861e91f",
      "function": "approve(address,uint256)",
      "arguments": [
        "0x6fc50Bbd108F39Fc6B0069c29f42e4A120C9df97",
        "115792089237316195423570985008687907853269984665640564039457584007913129639935"
      ],
      "transaction": {
        "from": "0xca14e37c862465677caa064c20bdbb6673f6fe48",
        "to": "0xe94c3c122204a1011eed9ba9c11aa8dea861e91f",
        "gas": "0x96a7",
        "value": "0x0",
        "input": "0x095ea7b30000000000000000000000006fc50bbd108f39fc6b0069c29f42e4a120c9df97ffffffffffffffffffffffffffffffffffffffffffffffffffffffffffffffff",
        "nonce": "0x73",
        "chainId": "0x4cef52"
      },
      "additionalContracts": [],
      "isFixedGasLimit": false
    },
    {
      "hash": null,
      "transactionType": "CALL",
      "contractName": null,
      "contractAddress": "0x6fc50bbd108f39fc6b0069c29f42e4a120c9df97",
      "function": "deposit(address,uint256)",
      "arguments": [
        "0xe94C3c122204a1011EED9Ba9C11Aa8DEA861e91f",
        "1200000000"
      ],
      "transaction": {
        "from": "0xca14e37c862465677caa064c20bdbb6673f6fe48",
        "to": "0x6fc50bbd108f39fc6b0069c29f42e4a120c9df97",
        "gas": "0x1d686",
        "value": "0x0",
        "input": "0x47e7ef24000000000000000000000000e94c3c122204a1011eed9ba9c11aa8dea861e91f0000000000000000000000000000000000000000000000000000000047868c00",
        "nonce": "0x74",
        "chainId": "0x4cef52"
      },
      "additionalContracts": [],
      "isFixedGasLimit": false
    },
    {
      "hash": null,
      "transactionType": "CALL",
      "contractName": null,
      "contractAddress": "0x78f1d761bc1e5d01b136e78a63ae444189ee02fb",
      "function": "mint(address,uint256)",
      "arguments": [
        "0xCBb3b40109E849a2cD1531258CE1797Fa9ECA7e7",
        "200000000000000000"
      ],
      "transaction": {
        "from": "0xca14e37c862465677caa064c20bdbb6673f6fe48",
        "to": "0x78f1d761bc1e5d01b136e78a63ae444189ee02fb",
        "gas": "0xb704",
        "value": "0x0",
        "input": "0x40c10f19000000000000000000000000cbb3b40109e849a2cd1531258ce1797fa9eca7e700000000000000000000000000000000000000000000000002c68af0bb140000",
        "nonce": "0x75",
        "chainId": "0x4cef52"
      },
      "additionalContracts": [],
      "isFixedGasLimit": false
    },
    {
      "hash": null,
      "transactionType": "CALL",
      "contractName": null,
      "contractAddress": "0xe94c3c122204a1011eed9ba9c11aa8dea861e91f",
      "function": "mint(address,uint256)",
      "arguments": [
        "0xE52C9AA4d90C9C1050228DC08E6c336da64251AF",
        "450000000"
      ],
      "transaction": {
        "from": "0xca14e37c862465677caa064c20bdbb6673f6fe48",
        "to": "0xe94c3c122204a1011eed9ba9c11aa8dea861e91f",
        "gas": "0xb6e2",
        "value": "0x0",
        "input": "0x40c10f19000000000000000000000000e52c9aa4d90c9c1050228dc08e6c336da64251af000000000000000000000000000000000000000000000000000000001ad27480",
        "nonce": "0x76",
        "chainId": "0x4cef52"
      },
      "additionalContracts": [],
      "isFixedGasLimit": false
    },
    {
      "hash": null,
      "transactionType": "CALL",
      "contractName": null,
      "contractAddress": "0x657ff6937ac8913ad3dbec44430bcded3af1367c",
      "function": "mint(address,uint256)",
      "arguments": [
        "0x2968871b9780B38FFcf2221653ABB09aD1038552",
        "650000000"
      ],
      "transaction": {
        "from": "0xca14e37c862465677caa064c20bdbb6673f6fe48",
        "to": "0x657ff6937ac8913ad3dbec44430bcded3af1367c",
        "gas": "0xb6e2",
        "value": "0x0",
        "input": "0x40c10f190000000000000000000000002968871b9780b38ffcf2221653abb09ad10385520000000000000000000000000000000000000000000000000000000026be3680",
        "nonce": "0x77",
        "chainId": "0x4cef52"
      },
      "additionalContracts": [],
      "isFixedGasLimit": false
    },
    {
      "hash": null,
      "transactionType": "CALL",
      "contractName": null,
      "contractAddress": "0x78f1d761bc1e5d01b136e78a63ae444189ee02fb",
      "function": "mint(address,uint256)",
      "arguments": [
        "0xCa14e37C862465677caA064c20BDBB6673F6FE48",
        "150000000000000000"
      ],
      "transaction": {
        "from": "0xca14e37c862465677caa064c20bdbb6673f6fe48",
        "to": "0x78f1d761bc1e5d01b136e78a63ae444189ee02fb",
        "gas": "0xb704",
        "value": "0x0",
        "input": "0x40c10f19000000000000000000000000ca14e37c862465677caa064c20bdbb6673f6fe480000000000000000000000000000000000000000000000000214e8348c4f0000",
        "nonce": "0x78",
        "chainId": "0x4cef52"
      },
      "additionalContracts": [],
      "isFixedGasLimit": false
    },
    {
      "hash": null,
      "transactionType": "CALL",
      "contractName": null,
      "contractAddress": "0x78f1d761bc1e5d01b136e78a63ae444189ee02fb",
      "function": "approve(address,uint256)",
      "arguments": [
        "0x6fc50Bbd108F39Fc6B0069c29f42e4A120C9df97",
        "115792089237316195423570985008687907853269984665640564039457584007913129639935"
      ],
      "transaction": {
        "from": "0xcbb3b40109e849a2cd1531258ce1797fa9eca7e7",
        "to": "0x78f1d761bc1e5d01b136e78a63ae444189ee02fb",
        "gas": "0x96a7",
        "value": "0x0",
        "input": "0x095ea7b30000000000000000000000006fc50bbd108f39fc6b0069c29f42e4a120c9df97ffffffffffffffffffffffffffffffffffffffffffffffffffffffffffffffff",
        "nonce": "0x16",
        "chainId": "0x4cef52"
      },
      "additionalContracts": [],
      "isFixedGasLimit": false
    },
    {
      "hash": null,
      "transactionType": "CALL",
      "contractName": null,
      "contractAddress": "0x6fc50bbd108f39fc6b0069c29f42e4a120c9df97",
      "function": "openPosition(address,uint256,address,uint256)",
      "arguments": [
        "0x78F1D761BC1E5D01b136e78A63AE444189ee02FB",
        "150000000000000000",
        "0xe94C3c122204a1011EED9Ba9C11Aa8DEA861e91f",
        "300000000"
      ],
      "transaction": {
        "from": "0xcbb3b40109e849a2cd1531258ce1797fa9eca7e7",
        "to": "0x6fc50bbd108f39fc6b0069c29f42e4a120c9df97",
        "gas": "0x64a40",
        "value": "0x0",
        "input": "0xd563eb2900000000000000000000000078f1d761bc1e5d01b136e78a63ae444189ee02fb0000000000000000000000000000000000000000000000000214e8348c4f0000000000000000000000000000e94c3c122204a1011eed9ba9c11aa8dea861e91f0000000000000000000000000000000000000000000000000000000011e1a300",
        "nonce": "0x17",
        "chainId": "0x4cef52"
      },
      "additionalContracts": [],
      "isFixedGasLimit": false
    },
    {
      "hash": null,
      "transactionType": "CALL",
      "contractName": null,
      "contractAddress": "0xe94c3c122204a1011eed9ba9c11aa8dea861e91f",
      "function": "approve(address,uint256)",
      "arguments": [
        "0x6fc50Bbd108F39Fc6B0069c29f42e4A120C9df97",
        "115792089237316195423570985008687907853269984665640564039457584007913129639935"
      ],
      "transaction": {
        "from": "0xe52c9aa4d90c9c1050228dc08e6c336da64251af",
        "to": "0xe94c3c122204a1011eed9ba9c11aa8dea861e91f",
        "gas": "0x96a7",
        "value": "0x0",
        "input": "0x095ea7b30000000000000000000000006fc50bbd108f39fc6b0069c29f42e4a120c9df97ffffffffffffffffffffffffffffffffffffffffffffffffffffffffffffffff",
        "nonce": "0x18",
        "chainId": "0x4cef52"
      },
      "additionalContracts": [],
      "isFixedGasLimit": false
    },
    {
      "hash": null,
      "transactionType": "CALL",
      "contractName": null,
      "contractAddress": "0x6fc50bbd108f39fc6b0069c29f42e4a120c9df97",
      "function": "openPosition(address,uint256,address,uint256)",
      "arguments": [
        "0xe94C3c122204a1011EED9Ba9C11Aa8DEA861e91f",
        "400000000",
        "0x657ff6937aC8913AD3DbEC44430BcdeD3af1367C",
        "250000000"
      ],
      "transaction": {
        "from": "0xe52c9aa4d90c9c1050228dc08e6c336da64251af",
        "to": "0x6fc50bbd108f39fc6b0069c29f42e4a120c9df97",
        "gas": "0x6a846",
        "value": "0x0",
        "input": "0xd563eb29000000000000000000000000e94c3c122204a1011eed9ba9c11aa8dea861e91f0000000000000000000000000000000000000000000000000000000017d78400000000000000000000000000657ff6937ac8913ad3dbec44430bcded3af1367c000000000000000000000000000000000000000000000000000000000ee6b280",
        "nonce": "0x19",
        "chainId": "0x4cef52"
      },
      "additionalContracts": [],
      "isFixedGasLimit": false
    },
    {
      "hash": null,
      "transactionType": "CALL",
      "contractName": null,
      "contractAddress": "0x657ff6937ac8913ad3dbec44430bcded3af1367c",
      "function": "approve(address,uint256)",
      "arguments": [
        "0x6fc50Bbd108F39Fc6B0069c29f42e4A120C9df97",
        "115792089237316195423570985008687907853269984665640564039457584007913129639935"
      ],
      "transaction": {
        "from": "0x2968871b9780b38ffcf2221653abb09ad1038552",
        "to": "0x657ff6937ac8913ad3dbec44430bcded3af1367c",
        "gas": "0x96a7",
        "value": "0x0",
        "input": "0x095ea7b30000000000000000000000006fc50bbd108f39fc6b0069c29f42e4a120c9df97ffffffffffffffffffffffffffffffffffffffffffffffffffffffffffffffff",
        "nonce": "0x17",
        "chainId": "0x4cef52"
      },
      "additionalContracts": [],
      "isFixedGasLimit": false
    },
    {
      "hash": null,
      "transactionType": "CALL",
      "contractName": null,
      "contractAddress": "0x6fc50bbd108f39fc6b0069c29f42e4a120c9df97",
      "function": "openPosition(address,uint256,address,uint256)",
      "arguments": [
        "0x657ff6937aC8913AD3DbEC44430BcdeD3af1367C",
        "600000000",
        "0xe94C3c122204a1011EED9Ba9C11Aa8DEA861e91f",
        "350000000"
      ],
      "transaction": {
        "from": "0x2968871b9780b38ffcf2221653abb09ad1038552",
        "to": "0x6fc50bbd108f39fc6b0069c29f42e4a120c9df97",
        "gas": "0x64991",
        "value": "0x0",
        "input": "0xd563eb29000000000000000000000000657ff6937ac8913ad3dbec44430bcded3af1367c0000000000000000000000000000000000000000000000000000000023c34600000000000000000000000000e94c3c122204a1011eed9ba9c11aa8dea861e91f0000000000000000000000000000000000000000000000000000000014dc9380",
        "nonce": "0x18",
        "chainId": "0x4cef52"
      },
      "additionalContracts": [],
      "isFixedGasLimit": false
    },
    {
      "hash": null,
      "transactionType": "CALL",
      "contractName": null,
      "contractAddress": "0x6fc50bbd108f39fc6b0069c29f42e4a120c9df97",
      "function": "openPosition(address,uint256,address,uint256)",
      "arguments": [
        "0x78F1D761BC1E5D01b136e78A63AE444189ee02FB",
        "100000000000000000",
        "0xe94C3c122204a1011EED9Ba9C11Aa8DEA861e91f",
        "200000000"
      ],
      "transaction": {
        "from": "0xca14e37c862465677caa064c20bdbb6673f6fe48",
        "to": "0x6fc50bbd108f39fc6b0069c29f42e4a120c9df97",
        "gas": "0x5edfe",
        "value": "0x0",
        "input": "0xd563eb2900000000000000000000000078f1d761bc1e5d01b136e78a63ae444189ee02fb000000000000000000000000000000000000000000000000016345785d8a0000000000000000000000000000e94c3c122204a1011eed9ba9c11aa8dea861e91f000000000000000000000000000000000000000000000000000000000bebc200",
        "nonce": "0x79",
        "chainId": "0x4cef52"
      },
      "additionalContracts": [],
      "isFixedGasLimit": false
    }
  ],
  "receipts": [
    {
      "status": "0x1",
      "cumulativeGasUsed": "0x3c92fa",
      "logs": [
        {
          "address": "0xe94c3c122204a1011eed9ba9c11aa8dea861e91f",
          "topics": [
            "0xddf252ad1be2c89b69c2b068fc378daa952ba7f163c4a11628f55a4df523b3ef",
            "0x0000000000000000000000000000000000000000000000000000000000000000",
            "0x000000000000000000000000cbb3b40109e849a2cd1531258ce1797fa9eca7e7"
          ],
          "data": "0x00000000000000000000000000000000000000000000000000000002541b2c0a",
          "blockHash": "0x70b5a2f6dbcf1b143b36fc62dceb9ad61f42dbbd0587230f4c69c29205bdf365",
          "blockNumber": "0x2cb558c",
          "blockTimestamp": "0x6a2d4f82",
          "transactionHash": "0x8b41ed8739755bbe17dde591c837be00799868a63ed48f1b151339a45928c76f",
          "transactionIndex": "0x29",
          "logIndex": "0x65",
          "removed": false
        }
      ],
      "logsBloom": "0x00000000000000000000000000000000020000000000200000000000000000000000000000000000000000000000000000000000000000000000000000000000000000000000000000000008000000000000000000000000000000000000000000000000020000000000000000000800000000000000000000000010000000000000000000000000000000000000000000000000000000000000000000000000000000000000000000000004000000000200000000000000000002000000000000000002000000000000000000000000002000000000000000000000000020000000000000000000000000000000000000000000000000000000000000000000",
      "type": "0x2",
      "transactionHash": "0x8b41ed8739755bbe17dde591c837be00799868a63ed48f1b151339a45928c76f",
      "transactionIndex": "0x29",
      "blockHash": "0x70b5a2f6dbcf1b143b36fc62dceb9ad61f42dbbd0587230f4c69c29205bdf365",
      "blockNumber": "0x2cb558c",
      "gasUsed": "0x8474",
      "effectiveGasPrice": "0x4a88ede4a",
      "from": "0xca14e37c862465677caa064c20bdbb6673f6fe48",
      "to": "0xe94c3c122204a1011eed9ba9c11aa8dea861e91f",
      "contractAddress": null
    },
    {
      "status": "0x1",
      "cumulativeGasUsed": "0xcf635",
      "logs": [
        {
          "address": "0xe94c3c122204a1011eed9ba9c11aa8dea861e91f",
          "topics": [
            "0x8c5be1e5ebec7d5bd14f71427d1e84f3dd0314c0f7b2291e5b200ac8c7c3b925",
            "0x000000000000000000000000cbb3b40109e849a2cd1531258ce1797fa9eca7e7",
            "0x0000000000000000000000006fc50bbd108f39fc6b0069c29f42e4a120c9df97"
          ],
          "data": "0xffffffffffffffffffffffffffffffffffffffffffffffffffffffffffffffff",
          "blockHash": "0x38ad85617676fe300ca44aa2158a99e318b79bd78e9694803107a91d9d94ea8e",
          "blockNumber": "0x2cb5590",
          "blockTimestamp": "0x6a2d4f84",
          "transactionHash": "0x9327764d39db20ca774e5fe443549ca6ebb7b29aa42e42bf47046e385dbc7b2e",
          "transactionIndex": "0x9",
          "logIndex": "0xd",
          "removed": false
        }
      ],
      "logsBloom": "0x00010000000000000000000000000000020000000000200000000000000000000000000000000000000000000000000000000000000000000000000000200000000000000000000000000000000000000000000000000000000000000000000000000000000000000000000000000000000000000000000008000000000000000000000000000000000000000000000000000000000000000000000000000000020000000000000000000004000000000200000000000000000002000000000000000000000000000000000000000000002000000000000000000000000080000010000000000000000000000000000000000000000000000000000000000000",
      "type": "0x2",
      "transactionHash": "0x9327764d39db20ca774e5fe443549ca6ebb7b29aa42e42bf47046e385dbc7b2e",
      "transactionIndex": "0x9",
      "blockHash": "0x38ad85617676fe300ca44aa2158a99e318b79bd78e9694803107a91d9d94ea8e",
      "blockNumber": "0x2cb5590",
      "gasUsed": "0x6703",
      "effectiveGasPrice": "0x4a88ede4a",
      "from": "0xcbb3b40109e849a2cd1531258ce1797fa9eca7e7",
      "to": "0xe94c3c122204a1011eed9ba9c11aa8dea861e91f",
      "contractAddress": null
    },
    {
      "status": "0x1",
      "cumulativeGasUsed": "0x5994d8",
      "logs": [
        {
          "address": "0x6fc50bbd108f39fc6b0069c29f42e4a120c9df97",
          "topics": [
            "0x51eedbe668e048aec37e4dc0104031dbf295c9f3b35bfd9cb73a217b6ff81259",
            "0x000000000000000000000000e94c3c122204a1011eed9ba9c11aa8dea861e91f"
          ],
          "data": "0x0000000000000000000000000000000000000000033b2e3d1db68ff52d0744000000000000000000000000000000000000000000033b2e5735deba12a11743dc00000000000000000000000000000000000000000008d4ccf125356a3ed706c6",
          "blockHash": "0x357cc7e99fa50e81af902f1a8213aa7a5e745cc23360c947979deccf5b075c47",
          "blockNumber": "0x2cb5594",
          "blockTimestamp": "0x6a2d4f87",
          "transactionHash": "0xf598e6e3383f8665b7aed3cdeb31056ae6487f4c8e5f930363e500d2fb272df5",
          "transactionIndex": "0x2f",
          "logIndex": "0x5a",
          "removed": false
        },
        {
          "address": "0xe94c3c122204a1011eed9ba9c11aa8dea861e91f",
          "topics": [
            "0xddf252ad1be2c89b69c2b068fc378daa952ba7f163c4a11628f55a4df523b3ef",
            "0x000000000000000000000000cbb3b40109e849a2cd1531258ce1797fa9eca7e7",
            "0x0000000000000000000000006fc50bbd108f39fc6b0069c29f42e4a120c9df97"
          ],
          "data": "0x00000000000000000000000000000000000000000000000000000002540bf729",
          "blockHash": "0x357cc7e99fa50e81af902f1a8213aa7a5e745cc23360c947979deccf5b075c47",
          "blockNumber": "0x2cb5594",
          "blockTimestamp": "0x6a2d4f87",
          "transactionHash": "0xf598e6e3383f8665b7aed3cdeb31056ae6487f4c8e5f930363e500d2fb272df5",
          "transactionIndex": "0x2f",
          "logIndex": "0x5b",
          "removed": false
        },
        {
          "address": "0x6fc50bbd108f39fc6b0069c29f42e4a120c9df97",
          "topics": [
            "0x861660e9b7ead7183d53fe928b5638c7b57a7bcf16a89d7fdb04db65ce3ad6d5",
            "0x000000000000000000000000cbb3b40109e849a2cd1531258ce1797fa9eca7e7",
            "0x000000000000000000000000cbb3b40109e849a2cd1531258ce1797fa9eca7e7",
            "0x000000000000000000000000e94c3c122204a1011eed9ba9c11aa8dea861e91f"
          ],
          "data": "0x00000000000000000000000000000000000000000000000000000002540bf729",
          "blockHash": "0x357cc7e99fa50e81af902f1a8213aa7a5e745cc23360c947979deccf5b075c47",
          "blockNumber": "0x2cb5594",
          "blockTimestamp": "0x6a2d4f87",
          "transactionHash": "0xf598e6e3383f8665b7aed3cdeb31056ae6487f4c8e5f930363e500d2fb272df5",
          "transactionIndex": "0x2f",
          "logIndex": "0x5c",
          "removed": false
        }
      ],
      "logsBloom": "0x00010000000000000000000000000000020000000000200000000000000000000000100000000000000000000004000280000000000000000000000000000000000000000000000000000008000000000000000000000000000000000000000000000000000008000000000000000000000000000000080008000010000010000000000000000020000000000000000000000004000000000000000000001000000000000000000000000004000000000200000000000000000002000000000000000002000000000000000000000000002000000000000000000000000080000000004000000000000000000000000008000000000000000000000000000000",
      "type": "0x2",
      "transactionHash": "0xf598e6e3383f8665b7aed3cdeb31056ae6487f4c8e5f930363e500d2fb272df5",
      "transactionIndex": "0x2f",
      "blockHash": "0x357cc7e99fa50e81af902f1a8213aa7a5e745cc23360c947979deccf5b075c47",
      "blockNumber": "0x2cb5594",
      "gasUsed": "0x13f8e",
      "effectiveGasPrice": "0x4a88ede4a",
      "from": "0xcbb3b40109e849a2cd1531258ce1797fa9eca7e7",
      "to": "0x6fc50bbd108f39fc6b0069c29f42e4a120c9df97",
      "contractAddress": null
    }
  ],
  "libraries": [],
  "pending": [],
  "returns": {},
  "timestamp": 1781354378104,
  "chain": 5042002,
  "commit": "56b8140"
}