{
  "transactions": [
    {
      "hash": "0xa20292e53eb3308b703cb074280cffb02de704a63bf4dc56a046a7fcd5382780",
      "transactionType": "CALL",
      "contractName": null,
      "contractAddress": "0xe5f8c0bd7eda98f24f0b5002fa485d473fe7e7eb",
      "function": "approve(address,uint256)",
      "arguments": [
        "0xB574Eb2FD1101A75070Cda9673a6dB207581C467",
        "115792089237316195423570985008687907853269984665640564039457584007913129639935"
      ],
      "transaction": {
        "from": "0xca14e37c862465677caa064c20bdbb6673f6fe48",
        "to": "0xe5f8c0bd7eda98f24f0b5002fa485d473fe7e7eb",
        "gas": "0x8e58",
        "value": "0x0",
        "input": "0x095ea7b3000000000000000000000000b574eb2fd1101a75070cda9673a6db207581c467ffffffffffffffffffffffffffffffffffffffffffffffffffffffffffffffff",
        "nonce": "0x2a",
        "chainId": "0x4cef52"
      },
      "additionalContracts": [],
      "isFixedGasLimit": false
    },
    {
      "hash": "0x6c559c3b253808e078fb51c3cb5bdc57e031d8a984fba645cd18cdc02aa73dce",
      "transactionType": "CALL",
      "contractName": null,
      "contractAddress": "0xb574eb2fd1101a75070cda9673a6db207581c467",
      "function": "repayBadDebt(address,address,address)",
      "arguments": [
        "0xCBb3b40109E849a2cD1531258CE1797Fa9ECA7e7",
        "0x254a2627EB0e2e3ded4CB2225AFb8815f05e04e9",
        "0xe5F8C0bD7Eda98F24f0B5002Fa485D473FE7E7Eb"
      ],
      "transaction": {
        "from": "0xca14e37c862465677caa064c20bdbb6673f6fe48",
        "to": "0xb574eb2fd1101a75070cda9673a6db207581c467",
        "gas": "0x1dca7",
        "value": "0x0",
        "input": "0x40882414000000000000000000000000cbb3b40109e849a2cd1531258ce1797fa9eca7e7000000000000000000000000254a2627eb0e2e3ded4cb2225afb8815f05e04e9000000000000000000000000e5f8c0bd7eda98f24f0b5002fa485d473fe7e7eb",
        "nonce": "0x2b",
        "chainId": "0x4cef52"
      },
      "additionalContracts": [],
      "isFixedGasLimit": false
    },
    {
      "hash": "0x303b65611fbb04881941e0011a98f52bff6a7d760f85c411554b1f93c66909e6",
      "transactionType": "CALL",
      "contractName": null,
      "contractAddress": "0xe5f8c0bd7eda98f24f0b5002fa485d473fe7e7eb",
      "function": "approve(address,uint256)",
      "arguments": [
        "0xB574Eb2FD1101A75070Cda9673a6dB207581C467",
        "115792089237316195423570985008687907853269984665640564039457584007913129639935"
      ],
      "transaction": {
        "from": "0xca14e37c862465677caa064c20bdbb6673f6fe48",
        "to": "0xe5f8c0bd7eda98f24f0b5002fa485d473fe7e7eb",
        "gas": "0x8e58",
        "value": "0x0",
        "input": "0x095ea7b3000000000000000000000000b574eb2fd1101a75070cda9673a6db207581c467ffffffffffffffffffffffffffffffffffffffffffffffffffffffffffffffff",
        "nonce": "0x2c",
        "chainId": "0x4cef52"
      },
      "additionalContracts": [],
      "isFixedGasLimit": false
    },
    {
      "hash": "0x05f3850b7ed4505f54703fcd37a56213c2464a98d51353c9c4fd574a9491ac84",
      "transactionType": "CALL",
      "contractName": null,
      "contractAddress": "0xb574eb2fd1101a75070cda9673a6db207581c467",
      "function": "repay(address,address,address,uint256)",
      "arguments": [
        "0xE52C9AA4d90C9C1050228DC08E6c336da64251AF",
        "0xCDeA155469985F1E6910bbC53278Cb2008bff207",
        "0xe5F8C0bD7Eda98F24f0B5002Fa485D473FE7E7Eb",
        "115792089237316195423570985008687907853269984665640564039457584007913129639935"
      ],
      "transaction": {
        "from": "0xca14e37c862465677caa064c20bdbb6673f6fe48",
        "to": "0xb574eb2fd1101a75070cda9673a6db207581c467",
        "gas": "0x1945c",
        "value": "0x0",
        "input": "0xc035bd21000000000000000000000000e52c9aa4d90c9c1050228dc08e6c336da64251af000000000000000000000000cdea155469985f1e6910bbc53278cb2008bff207000000000000000000000000e5f8c0bd7eda98f24f0b5002fa485d473fe7e7ebffffffffffffffffffffffffffffffffffffffffffffffffffffffffffffffff",
        "nonce": "0x2d",
        "chainId": "0x4cef52"
      },
      "additionalContracts": [],
      "isFixedGasLimit": false
    },
    {
      "hash": "0xbca5cf509e48ac513086a7a0551a19fd0add26f0d9785afbf7b6389fc1f9914b",
      "transactionType": "CALL",
      "contractName": null,
      "contractAddress": "0xb574eb2fd1101a75070cda9673a6db207581c467",
      "function": "withdrawCollateral(address,address,uint256)",
      "arguments": [
        "0xCDeA155469985F1E6910bbC53278Cb2008bff207",
        "0xe5F8C0bD7Eda98F24f0B5002Fa485D473FE7E7Eb",
        "308823529411764706"
      ],
      "transaction": {
        "from": "0xe52c9aa4d90c9c1050228dc08e6c336da64251af",
        "to": "0xb574eb2fd1101a75070cda9673a6db207581c467",
        "gas": "0x21293",
        "value": "0x0",
        "input": "0x2ae8bdfe000000000000000000000000cdea155469985f1e6910bbc53278cb2008bff207000000000000000000000000e5f8c0bd7eda98f24f0b5002fa485d473fe7e7eb0000000000000000000000000000000000000000000000000449295d20dee1e2",
        "nonce": "0x7",
        "chainId": "0x4cef52"
      },
      "additionalContracts": [],
      "isFixedGasLimit": false
    },
    {
      "hash": "0x21cf0758d67f5580ca6070c14de61d8de1ad1def345fd460b5177e8bc71d3eb5",
      "transactionType": "CALL",
      "contractName": null,
      "contractAddress": "0x254a2627eb0e2e3ded4cb2225afb8815f05e04e9",
      "function": "approve(address,uint256)",
      "arguments": [
        "0xB574Eb2FD1101A75070Cda9673a6dB207581C467",
        "115792089237316195423570985008687907853269984665640564039457584007913129639935"
      ],
      "transaction": {
        "from": "0x2968871b9780b38ffcf2221653abb09ad1038552",
        "to": "0x254a2627eb0e2e3ded4cb2225afb8815f05e04e9",
        "gas": "0x8e58",
        "value": "0x0",
        "input": "0x095ea7b3000000000000000000000000b574eb2fd1101a75070cda9673a6db207581c467ffffffffffffffffffffffffffffffffffffffffffffffffffffffffffffffff",
        "nonce": "0x5",
        "chainId": "0x4cef52"
      },
      "additionalContracts": [],
      "isFixedGasLimit": false
    },
    {
      "hash": "0xe77e3e10dff241e22be4c72139f96b1805d0c4dbd6325cd923f02a0e140883db",
      "transactionType": "CALL",
      "contractName": null,
      "contractAddress": "0xb574eb2fd1101a75070cda9673a6db207581c467",
      "function": "repay(address,address,address,uint256)",
      "arguments": [
        "0x2968871b9780B38FFcf2221653ABB09aD1038552",
        "0xe5F8C0bD7Eda98F24f0B5002Fa485D473FE7E7Eb",
        "0x254a2627EB0e2e3ded4CB2225AFb8815f05e04e9",
        "115792089237316195423570985008687907853269984665640564039457584007913129639935"
      ],
      "transaction": {
        "from": "0x2968871b9780b38ffcf2221653abb09ad1038552",
        "to": "0xb574eb2fd1101a75070cda9673a6db207581c467",
        "gas": "0x1d04e",
        "value": "0x0",
        "input": "0xc035bd210000000000000000000000002968871b9780b38ffcf2221653abb09ad1038552000000000000000000000000e5f8c0bd7eda98f24f0b5002fa485d473fe7e7eb000000000000000000000000254a2627eb0e2e3ded4cb2225afb8815f05e04e9ffffffffffffffffffffffffffffffffffffffffffffffffffffffffffffffff",
        "nonce": "0x6",
        "chainId": "0x4cef52"
      },
      "additionalContracts": [],
      "isFixedGasLimit": false
    },
    {
      "hash": "0x0941d197e1c4e86f004a9b48eb6f61a48b76b909a126f04fc58cf14cdb23821b",
      "transactionType": "CALL",
      "contractName": null,
      "contractAddress": "0xb574eb2fd1101a75070cda9673a6db207581c467",
      "function": "withdrawCollateral(address,address,uint256)",
      "arguments": [
        "0xe5F8C0bD7Eda98F24f0B5002Fa485D473FE7E7Eb",
        "0x254a2627EB0e2e3ded4CB2225AFb8815f05e04e9",
        "10000000000"
      ],
      "transaction": {
        "from": "0x2968871b9780b38ffcf2221653abb09ad1038552",
        "to": "0xb574eb2fd1101a75070cda9673a6db207581c467",
        "gas": "0x1ab15",
        "value": "0x0",
        "input": "0x2ae8bdfe000000000000000000000000e5f8c0bd7eda98f24f0b5002fa485d473fe7e7eb000000000000000000000000254a2627eb0e2e3ded4cb2225afb8815f05e04e900000000000000000000000000000000000000000000000000000002540be400",
        "nonce": "0x7",
        "chainId": "0x4cef52"
      },
      "additionalContracts": [],
      "isFixedGasLimit": false
    }
  ],
  "receipts": [
    {
      "status": "0x1",
      "cumulativeGasUsed": "0x1d6eca",
      "logs": [
        {
          "address": "0xe5f8c0bd7eda98f24f0b5002fa485d473fe7e7eb",
          "topics": [
            "0x8c5be1e5ebec7d5bd14f71427d1e84f3dd0314c0f7b2291e5b200ac8c7c3b925",
            "0x000000000000000000000000ca14e37c862465677caa064c20bdbb6673f6fe48",
            "0x000000000000000000000000b574eb2fd1101a75070cda9673a6db207581c467"
          ],
          "data": "0xffffffffffffffffffffffffffffffffffffffffffffffffffffffffffffffff",
          "blockHash": "0x6f76e547f0cdf09ddd621f79eddfac28b44d8cfea7c38618f2befb51a087550d",
          "blockNumber": "0x2c7f975",
          "blockTimestamp": "0x6a2b6cbf",
          "transactionHash": "0xa20292e53eb3308b703cb074280cffb02de704a63bf4dc56a046a7fcd5382780",
          "transactionIndex": "0x1a",
          "logIndex": "0x33",
          "removed": false
        }
      ],
      "logsBloom": "0x00000000000000000000000000000000000000000000040000000000000000000000000000000000000000000000000000000000000000000000000000200000000000000000000000000000000400000000000000000000100000000000000000000000000000000000000000010000000000000000000000000000000000000000000040000000000000000000000000000000000000000000000000000000021000000000000000000000000000000000000000000000000000000000000000400000000000000000000000000000000000000000000000000000000000000090000000000000000000000000000000000000000001000000000000000000",
      "type": "0x2",
      "transactionHash": "0xa20292e53eb3308b703cb074280cffb02de704a63bf4dc56a046a7fcd5382780",
      "transactionIndex": "0x1a",
      "blockHash": "0x6f76e547f0cdf09ddd621f79eddfac28b44d8cfea7c38618f2befb51a087550d",
      "blockNumber": "0x2c7f975",
      "gasUsed": "0x670f",
      "effectiveGasPrice": "0x4a851361a",
      "from": "0xca14e37c862465677caa064c20bdbb6673f6fe48",
      "to": "0xe5f8c0bd7eda98f24f0b5002fa485d473fe7e7eb",
      "contractAddress": null
    },
    {
      "status": "0x1",
      "cumulativeGasUsed": "0x4f48cb",
      "logs": [
        {
          "address": "0xb574eb2fd1101a75070cda9673a6db207581c467",
          "topics": [
            "0xbcb7cadb21c559b49c8be5b6a40b4ca39f4fb3b53dd0d707fc2f6f5300cd76b7",
            "0xa8c264763932764f27884cd0e18348fe7ad7d26d6e53867c9139634e660b9aa4",
            "0x000000000000000000000000cbb3b40109e849a2cd1531258ce1797fa9eca7e7"
          ],
          "data": "0x",
          "blockHash": "0x5c350c2bd7ff33b8d3382bca3b3470531d603d312a4a60230968b6c477985732",
          "blockNumber": "0x2c7f97c",
          "blockTimestamp": "0x6a2b6cc3",
          "transactionHash": "0x6c559c3b253808e078fb51c3cb5bdc57e031d8a984fba645cd18cdc02aa73dce",
          "transactionIndex": "0x25",
          "logIndex": "0x5b",
          "removed": false
        },
        {
          "address": "0xb574eb2fd1101a75070cda9673a6db207581c467",
          "topics": [
            "0x51eedbe668e048aec37e4dc0104031dbf295c9f3b35bfd9cb73a217b6ff81259",
            "0x000000000000000000000000e5f8c0bd7eda98f24f0b5002fa485d473fe7e7eb"
          ],
          "data": "0x0000000000000000000000000000000000000000033b2e3dc925d77ea79daf5e0000000000000000000000000000000000000000033b326c3998323407d0a2d40000000000000000000000000000000000000000000845951621815cb74b34a9",
          "blockHash": "0x5c350c2bd7ff33b8d3382bca3b3470531d603d312a4a60230968b6c477985732",
          "blockNumber": "0x2c7f97c",
          "blockTimestamp": "0x6a2b6cc3",
          "transactionHash": "0x6c559c3b253808e078fb51c3cb5bdc57e031d8a984fba645cd18cdc02aa73dce",
          "transactionIndex": "0x25",
          "logIndex": "0x5c",
          "removed": false
        },
        {
          "address": "0xe5f8c0bd7eda98f24f0b5002fa485d473fe7e7eb",
          "topics": [
            "0xddf252ad1be2c89b69c2b068fc378daa952ba7f163c4a11628f55a4df523b3ef",
            "0x000000000000000000000000ca14e37c862465677caa064c20bdbb6673f6fe48",
            "0x000000000000000000000000b574eb2fd1101a75070cda9673a6db207581c467"
          ],
          "data": "0x00000000000000000000000000000000000000000000000000000000473c79d4",
          "blockHash": "0x5c350c2bd7ff33b8d3382bca3b3470531d603d312a4a60230968b6c477985732",
          "blockNumber": "0x2c7f97c",
          "blockTimestamp": "0x6a2b6cc3",
          "transactionHash": "0x6c559c3b253808e078fb51c3cb5bdc57e031d8a984fba645cd18cdc02aa73dce",
          "transactionIndex": "0x25",
          "logIndex": "0x5d",
          "removed": false
        },
        {
          "address": "0xb574eb2fd1101a75070cda9673a6db207581c467",
          "topics": [
            "0x861660e9b7ead7183d53fe928b5638c7b57a7bcf16a89d7fdb04db65ce3ad6d5",
            "0x000000000000000000000000ca14e37c862465677caa064c20bdbb6673f6fe48",
            "0x000000000000000000000000cbb3b40109e849a2cd1531258ce1797fa9eca7e7",
            "0x000000000000000000000000e5f8c0bd7eda98f24f0b5002fa485d473fe7e7eb"
          ],
          "data": "0x00000000000000000000000000000000000000000000000000000000473c79d4",
          "blockHash": "0x5c350c2bd7ff33b8d3382bca3b3470531d603d312a4a60230968b6c477985732",
          "blockNumber": "0x2c7f97c",
          "blockTimestamp": "0x6a2b6cc3",
          "transactionHash": "0x6c559c3b253808e078fb51c3cb5bdc57e031d8a984fba645cd18cdc02aa73dce",
          "transactionIndex": "0x25",
          "logIndex": "0x5e",
          "removed": false
        }
      ],
      "logsBloom": "0x0004000000000000000000000000000002000000000004000000000000000000000010000000000000000000000c000080010000000000000000000000000000000000000000000000080008000480000000000000000000100000000000000000000000000048000000000000090000000000000000000000000010000000000000000040000010000000000000000000000000000000000000000000003000001000000000002000000000000000000a00000000000000000000000000000000400002000000000000000000000000002000000000000000000000000000000080000000000000000000000000000408000000000001000000000000000000",
      "type": "0x2",
      "transactionHash": "0x6c559c3b253808e078fb51c3cb5bdc57e031d8a984fba645cd18cdc02aa73dce",
      "transactionIndex": "0x25",
      "blockHash": "0x5c350c2bd7ff33b8d3382bca3b3470531d603d312a4a60230968b6c477985732",
      "blockNumber": "0x2c7f97c",
      "gasUsed": "0x15917",
      "effectiveGasPrice": "0x4a851361a",
      "from": "0xca14e37c862465677caa064c20bdbb6673f6fe48",
      "to": "0xb574eb2fd1101a75070cda9673a6db207581c467",
      "contractAddress": null
    },
    {
      "status": "0x1",
      "cumulativeGasUsed": "0x4ec595",
      "logs": [
        {
          "address": "0xe5f8c0bd7eda98f24f0b5002fa485d473fe7e7eb",
          "topics": [
            "0x8c5be1e5ebec7d5bd14f71427d1e84f3dd0314c0f7b2291e5b200ac8c7c3b925",
            "0x000000000000000000000000ca14e37c862465677caa064c20bdbb6673f6fe48",
            "0x000000000000000000000000b574eb2fd1101a75070cda9673a6db207581c467"
          ],
          "data": "0xffffffffffffffffffffffffffffffffffffffffffffffffffffffffffffffff",
          "blockHash": "0x4f9bb9631acf2663079ce7c41b31db82c680d56771ac2591fd8a969a0f746cc1",
          "blockNumber": "0x2c7f980",
          "blockTimestamp": "0x6a2b6cc6",
          "transactionHash": "0x303b65611fbb04881941e0011a98f52bff6a7d760f85c411554b1f93c66909e6",
          "transactionIndex": "0x18",
          "logIndex": "0x53",
          "removed": false
        }
      ],
      "logsBloom": "0x00000000000000000000000000000000000000000000040000000000000000000000000000000000000000000000000000000000000000000000000000200000000000000000000000000000000400000000000000000000100000000000000000000000000000000000000000010000000000000000000000000000000000000000000040000000000000000000000000000000000000000000000000000000021000000000000000000000000000000000000000000000000000000000000000400000000000000000000000000000000000000000000000000000000000000090000000000000000000000000000000000000000001000000000000000000",
      "type": "0x2",
      "transactionHash": "0x303b65611fbb04881941e0011a98f52bff6a7d760f85c411554b1f93c66909e6",
      "transactionIndex": "0x18",
      "blockHash": "0x4f9bb9631acf2663079ce7c41b31db82c680d56771ac2591fd8a969a0f746cc1",
      "blockNumber": "0x2c7f980",
      "gasUsed": "0x670f",
      "effectiveGasPrice": "0x4a851361a",
      "from": "0xca14e37c862465677caa064c20bdbb6673f6fe48",
      "to": "0xe5f8c0bd7eda98f24f0b5002fa485d473fe7e7eb",
      "contractAddress": null
    },
    {
      "status": "0x1",
      "cumulativeGasUsed": "0x2026c0",
      "logs": [
        {
          "address": "0xb574eb2fd1101a75070cda9673a6db207581c467",
          "topics": [
            "0x51eedbe668e048aec37e4dc0104031dbf295c9f3b35bfd9cb73a217b6ff81259",
            "0x000000000000000000000000e5f8c0bd7eda98f24f0b5002fa485d473fe7e7eb"
          ],
          "data": "0x0000000000000000000000000000000000000000033b2e3dc925d77eacc981c50000000000000000000000000000000000000000033b326c4b32848502daac4b000000000000000000000000000000000000000000084595161401484a000000",
          "blockHash": "0xedd6de077c96879fd9e7ecaf89fcf60f5d8d5982fbe5c3e9ffb2e64b110a948b",
          "blockNumber": "0x2c7f983",
          "blockTimestamp": "0x6a2b6cc7",
          "transactionHash": "0x05f3850b7ed4505f54703fcd37a56213c2464a98d51353c9c4fd574a9491ac84",
          "transactionIndex": "0xc",
          "logIndex": "0x23",
          "removed": false
        },
        {
          "address": "0xe5f8c0bd7eda98f24f0b5002fa485d473fe7e7eb",
          "topics": [
            "0xddf252ad1be2c89b69c2b068fc378daa952ba7f163c4a11628f55a4df523b3ef",
            "0x000000000000000000000000ca14e37c862465677caa064c20bdbb6673f6fe48",
            "0x000000000000000000000000b574eb2fd1101a75070cda9673a6db207581c467"
          ],
          "data": "0x000000000000000000000000000000000000000000000000000000000000004d",
          "blockHash": "0xedd6de077c96879fd9e7ecaf89fcf60f5d8d5982fbe5c3e9ffb2e64b110a948b",
          "blockNumber": "0x2c7f983",
          "blockTimestamp": "0x6a2b6cc7",
          "transactionHash": "0x05f3850b7ed4505f54703fcd37a56213c2464a98d51353c9c4fd574a9491ac84",
          "transactionIndex": "0xc",
          "logIndex": "0x24",
          "removed": false
        },
        {
          "address": "0xb574eb2fd1101a75070cda9673a6db207581c467",
          "topics": [
            "0x861660e9b7ead7183d53fe928b5638c7b57a7bcf16a89d7fdb04db65ce3ad6d5",
            "0x000000000000000000000000ca14e37c862465677caa064c20bdbb6673f6fe48",
            "0x000000000000000000000000e52c9aa4d90c9c1050228dc08e6c336da64251af",
            "0x000000000000000000000000e5f8c0bd7eda98f24f0b5002fa485d473fe7e7eb"
          ],
          "data": "0x000000000000000000000000000000000000000000000000000000000000004d",
          "blockHash": "0xedd6de077c96879fd9e7ecaf89fcf60f5d8d5982fbe5c3e9ffb2e64b110a948b",
          "blockNumber": "0x2c7f983",
          "blockTimestamp": "0x6a2b6cc7",
          "transactionHash": "0x05f3850b7ed4505f54703fcd37a56213c2464a98d51353c9c4fd574a9491ac84",
          "transactionIndex": "0xc",
          "logIndex": "0x25",
          "removed": false
        }
      ],
      "logsBloom": "0x00040000000000000000000000000000000000000000040000000000000000000000100000000000000000000004000080010000000000000000000000000000000100000000000000000008000400000000000000000000100000000000000000000000000008000000000000090000000000000000000000000010000000000000000040000010000000000000000000000000000000000000000000003000001000000000000000000000000000000800000000000000000000000000000000400002000000000000000000000000000000000000000000000000000000000080000000000000000000000000000008000000000001000000000110000000",
      "type": "0x2",
      "transactionHash": "0x05f3850b7ed4505f54703fcd37a56213c2464a98d51353c9c4fd574a9491ac84",
      "transactionIndex": "0xc",
      "blockHash": "0xedd6de077c96879fd9e7ecaf89fcf60f5d8d5982fbe5c3e9ffb2e64b110a948b",
      "blockNumber": "0x2c7f983",
      "gasUsed": "0x13d7a",
      "effectiveGasPrice": "0x4a851361a",
      "from": "0xca14e37c862465677caa064c20bdbb6673f6fe48",
      "to": "0xb574eb2fd1101a75070cda9673a6db207581c467",
      "contractAddress": null
    },
    {
      "status": "0x1",
      "cumulativeGasUsed": "0x34088e",
      "logs": [
        {
          "address": "0xb574eb2fd1101a75070cda9673a6db207581c467",
          "topics": [
            "0xbcb7cadb21c559b49c8be5b6a40b4ca39f4fb3b53dd0d707fc2f6f5300cd76b7",
            "0x0547748f9510c5c7cd0b76f68435407ecc00699ebd19d0b8e8323a6f83263269",
            "0x000000000000000000000000e52c9aa4d90c9c1050228dc08e6c336da64251af"
          ],
          "data": "0x",
          "blockHash": "0x3193d819ca48057fd5fa7730076c633abb04bd70ef6dc5c19c4dec00f293bdfb",
          "blockNumber": "0x2c7f986",
          "blockTimestamp": "0x6a2b6cc9",
          "transactionHash": "0xbca5cf509e48ac513086a7a0551a19fd0add26f0d9785afbf7b6389fc1f9914b",
          "transactionIndex": "0x1d",
          "logIndex": "0x3e",
          "removed": false
        },
        {
          "address": "0xcdea155469985f1e6910bbc53278cb2008bff207",
          "topics": [
            "0xddf252ad1be2c89b69c2b068fc378daa952ba7f163c4a11628f55a4df523b3ef",
            "0x000000000000000000000000b574eb2fd1101a75070cda9673a6db207581c467",
            "0x000000000000000000000000e52c9aa4d90c9c1050228dc08e6c336da64251af"
          ],
          "data": "0x0000000000000000000000000000000000000000000000000449295d20dee1e2",
          "blockHash": "0x3193d819ca48057fd5fa7730076c633abb04bd70ef6dc5c19c4dec00f293bdfb",
          "blockNumber": "0x2c7f986",
          "blockTimestamp": "0x6a2b6cc9",
          "transactionHash": "0xbca5cf509e48ac513086a7a0551a19fd0add26f0d9785afbf7b6389fc1f9914b",
          "transactionIndex": "0x1d",
          "logIndex": "0x3f",
          "removed": false
        },
        {
          "address": "0xb574eb2fd1101a75070cda9673a6db207581c467",
          "topics": [
            "0x066ba4a8f1b0176abba8cd70012fabcaa801a97916823e068d94ec15deb9037a",
            "0x000000000000000000000000e52c9aa4d90c9c1050228dc08e6c336da64251af",
            "0x000000000000000000000000cdea155469985f1e6910bbc53278cb2008bff207",
            "0x000000000000000000000000e5f8c0bd7eda98f24f0b5002fa485d473fe7e7eb"
          ],
          "data": "0x0000000000000000000000000000000000000000000000000449295d20dee1e2",
          "blockHash": "0x3193d819ca48057fd5fa7730076c633abb04bd70ef6dc5c19c4dec00f293bdfb",
          "blockNumber": "0x2c7f986",
          "blockTimestamp": "0x6a2b6cc9",
          "transactionHash": "0xbca5cf509e48ac513086a7a0551a19fd0add26f0d9785afbf7b6389fc1f9914b",
          "transactionIndex": "0x1d",
          "logIndex": "0x40",
          "removed": false
        }
      ],
      "logsBloom": "0x00040000000000000000000000000000000000000000001000000000000000000000000000000000000000000000000000010000000000000000000000000000000100000000001000080008000400000000000000000000000000000000000100000040000050000000001000090000000000000000000000000010000000200000000000000014000000000000000000000000000000000000000000002000001000000000002000000000000000000800000000000000000000000000008080080002000000000008000000000000000000000000000000000000000000000000000000000000000000000000000000000000000000000000000110000000",
      "type": "0x2",
      "transactionHash": "0xbca5cf509e48ac513086a7a0551a19fd0add26f0d9785afbf7b6389fc1f9914b",
      "transactionIndex": "0x1d",
      "blockHash": "0x3193d819ca48057fd5fa7730076c633abb04bd70ef6dc5c19c4dec00f293bdfb",
      "blockNumber": "0x2c7f986",
      "gasUsed": "0x17b49",
      "effectiveGasPrice": "0x4a851361a",
      "from": "0xe52c9aa4d90c9c1050228dc08e6c336da64251af",
      "to": "0xb574eb2fd1101a75070cda9673a6db207581c467",
      "contractAddress": null
    },
    {
      "status": "0x1",
      "cumulativeGasUsed": "0x36f8ee",
      "logs": [
        {
          "address": "0x254a2627eb0e2e3ded4cb2225afb8815f05e04e9",
          "topics": [
            "0x8c5be1e5ebec7d5bd14f71427d1e84f3dd0314c0f7b2291e5b200ac8c7c3b925",
            "0x0000000000000000000000002968871b9780b38ffcf2221653abb09ad1038552",
            "0x000000000000000000000000b574eb2fd1101a75070cda9673a6db207581c467"
          ],
          "data": "0xffffffffffffffffffffffffffffffffffffffffffffffffffffffffffffffff",
          "blockHash": "0x3b332ddef57d3d7bb003641bdd5a102c2cb9710ecd74b6edcfc5711e3f60bcd9",
          "blockNumber": "0x2c7f98d",
          "blockTimestamp": "0x6a2b6ccc",
          "transactionHash": "0x21cf0758d67f5580ca6070c14de61d8de1ad1def345fd460b5177e8bc71d3eb5",
          "transactionIndex": "0x1e",
          "logIndex": "0x4b",
          "removed": false
        }
      ],
      "logsBloom": "0x00000000000000000000000000000000000000000000000000000000000000000000000000000000000000000000000000200000000000000000000000200000000000000000000000000000000400000000000000000000000000000000000000000000000000000000000000010000004020000000000000000000000000000000000000000000000000000000000000000000000000000000000000000000021000000000000000000000000000000000000000000000000000000000000000000000000000000000000000000000000000000000000000000800000000000010000000000000000800000000000000000000000000000000000000000000",
      "type": "0x2",
      "transactionHash": "0x21cf0758d67f5580ca6070c14de61d8de1ad1def345fd460b5177e8bc71d3eb5",
      "transactionIndex": "0x1e",
      "blockHash": "0x3b332ddef57d3d7bb003641bdd5a102c2cb9710ecd74b6edcfc5711e3f60bcd9",
      "blockNumber": "0x2c7f98d",
      "gasUsed": "0x670f",
      "effectiveGasPrice": "0x4a851361a",
      "from": "0x2968871b9780b38ffcf2221653abb09ad1038552",
      "to": "0x254a2627eb0e2e3ded4cb2225afb8815f05e04e9",
      "contractAddress": null
    },
    {
      "status": "0x1",
      "cumulativeGasUsed": "0x12c7ab",
      "logs": [
        {
          "address": "0xb574eb2fd1101a75070cda9673a6db207581c467",
          "topics": [
            "0x51eedbe668e048aec37e4dc0104031dbf295c9f3b35bfd9cb73a217b6ff81259",
            "0x000000000000000000000000254a2627eb0e2e3ded4cb2225afb8815f05e04e9"
          ],
          "data": "0x0000000000000000000000000000000000000000033b2e5aa72dbef05476fffa0000000000000000000000000000000000000000033b36df133cced47bc5f027000000000000000000000000000000000000000000108b2a2c28029094000000",
          "blockHash": "0x382b58eb4419d3043711f2f505239e81cfaa51180d2010787d25fa8ea47b875a",
          "blockNumber": "0x2c7f994",
          "blockTimestamp": "0x6a2b6cd0",
          "transactionHash": "0xe77e3e10dff241e22be4c72139f96b1805d0c4dbd6325cd923f02a0e140883db",
          "transactionIndex": "0xa",
          "logIndex": "0x1a",
          "removed": false
        },
        {
          "address": "0x254a2627eb0e2e3ded4cb2225afb8815f05e04e9",
          "topics": [
            "0xddf252ad1be2c89b69c2b068fc378daa952ba7f163c4a11628f55a4df523b3ef",
            "0x0000000000000000000000002968871b9780b38ffcf2221653abb09ad1038552",
            "0x000000000000000000000000b574eb2fd1101a75070cda9673a6db207581c467"
          ],
          "data": "0x00000000000000000000000000000000000000000000000000000001dcdb4a3d",
          "blockHash": "0x382b58eb4419d3043711f2f505239e81cfaa51180d2010787d25fa8ea47b875a",
          "blockNumber": "0x2c7f994",
          "blockTimestamp": "0x6a2b6cd0",
          "transactionHash": "0xe77e3e10dff241e22be4c72139f96b1805d0c4dbd6325cd923f02a0e140883db",
          "transactionIndex": "0xa",
          "logIndex": "0x1b",
          "removed": false
        },
        {
          "address": "0xb574eb2fd1101a75070cda9673a6db207581c467",
          "topics": [
            "0x861660e9b7ead7183d53fe928b5638c7b57a7bcf16a89d7fdb04db65ce3ad6d5",
            "0x0000000000000000000000002968871b9780b38ffcf2221653abb09ad1038552",
            "0x0000000000000000000000002968871b9780b38ffcf2221653abb09ad1038552",
            "0x000000000000000000000000254a2627eb0e2e3ded4cb2225afb8815f05e04e9"
          ],
          "data": "0x00000000000000000000000000000000000000000000000000000001dcdb4a3d",
          "blockHash": "0x382b58eb4419d3043711f2f505239e81cfaa51180d2010787d25fa8ea47b875a",
          "blockNumber": "0x2c7f994",
          "blockTimestamp": "0x6a2b6cd0",
          "transactionHash": "0xe77e3e10dff241e22be4c72139f96b1805d0c4dbd6325cd923f02a0e140883db",
          "transactionIndex": "0xa",
          "logIndex": "0x1c",
          "removed": false
        }
      ],
      "logsBloom": "0x00040000000000000000000000000000000000000000000000000000000000000000100000000000000000000004000080200000000000000000000000000000000000000000000000000008000400000000000000000000000000000000000000000000000008000000000000010000004020000000000000000010000000000000400000000010000000000000000000000000000000000000000000001000001000000000000000000000000000000800000000000000000000000000000000000002000000000000000000000000000000000000000000200800000000000000000000000000000800000004000008000000000000000000000000000000",
      "type": "0x2",
      "transactionHash": "0xe77e3e10dff241e22be4c72139f96b1805d0c4dbd6325cd923f02a0e140883db",
      "transactionIndex": "0xa",
      "blockHash": "0x382b58eb4419d3043711f2f505239e81cfaa51180d2010787d25fa8ea47b875a",
      "blockNumber": "0x2c7f994",
      "gasUsed": "0x13d7a",
      "effectiveGasPrice": "0x4a851361a",
      "from": "0x2968871b9780b38ffcf2221653abb09ad1038552",
      "to": "0xb574eb2fd1101a75070cda9673a6db207581c467",
      "contractAddress": null
    },
    {
      "status": "0x1",
      "cumulativeGasUsed": "0x315be7",
      "logs": [
        {
          "address": "0xb574eb2fd1101a75070cda9673a6db207581c467",
          "topics": [
            "0xbcb7cadb21c559b49c8be5b6a40b4ca39f4fb3b53dd0d707fc2f6f5300cd76b7",
            "0x943a634da5a8f6d1c75aca5e841d08d9b19f5de12326ea7955e2033d21c8deba",
            "0x0000000000000000000000002968871b9780b38ffcf2221653abb09ad1038552"
          ],
          "data": "0x",
          "blockHash": "0xc69590f947e9f41cbfe2b2394b164069b5ead0a6b44266e36b0a154f91496620",
          "blockNumber": "0x2c7f997",
          "blockTimestamp": "0x6a2b6cd1",
          "transactionHash": "0x0941d197e1c4e86f004a9b48eb6f61a48b76b909a126f04fc58cf14cdb23821b",
          "transactionIndex": "0x17",
          "logIndex": "0x30",
          "removed": false
        },
        {
          "address": "0xe5f8c0bd7eda98f24f0b5002fa485d473fe7e7eb",
          "topics": [
            "0xddf252ad1be2c89b69c2b068fc378daa952ba7f163c4a11628f55a4df523b3ef",
            "0x000000000000000000000000b574eb2fd1101a75070cda9673a6db207581c467",
            "0x0000000000000000000000002968871b9780b38ffcf2221653abb09ad1038552"
          ],
          "data": "0x00000000000000000000000000000000000000000000000000000002540be400",
          "blockHash": "0xc69590f947e9f41cbfe2b2394b164069b5ead0a6b44266e36b0a154f91496620",
          "blockNumber": "0x2c7f997",
          "blockTimestamp": "0x6a2b6cd1",
          "transactionHash": "0x0941d197e1c4e86f004a9b48eb6f61a48b76b909a126f04fc58cf14cdb23821b",
          "transactionIndex": "0x17",
          "logIndex": "0x31",
          "removed": false
        },
        {
          "address": "0xb574eb2fd1101a75070cda9673a6db207581c467",
          "topics": [
            "0x066ba4a8f1b0176abba8cd70012fabcaa801a97916823e068d94ec15deb9037a",
            "0x0000000000000000000000002968871b9780b38ffcf2221653abb09ad1038552",
            "0x000000000000000000000000e5f8c0bd7eda98f24f0b5002fa485d473fe7e7eb",
            "0x000000000000000000000000254a2627eb0e2e3ded4cb2225afb8815f05e04e9"
          ],
          "data": "0x00000000000000000000000000000000000000000000000000000002540be400",
          "blockHash": "0xc69590f947e9f41cbfe2b2394b164069b5ead0a6b44266e36b0a154f91496620",
          "blockNumber": "0x2c7f997",
          "blockTimestamp": "0x6a2b6cd1",
          "transactionHash": "0x0941d197e1c4e86f004a9b48eb6f61a48b76b909a126f04fc58cf14cdb23821b",
          "transactionIndex": "0x17",
          "logIndex": "0x32",
          "removed": false
        }
      ],
      "logsBloom": "0x000400000000000000000000000000000000000000000000000000000000000000000000000000000000000000000000000100000000000000000000000000000000000000000000000a0009000400000000000000000000100000000000000100000000000040000000000000090000004000000000000000000010000000200000400040000010000000000000000000000000000000000000000000002000001000000020002000000000000000000800000000000000000000000000000000480002000000000000000000000000000000000000000000200000000000000000000000000000000800000004000000000000000000000000000000000000",
      "type": "0x2",
      "transactionHash": "0x0941d197e1c4e86f004a9b48eb6f61a48b76b909a126f04fc58cf14cdb23821b",
      "transactionIndex": "0x17",
      "blockHash": "0xc69590f947e9f41cbfe2b2394b164069b5ead0a6b44266e36b0a154f91496620",
      "blockNumber": "0x2c7f997",
      "gasUsed": "0x145b3",
      "effectiveGasPrice": "0x4a851361a",
      "from": "0x2968871b9780b38ffcf2221653abb09ad1038552",
      "to": "0xb574eb2fd1101a75070cda9673a6db207581c467",
      "contractAddress": null
    }
  ],
  "libraries": [],
  "pending": [],
  "returns": {},
  "timestamp": 1781230804544,
  "chain": 5042002,
  "commit": "8420826"
}