{
  "transactions": [
    {
      "hash": "0x6532e9f71a50ca30276c3d3b675121f426806f28f1b598845a1027fddeaaa5f5",
      "transactionType": "CREATE",
      "contractName": "MockPriceOracle",
      "contractAddress": "0xb241a035fb7a8c46e1b8878d02bf666339a2005b",
      "function": null,
      "arguments": [
        "0xCa14e37C862465677caA064c20BDBB6673F6FE48"
      ],
      "transaction": {
        "from": "0xca14e37c862465677caa064c20bdbb6673f6fe48",
        "gas": "0x64a0e",
        "value": "0x0",
        "input": "0x6080346100b957601f61051838819003918201601f19168301916001600160401b038311848410176100bd578084926020946040528339810103126100b957516001600160a01b0390818116908190036100b95780156100a1575f80546001600160a01b03198116831782556040519316907f8be0079c531659141344cd1fd0a4f28419497f9722a3daafe3b4186f6b6457e09080a361044690816100d28239f35b604051631e4fbdf760e01b81525f6004820152602490fd5b5f80fd5b634e487b7160e01b5f52604160045260245ffdfe6040608081526004361015610012575f80fd5b5f3560e01c8062e4768b1461039c5780632e48152c146102e157806341976e0914610345578063452a93201461031d5780635b14f183146102e1578063715018a61461028a57806389eba0d2146101e35780638a0dac4a1461017d5780638da5cb5b14610156578063aea910781461011f5763f2fde38b14610092575f80fd5b3461011b57602036600319011261011b576100ab6103cf565b6100b36103e5565b6001600160a01b0390811691821561010557505f54826bffffffffffffffffffffffff60a01b8216175f55167f8be0079c531659141344cd1fd0a4f28419497f9722a3daafe3b4186f6b6457e05f80a3005b51631e4fbdf760e01b81525f6004820152602490fd5b5f80fd5b503461011b57602036600319011261011b576020906001600160a01b036101446103cf565b165f5260038252805f20549051908152f35b503461011b575f36600319011261011b575f5490516001600160a01b039091168152602090f35b3461011b57602036600319011261011b576101966103cf565b61019e6103e5565b600280546001600160a01b0319166001600160a01b039290921691821790557fe6c09ffe4572dc9ceaa5ddde4ae41befa655d6fdfe8052077af0970f700e942e5f80a2005b503461011b578060031936011261011b576101fc6103cf565b6024359081151580920361011b576002546001600160a01b03919082163314158061027d575b61026c57916020917f4533a56f1096a03ba5484172ac13134b7fbf424058ae336a1dcf8ffdf5e92ac7931693845f5260018352805f2060ff1981541660ff841617905551908152a2005b835163ea8e4eb560e01b8152600490fd5b50815f5416331415610222565b3461011b575f36600319011261011b576102a26103e5565b5f80546001600160a01b0319811682556001600160a01b03167f8be0079c531659141344cd1fd0a4f28419497f9722a3daafe3b4186f6b6457e08280a3005b503461011b57602036600319011261011b576020906001600160a01b036103066103cf565b165f526001825260ff815f20541690519015158152f35b503461011b575f36600319011261011b5760025490516001600160a01b039091168152602090f35b503461011b57602036600319011261011b576001600160a01b036103676103cf565b16805f526003602052815f2054908115610385575060209151908152f35b602490835190630dcaf86b60e01b82526004820152fd5b503461011b578060031936011261011b576001600160a01b036103bd6103cf565b165f9081526003602052206024359055005b600435906001600160a01b038216820361011b57565b5f546001600160a01b031633036103f857565b60405163118cdaa760e01b8152336004820152602490fdfea2646970667358221220e06dc393bcd82a1bed2639d664d3a2335bf6f6602e34ea778c2ee413066eae3b64736f6c63430008180033000000000000000000000000ca14e37c862465677caa064c20bdbb6673f6fe48",
        "nonce": "0x0",
        "chainId": "0x4cef52"
      },
      "additionalContracts": [],
      "isFixedGasLimit": false
    },
    {
      "hash": "0xe012016cf7fcf3c00485ed478d7e7add1549bcff1f8ef9afb4ad49253fbc99d5",
      "transactionType": "CALL",
      "contractName": "MockPriceOracle",
      "contractAddress": "0xb241a035fb7a8c46e1b8878d02bf666339a2005b",
      "function": "setGuardian(address)",
      "arguments": [
        "0xCa14e37C862465677caA064c20BDBB6673F6FE48"
      ],
      "transaction": {
        "from": "0xca14e37c862465677caa064c20bdbb6673f6fe48",
        "to": "0xb241a035fb7a8c46e1b8878d02bf666339a2005b",
        "gas": "0xfee8",
        "value": "0x0",
        "input": "0x8a0dac4a000000000000000000000000ca14e37c862465677caa064c20bdbb6673f6fe48",
        "nonce": "0x1",
        "chainId": "0x4cef52"
      },
      "additionalContracts": [],
      "isFixedGasLimit": false
    },
    {
      "hash": "0x1e9c6137478b594411230f93b846f62eadd211fd3d0912880799b1958b852495",
      "transactionType": "CREATE",
      "contractName": "MockERC20",
      "contractAddress": "0xe5f8c0bd7eda98f24f0b5002fa485d473fe7e7eb",
      "function": null,
      "arguments": [
        "USD Coin (Test)",
        "USDC",
        "6"
      ],
      "transaction": {
        "from": "0xca14e37c862465677caa064c20bdbb6673f6fe48",
        "gas": "0xa4f89",
        "value": "0x0",
        "input": "0x60a060405234620003235762000b12803803806200001d8162000327565b9283398101606082820312620003235781516001600160401b03908181116200032357826200004e9185016200034d565b906020928385015182811162000323576040916200006e9187016200034d565b9401519360ff85168503620003235782518281116200022e576003918254916001958684811c9416801562000318575b8885101462000304578190601f94858111620002b1575b5088908583116001146200024e575f9262000242575b50505f1982861b1c191690861b1783555b80519384116200022e5760049586548681811c9116801562000223575b828210146200021057838111620001c8575b50809285116001146200015e57509383949184925f9562000152575b50501b925f19911b1c19161790555b6080526040516107549081620003be82396080518161031d0152f35b015193505f8062000127565b92919084601f198116885f52855f20955f905b89838310620001ad575050501062000193575b50505050811b01905562000136565b01519060f8845f19921b161c191690555f80808062000184565b85870151895590970196948501948893509081019062000171565b875f52815f208480880160051c82019284891062000206575b0160051c019087905b828110620001fa5750506200010b565b5f8155018790620001ea565b92508192620001e1565b602288634e487b7160e01b5f525260245ffd5b90607f1690620000f9565b634e487b7160e01b5f52604160045260245ffd5b015190505f80620000cb565b90889350601f19831691875f528a5f20925f5b8c8282106200029a575050841162000282575b505050811b018355620000dc565b01515f1983881b60f8161c191690555f808062000274565b8385015186558c9790950194938401930162000261565b909150855f52885f208580850160051c8201928b8610620002fa575b918a91869594930160051c01915b828110620002eb575050620000b5565b5f81558594508a9101620002db565b92508192620002cd565b634e487b7160e01b5f52602260045260245ffd5b93607f16936200009e565b5f80fd5b6040519190601f01601f191682016001600160401b038111838210176200022e57604052565b919080601f84011215620003235782516001600160401b0381116200022e5760209062000383601f8201601f1916830162000327565b9281845282828701011162000323575f5b818110620003a95750825f9394955001015290565b85810183015184820184015282016200039456fe6080604090808252600480361015610015575f80fd5b5f3560e01c91826306fdde03146104f957508163095ea7b31461045157816318160ddd1461043357816323b872dd14610341578163313ce5671461030457816340c10f191461025f57816370a082311461022957816395d89b411461010a57508063a9059cbb146100da5763dd62ed3e1461008e575f80fd5b346100d657806003193601126100d6576020906100a9610618565b6100b161062e565b9060018060a01b038091165f5260018452825f2091165f528252805f20549051908152f35b5f80fd5b50346100d657806003193601126100d6576020906101036100f9610618565b6024359033610644565b5160018152f35b82346100d6575f3660031901126100d6578051905f835460018160011c906001831692831561021f575b602093848410811461020c578388529081156101f0575060011461019c575b505050829003601f01601f191682019267ffffffffffffffff84118385101761018957508291826101859252826105d1565b0390f35b604190634e487b7160e01b5f525260245ffd5b5f878152929350837f8a35acfbc15ff81a39ae7d344fd709f28e8600b4aa8c65c6b64bfe7fe36bd19b5b8385106101dc5750505050830101848080610153565b8054888601830152930192849082016101c6565b60ff1916878501525050151560051b8401019050848080610153565b602289634e487b7160e01b5f525260245ffd5b91607f1691610134565b82346100d65760203660031901126100d6576020906001600160a01b0361024e610618565b165f525f8252805f20549051908152f35b82346100d657806003193601126100d657610278610618565b6001600160a01b031691602435919083156102ef57600254908382018092116102dc57505f927fddf252ad1be2c89b69c2b068fc378daa952ba7f163c4a11628f55a4df523b3ef9260209260025585855284835280852082815401905551908152a3005b601190634e487b7160e01b5f525260245ffd5b5f602492519163ec442f0560e01b8352820152fd5b82346100d6575f3660031901126100d6576020905160ff7f0000000000000000000000000000000000000000000000000000000000000000168152f35b9050346100d65760603660031901126100d65761035c610618565b61036461062e565b906044359260018060a01b038216805f526001602052855f20335f52602052855f2054915f19831061039f575b602087610103888888610644565b8583106104075781156103f15733156103db57505f90815260016020908152868220338352815290869020918590039091558290610103610391565b6024905f885191634a1406b160e11b8352820152fd5b6024905f88519163e602df0560e01b8352820152fd5b8651637dc7a0d960e11b8152339181019182526020820193909352604081018690528291506060010390fd5b82346100d6575f3660031901126100d6576020906002549051908152f35b82346100d657806003193601126100d65761046a610618565b6024359033156104e3576001600160a01b03169081156104cd5760209350335f5260018452825f20825f52845280835f205582519081527f8c5be1e5ebec7d5bd14f71427d1e84f3dd0314c0f7b2291e5b200ac8c7c3b925843392a35160018152f35b8251634a1406b160e11b81525f81860152602490fd5b825163e602df0560e01b81525f81860152602490fd5b83346100d6575f3660031901126100d6575f60035460018160011c90600183169283156105c7575b602093848410811461020c578388529081156101f0575060011461057157505050829003601f01601f191682019267ffffffffffffffff84118385101761018957508291826101859252826105d1565b60035f908152929350837fc2575a0e9e593c00f959f8c92f12db2869c3395a3b0502d05e2516446f71f85b5b8385106105b35750505050830101848080610153565b80548886018301529301928490820161059d565b91607f1691610521565b602080825282518183018190529093925f5b82811061060457505060409293505f838284010152601f8019910116010190565b8181018601518482016040015285016105e3565b600435906001600160a01b03821682036100d657565b602435906001600160a01b03821682036100d657565b916001600160a01b0380841692831561070657169283156106ee57825f525f60205260405f2054908282106106bc5750817fddf252ad1be2c89b69c2b068fc378daa952ba7f163c4a11628f55a4df523b3ef92602092855f525f84520360405f2055845f5260405f20818154019055604051908152a3565b60405163391434e360e21b81526001600160a01b03919091166004820152602481019190915260448101829052606490fd5b60405163ec442f0560e01b81525f6004820152602490fd5b604051634b637e8f60e11b81525f6004820152602490fdfea26469706673582212200029643922f54031b6fb18452716d162ab316346093e05b97e4377a5d5566bbc64736f6c63430008180033000000000000000000000000000000000000000000000000000000000000006000000000000000000000000000000000000000000000000000000000000000a00000000000000000000000000000000000000000000000000000000000000006000000000000000000000000000000000000000000000000000000000000000f55534420436f696e20285465737429000000000000000000000000000000000000000000000000000000000000000000000000000000000000000000000000045553444300000000000000000000000000000000000000000000000000000000",
        "nonce": "0x2",
        "chainId": "0x4cef52"
      },
      "additionalContracts": [],
      "isFixedGasLimit": false
    },
    {
      "hash": "0x23a9e83e2c0134469898e10edadc2075fe1aa5963da074fe358b7d53af19cac0",
      "transactionType": "CREATE",
      "contractName": "MockERC20",
      "contractAddress": "0x254a2627eb0e2e3ded4cb2225afb8815f05e04e9",
      "function": null,
      "arguments": [
        "Euro Coin (Test)",
        "EURC",
        "6"
      ],
      "transaction": {
        "from": "0xca14e37c862465677caa064c20bdbb6673f6fe48",
        "gas": "0xa4f99",
        "value": "0x0",
        "input": "0x60a060405234620003235762000b12803803806200001d8162000327565b9283398101606082820312620003235781516001600160401b03908181116200032357826200004e9185016200034d565b906020928385015182811162000323576040916200006e9187016200034d565b9401519360ff85168503620003235782518281116200022e576003918254916001958684811c9416801562000318575b8885101462000304578190601f94858111620002b1575b5088908583116001146200024e575f9262000242575b50505f1982861b1c191690861b1783555b80519384116200022e5760049586548681811c9116801562000223575b828210146200021057838111620001c8575b50809285116001146200015e57509383949184925f9562000152575b50501b925f19911b1c19161790555b6080526040516107549081620003be82396080518161031d0152f35b015193505f8062000127565b92919084601f198116885f52855f20955f905b89838310620001ad575050501062000193575b50505050811b01905562000136565b01519060f8845f19921b161c191690555f80808062000184565b85870151895590970196948501948893509081019062000171565b875f52815f208480880160051c82019284891062000206575b0160051c019087905b828110620001fa5750506200010b565b5f8155018790620001ea565b92508192620001e1565b602288634e487b7160e01b5f525260245ffd5b90607f1690620000f9565b634e487b7160e01b5f52604160045260245ffd5b015190505f80620000cb565b90889350601f19831691875f528a5f20925f5b8c8282106200029a575050841162000282575b505050811b018355620000dc565b01515f1983881b60f8161c191690555f808062000274565b8385015186558c9790950194938401930162000261565b909150855f52885f208580850160051c8201928b8610620002fa575b918a91869594930160051c01915b828110620002eb575050620000b5565b5f81558594508a9101620002db565b92508192620002cd565b634e487b7160e01b5f52602260045260245ffd5b93607f16936200009e565b5f80fd5b6040519190601f01601f191682016001600160401b038111838210176200022e57604052565b919080601f84011215620003235782516001600160401b0381116200022e5760209062000383601f8201601f1916830162000327565b9281845282828701011162000323575f5b818110620003a95750825f9394955001015290565b85810183015184820184015282016200039456fe6080604090808252600480361015610015575f80fd5b5f3560e01c91826306fdde03146104f957508163095ea7b31461045157816318160ddd1461043357816323b872dd14610341578163313ce5671461030457816340c10f191461025f57816370a082311461022957816395d89b411461010a57508063a9059cbb146100da5763dd62ed3e1461008e575f80fd5b346100d657806003193601126100d6576020906100a9610618565b6100b161062e565b9060018060a01b038091165f5260018452825f2091165f528252805f20549051908152f35b5f80fd5b50346100d657806003193601126100d6576020906101036100f9610618565b6024359033610644565b5160018152f35b82346100d6575f3660031901126100d6578051905f835460018160011c906001831692831561021f575b602093848410811461020c578388529081156101f0575060011461019c575b505050829003601f01601f191682019267ffffffffffffffff84118385101761018957508291826101859252826105d1565b0390f35b604190634e487b7160e01b5f525260245ffd5b5f878152929350837f8a35acfbc15ff81a39ae7d344fd709f28e8600b4aa8c65c6b64bfe7fe36bd19b5b8385106101dc5750505050830101848080610153565b8054888601830152930192849082016101c6565b60ff1916878501525050151560051b8401019050848080610153565b602289634e487b7160e01b5f525260245ffd5b91607f1691610134565b82346100d65760203660031901126100d6576020906001600160a01b0361024e610618565b165f525f8252805f20549051908152f35b82346100d657806003193601126100d657610278610618565b6001600160a01b031691602435919083156102ef57600254908382018092116102dc57505f927fddf252ad1be2c89b69c2b068fc378daa952ba7f163c4a11628f55a4df523b3ef9260209260025585855284835280852082815401905551908152a3005b601190634e487b7160e01b5f525260245ffd5b5f602492519163ec442f0560e01b8352820152fd5b82346100d6575f3660031901126100d6576020905160ff7f0000000000000000000000000000000000000000000000000000000000000000168152f35b9050346100d65760603660031901126100d65761035c610618565b61036461062e565b906044359260018060a01b038216805f526001602052855f20335f52602052855f2054915f19831061039f575b602087610103888888610644565b8583106104075781156103f15733156103db57505f90815260016020908152868220338352815290869020918590039091558290610103610391565b6024905f885191634a1406b160e11b8352820152fd5b6024905f88519163e602df0560e01b8352820152fd5b8651637dc7a0d960e11b8152339181019182526020820193909352604081018690528291506060010390fd5b82346100d6575f3660031901126100d6576020906002549051908152f35b82346100d657806003193601126100d65761046a610618565b6024359033156104e3576001600160a01b03169081156104cd5760209350335f5260018452825f20825f52845280835f205582519081527f8c5be1e5ebec7d5bd14f71427d1e84f3dd0314c0f7b2291e5b200ac8c7c3b925843392a35160018152f35b8251634a1406b160e11b81525f81860152602490fd5b825163e602df0560e01b81525f81860152602490fd5b83346100d6575f3660031901126100d6575f60035460018160011c90600183169283156105c7575b602093848410811461020c578388529081156101f0575060011461057157505050829003601f01601f191682019267ffffffffffffffff84118385101761018957508291826101859252826105d1565b60035f908152929350837fc2575a0e9e593c00f959f8c92f12db2869c3395a3b0502d05e2516446f71f85b5b8385106105b35750505050830101848080610153565b80548886018301529301928490820161059d565b91607f1691610521565b602080825282518183018190529093925f5b82811061060457505060409293505f838284010152601f8019910116010190565b8181018601518482016040015285016105e3565b600435906001600160a01b03821682036100d657565b602435906001600160a01b03821682036100d657565b916001600160a01b0380841692831561070657169283156106ee57825f525f60205260405f2054908282106106bc5750817fddf252ad1be2c89b69c2b068fc378daa952ba7f163c4a11628f55a4df523b3ef92602092855f525f84520360405f2055845f5260405f20818154019055604051908152a3565b60405163391434e360e21b81526001600160a01b03919091166004820152602481019190915260448101829052606490fd5b60405163ec442f0560e01b81525f6004820152602490fd5b604051634b637e8f60e11b81525f6004820152602490fdfea26469706673582212200029643922f54031b6fb18452716d162ab316346093e05b97e4377a5d5566bbc64736f6c63430008180033000000000000000000000000000000000000000000000000000000000000006000000000000000000000000000000000000000000000000000000000000000a0000000000000000000000000000000000000000000000000000000000000000600000000000000000000000000000000000000000000000000000000000000104575726f20436f696e202854657374290000000000000000000000000000000000000000000000000000000000000000000000000000000000000000000000044555524300000000000000000000000000000000000000000000000000000000",
        "nonce": "0x3",
        "chainId": "0x4cef52"
      },
      "additionalContracts": [],
      "isFixedGasLimit": false
    },
    {
      "hash": "0x70f58ad4f2d2fbde3510453a270760c39b57f140149cca0c77ded2d741d624f3",
      "transactionType": "CREATE",
      "contractName": "MockERC20",
      "contractAddress": "0xcdea155469985f1e6910bbc53278cb2008bff207",
      "function": null,
      "arguments": [
        "Wrapped Ether (Test)",
        "WETH",
        "18"
      ],
      "transaction": {
        "from": "0xca14e37c862465677caa064c20bdbb6673f6fe48",
        "gas": "0xa4fd7",
        "value": "0x0",
        "input": "0x60a060405234620003235762000b12803803806200001d8162000327565b9283398101606082820312620003235781516001600160401b03908181116200032357826200004e9185016200034d565b906020928385015182811162000323576040916200006e9187016200034d565b9401519360ff85168503620003235782518281116200022e576003918254916001958684811c9416801562000318575b8885101462000304578190601f94858111620002b1575b5088908583116001146200024e575f9262000242575b50505f1982861b1c191690861b1783555b80519384116200022e5760049586548681811c9116801562000223575b828210146200021057838111620001c8575b50809285116001146200015e57509383949184925f9562000152575b50501b925f19911b1c19161790555b6080526040516107549081620003be82396080518161031d0152f35b015193505f8062000127565b92919084601f198116885f52855f20955f905b89838310620001ad575050501062000193575b50505050811b01905562000136565b01519060f8845f19921b161c191690555f80808062000184565b85870151895590970196948501948893509081019062000171565b875f52815f208480880160051c82019284891062000206575b0160051c019087905b828110620001fa5750506200010b565b5f8155018790620001ea565b92508192620001e1565b602288634e487b7160e01b5f525260245ffd5b90607f1690620000f9565b634e487b7160e01b5f52604160045260245ffd5b015190505f80620000cb565b90889350601f19831691875f528a5f20925f5b8c8282106200029a575050841162000282575b505050811b018355620000dc565b01515f1983881b60f8161c191690555f808062000274565b8385015186558c9790950194938401930162000261565b909150855f52885f208580850160051c8201928b8610620002fa575b918a91869594930160051c01915b828110620002eb575050620000b5565b5f81558594508a9101620002db565b92508192620002cd565b634e487b7160e01b5f52602260045260245ffd5b93607f16936200009e565b5f80fd5b6040519190601f01601f191682016001600160401b038111838210176200022e57604052565b919080601f84011215620003235782516001600160401b0381116200022e5760209062000383601f8201601f1916830162000327565b9281845282828701011162000323575f5b818110620003a95750825f9394955001015290565b85810183015184820184015282016200039456fe6080604090808252600480361015610015575f80fd5b5f3560e01c91826306fdde03146104f957508163095ea7b31461045157816318160ddd1461043357816323b872dd14610341578163313ce5671461030457816340c10f191461025f57816370a082311461022957816395d89b411461010a57508063a9059cbb146100da5763dd62ed3e1461008e575f80fd5b346100d657806003193601126100d6576020906100a9610618565b6100b161062e565b9060018060a01b038091165f5260018452825f2091165f528252805f20549051908152f35b5f80fd5b50346100d657806003193601126100d6576020906101036100f9610618565b6024359033610644565b5160018152f35b82346100d6575f3660031901126100d6578051905f835460018160011c906001831692831561021f575b602093848410811461020c578388529081156101f0575060011461019c575b505050829003601f01601f191682019267ffffffffffffffff84118385101761018957508291826101859252826105d1565b0390f35b604190634e487b7160e01b5f525260245ffd5b5f878152929350837f8a35acfbc15ff81a39ae7d344fd709f28e8600b4aa8c65c6b64bfe7fe36bd19b5b8385106101dc5750505050830101848080610153565b8054888601830152930192849082016101c6565b60ff1916878501525050151560051b8401019050848080610153565b602289634e487b7160e01b5f525260245ffd5b91607f1691610134565b82346100d65760203660031901126100d6576020906001600160a01b0361024e610618565b165f525f8252805f20549051908152f35b82346100d657806003193601126100d657610278610618565b6001600160a01b031691602435919083156102ef57600254908382018092116102dc57505f927fddf252ad1be2c89b69c2b068fc378daa952ba7f163c4a11628f55a4df523b3ef9260209260025585855284835280852082815401905551908152a3005b601190634e487b7160e01b5f525260245ffd5b5f602492519163ec442f0560e01b8352820152fd5b82346100d6575f3660031901126100d6576020905160ff7f0000000000000000000000000000000000000000000000000000000000000000168152f35b9050346100d65760603660031901126100d65761035c610618565b61036461062e565b906044359260018060a01b038216805f526001602052855f20335f52602052855f2054915f19831061039f575b602087610103888888610644565b8583106104075781156103f15733156103db57505f90815260016020908152868220338352815290869020918590039091558290610103610391565b6024905f885191634a1406b160e11b8352820152fd5b6024905f88519163e602df0560e01b8352820152fd5b8651637dc7a0d960e11b8152339181019182526020820193909352604081018690528291506060010390fd5b82346100d6575f3660031901126100d6576020906002549051908152f35b82346100d657806003193601126100d65761046a610618565b6024359033156104e3576001600160a01b03169081156104cd5760209350335f5260018452825f20825f52845280835f205582519081527f8c5be1e5ebec7d5bd14f71427d1e84f3dd0314c0f7b2291e5b200ac8c7c3b925843392a35160018152f35b8251634a1406b160e11b81525f81860152602490fd5b825163e602df0560e01b81525f81860152602490fd5b83346100d6575f3660031901126100d6575f60035460018160011c90600183169283156105c7575b602093848410811461020c578388529081156101f0575060011461057157505050829003601f01601f191682019267ffffffffffffffff84118385101761018957508291826101859252826105d1565b60035f908152929350837fc2575a0e9e593c00f959f8c92f12db2869c3395a3b0502d05e2516446f71f85b5b8385106105b35750505050830101848080610153565b80548886018301529301928490820161059d565b91607f1691610521565b602080825282518183018190529093925f5b82811061060457505060409293505f838284010152601f8019910116010190565b8181018601518482016040015285016105e3565b600435906001600160a01b03821682036100d657565b602435906001600160a01b03821682036100d657565b916001600160a01b0380841692831561070657169283156106ee57825f525f60205260405f2054908282106106bc5750817fddf252ad1be2c89b69c2b068fc378daa952ba7f163c4a11628f55a4df523b3ef92602092855f525f84520360405f2055845f5260405f20818154019055604051908152a3565b60405163391434e360e21b81526001600160a01b03919091166004820152602481019190915260448101829052606490fd5b60405163ec442f0560e01b81525f6004820152602490fd5b604051634b637e8f60e11b81525f6004820152602490fdfea26469706673582212200029643922f54031b6fb18452716d162ab316346093e05b97e4377a5d5566bbc64736f6c63430008180033000000000000000000000000000000000000000000000000000000000000006000000000000000000000000000000000000000000000000000000000000000a000000000000000000000000000000000000000000000000000000000000000120000000000000000000000000000000000000000000000000000000000000014577261707065642045746865722028546573742900000000000000000000000000000000000000000000000000000000000000000000000000000000000000045745544800000000000000000000000000000000000000000000000000000000",
        "nonce": "0x4",
        "chainId": "0x4cef52"
      },
      "additionalContracts": [],
      "isFixedGasLimit": false
    },
    {
      "hash": "0x9be8ab7e4198c9edeb964bd64912239c9047f7ad8ac1d44d95d332fa5c8bc6bd",
      "transactionType": "CALL",
      "contractName": "MockPriceOracle",
      "contractAddress": "0xb241a035fb7a8c46e1b8878d02bf666339a2005b",
      "function": "setPrice(address,uint256)",
      "arguments": [
        "0xe5F8C0bD7Eda98F24f0B5002Fa485D473FE7E7Eb",
        "100000000"
      ],
      "transaction": {
        "from": "0xca14e37c862465677caa064c20bdbb6673f6fe48",
        "to": "0xb241a035fb7a8c46e1b8878d02bf666339a2005b",
        "gas": "0xed41",
        "value": "0x0",
        "input": "0x00e4768b000000000000000000000000e5f8c0bd7eda98f24f0b5002fa485d473fe7e7eb0000000000000000000000000000000000000000000000000000000005f5e100",
        "nonce": "0x5",
        "chainId": "0x4cef52"
      },
      "additionalContracts": [],
      "isFixedGasLimit": false
    },
    {
      "hash": "0x46fb043bc10c705f92f01ed08cab41ec7079b8bae00f33b5ead5d0479b28fe76",
      "transactionType": "CALL",
      "contractName": "MockPriceOracle",
      "contractAddress": "0xb241a035fb7a8c46e1b8878d02bf666339a2005b",
      "function": "setPrice(address,uint256)",
      "arguments": [
        "0x254a2627EB0e2e3ded4CB2225AFb8815f05e04e9",
        "108000000"
      ],
      "transaction": {
        "from": "0xca14e37c862465677caa064c20bdbb6673f6fe48",
        "to": "0xb241a035fb7a8c46e1b8878d02bf666339a2005b",
        "gas": "0xed41",
        "value": "0x0",
        "input": "0x00e4768b000000000000000000000000254a2627eb0e2e3ded4cb2225afb8815f05e04e900000000000000000000000000000000000000000000000000000000066ff300",
        "nonce": "0x6",
        "chainId": "0x4cef52"
      },
      "additionalContracts": [],
      "isFixedGasLimit": false
    },
    {
      "hash": "0x598edba40b4636c6398613cb6815d4c71bd38c5a480335dee693c1e194d811fd",
      "transactionType": "CALL",
      "contractName": "MockPriceOracle",
      "contractAddress": "0xb241a035fb7a8c46e1b8878d02bf666339a2005b",
      "function": "setPrice(address,uint256)",
      "arguments": [
        "0xCDeA155469985F1E6910bbC53278Cb2008bff207",
        "300000000000"
      ],
      "transaction": {
        "from": "0xca14e37c862465677caa064c20bdbb6673f6fe48",
        "to": "0xb241a035fb7a8c46e1b8878d02bf666339a2005b",
        "gas": "0xfb47",
        "value": "0x0",
        "input": "0x00e4768b000000000000000000000000cdea155469985f1e6910bbc53278cb2008bff20700000000000000000000000000000000000000000000000000000045d964b800",
        "nonce": "0x7",
        "chainId": "0x4cef52"
      },
      "additionalContracts": [],
      "isFixedGasLimit": false
    },
    {
      "hash": "0x5073c4ca56b8a0f3ff7cdf7b1c77a1f114f32a0f20770dd4721813cbc1caa09d",
      "transactionType": "CREATE",
      "contractName": "LendingPool",
      "contractAddress": "0xb574eb2fd1101a75070cda9673a6db207581c467",
      "function": null,
      "arguments": [
        "0xCa14e37C862465677caA064c20BDBB6673F6FE48",
        "0xb241a035FB7A8C46E1b8878D02Bf666339A2005b"
      ],
      "transaction": {
        "from": "0xca14e37c862465677caa064c20bdbb6673f6fe48",
        "gas": "0x51c94c",
        "value": "0x0",
        "input": "0x6080346200011d57601f6200497e38819003918201601f19168301916001600160401b03831184841017620001215780849260409485528339810103126200011d576200005a6020620000528362000135565b920162000135565b60017f9b779b17422d0df92223018b32b4d1fa46e071723d6817e2486d003becc55f0055906001600160a01b039081169081156200010557600980546001600160a01b031980821685179092556040519491939083167f8be0079c531659141344cd1fd0a4f28419497f9722a3daafe3b4186f6b6457e05f80a316918215620000f65750600a541617600a5560405161483390816200014b8239f35b63d92e233d60e01b8152600490fd5b604051631e4fbdf760e01b81525f6004820152602490fd5b5f80fd5b634e487b7160e01b5f52604160045260245ffd5b51906001600160a01b03821682036200011d5756fe6080806040526004361015610012575f80fd5b5f3560e01c9081630a1b6c0314612dbd5750806316fb312414612d895780631928b3cb14612d565780632291aea014612d095780632ae8bdfe14612abd57806335ea6a75146129d0578063408824141461283a578063445be218146127ad578063450ac2971461277e57806347e7ef241461257d5780635224372c1461240757806354510b9d146123d357806359781034146122c257806360a98b801461228a5780636c714d6c1461218a5780636ec3ab6714611f945780636f70e66f14611909578063713390f51461186c578063715018a61461181157806373fa805e146115265780637adbf973146114ac5780637c22fb891461147e5780637dc0d1d0146114565780638da5cb5b1461142e5780639a5a23d91461140d578063ac9650d81461125a578063b790230314611232578063b7fdfdd114610d68578063c035bd2114610b95578063c3c0529314610b2f578063d1946dbc14610aca578063d410c765146107fd578063d563eb2914610572578063e6d48ed51461047a578063f2fde38b146103ee5763f3fef3a3146101a8575f80fd5b346103b45760403660031901126103b4576101c1612e67565b602435906101cd61365e565b6101d681613b18565b81156103dc576101e58161368d565b60018060a01b03811690815f5260206002815260405f20906003815260405f20335f52815260405f2054926001600160801b03908184541691676765c793fa10079d601b1b8061023585896131af565b0489116103ca576040516370a0823160e01b815230600482015285816024818c5afa80156103bf575f9061038c575b61027b9150895f526005875260405f205490613156565b891161037357808902908982040361035f5783610297916131e0565b5f19810190811161035f5788936102ad916131c2565b94868611610357575b6102c586610315969798613156565b885f526003875260405f20335f52875260405f205560016102e5886136bb565b9101916102f683549282841661313d565b16906001600160801b03191617905561030e8161385a565b33906137db565b6040519384528301527f91fb9d98b786c57d74c099ccd2beca1739e9f6a81fb49001ca465c4b7591bbe260403393a360015f805160206147de83398151915255005b8695506102b6565b634e487b7160e01b5f52601160045260245ffd5b6040516380daf1e560e01b815260048101899052602490fd5b508581813d83116103b8575b6103a28183613099565b810103126103b45761027b9051610264565b5f80fd5b503d610398565b6040513d5f823e3d90fd5b604051631e9acf1760e31b8152600490fd5b60405163162908e360e11b8152600490fd5b346103b45760203660031901126103b457610407612e67565b61040f613f82565b6001600160a01b0390811690811561046257600954826bffffffffffffffffffffffff60a01b821617600955167f8be0079c531659141344cd1fd0a4f28419497f9722a3daafe3b4186f6b6457e05f80a3005b604051631e4fbdf760e01b81525f6004820152602490fd5b346103b45760c03660031901126103b45760803660431901126103b45761049f613f82565b6104ad6024356004356140ef565b805f52600160205260405f206104d66104c461332c565b829060ff801983541691151516179055565b6064359061ffff821682036103b45761054c9162ffff0082549160081b169062ffff00191617815561052561050961333b565b825464ffff000000191660189190911b64ffff00000016178255565b61052d61334c565b66ffff000000000082549160281b169066ffff00000000001916179055565b7fbc880007dd2fa1a4ba4546a4d7b84022dfa435a85cdfaf32c934f547c69bbabc5f80a2005b346103b45761058036612fb6565b9061058961365e565b61059284613b18565b61059b81613b18565b6001600160a01b038181169480821694918587146107eb57821580156107e3575b6103dc5780600a541660405190635b14f18360e01b808352886004840152602083602481855afa9283156103bf575f936107c2575b508215610765575b505061074c5761060a848333613626565b906106148561368d565b61061e8484613f3f565b156107335792826106ae866106b59795858b8b998e61030e995f52600460205260405f20928354928316156106f4575b505050600261065c886136bb565b9101908154906106766001600160801b03918284166131ed565b16906001600160801b0319161790558b5f52600560205260405f2061069c8782546131e0565b90556106a9898483613b52565b6136ee565b33906138f8565b6040519081527f9c9260125f1a087d9e46ee3dc78f1a4af18c5e00714012d9a35250d49391c4fe60203392a460015f805160206147de83398151915255005b6bffffffffffffffffffffffff60a01b8093161783556001830191825416179055335f52600660205261072a8260405f206146bd565b508e8e8e61064e565b60405163835d7b3d60e01b815260048101889052602490fd5b6040516375525f8d60e01b815260048101889052602490fd5b602091925060246040518094819382528c60048301525afa9081156103bf575f91610793575b5088806105f9565b6107b5915060203d6020116107bb575b6107ad8183613099565b810190613125565b8861078b565b503d6107a3565b6107dc91935060203d6020116107bb576107ad8183613099565b918a6105f1565b5084156105bc565b60405163534c524d60e11b8152600490fd5b346103b4575f3660031901126103b457610815614453565b8051905f915f5b818110610a55575061084661083084613278565b9361083e6040519586613099565b808552613278565b601f19015f5b818110610a0e5750505f915f5b82811061090257846040518091602082016020835281518091526020604084019201905f5b81811061088c575050500390f35b91935091602061010060019260e08751858060a01b03808251168452858201511685840152604081015161ffff80911660408501526060908183015116908401526080808201519084015260a0808201519084015260c080820151908401520151151560e082015201940191019184939261087e565b6001600160a01b0361091482846132f3565b511661091f81613163565b9190505f5b85811061093657505050600101610859565b9384600198939585989514610a0757888060a01b0361095582846132f3565b511661096181856143ec565b156109ff57906109ef602096836109798d9588613cde565b61098282613163565b5061ffff80835116908c8401511690606061099c866141c4565b9401511515946040519d8e6109b081613060565b8d8152015260408d015260608c015260808b01528a60a08b015260c08a015260e08901526109dd81613618565b976109e882896132f3565b52866132f3565b505b019094929750959295610924565b5088906109f1565b88906109f1565b602090604051610a1d81613060565b5f81525f838201525f60408201525f60608201525f60808201525f60a08201525f60c08201525f60e08201528282880101520161084c565b5f5b828110610a67575060010161081c565b928382946001969314610ac357610a9d868060a01b0380610a8888866132f3565b511690610a9584866132f3565b5116906143ec565b610ab0575b85905b019093919450610a57565b91610abb8691613618565b929050610aa2565b8590610aa5565b346103b4575f3660031901126103b457610ae2614453565b604051809160208083016020845282518091526020604085019301915f5b828110610b0f57505050500390f35b83516001600160a01b031685528695509381019392810192600101610b00565b346103b45760203660031901126103b457610b48612e67565b610b50613f82565b600b80546001600160a01b0319166001600160a01b039290921691821790557f5f5e1360fb9bbf3f1dd392d5153831cc6fa952aad577bbbb06e51fea4174cd085f80a2005b346103b45760803660031901126103b457610bae612e67565b610bb6612e7d565b610bbe612e93565b9160643591610bcb61365e565b82156103dc5783610bdc9183613626565b90815f52600460205260405f209360018060a01b03908186541615610d4f57610c048161368d565b81811693845f526002602052600260405f20970196875460801c97815460801c610c2e818b613ffe565b9889811015610d4857985b8903610cf85750858893610ca3610cb19694610c716001610c9660209f610c91610ca899610c71835b610c6b856136bb565b9061313d565b81546001600160801b031660809190911b6001600160801b031916179055565b6136bb565b920191825460801c61313d565b613748565b6106ae8161385a565b6040519184835216907f861660e9b7ead7183d53fe928b5638c7b57a7bcf16a89d7fdb04db65ce3ad6d5853392a460015f805160206147de83398151915255604051908152f35b676765c793fa10079d601b1b94929493848a02948a8604148a15171561035f57610ca3610cb196610c716001610c9660209f8f9a610ca8998f99610d42610c7191610c91946131c2565b93610c62565b5088610c39565b604051630426cfff60e41b815260048101859052602490fd5b346103b457610d7636612fb6565b60409391935192610d8684613043565b5f84525f60208501525f60408501525f60608501525f60808501525f60a08501525f60c08501525f60e08501525f6101008501525f610120850152610dca83613b18565b610dd385613b18565b6001600160a01b03838116908616146107eb576001600160a01b0385165f9081526002602052604090205460801c90610e0b816136bb565b91676765c793fa10079d601b1b80850290858204148515171561035f5781610e32916131e0565b805f1981011161035f57610e54610c91836001600160801b03935f19016131c2565b8160405195610e628761300a565b6001600160a01b0389811688528b16602088015216604086015216606084015280610e8d8887613cde565b92610eab61ffff85511660018060a01b03600a541693849188613d99565b90610ed1610ec3848661ffff60208a0151168a613d99565b808b528360208c0152613fae565b60a08a0152606085015115156101208a0152670de0b6b3a7640000610ef58b6141c4565b92836101008c015210159182611227575b5081611202575b816111a5575b81611148575b81611136575b81611125575b501515604088015284151580611119575b1515806080890152610ff8575b61014087610f8488610f7a8c610f598b826142a4565b9060018060a01b03165f525f60205261ffff60405f205460581c1690614324565b60c0840152613163565b905060e08201526101206040519180518352602081015160208401526040810151151560408401526060810151606084015260808101511515608084015260a081015160a084015260c081015160c084015260e081015160e084015261010081015161010084015201511515610120820152f35b6040516341976e0960e01b81526001600160a01b038916600482015290602090829060249082905afa9081156103bf575f916110d5575b50936110c6610f7a946101409994611087610f5995610f849a9960018060a01b0389165f525f60205261108261106e60ff60405f205460101c1661331b565b926001600160801b03606088015116613ffe565b61404e565b9060018060a01b0389165f525f60205261ffff60206001600160801b0360406110b860ff825f205460101c1661331b565b96015116920151169161408c565b60608801529394829750610f43565b91979293959490506020823d602011611111575b816110f660209383613099565b810103126103b45790519196939490939092916110c661102f565b3d91506110e9565b50606083015115610f36565b611130915087613f3f565b89610f25565b9050611142868a61424b565b90610f1f565b604051635b14f18360e01b81526001600160a01b038b166004820152909150602081602481865afa9081156103bf575f91611186575b501590610f19565b61119f915060203d6020116107bb576107ad8183613099565b8a61117e565b604051635b14f18360e01b81526001600160a01b0389166004820152909150602081602481865afa9081156103bf575f916111e3575b501590610f13565b6111fc915060203d6020116107bb576107ad8183613099565b8a6111db565b6001600160a01b038a165f9081526020819052604090205460081c60ff169150610f0d565b87111591508a610f06565b346103b4575f3660031901126103b457600b546040516001600160a01b039091168152602090f35b346103b4576020806003193601126103b45767ffffffffffffffff906004358281116103b45761128e903690600401612ef4565b90926040519183830191838310818411176113f957826040525f84526112b382613278565b936112c16040519586613099565b8285526112cd83613278565b601f1997908801875f5b8281106113e9575050505f5b8481106113615788888860405191808301818452825180915260408401918060408360051b8701019401925f965b83881061131e5786860387f35b9091929394838080600193603f198b820301875285601f8b5161134c81518092818752878088019101612f95565b01160101970193019701969093929193611311565b8060051b820135601e19833603018112156103b4578201908135918583116103b457890182360381136103b457826113c78b6113cd938b6001976040519586938585013782016113bb848201925f84528c51938491612f95565b01038084520182613099565b30614133565b6113d7828a6132f3565b526113e281896132f3565b50016112e3565b606082828b0101520188906112d7565b634e487b7160e01b5f52604160045260245ffd5b346103b457602061142661142036612ede565b906140ef565b604051908152f35b346103b4575f3660031901126103b4576009546040516001600160a01b039091168152602090f35b346103b4575f3660031901126103b457600a546040516001600160a01b039091168152602090f35b346103b45760203660031901126103b45761016061149d60043561335d565b6114aa6040518092612f25565bf35b346103b45760203660031901126103b4576114c5612e67565b6114cd613f82565b6001600160a01b0316801561151457600a80546001600160a01b031916821790557f3f32684a32a11dabdbb8c0177de80aa3ae36a004d75210335b49e544e48cd0aa5f80a2005b60405163d92e233d60e01b8152600490fd5b346103b4576101c03660031901126103b457611540612e67565b6101a03660231901126103b457611555613f82565b6001600160a01b038181169190821561151457825f5260026020526001600160801b03918260405f205416611802575b50825f525f60205260405f209060243580151581036103b457825490151560ff1660ff19919091161782556115b861332c565b1515825460643560ff811681036103b45762ff000061ff009160101b169260081b169062ffff0019161717825561160c6115f061333b565b835464ffff000000191660189190911b64ffff00000016178355565b61163761161761334c565b835466ffff0000000000191660289190911b66ffff000000000016178355565b60c43561ffff80821682036103b45783549060e4359181831683036103b4576101043591821682036103b45768ffff000000000000006affff0000000000000000009261ffff60581b9060581b169460381b16906cffffffffffff000000000000001916179160481b16171782556101243560018301556002820190610144359081168091036103b45781546001600160a01b031916179055610164358281169060038301908290036103b4576001600160801b031991828254161781556101843584811681036103b45781546001600160801b031660809190911b6001600160801b03191617905560048201906101a435908482168092036103b457825416179055600160ff19825416179055600260205260405f20908154161561177f575b507fa00b5a1af86b3918c33074f107448b7f5472638023dd5354b58dca1bc6384e465f80a2005b7b033b2e3c9fd0803ce800000000000000033b2e3c9fd0803ce8000000815564ffffffffff908142116117e357600201805464ffffffffff60801b19164290921660801b64ffffffffff60801b169190911790556117dc81614651565b5081611758565b6040516306dfcc6560e41b815260286004820152426024820152604490fd5b61180b9061368d565b83611585565b346103b4575f3660031901126103b457611829613f82565b600980546001600160a01b031981169091555f906001600160a01b03167f8be0079c531659141344cd1fd0a4f28419497f9722a3daafe3b4186f6b6457e08280a3005b346103b45760603660031901126103b4576118a7611888612e67565b611890612e7d565b611898612e93565b916118a16130bb565b50613626565b5f5260046020526119056118bd60405f206130df565b604051918291829190916060608082019360018060a01b038082511684526020820151166020840152816040820151916001600160801b038093166040860152015116910152565b0390f35b346103b45760a03660031901126103b457611922612e67565b61192a612e7d565b90611933612e93565b61193b61365e565b606435156103dc5761194e818484613626565b5f8181526004602052604090208054909291906001600160a01b031615611f7c57600a54604051635b14f18360e01b81526001600160a01b038781166004830152909116602082602481845afa9182156103bf575f92611f5b575b508115611efd575b50611edc5790611a1692916119c58261368d565b6001600160a01b0382165f908152600260205260409020906119e78388613cde565b9361ffff60208601511692805460801c96879460018060a01b03600a5416988991611a11866130df565b613d99565b93670de0b6b3a7640000851015611ec357600283015494611a3a828760801c613ffe565b6040516341976e0960e01b81526001600160a01b038d1660048201529990989060208b602481845afa9a8b156103bf575f9b611e8c575b506040516341976e0960e01b81526001600160a01b038a1660048201529190602090839060249082905afa9182156103bf575f92611e58575b50600160a01b600190038d165f525f60205260405f205460101c60ff16611ad09061331b565b600160a01b600190038a165f525f60205260405f205460101c60ff16611af59061331b565b90604083015161ffff1692606001511515938c6040519e8f91611b1783613043565b606435835260208301528760408301526001600160801b038d166060830152608082015260a0015260c08d015260e08c01526101008b0152806101208b01525f14611e4957670da4514ab6358000905b10611e3d57612710611b7c6113885b896131af565b048851908082105f14611e355750965b611ba9611b9e8960a08c0151906131af565b60e08b0151906131c2565b61ffff6101008b0151166127100190816127101161035f57612710611bd4611beb93611be0936131af565b0460c08c0151906131af565b60808b0151906131c2565b98606081015190818b11611db5575b50506084358910611d94578994939291908803611d535750611c6a90610c716001610c9688611cc39960801c905b818160801c10611d47575b611c4c610c9191611c43846136bb565b9060801c61313d565b60028901906001600160801b0382549181199060801b169116179055565b6002611c75886136bb565b6001600160801b03611c8d838501549282841661313d565b16906001600160801b0319161791015560018060a01b0388165f52600560205260405f20611cbc878254613156565b9055613748565b611ccc8161385a565b611cd78233836138f8565b611ce28333876137db565b604080516001600160a01b0396871681529186166020830152810191909152606081019190915291169033907fda828cf61361478a6d2e2c531aa793167b754726e8b2d2798395b8bc571204c190608090a360015f805160206147de83398151915255005b608081901c9150611c33565b909350676765c793fa10079d601b1b93878581020485148815171561035f57610c716001610c96611cc398611d8e611c6a968f9a8e026131c2565b90611c28565b604051636ff241cb60e01b8152600481018a90526084356024820152604490fd5b9198509850611dd7611dcc8a6080840151906131af565b60c0830151906131c2565b9081612710810204612710148215171561035f5761ffff610100820151166127100191826127101161035f57611e24611e19611e2d9461271060a094026131c2565b60e0840151906131af565b910151906131c2565b968b80611bfa565b905096611b8c565b612710611b7c81611b76565b670d99a8cec7e2000090611b67565b9091506020813d602011611e84575b81611e7460209383613099565b810103126103b45751908d611aaa565b3d9150611e67565b91909a506020823d602011611ebb575b81611ea960209383613099565b810103126103b4579051996020611a71565b3d9150611e9c565b6040516301e11b9d60e11b815260048101869052602490fd5b6040516375525f8d60e01b81526001600160a01b0386166004820152602490fd5b604051635b14f18360e01b81526001600160a01b03851660048201529150602090829060249082905afa9081156103bf575f91611f3c575b50866119b1565b611f55915060203d6020116107bb576107ad8183613099565b86611f35565b611f7591925060203d6020116107bb576107ad8183613099565b90876119a9565b60249060405190630426cfff60e41b82526004820152fd5b346103b45760203660031901126103b457611fad612e67565b5f610180604051611fbd81613026565b8281528260208201528260408201528260608201528260808201528260a08201528260c08201528260e082015282610100820152826101208201528261014082015282610160820152015260018060a01b03165f525f6020526101a060405f206001600160801b0361018060405161203481613026565b82600485549560ff87161515845260ff8760081c161515602085015260ff8760101c16604085015261ffff8760181c16606085015261ffff8760281c16608085015261ffff8760381c1660a085015261ffff8760481c1660c085015261ffff8760581c1660e0850152600181015461010085015260018060a01b03600282015416610120850152600381015483811661014086015260801c6101608501520154168282015260ff60405194161515845260208101511515602085015260ff604082015116604085015261ffff606082015116606085015261ffff608082015116608085015261ffff60a08201511660a085015261ffff60c08201511660c085015261ffff60e08201511660e085015261010081015161010085015260018060a01b036101208201511661012085015282610140820151166101408501528261016082015116610160850152015116610180820152f35b346103b4576020806003193601126103b45760043567ffffffffffffffff81116103b4576121bc903690600401612ef4565b6121c881939293613278565b926121d66040519485613099565b8184526121e282613278565b601f1901835f5b828110612274575050505f5b8281106122465760408051858152865181870181905287870192820190875f5b8281106122225784840385f35b90919282610160826122376001948a51612f25565b01960191019492919094612215565b8061225860019260051b84013561335d565b61226282886132f3565b5261226d81876132f3565b50016121f5565b61227c613290565b8282890101520184906121e9565b346103b45760203660031901126103b4576001600160a01b036122ab612e67565b165f526005602052602060405f2054604051908152f35b346103b4576122d036612ea9565b91906122da61365e565b82156103dc576122eb818333613626565b5f81815260046020526040902080546001600160a01b03939290841615611f7c57506123178585613f3f565b156123b9576002612327866136bb565b9101908154906123416001600160801b03918284166131ed565b16906001600160801b0319161790556123788483851694855f52600560205260405f2061236f8382546131e0565b905533906138f8565b60405193845216917f794f99eb67739a2b47caf8ca3b39e5a140fbf84e1cb6a800a06cd42d61fa967a60203392a460015f805160206147de83398151915255005b60405163835d7b3d60e01b81528385166004820152602490fd5b346103b45760603660031901126103b45760206114266123f1612e67565b6123f9612e7d565b612401612e93565b91613208565b346103b45761241536612ea9565b61241d61365e565b80156103dc5760018060a01b0380600a54169260405194635b14f18360e01b808752838216958660048901526020978881602481855afa9283156103bf5789915f9461255e575b508315612511575b5050506124f75761247e828233613626565b805f52600487528360405f20541615611f7c578280926124ce926124c37f9c9260125f1a087d9e46ee3dc78f1a4af18c5e00714012d9a35250d49391c4fe979661368d565b6106a9888483613b52565b6124d98433836137db565b60405193845216933392a460015f805160206147de83398151915255005b506040516375525f8d60e01b815291166004820152602490fd5b90919250602460405180948193825288881660048301525afa9081156103bf575f91612541575b5087878161246c565b6125589150873d89116107bb576107ad8183613099565b87612538565b612576919450823d84116107bb576107ad8183613099565b928a612464565b346103b45760403660031901126103b457612596612e67565b602435906125a261365e565b6125ab81613b18565b81156103dc57600a54604051635b14f18360e01b81526001600160a01b0383811660048301819052939260209291839183916024918391165afa9081156103bf575f91612761575b50612748576126018261368d565b825f526002815260405f20915f82526001600160801b039081600460405f20015416806126fa575b50676765c793fa10079d601b1b8602906b033b2e3c9fd0803ce7ffffff198783040161035f578261266288936126b895885416906131c2565b95875f526003865260405f20335f52865260405f206126828882546131e0565b9055600161268f886136bb565b9101916126a08354928284166131ed565b16906001600160801b0319161790556106ae8161385a565b6040519384528301527ff5681f9d0db1b911ac18ee83d515a1cf1051853a9eae418316a2fdf7dea427c560403393a360015f805160206147de83398151915255005b61272487676765c793fa10079d601b1b61271e8660018a015416878a5416906131af565b046131e0565b1161272f5786612629565b60405163262ad59760e11b815260048101869052602490fd5b6040516375525f8d60e01b815260048101849052602490fd5b6127789150823d84116107bb576107ad8183613099565b856125f3565b346103b45760203660031901126103b45760406127a161279c612e67565b613163565b82519182526020820152f35b346103b4576127cd6127be36612ede565b906127c76130bb565b506140ef565b5f526001602052608060405f20604051906127e78261300a565b549060ff821615159182825261ffff82816020819501818560081c1681528160606040850194828860181c168652019560281c168552604051968752511660208601525116604084015251166060820152f35b346103b45760603660031901126103b457612853612e67565b61285b612e7d565b612863612e93565b9161286c61365e565b6009546001600160a01b0392908316331415806129c2575b6129b057836128939183613626565b91825f52600460205260405f208181541615610d4f57600201936001600160801b039384865416612998576128c78261368d565b8383831695865f52600260205260405f20908854988960801c91835460801c6128f09084613ffe565b9a1690556128fd906136bb565b9060010190815460801c906129119161313d565b81546001600160801b031660809190911b6001600160801b03191617905561293891613748565b6129418161385a565b843361294c926138f8565b604051918483521690339060207f861660e9b7ead7183d53fe928b5638c7b57a7bcf16a89d7fdb04db65ce3ad6d591a460015f805160206147de83398151915255604051908152602090f35b602490604051906314248fbd60e21b82526004820152fd5b60405163ea8e4eb560e01b8152600490fd5b5082600b5416331415612884565b346103b45760203660031901126103b45760c06129eb612e67565b604051906129f882612fee565b5f82525f60208301525f60408301525f60608301525f60a06080938285820152015260018060a01b03165f52600260205260a060405f209160405190612a3d82612fee565b8354916001600160801b039081808516968783526020830195851c8652816001820154918160026040870192828616845260608801958a1c865201549888870196828b16885264ffffffffff9b8c91019a8a1c168a526040519b8c52511660208b01525116604089015251166060870152511690840152511660a0820152f35b346103b457612acb36612ea9565b612ad361365e565b80156103dc5760018060a01b0380600a54169260405194635b14f18360e01b808752838216958660048901526020978881602481855afa9283156103bf5789915f94612cea575b508315612c9d575b505050612c8457612b34828233613626565b90815f526004875260405f208481541615612c6b57600201916001600160801b0392838154168711612c59578693612b6b8661368d565b612b74856136bb565b90612b8383549282841661313d565b16906001600160801b031916178155875f526005895260405f20612ba8858254613156565b90555460801c612be6575b916124d99161030e7f066ba4a8f1b0176abba8cd70012fabcaa801a97916823e068d94ec15deb9037a9695943390613748565b909150612c2961ffff88612bfa8686613cde565b015116825f526004895260405f20908686165f5260028a5260405f205460801c90611a1188600a5416936130df565b670de0b6b3a76400008110612c415750908491612bb3565b6024906040519063b8dfb2c160e01b82526004820152fd5b604051633a23d82560e01b8152600490fd5b604051630426cfff60e41b815260048101849052602490fd5b6040516375525f8d60e01b815260048101869052602490fd5b90919250602460405180948193825288881660048301525afa9081156103bf575f91612ccd575b50878781612b22565b612ce49150873d89116107bb576107ad8183613099565b87612cc4565b612d02919450823d84116107bb576107ad8183613099565b928a612b1a565b346103b45760403660031901126103b457612d22612e67565b612d2a612e7d565b9060018060a01b038091165f52600360205260405f2091165f52602052602060405f2054604051908152f35b346103b45760203660031901126103b457612d6f6130bb565b506004355f5260046020526119056118bd60405f206130df565b346103b45760603660031901126103b4576020611426612da7612e67565b612daf612e7d565b612db7612e93565b91613626565b346103b457602090816003193601126103b4576001600160a01b03612de0612e67565b165f526006825260405f2080548083528383019081925f52845f20905f5b86828210612e53578686612e1482880383613099565b60405192839281840190828552518091526040840192915f5b828110612e3c57505050500390f35b835185528695509381019392810192600101612e2d565b835485529093019260019283019201612dfe565b600435906001600160a01b03821682036103b457565b602435906001600160a01b03821682036103b457565b604435906001600160a01b03821682036103b457565b60609060031901126103b4576001600160a01b039060043582811681036103b4579160243590811681036103b4579060443590565b60409060031901126103b4576004359060243590565b9181601f840112156103b45782359167ffffffffffffffff83116103b4576020808501948460051b0101116103b457565b80518252602081015115156020830152604081015160408301526060810151606083015260808101511515608083015260a081015160a083015260c081015160c083015260e081015160e08301526101008082015190830152610120808201519083015261014080910151910152565b5f5b838110612fa65750505f910152565b8181015183820152602001612f97565b60809060031901126103b4576001600160a01b0360043581811681036103b457916024359160443590811681036103b4579060643590565b60c0810190811067ffffffffffffffff8211176113f957604052565b6080810190811067ffffffffffffffff8211176113f957604052565b6101a0810190811067ffffffffffffffff8211176113f957604052565b610140810190811067ffffffffffffffff8211176113f957604052565b610100810190811067ffffffffffffffff8211176113f957604052565b6060810190811067ffffffffffffffff8211176113f957604052565b90601f8019910116810190811067ffffffffffffffff8211176113f957604052565b604051906130c88261300a565b5f6060838281528260208201528260408201520152565b906040516130ec8161300a565b82546001600160a01b03908116825260018401541660208201526002909201546001600160801b038116604084015260801c6060830152565b908160209103126103b4575180151581036103b45790565b6001600160801b03918216908216039190821161035f57565b9190820391821161035f57565b60018060a01b031690815f5260026020526131ac60405f206001600160801b03600261318e83613a64565b92015416935f525f60205261ffff60405f205460481c169084613ad3565b90565b8181029291811591840414171561035f57565b81156131cc570490565b634e487b7160e01b5f52601260045260245ffd5b9190820180921161035f57565b9190916001600160801b038080941691160191821161035f57565b828261321692949394613626565b5f52600460205261322960405f206130df565b805190916001600160a01b039182161561326f578161ffff6020613250846131ac98613cde565b01511691165f52600260205260405f205460801c91600a541692613d99565b505050505f1990565b67ffffffffffffffff81116113f95760051b60200190565b60405190610160820182811067ffffffffffffffff8211176113f9576040525f610140838281528260208201528260408201528260608201528260808201528260a08201528260c08201528260e082015282610100820152826101208201520152565b80518210156133075760209160051b010190565b634e487b7160e01b5f52603260045260245ffd5b60ff16604d811161035f57600a0a90565b60443580151581036103b45790565b60843561ffff811681036103b45790565b60a43561ffff811681036103b45790565b90613366613290565b918083525f52602060048152604061337f815f206130df565b805190926001600160a01b0392909183161561361257600182870152828451169383838201511693845f5260028452825f205460801c93846133c18789613cde565b916133ec868c6133e28487019761ffff89511690600a54169687918b613d99565b9182910152613fae565b60a08c0152606085019161340b6001600160801b039889855116613ffe565b9160c08d019283528751966341976e0960e01b908189528c60048a01528289602481875afa988915613608578f90918e8c9594935f9c6135d1575b505f525f8452845f205460101c60ff1661345f9061331b565b9b8c91019a8d8c511690613472916131af565b9061347c916131c2565b9060e001528a86511661350b575b5050505050918593916134bf966134c69896945116151590816134fe575b5015158060808c01526134d7575b50505050613163565b5091613163565b919050610120840152610140830152565b61ffff6134f0946101008c01519351169151169161408c565b60608701525f8080806134b6565b606091500151155f6134a8565b8b6024839285519687938492835260048301525afa9283156135c757908e949392915f9361357e575b5061356d8b99979592948d9b9997946135666134c69f6134bf9f985f6101009760ff938252525f205460101c1661331b565b915161404e565b91015292949698829496985f61348a565b81809c9a989650819d9b999794503d83116135c0575b61359e8183613099565b810103126103b457995197999698959794969395929490938d9361356d613534565b503d613594565b82513d5f823e3d90fd5b9b50509350508189813d8311613601575b6135ec8183613099565b810103126103b4578e8a938e9a519a5f613446565b503d6135e2565b8a513d5f823e3d90fd5b50505050565b5f19811461035f5760010190565b919060405191602083019360018060a01b0392838092168652166040840152166060820152606081526136588161300a565b51902090565b5f805160206147de833981519152600281541461367b5760029055565b604051633ee5aeb560e01b8152600490fd5b60018060a01b03165f5260026020526136b960405f205f60205261ffff60405f205460481c16906144bf565b565b6001600160801b03908181116136cf571690565b604490604051906306dfcc6560e41b8252608060048301526024820152fd5b909161ffff6137008261373695613cde565b5116915f52600460205260405f209160018060a01b038092165f526002602052611a1160405f205460801c92600a5416936130df565b670de0b6b3a76400008110612c415750565b90815f52600460205260405f206002810180546001600160801b0381161590816137cf575b506137785750505050565b5f6001838280955501555560018060a01b031690815f5260066020526137a18160405f20614720565b507fbcb7cadb21c559b49c8be5b6a40b4ca39f4fb3b53dd0d707fc2f6f5300cd76b75f80a35f808080613612565b905060801c155f61376d565b60405163a9059cbb60e01b5f9081526001600160a01b039384166004526024949094529291169060209060448180855af160015f511481161561383b575b8260405215613826575050565b635274afe760e01b8252600482015260249150fd5b600181151661385157813b15153d151616613819565b823d5f823e3d90fd5b6001600160a01b03165f8181526002602052604090207f51eedbe668e048aec37e4dc0104031dbf295c9f3b35bfd9cb73a217b6ff81259906060906138bd610c916138a483613a64565b865f525f60205261ffff60405f205460581c1690614324565b9060028101906001600160801b0380931691826001600160801b031982541617905554604051928116835260801c60208301526040820152a2565b604080516370a0823160e01b8082523060048301529194936001600160a01b039384169391926020929091908385602481895afa948515613a5a575f95613a2b575b508751916323b872dd60e01b5f52166004523060245285604452825f60648180895af160015f5114811615613a0c575b8188525f606052156139f657508190602487518096819382523060048301525afa9081156139ec575f916139bc575b506139a49250613156565b106139ac5750565b5163b0a6ea2960e01b8152600490fd5b905082813d83116139e5575b6139d28183613099565b810103126103b4576139a491515f613999565b503d6139c8565b85513d5f823e3d90fd5b635274afe760e01b815260048101859052602490fd5b6001811516613a2257853b15153d15161661396a565b503d5f823e3d90fd5b9094508381813d8311613a53575b613a438183613099565b810103126103b45751935f61393a565b503d613a39565b88513d5f823e3d90fd5b60018101549054613a816001600160801b038281169084166145f6565b918215613acc57613a989160801c9060801c6145f6565b90676765c793fa10079d601b1b9182810292818404149015171561035f57613ac76131ac928260011c906131e0565b6131c2565b5050505f90565b909161ffff1690676765c793fa10079d601b1b918281029080820484149015171561035f576127109004820391821161035f576131ac92613b13916145f6565b6145f6565b6001600160a01b03165f8181526020819052604090205460ff1615613b3a5750565b60249060405190630f10d83760e11b82526004820152fd5b9160018060a01b038216805f526020935f855260409260ff845f205460081c1615613cc657825f5260028652835f2092613b8c828761424b565b15613caf5784516370a0823160e01b81523060048201528781602481855afa8015613ca5575f90613c76575b613bce9150825f5260058952865f205490613156565b8211613c5f5750676765c793fa10079d601b1b9081810291818304149015171561035f57613c01835460801c80926131e0565b5f19810190811161035f576136b996610c91610c7194610c716002613c5a996004613c31600199613c4d996131c2565b96613c3b886136bb565b955f52525f200191825460801c6131ed565b920191825460801c6131ed565b61385a565b6024908551906380daf1e560e01b82526004820152fd5b508781813d8311613c9e575b613c8c8183613099565b810103126103b457613bce9051613bb8565b503d613c82565b86513d5f823e3d90fd5b602490855190639eba7a5160e01b82526004820152fd5b8351630f2fa02f60e41b815260048101849052602490fd5b90613ce76130bb565b5060018060a01b038092165f525f602052613d18604091825f2093600185015491165f526001835f200154906140ef565b5f526001602052805f20549160ff83165f14613d63575061ffff815192613d3e8461300a565b818160081c168452818160181c16602085015260281c16908201526001606082015290565b548151925061ffff90613d758461300a565b818160181c168452818160281c16602085015260381c16908201525f606082015290565b606081018051909492936001600160801b0391821615613f34578251604080516341976e0960e01b8082526001600160a01b03938416600483015290968316949290919060209081896024818a5afa988915613efb575f99613f05575b5081808901946024838751169186519a8b938492835260048301525afa968715613efb575f97613ebc575b50613e7b9885613e73945f6110829998979585613ac7968e51168352828252613e5260ff8585205460101c1661331b565b975116825252613e6a60ff825f205460101c1661331b565b9a0151166131af565b975116613ffe565b918215613eb45761271091613e8f916131af565b0490670de0b6b3a76400009182810292818404149015171561035f576131ac916131c2565b5050505f1990565b92959493918091975083813d8311613ef4575b613ed98183613099565b810103126103b4579151959394929390929190613e7b613e21565b503d613ecf565b83513d5f823e3d90fd5b9098508181813d8311613f2d575b613f1d8183613099565b810103126103b45751975f613df6565b503d613f13565b5050505050505f1990565b6001600160a01b03165f9081526020819052604090206003015460801c908115613f7b57613f7690600560205260405f20546131e0565b111590565b5050600190565b6009546001600160a01b03163303613f9657565b60405163118cdaa760e01b8152336004820152602490fd5b5f198114613ff957670de0b6b3a76400009081811115613ff357670de0b6b3a763ffff19810190811161035f576127109081810291818304149015171561035f570490565b50505f90565b505f90565b9081158015614046575b613ff357614015916131af565b676765c793fa10079d601b1b908181019081811161035f576b033b2e3c9fd0803ce7ffffff0190811161035f570490565b508015614008565b9081158015614084575b613acc5761406a839161406f936131af565b6131e0565b5f1981019190821161035f576131ac916131c2565b508015614058565b9190801580156140e3575b80156140db575b6140d35761ffff6140b09216906131af565b916127109182810292818404149015171561035f5761406a839161406f936131af565b505050505f90565b50821561409e565b5061ffff821615614097565b90808210156141155760405190602082019283526040820152604081526136588161307d565b9060405190602082019283526040820152604081526136588161307d565b905f8091602081519101845af480806141b1575b156141675750506040513d81523d5f602083013e60203d82010160405290565b1561418e57604051639996b31560e01b81526001600160a01b039091166004820152602490fd5b3d1561419f576040513d5f823e3d90fd5b60405163d6bda27560e01b8152600490fd5b503d1515806141475750813b1515614147565b6040516370a0823160e01b8152306004820152906001600160a01b0316602082602481845afa9182156103bf575f92614217575b505f52600560205260405f20548082115f14613ff3576131ac91613156565b9091506020813d602011614243575b8161423360209383613099565b810103126103b45751905f6141f8565b3d9150614226565b6001600160a01b03165f908152602081905260409020600301546001600160801b0316908115613f7b57613f76906002602052676765c793fa10079d601b1b61271e60405f206001810154905460801c9060801c6131af565b6001600160a01b03165f90815260026020526040902060018101549054676765c793fa10079d601b1b92836142e56001600160801b038481169086166131af565b0492831561431b5761271e85916143029460801c9060801c6131af565b82810292818404149015171561035f576131ac916131c2565b50505050505f90565b6b0295be96e640669720000000808211614389576a21165458500521280000009182810292818404149015171561035f5761ffff9104915b1690676765c793fa10079d601b1b9182810292818404149015171561035f576127106131ac9204906131e0565b506b0295be96e64066971fffffff19810190811161035f576b026c62ad77dc602dae0000009081810291818304149015171561035f576aa56fa5b99019a5c80000006a21165458500521280000009104810180911161035f5761ffff909161435c565b6001600160a01b038281169082168082146140d3575f525f60205260ff60405f205416158015614441575b613acc575f5260ff60405f205460081c1615613ff35761ffff9161443a91613cde565b5116151590565b50805f5260ff60405f20541615614417565b6040519060075480835282602091602082019060075f527fa66cc928b5edb82af9bd49922954155ab7b0942694bea4ce44661d9a8736c688935f905b8282106144a5575050506136b992500383613099565b85548452600195860195889550938101939091019061448f565b90600282019081549264ffffffffff916144de838660801c1642613156565b80156145ee576001600160801b03809616801515806145de575b61452e575b5050835464ffffffffff60801b1916429390931660801b64ffffffffff60801b1692909217909255506136b9915050565b61453784613a64565b916301e13380928361454983856131af565b0494676765c793fa10079d601b1b9586019182871161035f576145a79461459d61457d610c916145a2968c5460801c6145f6565b8a546001600160801b031660809190911b6001600160801b031916178a55565b613ad3565b6131af565b04810180911161035f576136b9946145c6610c918454938385166145f6565b16906001600160801b0319161790555f8080806144fd565b50600184015460801c15156144f8565b505050505050565b9081158015614634575b613ff35761460d916131af565b6b019d971e4fe8401e74000000810180911161035f57676765c793fa10079d601b1b900490565b508015614600565b8054821015613307575f5260205f2001905f90565b805f52600860205260405f2054155f14613ff957600754600160401b8110156113f95760018101806007558110156133075781907fa66cc928b5edb82af9bd49922954155ab7b0942694bea4ce44661d9a8736c6880155600754905f52600860205260405f2055600190565b6001810190825f528160205260405f2054155f14613acc578054600160401b8110156113f95761470d6146f782600187940185558461463c565b819391549060031b91821b915f19901b19161790565b905554915f5260205260405f2055600190565b906001820191815f528260205260405f2054908115155f146140d3575f199180830181811161035f5782549084820191821161035f578181036147a8575b5050508054801561479457820191614776838361463c565b909182549160031b1b19169055555f526020525f6040812055600190565b634e487b7160e01b5f52603160045260245ffd5b6147c86147b86146f7938661463c565b90549060031b1c9283928661463c565b90555f528460205260405f20555f808061475e56fe9b779b17422d0df92223018b32b4d1fa46e071723d6817e2486d003becc55f00a2646970667358221220fdbeb09dede0ab63effbab24eb1a340dd1d5dfa145219c74198b79c0fc3a2c5c64736f6c63430008180033000000000000000000000000ca14e37c862465677caa064c20bdbb6673f6fe48000000000000000000000000b241a035fb7a8c46e1b8878d02bf666339a2005b",
        "nonce": "0x8",
        "chainId": "0x4cef52"
      },
      "additionalContracts": [],
      "isFixedGasLimit": false
    },
    {
      "hash": "0x5f9f15ae278c4fcda081d283a1b2774ee35a1e71572a591cc33e58659f22d93a",
      "transactionType": "CALL",
      "contractName": "LendingPool",
      "contractAddress": "0xb574eb2fd1101a75070cda9673a6db207581c467",
      "function": "setInsuranceFund(address)",
      "arguments": [
        "0xCa14e37C862465677caA064c20BDBB6673F6FE48"
      ],
      "transaction": {
        "from": "0xca14e37c862465677caa064c20bdbb6673f6fe48",
        "to": "0xb574eb2fd1101a75070cda9673a6db207581c467",
        "gas": "0x1018d",
        "value": "0x0",
        "input": "0xc3c05293000000000000000000000000ca14e37c862465677caa064c20bdbb6673f6fe48",
        "nonce": "0x9",
        "chainId": "0x4cef52"
      },
      "additionalContracts": [],
      "isFixedGasLimit": false
    },
    {
      "hash": "0x673a1a9910d525c41dc4d071617bfb879882c7d379f724d7764581ad2398568b",
      "transactionType": "CALL",
      "contractName": "LendingPool",
      "contractAddress": "0xb574eb2fd1101a75070cda9673a6db207581c467",
      "function": "configureAsset(address,(bool,bool,uint8,uint16,uint16,uint16,uint16,uint16,bytes32,address,uint128,uint128,uint128))",
      "arguments": [
        "0xe5F8C0bD7Eda98F24f0B5002Fa485D473FE7E7Eb",
        "(true, true, 6, 7500, 8000, 500, 1000, 100, 0x5553440000000000000000000000000000000000000000000000000000000000, 0xb241a035FB7A8C46E1b8878D02Bf666339A2005b, 10000000000000, 10000000000000, 0)"
      ],
      "transaction": {
        "from": "0xca14e37c862465677caa064c20bdbb6673f6fe48",
        "to": "0xb574eb2fd1101a75070cda9673a6db207581c467",
        "gas": "0x52c14",
        "value": "0x0",
        "input": "0x73fa805e000000000000000000000000e5f8c0bd7eda98f24f0b5002fa485d473fe7e7eb0000000000000000000000000000000000000000000000000000000000000001000000000000000000000000000000000000000000000000000000000000000100000000000000000000000000000000000000000000000000000000000000060000000000000000000000000000000000000000000000000000000000001d4c0000000000000000000000000000000000000000000000000000000000001f4000000000000000000000000000000000000000000000000000000000000001f400000000000000000000000000000000000000000000000000000000000003e800000000000000000000000000000000000000000000000000000000000000645553440000000000000000000000000000000000000000000000000000000000000000000000000000000000b241a035fb7a8c46e1b8878d02bf666339a2005b000000000000000000000000000000000000000000000000000009184e72a000000000000000000000000000000000000000000000000000000009184e72a0000000000000000000000000000000000000000000000000000000000000000000",
        "nonce": "0xa",
        "chainId": "0x4cef52"
      },
      "additionalContracts": [],
      "isFixedGasLimit": false
    },
    {
      "hash": "0x91717508e9ba618a7dcb8b8536b7732b2700631442e72a11b613f572dd48b32c",
      "transactionType": "CALL",
      "contractName": "LendingPool",
      "contractAddress": "0xb574eb2fd1101a75070cda9673a6db207581c467",
      "function": "configureAsset(address,(bool,bool,uint8,uint16,uint16,uint16,uint16,uint16,bytes32,address,uint128,uint128,uint128))",
      "arguments": [
        "0x254a2627EB0e2e3ded4CB2225AFb8815f05e04e9",
        "(true, true, 6, 7500, 8000, 500, 1000, 200, 0x4555520000000000000000000000000000000000000000000000000000000000, 0xb241a035FB7A8C46E1b8878D02Bf666339A2005b, 5000000000000, 5000000000000, 0)"
      ],
      "transaction": {
        "from": "0xca14e37c862465677caa064c20bdbb6673f6fe48",
        "to": "0xb574eb2fd1101a75070cda9673a6db207581c467",
        "gas": "0x48641",
        "value": "0x0",
        "input": "0x73fa805e000000000000000000000000254a2627eb0e2e3ded4cb2225afb8815f05e04e90000000000000000000000000000000000000000000000000000000000000001000000000000000000000000000000000000000000000000000000000000000100000000000000000000000000000000000000000000000000000000000000060000000000000000000000000000000000000000000000000000000000001d4c0000000000000000000000000000000000000000000000000000000000001f4000000000000000000000000000000000000000000000000000000000000001f400000000000000000000000000000000000000000000000000000000000003e800000000000000000000000000000000000000000000000000000000000000c84555520000000000000000000000000000000000000000000000000000000000000000000000000000000000b241a035fb7a8c46e1b8878d02bf666339a2005b0000000000000000000000000000000000000000000000000000048c273950000000000000000000000000000000000000000000000000000000048c273950000000000000000000000000000000000000000000000000000000000000000000",
        "nonce": "0xb",
        "chainId": "0x4cef52"
      },
      "additionalContracts": [],
      "isFixedGasLimit": false
    },
    {
      "hash": "0x1a25de91cedd70be3f76ebcbfaf5c7e6206e43aca63cb1cb97e7f7dc113e1880",
      "transactionType": "CALL",
      "contractName": "LendingPool",
      "contractAddress": "0xb574eb2fd1101a75070cda9673a6db207581c467",
      "function": "configureAsset(address,(bool,bool,uint8,uint16,uint16,uint16,uint16,uint16,bytes32,address,uint128,uint128,uint128))",
      "arguments": [
        "0xCDeA155469985F1E6910bbC53278Cb2008bff207",
        "(true, true, 18, 7500, 8000, 750, 1000, 0, 0x4554480000000000000000000000000000000000000000000000000000000000, 0xb241a035FB7A8C46E1b8878D02Bf666339A2005b, 1000000000000000000000, 2000000000000000000000, 0)"
      ],
      "transaction": {
        "from": "0xca14e37c862465677caa064c20bdbb6673f6fe48",
        "to": "0xb574eb2fd1101a75070cda9673a6db207581c467",
        "gas": "0x4ca98",
        "value": "0x0",
        "input": "0x73fa805e000000000000000000000000cdea155469985f1e6910bbc53278cb2008bff2070000000000000000000000000000000000000000000000000000000000000001000000000000000000000000000000000000000000000000000000000000000100000000000000000000000000000000000000000000000000000000000000120000000000000000000000000000000000000000000000000000000000001d4c0000000000000000000000000000000000000000000000000000000000001f4000000000000000000000000000000000000000000000000000000000000002ee00000000000000000000000000000000000000000000000000000000000003e800000000000000000000000000000000000000000000000000000000000000004554480000000000000000000000000000000000000000000000000000000000000000000000000000000000b241a035fb7a8c46e1b8878d02bf666339a2005b00000000000000000000000000000000000000000000003635c9adc5dea0000000000000000000000000000000000000000000000000006c6b935b8bbd4000000000000000000000000000000000000000000000000000000000000000000000",
        "nonce": "0xc",
        "chainId": "0x4cef52"
      },
      "additionalContracts": [],
      "isFixedGasLimit": false
    },
    {
      "hash": "0x4909cb8a3fa17a88e78e352fa710ad4bf5d9babc1b8341c2528672cb7d08ab3b",
      "transactionType": "CALL",
      "contractName": "LendingPool",
      "contractAddress": "0xb574eb2fd1101a75070cda9673a6db207581c467",
      "function": "configureFxCategory(bytes32,bytes32,(bool,uint16,uint16,uint16))",
      "arguments": [
        "0x5553440000000000000000000000000000000000000000000000000000000000",
        "0x4555520000000000000000000000000000000000000000000000000000000000",
        "(true, 9000, 9400, 250)"
      ],
      "transaction": {
        "from": "0xca14e37c862465677caa064c20bdbb6673f6fe48",
        "to": "0xb574eb2fd1101a75070cda9673a6db207581c467",
        "gas": "0x11b47",
        "value": "0x0",
        "input": "0xe6d48ed5555344000000000000000000000000000000000000000000000000000000000045555200000000000000000000000000000000000000000000000000000000000000000000000000000000000000000000000000000000000000000000000001000000000000000000000000000000000000000000000000000000000000232800000000000000000000000000000000000000000000000000000000000024b800000000000000000000000000000000000000000000000000000000000000fa",
        "nonce": "0xd",
        "chainId": "0x4cef52"
      },
      "additionalContracts": [],
      "isFixedGasLimit": false
    },
    {
      "hash": "0xbdbef7be7eec774bf79c1a54f045bcfecfff306473c45ff7574669b894f34d62",
      "transactionType": "CALL",
      "contractName": "MockERC20",
      "contractAddress": "0xe5f8c0bd7eda98f24f0b5002fa485d473fe7e7eb",
      "function": "mint(address,uint256)",
      "arguments": [
        "0xCa14e37C862465677caA064c20BDBB6673F6FE48",
        "1000000000000"
      ],
      "transaction": {
        "from": "0xca14e37c862465677caa064c20bdbb6673f6fe48",
        "to": "0xe5f8c0bd7eda98f24f0b5002fa485d473fe7e7eb",
        "gas": "0x16f69",
        "value": "0x0",
        "input": "0x40c10f19000000000000000000000000ca14e37c862465677caa064c20bdbb6673f6fe48000000000000000000000000000000000000000000000000000000e8d4a51000",
        "nonce": "0xe",
        "chainId": "0x4cef52"
      },
      "additionalContracts": [],
      "isFixedGasLimit": false
    },
    {
      "hash": "0xf0d17b3f965336f5b875a30503283e22909065b6742bdbc26f60c66c539d7b02",
      "transactionType": "CALL",
      "contractName": "MockERC20",
      "contractAddress": "0x254a2627eb0e2e3ded4cb2225afb8815f05e04e9",
      "function": "mint(address,uint256)",
      "arguments": [
        "0xCa14e37C862465677caA064c20BDBB6673F6FE48",
        "500000000000"
      ],
      "transaction": {
        "from": "0xca14e37c862465677caa064c20bdbb6673f6fe48",
        "to": "0x254a2627eb0e2e3ded4cb2225afb8815f05e04e9",
        "gas": "0x16f69",
        "value": "0x0",
        "input": "0x40c10f19000000000000000000000000ca14e37c862465677caa064c20bdbb6673f6fe48000000000000000000000000000000000000000000000000000000746a528800",
        "nonce": "0xf",
        "chainId": "0x4cef52"
      },
      "additionalContracts": [],
      "isFixedGasLimit": false
    },
    {
      "hash": "0x10ef9356c9c5be7b1a0cb4e386f1fdc3728359f511ae5674286581b7cabdd084",
      "transactionType": "CALL",
      "contractName": "MockERC20",
      "contractAddress": "0xcdea155469985f1e6910bbc53278cb2008bff207",
      "function": "mint(address,uint256)",
      "arguments": [
        "0xCa14e37C862465677caA064c20BDBB6673F6FE48",
        "100000000000000000000"
      ],
      "transaction": {
        "from": "0xca14e37c862465677caa064c20bdbb6673f6fe48",
        "to": "0xcdea155469985f1e6910bbc53278cb2008bff207",
        "gas": "0x16f9b",
        "value": "0x0",
        "input": "0x40c10f19000000000000000000000000ca14e37c862465677caa064c20bdbb6673f6fe480000000000000000000000000000000000000000000000056bc75e2d63100000",
        "nonce": "0x10",
        "chainId": "0x4cef52"
      },
      "additionalContracts": [],
      "isFixedGasLimit": false
    },
    {
      "hash": "0x177e7cb83af8e5082a8f3c3d10f84ab403bdf17257f07b1c835e7961d97ca70a",
      "transactionType": "CALL",
      "contractName": "MockERC20",
      "contractAddress": "0xe5f8c0bd7eda98f24f0b5002fa485d473fe7e7eb",
      "function": "approve(address,uint256)",
      "arguments": [
        "0xB574Eb2FD1101A75070Cda9673a6dB207581C467",
        "115792089237316195423570985008687907853269984665640564039457584007913129639935"
      ],
      "transaction": {
        "from": "0xca14e37c862465677caa064c20bdbb6673f6fe48",
        "to": "0xe5f8c0bd7eda98f24f0b5002fa485d473fe7e7eb",
        "gas": "0x10868",
        "value": "0x0",
        "input": "0x095ea7b3000000000000000000000000b574eb2fd1101a75070cda9673a6db207581c467ffffffffffffffffffffffffffffffffffffffffffffffffffffffffffffffff",
        "nonce": "0x11",
        "chainId": "0x4cef52"
      },
      "additionalContracts": [],
      "isFixedGasLimit": false
    },
    {
      "hash": "0x92283301b5f6a8d219c91eb7bc7687a1f25f5281f9f78234004793f12c445e88",
      "transactionType": "CALL",
      "contractName": "MockERC20",
      "contractAddress": "0x254a2627eb0e2e3ded4cb2225afb8815f05e04e9",
      "function": "approve(address,uint256)",
      "arguments": [
        "0xB574Eb2FD1101A75070Cda9673a6dB207581C467",
        "115792089237316195423570985008687907853269984665640564039457584007913129639935"
      ],
      "transaction": {
        "from": "0xca14e37c862465677caa064c20bdbb6673f6fe48",
        "to": "0x254a2627eb0e2e3ded4cb2225afb8815f05e04e9",
        "gas": "0x10868",
        "value": "0x0",
        "input": "0x095ea7b3000000000000000000000000b574eb2fd1101a75070cda9673a6db207581c467ffffffffffffffffffffffffffffffffffffffffffffffffffffffffffffffff",
        "nonce": "0x12",
        "chainId": "0x4cef52"
      },
      "additionalContracts": [],
      "isFixedGasLimit": false
    },
    {
      "hash": "0x1e1d5685273799afbab0404d74caad127a5f9807542bcfb51864e2ee38846634",
      "transactionType": "CALL",
      "contractName": "MockERC20",
      "contractAddress": "0xcdea155469985f1e6910bbc53278cb2008bff207",
      "function": "approve(address,uint256)",
      "arguments": [
        "0xB574Eb2FD1101A75070Cda9673a6dB207581C467",
        "115792089237316195423570985008687907853269984665640564039457584007913129639935"
      ],
      "transaction": {
        "from": "0xca14e37c862465677caa064c20bdbb6673f6fe48",
        "to": "0xcdea155469985f1e6910bbc53278cb2008bff207",
        "gas": "0x10868",
        "value": "0x0",
        "input": "0x095ea7b3000000000000000000000000b574eb2fd1101a75070cda9673a6db207581c467ffffffffffffffffffffffffffffffffffffffffffffffffffffffffffffffff",
        "nonce": "0x13",
        "chainId": "0x4cef52"
      },
      "additionalContracts": [],
      "isFixedGasLimit": false
    },
    {
      "hash": "0x01e4ab7195c627972c13ae0f2b69b646c9a9eb4d2673fe5b2bd1499c751ab951",
      "transactionType": "CALL",
      "contractName": "LendingPool",
      "contractAddress": "0xb574eb2fd1101a75070cda9673a6db207581c467",
      "function": "deposit(address,uint256)",
      "arguments": [
        "0xe5F8C0bD7Eda98F24f0B5002Fa485D473FE7E7Eb",
        "1000000000000"
      ],
      "transaction": {
        "from": "0xca14e37c862465677caa064c20bdbb6673f6fe48",
        "to": "0xb574eb2fd1101a75070cda9673a6db207581c467",
        "gas": "0x2aa27",
        "value": "0x0",
        "input": "0x47e7ef24000000000000000000000000e5f8c0bd7eda98f24f0b5002fa485d473fe7e7eb000000000000000000000000000000000000000000000000000000e8d4a51000",
        "nonce": "0x14",
        "chainId": "0x4cef52"
      },
      "additionalContracts": [],
      "isFixedGasLimit": false
    },
    {
      "hash": "0xa1ee3c66f0c15bf52b3eef02a9764f32266de31218cf48411e991939621d2e47",
      "transactionType": "CALL",
      "contractName": "LendingPool",
      "contractAddress": "0xb574eb2fd1101a75070cda9673a6db207581c467",
      "function": "deposit(address,uint256)",
      "arguments": [
        "0x254a2627EB0e2e3ded4CB2225AFb8815f05e04e9",
        "500000000000"
      ],
      "transaction": {
        "from": "0xca14e37c862465677caa064c20bdbb6673f6fe48",
        "to": "0xb574eb2fd1101a75070cda9673a6db207581c467",
        "gas": "0x2aa27",
        "value": "0x0",
        "input": "0x47e7ef24000000000000000000000000254a2627eb0e2e3ded4cb2225afb8815f05e04e9000000000000000000000000000000000000000000000000000000746a528800",
        "nonce": "0x15",
        "chainId": "0x4cef52"
      },
      "additionalContracts": [],
      "isFixedGasLimit": false
    },
    {
      "hash": "0x830ce21337e5062a5aa3d3fa996931cf696dafdb83ce1c344cc960a13f800b62",
      "transactionType": "CALL",
      "contractName": "LendingPool",
      "contractAddress": "0xb574eb2fd1101a75070cda9673a6db207581c467",
      "function": "deposit(address,uint256)",
      "arguments": [
        "0xCDeA155469985F1E6910bbC53278Cb2008bff207",
        "100000000000000000000"
      ],
      "transaction": {
        "from": "0xca14e37c862465677caa064c20bdbb6673f6fe48",
        "to": "0xb574eb2fd1101a75070cda9673a6db207581c467",
        "gas": "0x2c27e",
        "value": "0x0",
        "input": "0x47e7ef24000000000000000000000000cdea155469985f1e6910bbc53278cb2008bff2070000000000000000000000000000000000000000000000056bc75e2d63100000",
        "nonce": "0x16",
        "chainId": "0x4cef52"
      },
      "additionalContracts": [],
      "isFixedGasLimit": false
    }
  ],
  "receipts": [
    {
      "status": "0x1",
      "cumulativeGasUsed": "0xc5c722",
      "logs": [
        {
          "address": "0xb241a035fb7a8c46e1b8878d02bf666339a2005b",
          "topics": [
            "0x8be0079c531659141344cd1fd0a4f28419497f9722a3daafe3b4186f6b6457e0",
            "0x0000000000000000000000000000000000000000000000000000000000000000",
            "0x000000000000000000000000ca14e37c862465677caa064c20bdbb6673f6fe48"
          ],
          "data": "0x",
          "blockHash": "0x71773712c336748d5e3cde1860964b53a403cfa9594167f68914d5c83a260b48",
          "blockNumber": "0x2c6363c",
          "blockTimestamp": "0x6a2a742f",
          "transactionHash": "0xe012016cf7fcf3c00485ed478d7e7add1549bcff1f8ef9afb4ad49253fbc99d5",
          "transactionIndex": "0x5c",
          "logIndex": "0x115",
          "removed": false
        }
      ],
      "logsBloom": "0x00000000000000000000000000000000000000000000040000800000000000000000000000000000000000000000000000000000000000000000000000000000000000000000000000000000000000000001000000000000000000000000000000000000020000000000000000000800400000000000000000004000000000400000000000000000000000000000000000000000000000000000000000000000000000000000000000000000000000000000000000000000000000000000000000000000000000000000000000000000000000000000000000000000000020000080000000000000000000000100000000000000000001000000000000000000",
      "type": "0x2",
      "transactionHash": "0xe012016cf7fcf3c00485ed478d7e7add1549bcff1f8ef9afb4ad49253fbc99d5",
      "transactionIndex": "0x5c",
      "blockHash": "0x71773712c336748d5e3cde1860964b53a403cfa9594167f68914d5c83a260b48",
      "blockNumber": "0x2c6363c",
      "gasUsed": "0x4d681",
      "effectiveGasPrice": "0x4a85e3410",
      "from": "0xca14e37c862465677caa064c20bdbb6673f6fe48",
      "to": null,
      "contractAddress": "0xb241a035fb7a8c46e1b8878d02bf666339a2005b"
    },
    {
      "status": "0x1",
      "cumulativeGasUsed": "0xc67faf",
      "logs": [
        {
          "address": "0xb241a035fb7a8c46e1b8878d02bf666339a2005b",
          "topics": [
            "0xe6c09ffe4572dc9ceaa5ddde4ae41befa655d6fdfe8052077af0970f700e942e",
            "0x000000000000000000000000ca14e37c862465677caa064c20bdbb6673f6fe48"
          ],
          "data": "0x",
          "blockHash": "0x71773712c336748d5e3cde1860964b53a403cfa9594167f68914d5c83a260b48",
          "blockNumber": "0x2c6363c",
          "blockTimestamp": "0x6a2a742f",
          "transactionHash": "0x6532e9f71a50ca30276c3d3b675121f426806f28f1b598845a1027fddeaaa5f5",
          "transactionIndex": "0x5d",
          "logIndex": "0x116",
          "removed": false
        }
      ],
      "logsBloom": "0x00000000000000000000000000000000000000000000040000000000000000000000000000000000000000000000000000000000000000000000000000000000000000000000000000000000000000000000000000000000000000000000000000000000000000000000000000000000400000000000000000004000000000000000000000000000000000000000000000000000000000000000000000000000000000000000000000000000000000080000000000000000000000000080000000000000000000000000000000000000000000000000000000000000000000000080000000000000000000000100000000000100000001000000000000000000",
      "type": "0x2",
      "transactionHash": "0x6532e9f71a50ca30276c3d3b675121f426806f28f1b598845a1027fddeaaa5f5",
      "transactionIndex": "0x5d",
      "blockHash": "0x71773712c336748d5e3cde1860964b53a403cfa9594167f68914d5c83a260b48",
      "blockNumber": "0x2c6363c",
      "gasUsed": "0xb88d",
      "effectiveGasPrice": "0x4a85e3410",
      "from": "0xca14e37c862465677caa064c20bdbb6673f6fe48",
      "to": "0xb241a035fb7a8c46e1b8878d02bf666339a2005b",
      "contractAddress": null
    },
    {
      "status": "0x1",
      "cumulativeGasUsed": "0xce6e19",
      "logs": [],
      "logsBloom": "0x00000000000000000000000000000000000000000000000000000000000000000000000000000000000000000000000000000000000000000000000000000000000000000000000000000000000000000000000000000000000000000000000000000000000000000000000000000000000000000000000000000000000000000000000000000000000000000000000000000000000000000000000000000000000000000000000000000000000000000000000000000000000000000000000000000000000000000000000000000000000000000000000000000000000000000000000000000000000000000000000000000000000000000000000000000000",
      "type": "0x2",
      "transactionHash": "0x1e9c6137478b594411230f93b846f62eadd211fd3d0912880799b1958b852495",
      "transactionIndex": "0x5e",
      "blockHash": "0x71773712c336748d5e3cde1860964b53a403cfa9594167f68914d5c83a260b48",
      "blockNumber": "0x2c6363c",
      "gasUsed": "0x7ee6a",
      "effectiveGasPrice": "0x4a85e3410",
      "from": "0xca14e37c862465677caa064c20bdbb6673f6fe48",
      "to": null,
      "contractAddress": "0xe5f8c0bd7eda98f24f0b5002fa485d473fe7e7eb"
    },
    {
      "status": "0x1",
      "cumulativeGasUsed": "0x529b52",
      "logs": [],
      "logsBloom": "0x00000000000000000000000000000000000000000000000000000000000000000000000000000000000000000000000000000000000000000000000000000000000000000000000000000000000000000000000000000000000000000000000000000000000000000000000000000000000000000000000000000000000000000000000000000000000000000000000000000000000000000000000000000000000000000000000000000000000000000000000000000000000000000000000000000000000000000000000000000000000000000000000000000000000000000000000000000000000000000000000000000000000000000000000000000000",
      "type": "0x2",
      "transactionHash": "0x23a9e83e2c0134469898e10edadc2075fe1aa5963da074fe358b7d53af19cac0",
      "transactionIndex": "0x1e",
      "blockHash": "0x2e59ef4b77f186cc2df2a49eef8c9e7033b416f86d4b79f4c37dc60f45f3375f",
      "blockNumber": "0x2c6363d",
      "gasUsed": "0x7ee76",
      "effectiveGasPrice": "0x4a85e3410",
      "from": "0xca14e37c862465677caa064c20bdbb6673f6fe48",
      "to": null,
      "contractAddress": "0x254a2627eb0e2e3ded4cb2225afb8815f05e04e9"
    },
    {
      "status": "0x1",
      "cumulativeGasUsed": "0x5a89f8",
      "logs": [],
      "logsBloom": "0x00000000000000000000000000000000000000000000000000000000000000000000000000000000000000000000000000000000000000000000000000000000000000000000000000000000000000000000000000000000000000000000000000000000000000000000000000000000000000000000000000000000000000000000000000000000000000000000000000000000000000000000000000000000000000000000000000000000000000000000000000000000000000000000000000000000000000000000000000000000000000000000000000000000000000000000000000000000000000000000000000000000000000000000000000000000",
      "type": "0x2",
      "transactionHash": "0x70f58ad4f2d2fbde3510453a270760c39b57f140149cca0c77ded2d741d624f3",
      "transactionIndex": "0x1f",
      "blockHash": "0x2e59ef4b77f186cc2df2a49eef8c9e7033b416f86d4b79f4c37dc60f45f3375f",
      "blockNumber": "0x2c6363d",
      "gasUsed": "0x7eea6",
      "effectiveGasPrice": "0x4a85e3410",
      "from": "0xca14e37c862465677caa064c20bdbb6673f6fe48",
      "to": null,
      "contractAddress": "0xcdea155469985f1e6910bbc53278cb2008bff207"
    },
    {
      "status": "0x1",
      "cumulativeGasUsed": "0x5b35bd",
      "logs": [],
      "logsBloom": "0x00000000000000000000000000000000000000000000000000000000000000000000000000000000000000000000000000000000000000000000000000000000000000000000000000000000000000000000000000000000000000000000000000000000000000000000000000000000000000000000000000000000000000000000000000000000000000000000000000000000000000000000000000000000000000000000000000000000000000000000000000000000000000000000000000000000000000000000000000000000000000000000000000000000000000000000000000000000000000000000000000000000000000000000000000000000",
      "type": "0x2",
      "transactionHash": "0x9be8ab7e4198c9edeb964bd64912239c9047f7ad8ac1d44d95d332fa5c8bc6bd",
      "transactionIndex": "0x20",
      "blockHash": "0x2e59ef4b77f186cc2df2a49eef8c9e7033b416f86d4b79f4c37dc60f45f3375f",
      "blockNumber": "0x2c6363d",
      "gasUsed": "0xabc5",
      "effectiveGasPrice": "0x4a85e3410",
      "from": "0xca14e37c862465677caa064c20bdbb6673f6fe48",
      "to": "0xb241a035fb7a8c46e1b8878d02bf666339a2005b",
      "contractAddress": null
    },
    {
      "status": "0x1",
      "cumulativeGasUsed": "0x5be182",
      "logs": [],
      "logsBloom": "0x00000000000000000000000000000000000000000000000000000000000000000000000000000000000000000000000000000000000000000000000000000000000000000000000000000000000000000000000000000000000000000000000000000000000000000000000000000000000000000000000000000000000000000000000000000000000000000000000000000000000000000000000000000000000000000000000000000000000000000000000000000000000000000000000000000000000000000000000000000000000000000000000000000000000000000000000000000000000000000000000000000000000000000000000000000000",
      "type": "0x2",
      "transactionHash": "0x598edba40b4636c6398613cb6815d4c71bd38c5a480335dee693c1e194d811fd",
      "transactionIndex": "0x21",
      "blockHash": "0x2e59ef4b77f186cc2df2a49eef8c9e7033b416f86d4b79f4c37dc60f45f3375f",
      "blockNumber": "0x2c6363d",
      "gasUsed": "0xabc5",
      "effectiveGasPrice": "0x4a85e3410",
      "from": "0xca14e37c862465677caa064c20bdbb6673f6fe48",
      "to": "0xb241a035fb7a8c46e1b8878d02bf666339a2005b",
      "contractAddress": null
    },
    {
      "status": "0x1",
      "cumulativeGasUsed": "0x5c8d53",
      "logs": [],
      "logsBloom": "0x00000000000000000000000000000000000000000000000000000000000000000000000000000000000000000000000000000000000000000000000000000000000000000000000000000000000000000000000000000000000000000000000000000000000000000000000000000000000000000000000000000000000000000000000000000000000000000000000000000000000000000000000000000000000000000000000000000000000000000000000000000000000000000000000000000000000000000000000000000000000000000000000000000000000000000000000000000000000000000000000000000000000000000000000000000000",
      "type": "0x2",
      "transactionHash": "0x46fb043bc10c705f92f01ed08cab41ec7079b8bae00f33b5ead5d0479b28fe76",
      "transactionIndex": "0x22",
      "blockHash": "0x2e59ef4b77f186cc2df2a49eef8c9e7033b416f86d4b79f4c37dc60f45f3375f",
      "blockNumber": "0x2c6363d",
      "gasUsed": "0xabd1",
      "effectiveGasPrice": "0x4a85e3410",
      "from": "0xca14e37c862465677caa064c20bdbb6673f6fe48",
      "to": "0xb241a035fb7a8c46e1b8878d02bf666339a2005b",
      "contractAddress": null
    },
    {
      "status": "0x1",
      "cumulativeGasUsed": "0x4c587b",
      "logs": [
        {
          "address": "0xb574eb2fd1101a75070cda9673a6db207581c467",
          "topics": [
            "0x8be0079c531659141344cd1fd0a4f28419497f9722a3daafe3b4186f6b6457e0",
            "0x0000000000000000000000000000000000000000000000000000000000000000",
            "0x000000000000000000000000ca14e37c862465677caa064c20bdbb6673f6fe48"
          ],
          "data": "0x",
          "blockHash": "0xcbae52048b43f4eb0988479c7870e61b800a200cff4edec05f40d077e7e54b70",
          "blockNumber": "0x2c6363e",
          "blockTimestamp": "0x6a2a7430",
          "transactionHash": "0x10ef9356c9c5be7b1a0cb4e386f1fdc3728359f511ae5674286581b7cabdd084",
          "transactionIndex": "0x9",
          "logIndex": "0x18",
          "removed": false
        }
      ],
      "logsBloom": "0x00040000000000000000000000000000000000000000040000800000000000000000000000000000000000000000000000000000000000000000000000000000000000000000000000000000000000000001000000000000000000000000000000000000020000000000000000000800000000000000000000000000000000400000000000000010000000000000000000000000000000000000000000000000000000000000000000000000000000000800000000000000000000000000000000000000000000000000000000000000000000000000000000000000000020000080000000000000000000000000000000000000000001000000000000000000",
      "type": "0x2",
      "transactionHash": "0x10ef9356c9c5be7b1a0cb4e386f1fdc3728359f511ae5674286581b7cabdd084",
      "transactionIndex": "0x9",
      "blockHash": "0xcbae52048b43f4eb0988479c7870e61b800a200cff4edec05f40d077e7e54b70",
      "blockNumber": "0x2c6363e",
      "gasUsed": "0x3ee99d",
      "effectiveGasPrice": "0x4a85e3410",
      "from": "0xca14e37c862465677caa064c20bdbb6673f6fe48",
      "to": null,
      "contractAddress": "0xb574eb2fd1101a75070cda9673a6db207581c467"
    },
    {
      "status": "0x1",
      "cumulativeGasUsed": "0x4d12f2",
      "logs": [
        {
          "address": "0xb574eb2fd1101a75070cda9673a6db207581c467",
          "topics": [
            "0x5f5e1360fb9bbf3f1dd392d5153831cc6fa952aad577bbbb06e51fea4174cd08",
            "0x000000000000000000000000ca14e37c862465677caa064c20bdbb6673f6fe48"
          ],
          "data": "0x",
          "blockHash": "0xcbae52048b43f4eb0988479c7870e61b800a200cff4edec05f40d077e7e54b70",
          "blockNumber": "0x2c6363e",
          "blockTimestamp": "0x6a2a7430",
          "transactionHash": "0x5073c4ca56b8a0f3ff7cdf7b1c77a1f114f32a0f20770dd4721813cbc1caa09d",
          "transactionIndex": "0xa",
          "logIndex": "0x19",
          "removed": false
        }
      ],
      "logsBloom": "0x00040000000000000000000000000020000000000000040000000000000000000000000000000000000000000000000000000000000000000000000000000000000000000000000000000000000000000001000000000000000000000000000000000000000000000000000000000000000000000000000000000000000000000000000000000010000000000000000000000000000000000000000000000000000000000000000000000000000000000800000000000000000000000000000000000000000000000000000000000000000000000000000000000000000000000080000000000000000000000000080000000000000001000000000000000000",
      "type": "0x2",
      "transactionHash": "0x5073c4ca56b8a0f3ff7cdf7b1c77a1f114f32a0f20770dd4721813cbc1caa09d",
      "transactionIndex": "0xa",
      "blockHash": "0xcbae52048b43f4eb0988479c7870e61b800a200cff4edec05f40d077e7e54b70",
      "blockNumber": "0x2c6363e",
      "gasUsed": "0xba77",
      "effectiveGasPrice": "0x4a85e3410",
      "from": "0xca14e37c862465677caa064c20bdbb6673f6fe48",
      "to": "0xb574eb2fd1101a75070cda9673a6db207581c467",
      "contractAddress": null
    },
    {
      "status": "0x1",
      "cumulativeGasUsed": "0x509c4d",
      "logs": [
        {
          "address": "0xb574eb2fd1101a75070cda9673a6db207581c467",
          "topics": [
            "0xa00b5a1af86b3918c33074f107448b7f5472638023dd5354b58dca1bc6384e46",
            "0x000000000000000000000000e5f8c0bd7eda98f24f0b5002fa485d473fe7e7eb"
          ],
          "data": "0x",
          "blockHash": "0xcbae52048b43f4eb0988479c7870e61b800a200cff4edec05f40d077e7e54b70",
          "blockNumber": "0x2c6363e",
          "blockTimestamp": "0x6a2a7430",
          "transactionHash": "0xf0d17b3f965336f5b875a30503283e22909065b6742bdbc26f60c66c539d7b02",
          "transactionIndex": "0xb",
          "logIndex": "0x1a",
          "removed": false
        }
      ],
      "logsBloom": "0x00040000000000000000000000000000000000000000000000000000000000000000000000000000000000000000000000010000000000000000000000000000000000000000000000000000000000000000000000000000000000000000000000000000000000000000000000080000000008000000000000000000000000000000000000000010000000000000000000000000000000000000000000002000000000000000000000000000000000000800000000000000000000000000000000000000000000000000000000000000000000000001000000000000000000000000000002000000000000000000000000000000000000000000000000000000",
      "type": "0x2",
      "transactionHash": "0xf0d17b3f965336f5b875a30503283e22909065b6742bdbc26f60c66c539d7b02",
      "transactionIndex": "0xb",
      "blockHash": "0xcbae52048b43f4eb0988479c7870e61b800a200cff4edec05f40d077e7e54b70",
      "blockNumber": "0x2c6363e",
      "gasUsed": "0x3895b",
      "effectiveGasPrice": "0x4a85e3410",
      "from": "0xca14e37c862465677caa064c20bdbb6673f6fe48",
      "to": "0xb574eb2fd1101a75070cda9673a6db207581c467",
      "contractAddress": null
    },
    {
      "status": "0x1",
      "cumulativeGasUsed": "0x53e2dc",
      "logs": [
        {
          "address": "0xb574eb2fd1101a75070cda9673a6db207581c467",
          "topics": [
            "0xa00b5a1af86b3918c33074f107448b7f5472638023dd5354b58dca1bc6384e46",
            "0x000000000000000000000000254a2627eb0e2e3ded4cb2225afb8815f05e04e9"
          ],
          "data": "0x",
          "blockHash": "0xcbae52048b43f4eb0988479c7870e61b800a200cff4edec05f40d077e7e54b70",
          "blockNumber": "0x2c6363e",
          "blockTimestamp": "0x6a2a7430",
          "transactionHash": "0xbdbef7be7eec774bf79c1a54f045bcfecfff306473c45ff7574669b894f34d62",
          "transactionIndex": "0xc",
          "logIndex": "0x1b",
          "removed": false
        }
      ],
      "logsBloom": "0x00040000000000000000000000000000000000000000000000000000000000000000000000000000000000000000000000000000000000000000000000000000000000000000000000000000000000000000000000000000000000000000000000000000000000000000000000000000000008000000000000000000000000000000400000000010000000000000000000000000000000000000000000000000000000000000000000000000000000000800000000000000000000000000000000000000000000000000000000000000000000000001000000200000000000000000000002000000000000000004000000000000000000000000000000000000",
      "type": "0x2",
      "transactionHash": "0xbdbef7be7eec774bf79c1a54f045bcfecfff306473c45ff7574669b894f34d62",
      "transactionIndex": "0xc",
      "blockHash": "0xcbae52048b43f4eb0988479c7870e61b800a200cff4edec05f40d077e7e54b70",
      "blockNumber": "0x2c6363e",
      "gasUsed": "0x3468f",
      "effectiveGasPrice": "0x4a85e3410",
      "from": "0xca14e37c862465677caa064c20bdbb6673f6fe48",
      "to": "0xb574eb2fd1101a75070cda9673a6db207581c467",
      "contractAddress": null
    },
    {
      "status": "0x1",
      "cumulativeGasUsed": "0x57298f",
      "logs": [
        {
          "address": "0xb574eb2fd1101a75070cda9673a6db207581c467",
          "topics": [
            "0xa00b5a1af86b3918c33074f107448b7f5472638023dd5354b58dca1bc6384e46",
            "0x000000000000000000000000cdea155469985f1e6910bbc53278cb2008bff207"
          ],
          "data": "0x",
          "blockHash": "0xcbae52048b43f4eb0988479c7870e61b800a200cff4edec05f40d077e7e54b70",
          "blockNumber": "0x2c6363e",
          "blockTimestamp": "0x6a2a7430",
          "transactionHash": "0x1a25de91cedd70be3f76ebcbfaf5c7e6206e43aca63cb1cb97e7f7dc113e1880",
          "transactionIndex": "0xd",
          "logIndex": "0x1c",
          "removed": false
        }
      ],
      "logsBloom": "0x00040000000000000000000000000000000000000000001000000000000000000000000000000000000000000000000000000000000000000000000000000000000000000000000000000000000000000000000000000000000000000000000000000000000000000000000000000000000008000000000000000000000000000000000000000010000000000000000000000000000000000000000000000000000000000000000000000000000000000800000000000000000000000000008080000000000000000000000000000000000000000001000000000000000000000000000002000000000000000000000000000000000000000000000000000000",
      "type": "0x2",
      "transactionHash": "0x1a25de91cedd70be3f76ebcbfaf5c7e6206e43aca63cb1cb97e7f7dc113e1880",
      "transactionIndex": "0xd",
      "blockHash": "0xcbae52048b43f4eb0988479c7870e61b800a200cff4edec05f40d077e7e54b70",
      "blockNumber": "0x2c6363e",
      "gasUsed": "0x346b3",
      "effectiveGasPrice": "0x4a85e3410",
      "from": "0xca14e37c862465677caa064c20bdbb6673f6fe48",
      "to": "0xb574eb2fd1101a75070cda9673a6db207581c467",
      "contractAddress": null
    },
    {
      "status": "0x1",
      "cumulativeGasUsed": "0x57eb41",
      "logs": [
        {
          "address": "0xb574eb2fd1101a75070cda9673a6db207581c467",
          "topics": [
            "0xbc880007dd2fa1a4ba4546a4d7b84022dfa435a85cdfaf32c934f547c69bbabc",
            "0x0e7ee5309ab2a09aece1eb4df9ac5bec17bf70ae1e05e4517316b8a631607506"
          ],
          "data": "0x",
          "blockHash": "0xcbae52048b43f4eb0988479c7870e61b800a200cff4edec05f40d077e7e54b70",
          "blockNumber": "0x2c6363e",
          "blockTimestamp": "0x6a2a7430",
          "transactionHash": "0x91717508e9ba618a7dcb8b8536b7732b2700631442e72a11b613f572dd48b32c",
          "transactionIndex": "0xe",
          "logIndex": "0x1d",
          "removed": false
        }
      ],
      "logsBloom": "0x00040000000000000000000000000000000000000000000000000004001000000000000000000800000000000000000000000000000000000000000000000000000000000000000000000000000000000008000000000000000000000000000000000000000000000000000000000000000000000000000000000000000000000000000000000010000000000000000000000000000000080000000000000000000000000000000000000000000000000800000000000000000000004000000000000000000000000000000000000000000000000000000000000000000000000000000000000000000000000000000000000000000000000000000000000000",
      "type": "0x2",
      "transactionHash": "0x91717508e9ba618a7dcb8b8536b7732b2700631442e72a11b613f572dd48b32c",
      "transactionIndex": "0xe",
      "blockHash": "0xcbae52048b43f4eb0988479c7870e61b800a200cff4edec05f40d077e7e54b70",
      "blockNumber": "0x2c6363e",
      "gasUsed": "0xc1b2",
      "effectiveGasPrice": "0x4a85e3410",
      "from": "0xca14e37c862465677caa064c20bdbb6673f6fe48",
      "to": "0xb574eb2fd1101a75070cda9673a6db207581c467",
      "contractAddress": null
    },
    {
      "status": "0x1",
      "cumulativeGasUsed": "0x58f541",
      "logs": [
        {
          "address": "0xe5f8c0bd7eda98f24f0b5002fa485d473fe7e7eb",
          "topics": [
            "0xddf252ad1be2c89b69c2b068fc378daa952ba7f163c4a11628f55a4df523b3ef",
            "0x0000000000000000000000000000000000000000000000000000000000000000",
            "0x000000000000000000000000ca14e37c862465677caa064c20bdbb6673f6fe48"
          ],
          "data": "0x000000000000000000000000000000000000000000000000000000e8d4a51000",
          "blockHash": "0xcbae52048b43f4eb0988479c7870e61b800a200cff4edec05f40d077e7e54b70",
          "blockNumber": "0x2c6363e",
          "blockTimestamp": "0x6a2a7430",
          "transactionHash": "0x5f9f15ae278c4fcda081d283a1b2774ee35a1e71572a591cc33e58659f22d93a",
          "transactionIndex": "0xf",
          "logIndex": "0x1e",
          "removed": false
        }
      ],
      "logsBloom": "0x00000000000000000000000000000000000000000000040000000000000000000000000000000000000000000000000000000000000000000000000000000000000000000000000000000008000000000000000000000000100000000000000000000000020000000000000000000800000000000000000000000010000000000000000040000000000000000000000000000000000000000000000000000000000000000000000000000000000000000000000000000000000000000000000000400002000000000000000000000000000000000000000000000000000020000080000000000000000000000000000000000000000001000000000000000000",
      "type": "0x2",
      "transactionHash": "0x5f9f15ae278c4fcda081d283a1b2774ee35a1e71572a591cc33e58659f22d93a",
      "transactionIndex": "0xf",
      "blockHash": "0xcbae52048b43f4eb0988479c7870e61b800a200cff4edec05f40d077e7e54b70",
      "blockNumber": "0x2c6363e",
      "gasUsed": "0x10a00",
      "effectiveGasPrice": "0x4a85e3410",
      "from": "0xca14e37c862465677caa064c20bdbb6673f6fe48",
      "to": "0xe5f8c0bd7eda98f24f0b5002fa485d473fe7e7eb",
      "contractAddress": null
    },
    {
      "status": "0x1",
      "cumulativeGasUsed": "0x59ff41",
      "logs": [
        {
          "address": "0x254a2627eb0e2e3ded4cb2225afb8815f05e04e9",
          "topics": [
            "0xddf252ad1be2c89b69c2b068fc378daa952ba7f163c4a11628f55a4df523b3ef",
            "0x0000000000000000000000000000000000000000000000000000000000000000",
            "0x000000000000000000000000ca14e37c862465677caa064c20bdbb6673f6fe48"
          ],
          "data": "0x000000000000000000000000000000000000000000000000000000746a528800",
          "blockHash": "0xcbae52048b43f4eb0988479c7870e61b800a200cff4edec05f40d077e7e54b70",
          "blockNumber": "0x2c6363e",
          "blockTimestamp": "0x6a2a7430",
          "transactionHash": "0x673a1a9910d525c41dc4d071617bfb879882c7d379f724d7764581ad2398568b",
          "transactionIndex": "0x10",
          "logIndex": "0x1f",
          "removed": false
        }
      ],
      "logsBloom": "0x00000000000000000000000000000000000000000000040000000000000000000000000000000000000000000000000000200000000000000000000000000000000000000000000000000008000000000000000000000000000000000000000000000000020000000000000000000800000020000000000000000010000000000000000000000000000000000000000000000000000000000000000000000000000000000000000000000000000000000000000000000000000000000000000000000002000000000000000000000000000000000000000000000800000020000080000000000000000000000000000000000000000001000000000000000000",
      "type": "0x2",
      "transactionHash": "0x673a1a9910d525c41dc4d071617bfb879882c7d379f724d7764581ad2398568b",
      "transactionIndex": "0x10",
      "blockHash": "0xcbae52048b43f4eb0988479c7870e61b800a200cff4edec05f40d077e7e54b70",
      "blockNumber": "0x2c6363e",
      "gasUsed": "0x10a00",
      "effectiveGasPrice": "0x4a85e3410",
      "from": "0xca14e37c862465677caa064c20bdbb6673f6fe48",
      "to": "0x254a2627eb0e2e3ded4cb2225afb8815f05e04e9",
      "contractAddress": null
    },
    {
      "status": "0x1",
      "cumulativeGasUsed": "0x5b0965",
      "logs": [
        {
          "address": "0xcdea155469985f1e6910bbc53278cb2008bff207",
          "topics": [
            "0xddf252ad1be2c89b69c2b068fc378daa952ba7f163c4a11628f55a4df523b3ef",
            "0x0000000000000000000000000000000000000000000000000000000000000000",
            "0x000000000000000000000000ca14e37c862465677caa064c20bdbb6673f6fe48"
          ],
          "data": "0x0000000000000000000000000000000000000000000000056bc75e2d63100000",
          "blockHash": "0xcbae52048b43f4eb0988479c7870e61b800a200cff4edec05f40d077e7e54b70",
          "blockNumber": "0x2c6363e",
          "blockTimestamp": "0x6a2a7430",
          "transactionHash": "0x4909cb8a3fa17a88e78e352fa710ad4bf5d9babc1b8341c2528672cb7d08ab3b",
          "transactionIndex": "0x11",
          "logIndex": "0x20",
          "removed": false
        }
      ],
      "logsBloom": "0x00000000000000000000000000000000000000000000040000000000000000000000000000000000000000000000000000000000000000000000000000000000000000000000000000000008000000000000000000000000000000000000000000000040020000000000000000000800000000000000000000000010000000000000000000000004000000000000000000000000000000000000000000000000000000000000000000000000000000000000000000000000000000000000000000000002000000000008000000000000000000000000000000000000000020000080000000000000000000000000000000000000000001000000000000000000",
      "type": "0x2",
      "transactionHash": "0x4909cb8a3fa17a88e78e352fa710ad4bf5d9babc1b8341c2528672cb7d08ab3b",
      "transactionIndex": "0x11",
      "blockHash": "0xcbae52048b43f4eb0988479c7870e61b800a200cff4edec05f40d077e7e54b70",
      "blockNumber": "0x2c6363e",
      "gasUsed": "0x10a24",
      "effectiveGasPrice": "0x4a85e3410",
      "from": "0xca14e37c862465677caa064c20bdbb6673f6fe48",
      "to": "0xcdea155469985f1e6910bbc53278cb2008bff207",
      "contractAddress": null
    },
    {
      "status": "0x1",
      "cumulativeGasUsed": "0x5bbe30",
      "logs": [
        {
          "address": "0xe5f8c0bd7eda98f24f0b5002fa485d473fe7e7eb",
          "topics": [
            "0x8c5be1e5ebec7d5bd14f71427d1e84f3dd0314c0f7b2291e5b200ac8c7c3b925",
            "0x000000000000000000000000ca14e37c862465677caa064c20bdbb6673f6fe48",
            "0x000000000000000000000000b574eb2fd1101a75070cda9673a6db207581c467"
          ],
          "data": "0xffffffffffffffffffffffffffffffffffffffffffffffffffffffffffffffff",
          "blockHash": "0xcbae52048b43f4eb0988479c7870e61b800a200cff4edec05f40d077e7e54b70",
          "blockNumber": "0x2c6363e",
          "blockTimestamp": "0x6a2a7430",
          "transactionHash": "0x177e7cb83af8e5082a8f3c3d10f84ab403bdf17257f07b1c835e7961d97ca70a",
          "transactionIndex": "0x12",
          "logIndex": "0x21",
          "removed": false
        }
      ],
      "logsBloom": "0x00000000000000000000000000000000000000000000040000000000000000000000000000000000000000000000000000000000000000000000000000200000000000000000000000000000000400000000000000000000100000000000000000000000000000000000000000010000000000000000000000000000000000000000000040000000000000000000000000000000000000000000000000000000021000000000000000000000000000000000000000000000000000000000000000400000000000000000000000000000000000000000000000000000000000000090000000000000000000000000000000000000000001000000000000000000",
      "type": "0x2",
      "transactionHash": "0x177e7cb83af8e5082a8f3c3d10f84ab403bdf17257f07b1c835e7961d97ca70a",
      "transactionIndex": "0x12",
      "blockHash": "0xcbae52048b43f4eb0988479c7870e61b800a200cff4edec05f40d077e7e54b70",
      "blockNumber": "0x2c6363e",
      "gasUsed": "0xb4cb",
      "effectiveGasPrice": "0x4a85e3410",
      "from": "0xca14e37c862465677caa064c20bdbb6673f6fe48",
      "to": "0xe5f8c0bd7eda98f24f0b5002fa485d473fe7e7eb",
      "contractAddress": null
    },
    {
      "status": "0x1",
      "cumulativeGasUsed": "0x46d087",
      "logs": [
        {
          "address": "0x254a2627eb0e2e3ded4cb2225afb8815f05e04e9",
          "topics": [
            "0x8c5be1e5ebec7d5bd14f71427d1e84f3dd0314c0f7b2291e5b200ac8c7c3b925",
            "0x000000000000000000000000ca14e37c862465677caa064c20bdbb6673f6fe48",
            "0x000000000000000000000000b574eb2fd1101a75070cda9673a6db207581c467"
          ],
          "data": "0xffffffffffffffffffffffffffffffffffffffffffffffffffffffffffffffff",
          "blockHash": "0x4d374712e6b560b0c20838e4e939cb6713ccffbc15b11629c9ff8f289cd5b482",
          "blockNumber": "0x2c63641",
          "blockTimestamp": "0x6a2a7432",
          "transactionHash": "0x01e4ab7195c627972c13ae0f2b69b646c9a9eb4d2673fe5b2bd1499c751ab951",
          "transactionIndex": "0x25",
          "logIndex": "0x5c",
          "removed": false
        }
      ],
      "logsBloom": "0x00000000000000000000000000000000000000000000040000000000000000000000000000000000000000000000000000200000000000000000000000200000000000000000000000000000000400000000000000000000000000000000000000000000000000000000000000010000000020000000000000000000000000000000000000000000000000000000000000000000000000000000000000000000021000000000000000000000000000000000000000000000000000000000000000000000000000000000000000000000000000000000000000000800000000000090000000000000000000000000000000000000000001000000000000000000",
      "type": "0x2",
      "transactionHash": "0x01e4ab7195c627972c13ae0f2b69b646c9a9eb4d2673fe5b2bd1499c751ab951",
      "transactionIndex": "0x25",
      "blockHash": "0x4d374712e6b560b0c20838e4e939cb6713ccffbc15b11629c9ff8f289cd5b482",
      "blockNumber": "0x2c63641",
      "gasUsed": "0xb4cb",
      "effectiveGasPrice": "0x4a85e3410",
      "from": "0xca14e37c862465677caa064c20bdbb6673f6fe48",
      "to": "0x254a2627eb0e2e3ded4cb2225afb8815f05e04e9",
      "contractAddress": null
    },
    {
      "status": "0x1",
      "cumulativeGasUsed": "0x478552",
      "logs": [
        {
          "address": "0xcdea155469985f1e6910bbc53278cb2008bff207",
          "topics": [
            "0x8c5be1e5ebec7d5bd14f71427d1e84f3dd0314c0f7b2291e5b200ac8c7c3b925",
            "0x000000000000000000000000ca14e37c862465677caa064c20bdbb6673f6fe48",
            "0x000000000000000000000000b574eb2fd1101a75070cda9673a6db207581c467"
          ],
          "data": "0xffffffffffffffffffffffffffffffffffffffffffffffffffffffffffffffff",
          "blockHash": "0x4d374712e6b560b0c20838e4e939cb6713ccffbc15b11629c9ff8f289cd5b482",
          "blockNumber": "0x2c63641",
          "blockTimestamp": "0x6a2a7432",
          "transactionHash": "0x92283301b5f6a8d219c91eb7bc7687a1f25f5281f9f78234004793f12c445e88",
          "transactionIndex": "0x26",
          "logIndex": "0x5d",
          "removed": false
        }
      ],
      "logsBloom": "0x00000000000000000000000000000000000000000000040000000000000000000000000000000000000000000000000000000000000000000000000000200000000000000000000000000000000400000000000000000000000000000000000000000040000000000000000000010000000000000000000000000000000000000000000000000004000000000000000000000000000000000000000000000000021000000000000000000000000000000000000000000000000000000000000000000000000000000008000000000000000000000000000000000000000000000090000000000000000000000000000000000000000001000000000000000000",
      "type": "0x2",
      "transactionHash": "0x92283301b5f6a8d219c91eb7bc7687a1f25f5281f9f78234004793f12c445e88",
      "transactionIndex": "0x26",
      "blockHash": "0x4d374712e6b560b0c20838e4e939cb6713ccffbc15b11629c9ff8f289cd5b482",
      "blockNumber": "0x2c63641",
      "gasUsed": "0xb4cb",
      "effectiveGasPrice": "0x4a85e3410",
      "from": "0xca14e37c862465677caa064c20bdbb6673f6fe48",
      "to": "0xcdea155469985f1e6910bbc53278cb2008bff207",
      "contractAddress": null
    },
    {
      "status": "0x1",
      "cumulativeGasUsed": "0x497489",
      "logs": [
        {
          "address": "0xb574eb2fd1101a75070cda9673a6db207581c467",
          "topics": [
            "0x51eedbe668e048aec37e4dc0104031dbf295c9f3b35bfd9cb73a217b6ff81259",
            "0x000000000000000000000000e5f8c0bd7eda98f24f0b5002fa485d473fe7e7eb"
          ],
          "data": "0x0000000000000000000000000000000000000000033b2e3c9fd0803ce80000000000000000000000000000000000000000000000033b2e3c9fd0803ce8000000000000000000000000000000000000000000000000084595161401484a000000",
          "blockHash": "0x4d374712e6b560b0c20838e4e939cb6713ccffbc15b11629c9ff8f289cd5b482",
          "blockNumber": "0x2c63641",
          "blockTimestamp": "0x6a2a7432",
          "transactionHash": "0x1e1d5685273799afbab0404d74caad127a5f9807542bcfb51864e2ee38846634",
          "transactionIndex": "0x27",
          "logIndex": "0x5e",
          "removed": false
        },
        {
          "address": "0xe5f8c0bd7eda98f24f0b5002fa485d473fe7e7eb",
          "topics": [
            "0xddf252ad1be2c89b69c2b068fc378daa952ba7f163c4a11628f55a4df523b3ef",
            "0x000000000000000000000000ca14e37c862465677caa064c20bdbb6673f6fe48",
            "0x000000000000000000000000b574eb2fd1101a75070cda9673a6db207581c467"
          ],
          "data": "0x000000000000000000000000000000000000000000000000000000e8d4a51000",
          "blockHash": "0x4d374712e6b560b0c20838e4e939cb6713ccffbc15b11629c9ff8f289cd5b482",
          "blockNumber": "0x2c63641",
          "blockTimestamp": "0x6a2a7432",
          "transactionHash": "0x1e1d5685273799afbab0404d74caad127a5f9807542bcfb51864e2ee38846634",
          "transactionIndex": "0x27",
          "logIndex": "0x5f",
          "removed": false
        },
        {
          "address": "0xb574eb2fd1101a75070cda9673a6db207581c467",
          "topics": [
            "0xf5681f9d0db1b911ac18ee83d515a1cf1051853a9eae418316a2fdf7dea427c5",
            "0x000000000000000000000000e5f8c0bd7eda98f24f0b5002fa485d473fe7e7eb",
            "0x000000000000000000000000ca14e37c862465677caa064c20bdbb6673f6fe48"
          ],
          "data": "0x000000000000000000000000000000000000000000000000000000e8d4a51000000000000000000000000000000000000000000000000000000000e8d4a51000",
          "blockHash": "0x4d374712e6b560b0c20838e4e939cb6713ccffbc15b11629c9ff8f289cd5b482",
          "blockNumber": "0x2c63641",
          "blockTimestamp": "0x6a2a7432",
          "transactionHash": "0x1e1d5685273799afbab0404d74caad127a5f9807542bcfb51864e2ee38846634",
          "transactionIndex": "0x27",
          "logIndex": "0x60",
          "removed": false
        }
      ],
      "logsBloom": "0x00040000000000000000000000000000000000000000040000000000000000000000100000000000000000000000000080010000000000000000000000000000000000800000000000000008000400000000000000000000100000000000000000000000000008000000000000090000000000000000100000000010000000000000000040000010000000000000000000000000000000000000000000002000001000000000000000000000000000000800000000000000000000000000000000400002000000000000000000000010000000000000000000000000000000000080000000000000000000000000000000000000000001000000000000000000",
      "type": "0x2",
      "transactionHash": "0x1e1d5685273799afbab0404d74caad127a5f9807542bcfb51864e2ee38846634",
      "transactionIndex": "0x27",
      "blockHash": "0x4d374712e6b560b0c20838e4e939cb6713ccffbc15b11629c9ff8f289cd5b482",
      "blockNumber": "0x2c63641",
      "gasUsed": "0x1ef37",
      "effectiveGasPrice": "0x4a85e3410",
      "from": "0xca14e37c862465677caa064c20bdbb6673f6fe48",
      "to": "0xb574eb2fd1101a75070cda9673a6db207581c467",
      "contractAddress": null
    },
    {
      "status": "0x1",
      "cumulativeGasUsed": "0x4b63c0",
      "logs": [
        {
          "address": "0xb574eb2fd1101a75070cda9673a6db207581c467",
          "topics": [
            "0x51eedbe668e048aec37e4dc0104031dbf295c9f3b35bfd9cb73a217b6ff81259",
            "0x000000000000000000000000254a2627eb0e2e3ded4cb2225afb8815f05e04e9"
          ],
          "data": "0x0000000000000000000000000000000000000000033b2e3c9fd0803ce80000000000000000000000000000000000000000000000033b2e3c9fd0803ce8000000000000000000000000000000000000000000000000108b2a2c28029094000000",
          "blockHash": "0x4d374712e6b560b0c20838e4e939cb6713ccffbc15b11629c9ff8f289cd5b482",
          "blockNumber": "0x2c63641",
          "blockTimestamp": "0x6a2a7432",
          "transactionHash": "0x830ce21337e5062a5aa3d3fa996931cf696dafdb83ce1c344cc960a13f800b62",
          "transactionIndex": "0x28",
          "logIndex": "0x61",
          "removed": false
        },
        {
          "address": "0x254a2627eb0e2e3ded4cb2225afb8815f05e04e9",
          "topics": [
            "0xddf252ad1be2c89b69c2b068fc378daa952ba7f163c4a11628f55a4df523b3ef",
            "0x000000000000000000000000ca14e37c862465677caa064c20bdbb6673f6fe48",
            "0x000000000000000000000000b574eb2fd1101a75070cda9673a6db207581c467"
          ],
          "data": "0x000000000000000000000000000000000000000000000000000000746a528800",
          "blockHash": "0x4d374712e6b560b0c20838e4e939cb6713ccffbc15b11629c9ff8f289cd5b482",
          "blockNumber": "0x2c63641",
          "blockTimestamp": "0x6a2a7432",
          "transactionHash": "0x830ce21337e5062a5aa3d3fa996931cf696dafdb83ce1c344cc960a13f800b62",
          "transactionIndex": "0x28",
          "logIndex": "0x62",
          "removed": false
        },
        {
          "address": "0xb574eb2fd1101a75070cda9673a6db207581c467",
          "topics": [
            "0xf5681f9d0db1b911ac18ee83d515a1cf1051853a9eae418316a2fdf7dea427c5",
            "0x000000000000000000000000254a2627eb0e2e3ded4cb2225afb8815f05e04e9",
            "0x000000000000000000000000ca14e37c862465677caa064c20bdbb6673f6fe48"
          ],
          "data": "0x000000000000000000000000000000000000000000000000000000746a528800000000000000000000000000000000000000000000000000000000746a528800",
          "blockHash": "0x4d374712e6b560b0c20838e4e939cb6713ccffbc15b11629c9ff8f289cd5b482",
          "blockNumber": "0x2c63641",
          "blockTimestamp": "0x6a2a7432",
          "transactionHash": "0x830ce21337e5062a5aa3d3fa996931cf696dafdb83ce1c344cc960a13f800b62",
          "transactionIndex": "0x28",
          "logIndex": "0x63",
          "removed": false
        }
      ],
      "logsBloom": "0x00040000000000000000000000000000000000000000040000000000000000000000100000000000000000000000000080200000000000000000000000000000000000800000000000000008000400000000000000000000000000000000000000000000000008000000000000010000000020000000100000000010000000000000400000000010000000000000000000000000000000000000000000000000001000000000000000000000000000000800000000000000000000000000000000000002000000000000000000000010000000000000000000200800000000000080000000000000000000000004000000000000000001000000000000000000",
      "type": "0x2",
      "transactionHash": "0x830ce21337e5062a5aa3d3fa996931cf696dafdb83ce1c344cc960a13f800b62",
      "transactionIndex": "0x28",
      "blockHash": "0x4d374712e6b560b0c20838e4e939cb6713ccffbc15b11629c9ff8f289cd5b482",
      "blockNumber": "0x2c63641",
      "gasUsed": "0x1ef37",
      "effectiveGasPrice": "0x4a85e3410",
      "from": "0xca14e37c862465677caa064c20bdbb6673f6fe48",
      "to": "0xb574eb2fd1101a75070cda9673a6db207581c467",
      "contractAddress": null
    },
    {
      "status": "0x1",
      "cumulativeGasUsed": "0x4d531b",
      "logs": [
        {
          "address": "0xb574eb2fd1101a75070cda9673a6db207581c467",
          "topics": [
            "0x51eedbe668e048aec37e4dc0104031dbf295c9f3b35bfd9cb73a217b6ff81259",
            "0x000000000000000000000000cdea155469985f1e6910bbc53278cb2008bff207"
          ],
          "data": "0x0000000000000000000000000000000000000000033b2e3c9fd0803ce80000000000000000000000000000000000000000000000033b2e3c9fd0803ce80000000000000000000000000000000000000000000000000000000000000000000000",
          "blockHash": "0x4d374712e6b560b0c20838e4e939cb6713ccffbc15b11629c9ff8f289cd5b482",
          "blockNumber": "0x2c63641",
          "blockTimestamp": "0x6a2a7432",
          "transactionHash": "0xa1ee3c66f0c15bf52b3eef02a9764f32266de31218cf48411e991939621d2e47",
          "transactionIndex": "0x29",
          "logIndex": "0x64",
          "removed": false
        },
        {
          "address": "0xcdea155469985f1e6910bbc53278cb2008bff207",
          "topics": [
            "0xddf252ad1be2c89b69c2b068fc378daa952ba7f163c4a11628f55a4df523b3ef",
            "0x000000000000000000000000ca14e37c862465677caa064c20bdbb6673f6fe48",
            "0x000000000000000000000000b574eb2fd1101a75070cda9673a6db207581c467"
          ],
          "data": "0x0000000000000000000000000000000000000000000000056bc75e2d63100000",
          "blockHash": "0x4d374712e6b560b0c20838e4e939cb6713ccffbc15b11629c9ff8f289cd5b482",
          "blockNumber": "0x2c63641",
          "blockTimestamp": "0x6a2a7432",
          "transactionHash": "0xa1ee3c66f0c15bf52b3eef02a9764f32266de31218cf48411e991939621d2e47",
          "transactionIndex": "0x29",
          "logIndex": "0x65",
          "removed": false
        },
        {
          "address": "0xb574eb2fd1101a75070cda9673a6db207581c467",
          "topics": [
            "0xf5681f9d0db1b911ac18ee83d515a1cf1051853a9eae418316a2fdf7dea427c5",
            "0x000000000000000000000000cdea155469985f1e6910bbc53278cb2008bff207",
            "0x000000000000000000000000ca14e37c862465677caa064c20bdbb6673f6fe48"
          ],
          "data": "0x0000000000000000000000000000000000000000000000056bc75e2d631000000000000000000000000000000000000000000000000000056bc75e2d63100000",
          "blockHash": "0x4d374712e6b560b0c20838e4e939cb6713ccffbc15b11629c9ff8f289cd5b482",
          "blockNumber": "0x2c63641",
          "blockTimestamp": "0x6a2a7432",
          "transactionHash": "0xa1ee3c66f0c15bf52b3eef02a9764f32266de31218cf48411e991939621d2e47",
          "transactionIndex": "0x29",
          "logIndex": "0x66",
          "removed": false
        }
      ],
      "logsBloom": "0x00040000000000000000000000000000000000000000041000000000000000000000100000000000000000000000000080000000000000000000000000000000000000800000000000000008000400000000000000000000000000000000000000000040000008000000000000010000000000000000100000000010000000000000000000000014000000000000000000000000000000000000000000000000001000000000000000000000000000000800000000000000000000000000008080000002000000000008000000000010000000000000000000000000000000000080000000000000000000000000000000000000000001000000000000000000",
      "type": "0x2",
      "transactionHash": "0xa1ee3c66f0c15bf52b3eef02a9764f32266de31218cf48411e991939621d2e47",
      "transactionIndex": "0x29",
      "blockHash": "0x4d374712e6b560b0c20838e4e939cb6713ccffbc15b11629c9ff8f289cd5b482",
      "blockNumber": "0x2c63641",
      "gasUsed": "0x1ef5b",
      "effectiveGasPrice": "0x4a85e3410",
      "from": "0xca14e37c862465677caa064c20bdbb6673f6fe48",
      "to": "0xb574eb2fd1101a75070cda9673a6db207581c467",
      "contractAddress": null
    }
  ],
  "libraries": [],
  "pending": [],
  "returns": {},
  "timestamp": 1781167155680,
  "chain": 5042002,
  "commit": "8420826"
}