{
  "transactions": [
    {
      "hash": "0x914059c7010851dfcd1ba54dfc05134869b6dd49ada68e9b90f4f8636c8ee695",
      "transactionType": "CREATE",
      "contractName": "MockPriceOracle",
      "contractAddress": "0x39375ed41c100de00c759067774d73d62ab7380b",
      "function": null,
      "arguments": [
        "0xCa14e37C862465677caA064c20BDBB6673F6FE48"
      ],
      "transaction": {
        "from": "0xca14e37c862465677caa064c20bdbb6673f6fe48",
        "gas": "0x64a0e",
        "value": "0x0",
        "input": "0x6080346100b957601f61051838819003918201601f19168301916001600160401b038311848410176100bd578084926020946040528339810103126100b957516001600160a01b0390818116908190036100b95780156100a1575f80546001600160a01b03198116831782556040519316907f8be0079c531659141344cd1fd0a4f28419497f9722a3daafe3b4186f6b6457e09080a361044690816100d28239f35b604051631e4fbdf760e01b81525f6004820152602490fd5b5f80fd5b634e487b7160e01b5f52604160045260245ffdfe6040608081526004361015610012575f80fd5b5f3560e01c8062e4768b1461039c5780632e48152c146102e157806341976e0914610345578063452a93201461031d5780635b14f183146102e1578063715018a61461028a57806389eba0d2146101e35780638a0dac4a1461017d5780638da5cb5b14610156578063aea910781461011f5763f2fde38b14610092575f80fd5b3461011b57602036600319011261011b576100ab6103cf565b6100b36103e5565b6001600160a01b0390811691821561010557505f54826bffffffffffffffffffffffff60a01b8216175f55167f8be0079c531659141344cd1fd0a4f28419497f9722a3daafe3b4186f6b6457e05f80a3005b51631e4fbdf760e01b81525f6004820152602490fd5b5f80fd5b503461011b57602036600319011261011b576020906001600160a01b036101446103cf565b165f5260038252805f20549051908152f35b503461011b575f36600319011261011b575f5490516001600160a01b039091168152602090f35b3461011b57602036600319011261011b576101966103cf565b61019e6103e5565b600280546001600160a01b0319166001600160a01b039290921691821790557fe6c09ffe4572dc9ceaa5ddde4ae41befa655d6fdfe8052077af0970f700e942e5f80a2005b503461011b578060031936011261011b576101fc6103cf565b6024359081151580920361011b576002546001600160a01b03919082163314158061027d575b61026c57916020917f4533a56f1096a03ba5484172ac13134b7fbf424058ae336a1dcf8ffdf5e92ac7931693845f5260018352805f2060ff1981541660ff841617905551908152a2005b835163ea8e4eb560e01b8152600490fd5b50815f5416331415610222565b3461011b575f36600319011261011b576102a26103e5565b5f80546001600160a01b0319811682556001600160a01b03167f8be0079c531659141344cd1fd0a4f28419497f9722a3daafe3b4186f6b6457e08280a3005b503461011b57602036600319011261011b576020906001600160a01b036103066103cf565b165f526001825260ff815f20541690519015158152f35b503461011b575f36600319011261011b5760025490516001600160a01b039091168152602090f35b503461011b57602036600319011261011b576001600160a01b036103676103cf565b16805f526003602052815f2054908115610385575060209151908152f35b602490835190630dcaf86b60e01b82526004820152fd5b503461011b578060031936011261011b576001600160a01b036103bd6103cf565b165f9081526003602052206024359055005b600435906001600160a01b038216820361011b57565b5f546001600160a01b031633036103f857565b60405163118cdaa760e01b8152336004820152602490fdfea2646970667358221220e06dc393bcd82a1bed2639d664d3a2335bf6f6602e34ea778c2ee413066eae3b64736f6c63430008180033000000000000000000000000ca14e37c862465677caa064c20bdbb6673f6fe48",
        "nonce": "0x40",
        "chainId": "0x4cef52"
      },
      "additionalContracts": [],
      "isFixedGasLimit": false
    },
    {
      "hash": "0x83843845bcc18802e9c0224e6dde498efa190a5afcf149a3c4e0cb2f17c4a461",
      "transactionType": "CALL",
      "contractName": "MockPriceOracle",
      "contractAddress": "0x39375ed41c100de00c759067774d73d62ab7380b",
      "function": "setGuardian(address)",
      "arguments": [
        "0xCa14e37C862465677caA064c20BDBB6673F6FE48"
      ],
      "transaction": {
        "from": "0xca14e37c862465677caa064c20bdbb6673f6fe48",
        "to": "0x39375ed41c100de00c759067774d73d62ab7380b",
        "gas": "0xfee8",
        "value": "0x0",
        "input": "0x8a0dac4a000000000000000000000000ca14e37c862465677caa064c20bdbb6673f6fe48",
        "nonce": "0x41",
        "chainId": "0x4cef52"
      },
      "additionalContracts": [],
      "isFixedGasLimit": false
    },
    {
      "hash": "0xc1c8c268f3bc845ba6dfd0a0239abfc718a9519bc264a8838da3b2beb2dc47ee",
      "transactionType": "CREATE",
      "contractName": "MockERC20",
      "contractAddress": "0xe94c3c122204a1011eed9ba9c11aa8dea861e91f",
      "function": null,
      "arguments": [
        "USD Coin (Test)",
        "USDC",
        "6"
      ],
      "transaction": {
        "from": "0xca14e37c862465677caa064c20bdbb6673f6fe48",
        "gas": "0xa4f89",
        "value": "0x0",
        "input": "0x60a060405234620003235762000b12803803806200001d8162000327565b9283398101606082820312620003235781516001600160401b03908181116200032357826200004e9185016200034d565b906020928385015182811162000323576040916200006e9187016200034d565b9401519360ff85168503620003235782518281116200022e576003918254916001958684811c9416801562000318575b8885101462000304578190601f94858111620002b1575b5088908583116001146200024e575f9262000242575b50505f1982861b1c191690861b1783555b80519384116200022e5760049586548681811c9116801562000223575b828210146200021057838111620001c8575b50809285116001146200015e57509383949184925f9562000152575b50501b925f19911b1c19161790555b6080526040516107549081620003be82396080518161031d0152f35b015193505f8062000127565b92919084601f198116885f52855f20955f905b89838310620001ad575050501062000193575b50505050811b01905562000136565b01519060f8845f19921b161c191690555f80808062000184565b85870151895590970196948501948893509081019062000171565b875f52815f208480880160051c82019284891062000206575b0160051c019087905b828110620001fa5750506200010b565b5f8155018790620001ea565b92508192620001e1565b602288634e487b7160e01b5f525260245ffd5b90607f1690620000f9565b634e487b7160e01b5f52604160045260245ffd5b015190505f80620000cb565b90889350601f19831691875f528a5f20925f5b8c8282106200029a575050841162000282575b505050811b018355620000dc565b01515f1983881b60f8161c191690555f808062000274565b8385015186558c9790950194938401930162000261565b909150855f52885f208580850160051c8201928b8610620002fa575b918a91869594930160051c01915b828110620002eb575050620000b5565b5f81558594508a9101620002db565b92508192620002cd565b634e487b7160e01b5f52602260045260245ffd5b93607f16936200009e565b5f80fd5b6040519190601f01601f191682016001600160401b038111838210176200022e57604052565b919080601f84011215620003235782516001600160401b0381116200022e5760209062000383601f8201601f1916830162000327565b9281845282828701011162000323575f5b818110620003a95750825f9394955001015290565b85810183015184820184015282016200039456fe6080604090808252600480361015610015575f80fd5b5f3560e01c91826306fdde03146104f957508163095ea7b31461045157816318160ddd1461043357816323b872dd14610341578163313ce5671461030457816340c10f191461025f57816370a082311461022957816395d89b411461010a57508063a9059cbb146100da5763dd62ed3e1461008e575f80fd5b346100d657806003193601126100d6576020906100a9610618565b6100b161062e565b9060018060a01b038091165f5260018452825f2091165f528252805f20549051908152f35b5f80fd5b50346100d657806003193601126100d6576020906101036100f9610618565b6024359033610644565b5160018152f35b82346100d6575f3660031901126100d6578051905f835460018160011c906001831692831561021f575b602093848410811461020c578388529081156101f0575060011461019c575b505050829003601f01601f191682019267ffffffffffffffff84118385101761018957508291826101859252826105d1565b0390f35b604190634e487b7160e01b5f525260245ffd5b5f878152929350837f8a35acfbc15ff81a39ae7d344fd709f28e8600b4aa8c65c6b64bfe7fe36bd19b5b8385106101dc5750505050830101848080610153565b8054888601830152930192849082016101c6565b60ff1916878501525050151560051b8401019050848080610153565b602289634e487b7160e01b5f525260245ffd5b91607f1691610134565b82346100d65760203660031901126100d6576020906001600160a01b0361024e610618565b165f525f8252805f20549051908152f35b82346100d657806003193601126100d657610278610618565b6001600160a01b031691602435919083156102ef57600254908382018092116102dc57505f927fddf252ad1be2c89b69c2b068fc378daa952ba7f163c4a11628f55a4df523b3ef9260209260025585855284835280852082815401905551908152a3005b601190634e487b7160e01b5f525260245ffd5b5f602492519163ec442f0560e01b8352820152fd5b82346100d6575f3660031901126100d6576020905160ff7f0000000000000000000000000000000000000000000000000000000000000000168152f35b9050346100d65760603660031901126100d65761035c610618565b61036461062e565b906044359260018060a01b038216805f526001602052855f20335f52602052855f2054915f19831061039f575b602087610103888888610644565b8583106104075781156103f15733156103db57505f90815260016020908152868220338352815290869020918590039091558290610103610391565b6024905f885191634a1406b160e11b8352820152fd5b6024905f88519163e602df0560e01b8352820152fd5b8651637dc7a0d960e11b8152339181019182526020820193909352604081018690528291506060010390fd5b82346100d6575f3660031901126100d6576020906002549051908152f35b82346100d657806003193601126100d65761046a610618565b6024359033156104e3576001600160a01b03169081156104cd5760209350335f5260018452825f20825f52845280835f205582519081527f8c5be1e5ebec7d5bd14f71427d1e84f3dd0314c0f7b2291e5b200ac8c7c3b925843392a35160018152f35b8251634a1406b160e11b81525f81860152602490fd5b825163e602df0560e01b81525f81860152602490fd5b83346100d6575f3660031901126100d6575f60035460018160011c90600183169283156105c7575b602093848410811461020c578388529081156101f0575060011461057157505050829003601f01601f191682019267ffffffffffffffff84118385101761018957508291826101859252826105d1565b60035f908152929350837fc2575a0e9e593c00f959f8c92f12db2869c3395a3b0502d05e2516446f71f85b5b8385106105b35750505050830101848080610153565b80548886018301529301928490820161059d565b91607f1691610521565b602080825282518183018190529093925f5b82811061060457505060409293505f838284010152601f8019910116010190565b8181018601518482016040015285016105e3565b600435906001600160a01b03821682036100d657565b602435906001600160a01b03821682036100d657565b916001600160a01b0380841692831561070657169283156106ee57825f525f60205260405f2054908282106106bc5750817fddf252ad1be2c89b69c2b068fc378daa952ba7f163c4a11628f55a4df523b3ef92602092855f525f84520360405f2055845f5260405f20818154019055604051908152a3565b60405163391434e360e21b81526001600160a01b03919091166004820152602481019190915260448101829052606490fd5b60405163ec442f0560e01b81525f6004820152602490fd5b604051634b637e8f60e11b81525f6004820152602490fdfea26469706673582212200029643922f54031b6fb18452716d162ab316346093e05b97e4377a5d5566bbc64736f6c63430008180033000000000000000000000000000000000000000000000000000000000000006000000000000000000000000000000000000000000000000000000000000000a00000000000000000000000000000000000000000000000000000000000000006000000000000000000000000000000000000000000000000000000000000000f55534420436f696e20285465737429000000000000000000000000000000000000000000000000000000000000000000000000000000000000000000000000045553444300000000000000000000000000000000000000000000000000000000",
        "nonce": "0x42",
        "chainId": "0x4cef52"
      },
      "additionalContracts": [],
      "isFixedGasLimit": false
    },
    {
      "hash": "0xd3d6c0401f2ed59a5dc09627b38d113fc4f083cbb160dfb7d0e2d01f8bb3ac4c",
      "transactionType": "CREATE",
      "contractName": "MockERC20",
      "contractAddress": "0x657ff6937ac8913ad3dbec44430bcded3af1367c",
      "function": null,
      "arguments": [
        "Euro Coin (Test)",
        "EURC",
        "6"
      ],
      "transaction": {
        "from": "0xca14e37c862465677caa064c20bdbb6673f6fe48",
        "gas": "0xa4f99",
        "value": "0x0",
        "input": "0x60a060405234620003235762000b12803803806200001d8162000327565b9283398101606082820312620003235781516001600160401b03908181116200032357826200004e9185016200034d565b906020928385015182811162000323576040916200006e9187016200034d565b9401519360ff85168503620003235782518281116200022e576003918254916001958684811c9416801562000318575b8885101462000304578190601f94858111620002b1575b5088908583116001146200024e575f9262000242575b50505f1982861b1c191690861b1783555b80519384116200022e5760049586548681811c9116801562000223575b828210146200021057838111620001c8575b50809285116001146200015e57509383949184925f9562000152575b50501b925f19911b1c19161790555b6080526040516107549081620003be82396080518161031d0152f35b015193505f8062000127565b92919084601f198116885f52855f20955f905b89838310620001ad575050501062000193575b50505050811b01905562000136565b01519060f8845f19921b161c191690555f80808062000184565b85870151895590970196948501948893509081019062000171565b875f52815f208480880160051c82019284891062000206575b0160051c019087905b828110620001fa5750506200010b565b5f8155018790620001ea565b92508192620001e1565b602288634e487b7160e01b5f525260245ffd5b90607f1690620000f9565b634e487b7160e01b5f52604160045260245ffd5b015190505f80620000cb565b90889350601f19831691875f528a5f20925f5b8c8282106200029a575050841162000282575b505050811b018355620000dc565b01515f1983881b60f8161c191690555f808062000274565b8385015186558c9790950194938401930162000261565b909150855f52885f208580850160051c8201928b8610620002fa575b918a91869594930160051c01915b828110620002eb575050620000b5565b5f81558594508a9101620002db565b92508192620002cd565b634e487b7160e01b5f52602260045260245ffd5b93607f16936200009e565b5f80fd5b6040519190601f01601f191682016001600160401b038111838210176200022e57604052565b919080601f84011215620003235782516001600160401b0381116200022e5760209062000383601f8201601f1916830162000327565b9281845282828701011162000323575f5b818110620003a95750825f9394955001015290565b85810183015184820184015282016200039456fe6080604090808252600480361015610015575f80fd5b5f3560e01c91826306fdde03146104f957508163095ea7b31461045157816318160ddd1461043357816323b872dd14610341578163313ce5671461030457816340c10f191461025f57816370a082311461022957816395d89b411461010a57508063a9059cbb146100da5763dd62ed3e1461008e575f80fd5b346100d657806003193601126100d6576020906100a9610618565b6100b161062e565b9060018060a01b038091165f5260018452825f2091165f528252805f20549051908152f35b5f80fd5b50346100d657806003193601126100d6576020906101036100f9610618565b6024359033610644565b5160018152f35b82346100d6575f3660031901126100d6578051905f835460018160011c906001831692831561021f575b602093848410811461020c578388529081156101f0575060011461019c575b505050829003601f01601f191682019267ffffffffffffffff84118385101761018957508291826101859252826105d1565b0390f35b604190634e487b7160e01b5f525260245ffd5b5f878152929350837f8a35acfbc15ff81a39ae7d344fd709f28e8600b4aa8c65c6b64bfe7fe36bd19b5b8385106101dc5750505050830101848080610153565b8054888601830152930192849082016101c6565b60ff1916878501525050151560051b8401019050848080610153565b602289634e487b7160e01b5f525260245ffd5b91607f1691610134565b82346100d65760203660031901126100d6576020906001600160a01b0361024e610618565b165f525f8252805f20549051908152f35b82346100d657806003193601126100d657610278610618565b6001600160a01b031691602435919083156102ef57600254908382018092116102dc57505f927fddf252ad1be2c89b69c2b068fc378daa952ba7f163c4a11628f55a4df523b3ef9260209260025585855284835280852082815401905551908152a3005b601190634e487b7160e01b5f525260245ffd5b5f602492519163ec442f0560e01b8352820152fd5b82346100d6575f3660031901126100d6576020905160ff7f0000000000000000000000000000000000000000000000000000000000000000168152f35b9050346100d65760603660031901126100d65761035c610618565b61036461062e565b906044359260018060a01b038216805f526001602052855f20335f52602052855f2054915f19831061039f575b602087610103888888610644565b8583106104075781156103f15733156103db57505f90815260016020908152868220338352815290869020918590039091558290610103610391565b6024905f885191634a1406b160e11b8352820152fd5b6024905f88519163e602df0560e01b8352820152fd5b8651637dc7a0d960e11b8152339181019182526020820193909352604081018690528291506060010390fd5b82346100d6575f3660031901126100d6576020906002549051908152f35b82346100d657806003193601126100d65761046a610618565b6024359033156104e3576001600160a01b03169081156104cd5760209350335f5260018452825f20825f52845280835f205582519081527f8c5be1e5ebec7d5bd14f71427d1e84f3dd0314c0f7b2291e5b200ac8c7c3b925843392a35160018152f35b8251634a1406b160e11b81525f81860152602490fd5b825163e602df0560e01b81525f81860152602490fd5b83346100d6575f3660031901126100d6575f60035460018160011c90600183169283156105c7575b602093848410811461020c578388529081156101f0575060011461057157505050829003601f01601f191682019267ffffffffffffffff84118385101761018957508291826101859252826105d1565b60035f908152929350837fc2575a0e9e593c00f959f8c92f12db2869c3395a3b0502d05e2516446f71f85b5b8385106105b35750505050830101848080610153565b80548886018301529301928490820161059d565b91607f1691610521565b602080825282518183018190529093925f5b82811061060457505060409293505f838284010152601f8019910116010190565b8181018601518482016040015285016105e3565b600435906001600160a01b03821682036100d657565b602435906001600160a01b03821682036100d657565b916001600160a01b0380841692831561070657169283156106ee57825f525f60205260405f2054908282106106bc5750817fddf252ad1be2c89b69c2b068fc378daa952ba7f163c4a11628f55a4df523b3ef92602092855f525f84520360405f2055845f5260405f20818154019055604051908152a3565b60405163391434e360e21b81526001600160a01b03919091166004820152602481019190915260448101829052606490fd5b60405163ec442f0560e01b81525f6004820152602490fd5b604051634b637e8f60e11b81525f6004820152602490fdfea26469706673582212200029643922f54031b6fb18452716d162ab316346093e05b97e4377a5d5566bbc64736f6c63430008180033000000000000000000000000000000000000000000000000000000000000006000000000000000000000000000000000000000000000000000000000000000a0000000000000000000000000000000000000000000000000000000000000000600000000000000000000000000000000000000000000000000000000000000104575726f20436f696e202854657374290000000000000000000000000000000000000000000000000000000000000000000000000000000000000000000000044555524300000000000000000000000000000000000000000000000000000000",
        "nonce": "0x43",
        "chainId": "0x4cef52"
      },
      "additionalContracts": [],
      "isFixedGasLimit": false
    },
    {
      "hash": "0xe3778b0aa2bf86925cbbff634a2faa33eb0dccc7e7030835bd7e6d862c841de3",
      "transactionType": "CREATE",
      "contractName": "MockERC20",
      "contractAddress": "0x78f1d761bc1e5d01b136e78a63ae444189ee02fb",
      "function": null,
      "arguments": [
        "Wrapped Ether (Test)",
        "WETH",
        "18"
      ],
      "transaction": {
        "from": "0xca14e37c862465677caa064c20bdbb6673f6fe48",
        "gas": "0xa4fd7",
        "value": "0x0",
        "input": "0x60a060405234620003235762000b12803803806200001d8162000327565b9283398101606082820312620003235781516001600160401b03908181116200032357826200004e9185016200034d565b906020928385015182811162000323576040916200006e9187016200034d565b9401519360ff85168503620003235782518281116200022e576003918254916001958684811c9416801562000318575b8885101462000304578190601f94858111620002b1575b5088908583116001146200024e575f9262000242575b50505f1982861b1c191690861b1783555b80519384116200022e5760049586548681811c9116801562000223575b828210146200021057838111620001c8575b50809285116001146200015e57509383949184925f9562000152575b50501b925f19911b1c19161790555b6080526040516107549081620003be82396080518161031d0152f35b015193505f8062000127565b92919084601f198116885f52855f20955f905b89838310620001ad575050501062000193575b50505050811b01905562000136565b01519060f8845f19921b161c191690555f80808062000184565b85870151895590970196948501948893509081019062000171565b875f52815f208480880160051c82019284891062000206575b0160051c019087905b828110620001fa5750506200010b565b5f8155018790620001ea565b92508192620001e1565b602288634e487b7160e01b5f525260245ffd5b90607f1690620000f9565b634e487b7160e01b5f52604160045260245ffd5b015190505f80620000cb565b90889350601f19831691875f528a5f20925f5b8c8282106200029a575050841162000282575b505050811b018355620000dc565b01515f1983881b60f8161c191690555f808062000274565b8385015186558c9790950194938401930162000261565b909150855f52885f208580850160051c8201928b8610620002fa575b918a91869594930160051c01915b828110620002eb575050620000b5565b5f81558594508a9101620002db565b92508192620002cd565b634e487b7160e01b5f52602260045260245ffd5b93607f16936200009e565b5f80fd5b6040519190601f01601f191682016001600160401b038111838210176200022e57604052565b919080601f84011215620003235782516001600160401b0381116200022e5760209062000383601f8201601f1916830162000327565b9281845282828701011162000323575f5b818110620003a95750825f9394955001015290565b85810183015184820184015282016200039456fe6080604090808252600480361015610015575f80fd5b5f3560e01c91826306fdde03146104f957508163095ea7b31461045157816318160ddd1461043357816323b872dd14610341578163313ce5671461030457816340c10f191461025f57816370a082311461022957816395d89b411461010a57508063a9059cbb146100da5763dd62ed3e1461008e575f80fd5b346100d657806003193601126100d6576020906100a9610618565b6100b161062e565b9060018060a01b038091165f5260018452825f2091165f528252805f20549051908152f35b5f80fd5b50346100d657806003193601126100d6576020906101036100f9610618565b6024359033610644565b5160018152f35b82346100d6575f3660031901126100d6578051905f835460018160011c906001831692831561021f575b602093848410811461020c578388529081156101f0575060011461019c575b505050829003601f01601f191682019267ffffffffffffffff84118385101761018957508291826101859252826105d1565b0390f35b604190634e487b7160e01b5f525260245ffd5b5f878152929350837f8a35acfbc15ff81a39ae7d344fd709f28e8600b4aa8c65c6b64bfe7fe36bd19b5b8385106101dc5750505050830101848080610153565b8054888601830152930192849082016101c6565b60ff1916878501525050151560051b8401019050848080610153565b602289634e487b7160e01b5f525260245ffd5b91607f1691610134565b82346100d65760203660031901126100d6576020906001600160a01b0361024e610618565b165f525f8252805f20549051908152f35b82346100d657806003193601126100d657610278610618565b6001600160a01b031691602435919083156102ef57600254908382018092116102dc57505f927fddf252ad1be2c89b69c2b068fc378daa952ba7f163c4a11628f55a4df523b3ef9260209260025585855284835280852082815401905551908152a3005b601190634e487b7160e01b5f525260245ffd5b5f602492519163ec442f0560e01b8352820152fd5b82346100d6575f3660031901126100d6576020905160ff7f0000000000000000000000000000000000000000000000000000000000000000168152f35b9050346100d65760603660031901126100d65761035c610618565b61036461062e565b906044359260018060a01b038216805f526001602052855f20335f52602052855f2054915f19831061039f575b602087610103888888610644565b8583106104075781156103f15733156103db57505f90815260016020908152868220338352815290869020918590039091558290610103610391565b6024905f885191634a1406b160e11b8352820152fd5b6024905f88519163e602df0560e01b8352820152fd5b8651637dc7a0d960e11b8152339181019182526020820193909352604081018690528291506060010390fd5b82346100d6575f3660031901126100d6576020906002549051908152f35b82346100d657806003193601126100d65761046a610618565b6024359033156104e3576001600160a01b03169081156104cd5760209350335f5260018452825f20825f52845280835f205582519081527f8c5be1e5ebec7d5bd14f71427d1e84f3dd0314c0f7b2291e5b200ac8c7c3b925843392a35160018152f35b8251634a1406b160e11b81525f81860152602490fd5b825163e602df0560e01b81525f81860152602490fd5b83346100d6575f3660031901126100d6575f60035460018160011c90600183169283156105c7575b602093848410811461020c578388529081156101f0575060011461057157505050829003601f01601f191682019267ffffffffffffffff84118385101761018957508291826101859252826105d1565b60035f908152929350837fc2575a0e9e593c00f959f8c92f12db2869c3395a3b0502d05e2516446f71f85b5b8385106105b35750505050830101848080610153565b80548886018301529301928490820161059d565b91607f1691610521565b602080825282518183018190529093925f5b82811061060457505060409293505f838284010152601f8019910116010190565b8181018601518482016040015285016105e3565b600435906001600160a01b03821682036100d657565b602435906001600160a01b03821682036100d657565b916001600160a01b0380841692831561070657169283156106ee57825f525f60205260405f2054908282106106bc5750817fddf252ad1be2c89b69c2b068fc378daa952ba7f163c4a11628f55a4df523b3ef92602092855f525f84520360405f2055845f5260405f20818154019055604051908152a3565b60405163391434e360e21b81526001600160a01b03919091166004820152602481019190915260448101829052606490fd5b60405163ec442f0560e01b81525f6004820152602490fd5b604051634b637e8f60e11b81525f6004820152602490fdfea26469706673582212200029643922f54031b6fb18452716d162ab316346093e05b97e4377a5d5566bbc64736f6c63430008180033000000000000000000000000000000000000000000000000000000000000006000000000000000000000000000000000000000000000000000000000000000a000000000000000000000000000000000000000000000000000000000000000120000000000000000000000000000000000000000000000000000000000000014577261707065642045746865722028546573742900000000000000000000000000000000000000000000000000000000000000000000000000000000000000045745544800000000000000000000000000000000000000000000000000000000",
        "nonce": "0x44",
        "chainId": "0x4cef52"
      },
      "additionalContracts": [],
      "isFixedGasLimit": false
    },
    {
      "hash": "0x493999069c1a2788ca76af1f4bd25c1f3e83995daa88d686985eb22f60f9dfa2",
      "transactionType": "CALL",
      "contractName": "MockPriceOracle",
      "contractAddress": "0x39375ed41c100de00c759067774d73d62ab7380b",
      "function": "setPrice(address,uint256)",
      "arguments": [
        "0xe94C3c122204a1011EED9Ba9C11Aa8DEA861e91f",
        "100000000"
      ],
      "transaction": {
        "from": "0xca14e37c862465677caa064c20bdbb6673f6fe48",
        "to": "0x39375ed41c100de00c759067774d73d62ab7380b",
        "gas": "0xed41",
        "value": "0x0",
        "input": "0x00e4768b000000000000000000000000e94c3c122204a1011eed9ba9c11aa8dea861e91f0000000000000000000000000000000000000000000000000000000005f5e100",
        "nonce": "0x45",
        "chainId": "0x4cef52"
      },
      "additionalContracts": [],
      "isFixedGasLimit": false
    },
    {
      "hash": "0x88eea1bb297863d5980ae87276e8ab6c73f2a5788dca2c4033d93cd7bd97fbc0",
      "transactionType": "CALL",
      "contractName": "MockPriceOracle",
      "contractAddress": "0x39375ed41c100de00c759067774d73d62ab7380b",
      "function": "setPrice(address,uint256)",
      "arguments": [
        "0x657ff6937aC8913AD3DbEC44430BcdeD3af1367C",
        "108000000"
      ],
      "transaction": {
        "from": "0xca14e37c862465677caa064c20bdbb6673f6fe48",
        "to": "0x39375ed41c100de00c759067774d73d62ab7380b",
        "gas": "0xed41",
        "value": "0x0",
        "input": "0x00e4768b000000000000000000000000657ff6937ac8913ad3dbec44430bcded3af1367c00000000000000000000000000000000000000000000000000000000066ff300",
        "nonce": "0x46",
        "chainId": "0x4cef52"
      },
      "additionalContracts": [],
      "isFixedGasLimit": false
    },
    {
      "hash": "0x1bf58069d424341617ab425406f1f217cbf42f5617cb54a9ed44f88b2e5f6020",
      "transactionType": "CALL",
      "contractName": "MockPriceOracle",
      "contractAddress": "0x39375ed41c100de00c759067774d73d62ab7380b",
      "function": "setPrice(address,uint256)",
      "arguments": [
        "0x78F1D761BC1E5D01b136e78A63AE444189ee02FB",
        "300000000000"
      ],
      "transaction": {
        "from": "0xca14e37c862465677caa064c20bdbb6673f6fe48",
        "to": "0x39375ed41c100de00c759067774d73d62ab7380b",
        "gas": "0xfb47",
        "value": "0x0",
        "input": "0x00e4768b00000000000000000000000078f1d761bc1e5d01b136e78a63ae444189ee02fb00000000000000000000000000000000000000000000000000000045d964b800",
        "nonce": "0x47",
        "chainId": "0x4cef52"
      },
      "additionalContracts": [],
      "isFixedGasLimit": false
    },
    {
      "hash": "0x1896e3da7f84ee9edc90feb21290405fa983dfb945e5e518854aad27cee86bce",
      "transactionType": "CREATE",
      "contractName": "LendingPool",
      "contractAddress": "0x6fc50bbd108f39fc6b0069c29f42e4a120c9df97",
      "function": null,
      "arguments": [
        "0xCa14e37C862465677caA064c20BDBB6673F6FE48",
        "0x39375eD41C100De00c759067774D73d62Ab7380B"
      ],
      "transaction": {
        "from": "0xca14e37c862465677caa064c20bdbb6673f6fe48",
        "gas": "0x57a6fc",
        "value": "0x0",
        "input": "0x6080346200011d57601f62004ed538819003918201601f19168301916001600160401b03831184841017620001215780849260409485528339810103126200011d576200005a6020620000528362000135565b920162000135565b60017f9b779b17422d0df92223018b32b4d1fa46e071723d6817e2486d003becc55f0055906001600160a01b039081169081156200010557600b80546001600160a01b031980821685179092556040519491939083167f8be0079c531659141344cd1fd0a4f28419497f9722a3daafe3b4186f6b6457e05f80a316918215620000f65750600c541617600c55604051614d8a90816200014b8239f35b63d92e233d60e01b8152600490fd5b604051631e4fbdf760e01b81525f6004820152602490fd5b5f80fd5b634e487b7160e01b5f52604160045260245ffd5b51906001600160a01b03821682036200011d5756fe6080806040526004361015610012575f80fd5b5f3560e01c9081630a1b6c03146130ba5750806316fb3124146130865780631928b3cb146130535780631c082a53146130175780632291aea014612fca5780632ae8bdfe14612d7e57806335ea6a7514612cc95780634088241414612b0b578063445be21814612a7e578063450ac29714612a5b57806347e7ef24146128395780635224372c146126c357806354510b9d1461268f578063597810341461256657806360a98b801461252e5780636c714d6c1461242e5780636ec3ab67146122385780636f70e66f14611b94578063713390f514611afb578063715018a614611aa057806373fa805e146117b55780637adbf9731461173b5780637c22fb891461170d5780637dc0d1d0146116e5578063837f2057146116985780638da5cb5b146116705780639a5a23d91461164f578063a1a86e93146115f9578063ac9650d814611446578063b4973c351461141c578063b7902303146113f4578063b7fdfdd114610f2a578063bee7dd0b14610e4a578063c035bd2114610c23578063c3c0529314610bbd578063d1946dbc14610b58578063d410c7651461088b578063d563eb2914610600578063e6d48ed514610508578063f2fde38b1461047c5763f3fef3a3146101df575f80fd5b34610442576040366003190112610442576101f8613164565b60243590610204613ba1565b61020d81614036565b811561046a5761021c81613bd0565b60018060a01b03811690815f526020906002825260405f20916003815260405f20335f52815260405f20546001600160801b03928385541691676765c793fa10079d601b1b8061026c85846135ac565b048911610458576040516370a0823160e01b815230600482015285816024818c5afa801561044d575f9061041a575b6102b29150895f526007875260405f20549061347c565b89116104015780890290898204036103ed57836102ce916135dd565b5f1981019081116103ed5788936102e4916135bf565b948186116103e3575b85966102fd61037696978461347c565b895f526003885260405f20335f52885260405f2055600161031d89613bfe565b91019161032e83549282841661354a565b16906001600160801b031916179055610347868261347c565b90816103b85750505f5b865f526004855260405f20335f52855260405f205561036f81613da8565b3390613d29565b6040519384528301527f91fb9d98b786c57d74c099ccd2beca1739e9f6a81fb49001ca465c4b7591bbe260403393a360015f80516020614d3583398151915255005b6103d96103de92895f526004885260405f20335f52885260405f20546135ac565b6135bf565b610351565b90945084906102ed565b634e487b7160e01b5f52601160045260245ffd5b6040516380daf1e560e01b815260048101899052602490fd5b508581813d8311610446575b6104308183613396565b81010312610442576102b2905161029b565b5f80fd5b503d610426565b6040513d5f823e3d90fd5b604051631e9acf1760e31b8152600490fd5b60405163162908e360e11b8152600490fd5b3461044257602036600319011261044257610495613164565b61049d6144b7565b6001600160a01b039081169081156104f057600b54826bffffffffffffffffffffffff60a01b821617600b55167f8be0079c531659141344cd1fd0a4f28419497f9722a3daafe3b4186f6b6457e05f80a3005b604051631e4fbdf760e01b81525f6004820152602490fd5b346104425760c03660031901126104425760803660431901126104425761052d6144b7565b61053b602435600435614624565b805f52600160205260405f20610564610552613729565b829060ff801983541691151516179055565b6064359061ffff82168203610442576105da9162ffff0082549160081b169062ffff0019161781556105b3610597613738565b825464ffff000000191660189190911b64ffff00000016178255565b6105bb613749565b66ffff000000000082549160281b169066ffff00000000001916179055565b7fbc880007dd2fa1a4ba4546a4d7b84022dfa435a85cdfaf32c934f547c69bbabc5f80a2005b346104425761060e366132b3565b90610617613ba1565b61062084614036565b61062981614036565b6001600160a01b038181169480821694918587146108795782158015610871575b61046a5780600c541660405190635b14f18360e01b808352886004840152602083602481855afa92831561044d575f93610850575b5082156107f3575b50506107da57610698848333613a3b565b906106a285613bd0565b6106ac8484614474565b156107c157928261073c866107439795858b8b998e61036f995f52600560205260405f2092835492831615610782575b50505060026106ea88613bfe565b9101908154906107046001600160801b03918284166135ea565b16906001600160801b0319161790558b5f52600760205260405f2061072a8782546135dd565b9055610737898483614070565b613c31565b3390613e46565b6040519081527f9c9260125f1a087d9e46ee3dc78f1a4af18c5e00714012d9a35250d49391c4fe60203392a460015f80516020614d3583398151915255005b6bffffffffffffffffffffffff60a01b8093161783556001830191825416179055335f5260086020526107b88260405f20614c14565b508e8e8e6106dc565b60405163835d7b3d60e01b815260048101889052602490fd5b6040516375525f8d60e01b815260048101889052602490fd5b602091925060246040518094819382528c60048301525afa90811561044d575f91610821575b508880610687565b610843915060203d602011610849575b61083b8183613396565b810190613532565b88610819565b503d610831565b61086a91935060203d6020116108495761083b8183613396565b918a61067f565b50841561064a565b60405163534c524d60e11b8152600490fd5b34610442575f366003190112610442576108a3614988565b8051905f915f5b818110610ae357506108d46108be84613675565b936108cc6040519586613396565b808552613675565b601f19015f5b818110610a9c5750505f915f5b82811061099057846040518091602082016020835281518091526020604084019201905f5b81811061091a575050500390f35b91935091602061010060019260e08751858060a01b03808251168452858201511685840152604081015161ffff80911660408501526060908183015116908401526080808201519084015260a0808201519084015260c080820151908401520151151560e082015201940191019184939261090c565b6001600160a01b036109a282846136f0565b51166109ad81613563565b9190505f5b8581106109c4575050506001016108e7565b9384600198939585989514610a9557888060a01b036109e382846136f0565b51166109ef8185614921565b15610a8d5790610a7d60209683610a078d9588614213565b610a1082613563565b5061ffff80835116908c84015116906060610a2a866146f9565b9401511515946040519d8e610a3e8161335d565b8d8152015260408d015260608c015260808b01528a60a08b015260c08a015260e0890152610a6b81613a2d565b97610a7682896136f0565b52866136f0565b505b0190949297509592956109b2565b508890610a7f565b8890610a7f565b602090604051610aab8161335d565b5f81525f838201525f60408201525f60608201525f60808201525f60a08201525f60c08201525f60e0820152828288010152016108da565b5f5b828110610af557506001016108aa565b928382946001969314610b5157610b2b868060a01b0380610b1688866136f0565b511690610b2384866136f0565b511690614921565b610b3e575b85905b019093919450610ae5565b91610b498691613a2d565b929050610b30565b8590610b33565b34610442575f36600319011261044257610b70614988565b604051809160208083016020845282518091526020604085019301915f5b828110610b9d57505050500390f35b83516001600160a01b031685528695509381019392810192600101610b8e565b3461044257602036600319011261044257610bd6613164565b610bde6144b7565b600d80546001600160a01b0319166001600160a01b039290921691821790557f5f5e1360fb9bbf3f1dd392d5153831cc6fa952aad577bbbb06e51fea4174cd085f80a2005b3461044257608036600319011261044257610c3c613164565b610c4461317a565b90610c4d613190565b60643592610c59613ba1565b831561046a5781610c6a9184613a3b565b91825f526020936005855260405f209360018060a01b03918286541615610e3157610c9485613bd0565b82851694855f526002885284600260405f209801805460801c90895460801c99610cbe8b84614533565b9586811015610e27579a8b965b8703610ddf575091610d7b9691610d51610d729594610d316001610d24865b610d1f610cff610cf983613bfe565b8a61354a565b88546001600160801b031660809190911b6001600160801b031916178855565b613bfe565b920191825460801c61354a565b81546001600160801b031660809190911b6001600160801b031916179055565b5460801c908c82610dc2575050505f5b815f5260068c5260405f2055613c8b565b61073c81613da8565b6040519184835216907f861660e9b7ead7183d53fe928b5638c7b57a7bcf16a89d7fdb04db65ce3ad6d5853392a460015f80516020614d3583398151915255604051908152f35b610dda9260066103d992865f525260405f20546135ac565b610d61565b929550925094676765c793fa10079d601b1b94858b02958b8704148b1517156103ed57610d7b96610d51610d7295610d3160018f9a610e228f99610d24926135bf565b610cea565b50859a8b96610ccb565b604051630426cfff60e41b815260048101839052602490fd5b3461044257604036600319011261044257610e63613164565b610e6b61317a565b60018060a01b0380921691825f526020906003825260405f20921691825f528152676765c793fa10079d601b1b610ed460405f2054855f5260028452610ecc60405f205f865261ffff60405f205460481c16610ec74292613422565b613a73565b9190506135ac565b04925f526004815260405f20915f525260405f2054908181115f14610f2157610f1d610f00838361347c565b604051938493846040919493926060820195825260208201520152565b0390f35b610f1d5f610f00565b3461044257610f38366132b3565b60409391935192610f4884613340565b5f84525f60208501525f60408501525f60608501525f60808501525f60a08501525f60c08501525f60e08501525f6101008501525f610120850152610f8c83614036565b610f9585614036565b6001600160a01b0383811690861614610879576001600160a01b0385165f9081526002602052604090205460801c90610fcd81613bfe565b91676765c793fa10079d601b1b8085029085820414851517156103ed5781610ff4916135dd565b805f198101116103ed57611016610d1f836001600160801b03935f19016135bf565b816040519561102487613307565b6001600160a01b0389811688528b1660208801521660408601521660608401528061104f8887614213565b9261106d61ffff85511660018060a01b03600c5416938491886142ce565b90611093611085848661ffff60208a0151168a6142ce565b808b528360208c01526144e3565b60a08a0152606085015115156101208a0152670de0b6b3a76400006110b78b6146f9565b92836101008c0152101591826113e9575b50816113c4575b81611367575b8161130a575b816112f8575b816112e7575b5015156040880152841515806112db575b15158060808901526111ba575b610140876111468861113c8c61111b8b826147d9565b9060018060a01b03165f525f60205261ffff60405f205460581c1690614859565b60c0840152613563565b905060e08201526101206040519180518352602081015160208401526040810151151560408401526060810151606084015260808101511515608084015260a081015160a084015260c081015160c084015260e081015160e084015261010081015161010084015201511515610120820152f35b6040516341976e0960e01b81526001600160a01b038916600482015290602090829060249082905afa90811561044d575f91611297575b509361128861113c94610140999461124961111b956111469a9960018060a01b0389165f525f60205261124461123060ff60405f205460101c16613718565b926001600160801b03606088015116614533565b614583565b9060018060a01b0389165f525f60205261ffff60206001600160801b03604061127a60ff825f205460101c16613718565b9601511692015116916145c1565b60608801529394829750611105565b91979293959490506020823d6020116112d3575b816112b860209383613396565b810103126104425790519196939490939092916112886111f1565b3d91506112ab565b506060830151156110f8565b6112f2915087614474565b896110e7565b9050611304868a614780565b906110e1565b604051635b14f18360e01b81526001600160a01b038b166004820152909150602081602481865afa90811561044d575f91611348575b5015906110db565b611361915060203d6020116108495761083b8183613396565b8a611340565b604051635b14f18360e01b81526001600160a01b0389166004820152909150602081602481865afa90811561044d575f916113a5575b5015906110d5565b6113be915060203d6020116108495761083b8183613396565b8a61139d565b6001600160a01b038a165f9081526020819052604090205460081c60ff1691506110cf565b87111591508a6110c8565b34610442575f36600319011261044257600d546040516001600160a01b039091168152602090f35b34610442576020366003190112610442576004355f526006602052602060405f2054604051908152f35b34610442576020806003193601126104425767ffffffffffffffff906004358281116104425761147a9036906004016131f1565b90926040519183830191838310818411176115e557826040525f845261149f82613675565b936114ad6040519586613396565b8285526114b983613675565b601f1997908801875f5b8281106115d5575050505f5b84811061154d5788888860405191808301818452825180915260408401918060408360051b8701019401925f965b83881061150a5786860387f35b9091929394838080600193603f198b820301875285601f8b5161153881518092818752878088019101613292565b011601019701930197019690939291936114fd565b8060051b820135601e198336030181121561044257820190813591858311610442578901823603811361044257826115b38b6115b9938b6001976040519586938585013782016115a7848201925f84528c51938491613292565b01038084520182613396565b30614668565b6115c3828a6136f0565b526115ce81896136f0565b50016114cf565b606082828b0101520188906114c3565b634e487b7160e01b5f52604160045260245ffd5b34610442576020366003190112610442576001600160a01b0361161a613164565b165f5260026020526040611643815f205f60205261ffff835f205460481c16610ec74292613422565b82519182526020820152f35b34610442576020611668611662366131db565b90614624565b604051908152f35b34610442575f36600319011261044257600b546040516001600160a01b039091168152602090f35b34610442576040366003190112610442576116b1613164565b6116b961317a565b9060018060a01b038091165f52600460205260405f2091165f52602052602060405f2054604051908152f35b34610442575f36600319011261044257600c546040516001600160a01b039091168152602090f35b346104425760203660031901126104425761016061172c60043561375a565b6117396040518092613222565bf35b3461044257602036600319011261044257611754613164565b61175c6144b7565b6001600160a01b031680156117a357600c80546001600160a01b031916821790557f3f32684a32a11dabdbb8c0177de80aa3ae36a004d75210335b49e544e48cd0aa5f80a2005b60405163d92e233d60e01b8152600490fd5b34610442576101c0366003190112610442576117cf613164565b6101a0366023190112610442576117e46144b7565b6001600160a01b03818116919082156117a357825f5260026020526001600160801b03918260405f205416611a91575b50825f525f60205260405f2090602435801515810361044257825490151560ff1660ff1991909116178255611847613729565b1515825460643560ff811681036104425762ff000061ff009160101b169260081b169062ffff0019161717825561189b61187f613738565b835464ffff000000191660189190911b64ffff00000016178355565b6118c66118a6613749565b835466ffff0000000000191660289190911b66ffff000000000016178355565b60c43561ffff80821682036104425783549060e435918183168303610442576101043591821682036104425768ffff000000000000006affff0000000000000000009261ffff60581b9060581b169460381b16906cffffffffffff000000000000001916179160481b16171782556101243560018301556002820190610144359081168091036104425781546001600160a01b03191617905561016435828116906003830190829003610442576001600160801b031991828254161781556101843584811681036104425781546001600160801b031660809190911b6001600160801b03191617905560048201906101a4359084821680920361044257825416179055600160ff19825416179055600260205260405f209081541615611a0e575b507fa00b5a1af86b3918c33074f107448b7f5472638023dd5354b58dca1bc6384e465f80a2005b7b033b2e3c9fd0803ce800000000000000033b2e3c9fd0803ce8000000815564ffffffffff90814211611a7257600201805464ffffffffff60801b19164290921660801b64ffffffffff60801b16919091179055611a6b81614ba8565b50816119e7565b6040516306dfcc6560e41b815260286004820152426024820152604490fd5b611a9a90613bd0565b83611814565b34610442575f36600319011261044257611ab86144b7565b600b80546001600160a01b031981169091555f906001600160a01b03167f8be0079c531659141344cd1fd0a4f28419497f9722a3daafe3b4186f6b6457e08280a3005b3461044257606036600319011261044257611b36611b17613164565b611b1f61317a565b611b27613190565b91611b306133b8565b50613a3b565b5f526005602052610f1d611b4c60405f206133dc565b604051918291829190916060608082019360018060a01b038082511684526020820151166020840152816040820151916001600160801b038093166040860152015116910152565b346104425760a036600319011261044257611bad613164565b611bb561317a565b90611bbe613190565b611bc6613ba1565b6064351561046a57611bd9818484613a3b565b5f81815260056020526040902080549092906001600160a01b031615610e3157600c54604051635b14f18360e01b8082526001600160a01b038881166004840152919290911690602083602481855afa92831561044d575f93612217575b5082156121bf575b505061219e57611c4e81613bd0565b6001600160a01b0381165f908152600260205260409020611c6f8287614213565b9261ffff602085015116948254611c9f60018060a01b03600c541680988360801c90611c9a866133dc565b6142ce565b90670de0b6b3a764000082101561218557600283015491611cc68260801c8460801c614533565b6040516341976e0960e01b81526001600160a01b038d1660048201529990989060208b602481845afa9a8b1561044d575f9b61214e575b506040516341976e0960e01b81526001600160a01b038a1660048201529190602090839060249082905afa91821561044d575f9261211a575b50600160a01b600190038d165f525f60205260405f205460101c60ff16611d5c90613718565b600160a01b600190038a165f525f60205260405f205460101c60ff16611d8190613718565b90604083015161ffff1692606001511515938c6040519e8f91611da383613340565b606435835260208301528760408301526001600160801b038a166060830152608082015260a0015260c08d015260e08c01526101008b0152806101208b01525f1461210b57670da4514ab6358000905b106120ff57612710611e086113885b896135ac565b048851908082105f146120f75750965b611e35611e2a8960a08c0151906135ac565b60e08b0151906135bf565b61ffff6101008b015116612710019081612710116103ed57612710611e60611e7793611e6c936135ac565b0460c08c0151906135ac565b60808b0151906135bf565b98606081015190818b11612077575b5050608435891061205657899493929190880361201c5750611ef4611f6b958260801c5b808460801c10612011575b6001610d2482610d1f611ed6611ecd610d3196613bfe565b8960801c61354a565b60028a01906001600160801b0382549181199060801b169116179055565b600282015460801c80611fef5750505f5b825f52600660205260405f20556002611f1d88613bfe565b6001600160801b03611f35838501549282841661354a565b16906001600160801b0319161791015560018060a01b0388165f52600760205260405f20611f6487825461347c565b9055613c8b565b611f7481613da8565b611f7f823383613e46565b611f8a833387613d29565b604080516001600160a01b0396871681529186166020830152810191909152606081019190915291169033907fda828cf61361478a6d2e2c531aa793167b754726e8b2d2798395b8bc571204c190608090a360015f80516020614d3583398151915255005b6103d961200c92855f52600660205260801c9160405f20546135ac565b611f05565b50608083901c611eb5565b9350676765c793fa10079d601b1b87818102048114881517156103ed57611f6b95612051611ef4928c9760801c908b026135bf565b611eaa565b604051636ff241cb60e01b8152600481018a90526084356024820152604490fd5b919850985061209961208e8a6080840151906135ac565b60c0830151906135bf565b908161271081020461271014821517156103ed5761ffff61010082015116612710019182612710116103ed576120e66120db6120ef9461271060a094026135bf565b60e0840151906135ac565b910151906135bf565b968b80611e86565b905096611e18565b612710611e0881611e02565b670d99a8cec7e2000090611df3565b9091506020813d602011612146575b8161213660209383613396565b810103126104425751908d611d36565b3d9150612129565b91909a506020823d60201161217d575b8161216b60209383613396565b81010312610442579051996020611cfd565b3d915061215e565b6040516301e11b9d60e11b815260048101839052602490fd5b6040516375525f8d60e01b81526001600160a01b0386166004820152602490fd5b6040519081526001600160a01b03841660048201529150602090829060249082905afa90811561044d575f916121f8575b508680611c3f565b612211915060203d6020116108495761083b8183613396565b866121f0565b61223191935060203d6020116108495761083b8183613396565b9188611c37565b3461044257602036600319011261044257612251613164565b5f61018060405161226181613323565b8281528260208201528260408201528260608201528260808201528260a08201528260c08201528260e082015282610100820152826101208201528261014082015282610160820152015260018060a01b03165f525f6020526101a060405f206001600160801b036101806040516122d881613323565b82600485549560ff87161515845260ff8760081c161515602085015260ff8760101c16604085015261ffff8760181c16606085015261ffff8760281c16608085015261ffff8760381c1660a085015261ffff8760481c1660c085015261ffff8760581c1660e0850152600181015461010085015260018060a01b03600282015416610120850152600381015483811661014086015260801c6101608501520154168282015260ff60405194161515845260208101511515602085015260ff604082015116604085015261ffff606082015116606085015261ffff608082015116608085015261ffff60a08201511660a085015261ffff60c08201511660c085015261ffff60e08201511660e085015261010081015161010085015260018060a01b036101208201511661012085015282610140820151166101408501528261016082015116610160850152015116610180820152f35b34610442576020806003193601126104425760043567ffffffffffffffff8111610442576124609036906004016131f1565b61246c81939293613675565b9261247a6040519485613396565b81845261248682613675565b601f1901835f5b828110612518575050505f5b8281106124ea5760408051858152865181870181905287870192820190875f5b8281106124c65784840385f35b90919282610160826124db6001948a51613222565b019601910194929190946124b9565b806124fc60019260051b84013561375a565b61250682886136f0565b5261251181876136f0565b5001612499565b61252061368d565b82828901015201849061248d565b34610442576020366003190112610442576001600160a01b0361254f613164565b165f526007602052602060405f2054604051908152f35b3461044257612574366131a6565b919061257e613ba1565b821561046a5761258f818333613a3b565b5f81815260056020526040902080546001600160a01b0393929084161561267757506125bb8585614474565b1561265d5760026125cb86613bfe565b9101908154906125e56001600160801b03918284166135ea565b16906001600160801b03191617905561261c8483851694855f52600760205260405f206126138382546135dd565b90553390613e46565b60405193845216917f794f99eb67739a2b47caf8ca3b39e5a140fbf84e1cb6a800a06cd42d61fa967a60203392a460015f80516020614d3583398151915255005b60405163835d7b3d60e01b81528385166004820152602490fd5b60249060405190630426cfff60e41b82526004820152fd5b346104425760603660031901126104425760206116686126ad613164565b6126b561317a565b6126bd613190565b91613605565b34610442576126d1366131a6565b6126d9613ba1565b801561046a5760018060a01b0380600c54169260405194635b14f18360e01b808752838216958660048901526020978881602481855afa92831561044d5789915f9461281a575b5083156127cd575b5050506127b35761273a828233613a3b565b805f52600587528360405f205416156126775782809261278a9261277f7f9c9260125f1a087d9e46ee3dc78f1a4af18c5e00714012d9a35250d49391c4fe9796613bd0565b610737888483614070565b612795843383613d29565b60405193845216933392a460015f80516020614d3583398151915255005b506040516375525f8d60e01b815291166004820152602490fd5b90919250602460405180948193825288881660048301525afa90811561044d575f916127fd575b50878781612728565b6128149150873d89116108495761083b8183613396565b876127f4565b612832919450823d84116108495761083b8183613396565b928a612720565b3461044257604036600319011261044257612852613164565b6024359061285e613ba1565b61286781614036565b811561046a57600c54604051635b14f18360e01b81526001600160a01b0383811660048301819052939260209291839183916024918391165afa90811561044d575f91612a3e575b50612a25576128bd82613bd0565b825f526002815260405f20915f82526001600160801b039081600460405f20015416806129d7575b50676765c793fa10079d601b1b8602906b033b2e3c9fd0803ce7ffffff19878304016103ed578261291e889361299595885416906135bf565b95875f526003865260405f20335f52865260405f2061293e8882546135dd565b9055600161294b88613bfe565b91019161295c8354928284166135ea565b16906001600160801b031916179055855f526004845260405f20335f52845260405f2061298a8382546135dd565b905561073c81613da8565b6040519384528301527ff5681f9d0db1b911ac18ee83d515a1cf1051853a9eae418316a2fdf7dea427c560403393a360015f80516020614d3583398151915255005b612a0187676765c793fa10079d601b1b6129fb8660018a015416878a5416906135ac565b046135dd565b11612a0c57866128e5565b60405163262ad59760e11b815260048101869052602490fd5b6040516375525f8d60e01b815260048101849052602490fd5b612a559150823d84116108495761083b8183613396565b856128af565b34610442576020366003190112610442576040611643612a79613164565b613563565b3461044257612a9e612a8f366131db565b90612a986133b8565b50614624565b5f526001602052608060405f2060405190612ab882613307565b549060ff821615159182825261ffff82816020819501818560081c1681528160606040850194828860181c168652019560281c168552604051968752511660208601525116604084015251166060820152f35b3461044257606036600319011261044257612b24613164565b612b2c61317a565b612b34613190565b91612b3d613ba1565b600b546001600160a01b039290831633141580612cbb575b612ca95783612b649183613a3b565b91825f52600560205260405f208181541615612c9057600201936001600160801b039384865416612c7857612b9882613bd0565b82821694855f52600260205260405f20908754978860801c91835460801c612bc09084614533565b99169055612bcd90613bfe565b9060010190815460801c90612be19161354a565b81546001600160801b031660809190911b6001600160801b031916179055805f5260066020528360405f205f9055612c1891613c8b565b612c2181613da8565b8433612c2c92613e46565b604051918483521690339060207f861660e9b7ead7183d53fe928b5638c7b57a7bcf16a89d7fdb04db65ce3ad6d591a460015f80516020614d3583398151915255604051908152602090f35b602490604051906314248fbd60e21b82526004820152fd5b604051630426cfff60e41b815260048101859052602490fd5b60405163ea8e4eb560e01b8152600490fd5b5082600d5416331415612b55565b3461044257602036600319011261044257612ce2613164565b5f60a0604051612cf1816132eb565b828152826020820152826040820152826060820152826080820152015260018060a01b03165f52600260205260c0612d2b60405f20613422565b64ffffffffff60a0604051926001600160801b03808251168552806020830151166020860152806040830151166040860152806060830151166060860152608082015116608085015201511660a0820152f35b3461044257612d8c366131a6565b612d94613ba1565b801561046a5760018060a01b0380600c54169260405194635b14f18360e01b808752838216958660048901526020978881602481855afa92831561044d5789915f94612fab575b508315612f5e575b505050612f4557612df5828233613a3b565b90815f526005875260405f208481541615612f2c57600201916001600160801b0392838154168711612f1a578693612e2c86613bd0565b612e3585613bfe565b90612e4483549282841661354a565b16906001600160801b031916178155875f526007895260405f20612e6985825461347c565b90555460801c612ea7575b916127959161036f7f066ba4a8f1b0176abba8cd70012fabcaa801a97916823e068d94ec15deb9037a9695943390613c8b565b909150612eea61ffff88612ebb8686614213565b015116825f526005895260405f20908686165f5260028a5260405f205460801c90611c9a88600c5416936133dc565b670de0b6b3a76400008110612f025750908491612e74565b6024906040519063b8dfb2c160e01b82526004820152fd5b604051633a23d82560e01b8152600490fd5b604051630426cfff60e41b815260048101849052602490fd5b6040516375525f8d60e01b815260048101869052602490fd5b90919250602460405180948193825288881660048301525afa90811561044d575f91612f8e575b50878781612de3565b612fa59150873d89116108495761083b8183613396565b87612f85565b612fc3919450823d84116108495761083b8183613396565b928a612ddb565b3461044257604036600319011261044257612fe3613164565b612feb61317a565b9060018060a01b038091165f52600360205260405f2091165f52602052602060405f2054604051908152f35b3461044257602036600319011261044257610f1d613036600435613489565b604080519384526020840192909252908201529081906060820190565b346104425760203660031901126104425761306c6133b8565b506004355f526005602052610f1d611b4c60405f206133dc565b346104425760603660031901126104425760206116686130a4613164565b6130ac61317a565b6130b4613190565b91613a3b565b346104425760209081600319360112610442576001600160a01b036130dd613164565b165f526008825260405f2080548083528383019081925f52845f20905f5b8682821061315057868661311182880383613396565b60405192839281840190828552518091526040840192915f5b82811061313957505050500390f35b83518552869550938101939281019260010161312a565b8354855290930192600192830192016130fb565b600435906001600160a01b038216820361044257565b602435906001600160a01b038216820361044257565b604435906001600160a01b038216820361044257565b6060906003190112610442576001600160a01b0390600435828116810361044257916024359081168103610442579060443590565b6040906003190112610442576004359060243590565b9181601f840112156104425782359167ffffffffffffffff8311610442576020808501948460051b01011161044257565b80518252602081015115156020830152604081015160408301526060810151606083015260808101511515608083015260a081015160a083015260c081015160c083015260e081015160e08301526101008082015190830152610120808201519083015261014080910151910152565b5f5b8381106132a35750505f910152565b8181015183820152602001613294565b6080906003190112610442576001600160a01b0360043581811681036104425791602435916044359081168103610442579060643590565b60c0810190811067ffffffffffffffff8211176115e557604052565b6080810190811067ffffffffffffffff8211176115e557604052565b6101a0810190811067ffffffffffffffff8211176115e557604052565b610140810190811067ffffffffffffffff8211176115e557604052565b610100810190811067ffffffffffffffff8211176115e557604052565b6060810190811067ffffffffffffffff8211176115e557604052565b90601f8019910116810190811067ffffffffffffffff8211176115e557604052565b604051906133c582613307565b5f6060838281528260208201528260408201520152565b906040516133e981613307565b82546001600160a01b03908116825260018401541660208201526002909201546001600160801b038116604084015260801c6060830152565b9060405161342f816132eb565b60a064ffffffffff829460028154916001600160801b0392838116875260801c60208701526001810154838116604088015260801c60608701520154908116608085015260801c16910152565b919082039182116103ed57565b90815f52600560205261349e60405f206133dc565b80516001600160a01b039081161561352757906001600160801b0360606134f56134ff946020850190808251165f52600260205260405f209151165f525f60205261ffff60405f205460481c16610ec74292613422565b5092015116614533565b915f52600660205260405f2054908183115f1461352357613520828461347c565b90565b5f90565b505f92508291829150565b90816020910312610442575180151581036104425790565b6001600160801b0391821690821603919082116103ed57565b60018060a01b031690815f52600260205261352060405f206001600160801b03600261358e83613fb2565b92015416935f525f60205261ffff60405f205460481c169084613ff1565b818102929181159184041417156103ed57565b81156135c9570490565b634e487b7160e01b5f52601260045260245ffd5b919082018092116103ed57565b9190916001600160801b03808094169116019182116103ed57565b828261361392949394613a3b565b5f52600560205261362660405f206133dc565b805190916001600160a01b039182161561366c578161ffff602061364d8461352098614213565b01511691165f52600260205260405f205460801c91600c5416926142ce565b505050505f1990565b67ffffffffffffffff81116115e55760051b60200190565b60405190610160820182811067ffffffffffffffff8211176115e5576040525f610140838281528260208201528260408201528260608201528260808201528260a08201528260c08201528260e082015282610100820152826101208201520152565b80518210156137045760209160051b010190565b634e487b7160e01b5f52603260045260245ffd5b60ff16604d81116103ed57600a0a90565b60443580151581036104425790565b60843561ffff811681036104425790565b60a43561ffff811681036104425790565b9061376361368d565b918083525f52602060058152604061377c815f206133dc565b805190926001600160a01b03929091831615613a2757600182870152828451169383838201511693845f52600284526137c9835f205f865261ffff855f205460481c16610ec74292613422565b5093846137d68789614213565b91613801868c6137f78487019761ffff89511690600c54169687918b6142ce565b91829101526144e3565b60a08c015260608501916138206001600160801b039889855116614533565b9160c08d019283528751966341976e0960e01b908189528c60048a01528289602481875afa988915613a1d578f90918e8c9594935f9c6139e6575b505f525f8452845f205460101c60ff1661387490613718565b9b8c91019a8d8c511690613887916135ac565b90613891916135bf565b9060e001528a865116613920575b5050505050918593916138d4966138db989694511615159081613913575b5015158060808c01526138ec575b50505050613563565b5091613563565b919050610120840152610140830152565b61ffff613905946101008c0151935116915116916145c1565b60608701525f8080806138cb565b606091500151155f6138bd565b8b6024839285519687938492835260048301525afa9283156139dc57908e949392915f93613993575b506139828b99979592948d9b99979461397b6138db9f6138d49f985f6101009760ff938252525f205460101c16613718565b9151614583565b91015292949698829496985f61389f565b81809c9a989650819d9b999794503d83116139d5575b6139b38183613396565b8101031261044257995197999698959794969395929490938d93613982613949565b503d6139a9565b82513d5f823e3d90fd5b9b50509350508189813d8311613a16575b613a018183613396565b81010312610442578e8a938e9a519a5f61385b565b503d6139f7565b8a513d5f823e3d90fd5b50505050565b5f1981146103ed5760010190565b919060405191602083019360018060a01b039283809216865216604084015216606082015260608152613a6d81613307565b51902090565b92909260208101906001600160801b03948583511695808351169564ffffffffff60a0850151168082115f14613b9957613aac9161347c565b8015613b9257816080850151169485151580613b83575b613ad0575b505050505050565b91613aee9193959850849697506040819501511684875116906149f4565b80613b6057505f915b6301e133809283613b08838b6135ac565b0495676765c793fa10079d601b1b968701918288116103ed57613b34613b3a9388613b3f9751166149f4565b9a613ff1565b6135ac565b0482018092116103ed57613b549251166149f4565b905f8080808080613ac8565b613b7d90613b788560608901511686855116906149f4565b614a3a565b91613af7565b50826060860151161515613ac3565b5050505050565b50505f613aac565b5f80516020614d358339815191526002815414613bbe5760029055565b604051633ee5aeb560e01b8152600490fd5b60018060a01b03165f526002602052613bfc60405f205f60205261ffff60405f205460481c1690614a69565b565b6001600160801b0390818111613c12571690565b604490604051906306dfcc6560e41b8252608060048301526024820152fd5b909161ffff613c4382613c7995614213565b5116915f52600560205260405f209160018060a01b038092165f526002602052611c9a60405f205460801c92600c5416936133dc565b670de0b6b3a76400008110612f025750565b90815f52600560205260405f206002810180546001600160801b038116159081613d1d575b50613cbb5750505050565b5f6001838280955501555560066020525f604081205560018060a01b031690815f526008602052613cef8160405f20614c77565b507fbcb7cadb21c559b49c8be5b6a40b4ca39f4fb3b53dd0d707fc2f6f5300cd76b75f80a35f808080613a27565b905060801c155f613cb0565b60405163a9059cbb60e01b5f9081526001600160a01b039384166004526024949094529291169060209060448180855af160015f5114811615613d89575b8260405215613d74575050565b635274afe760e01b8252600482015260249150fd5b6001811516613d9f57813b15153d151616613d67565b823d5f823e3d90fd5b6001600160a01b03165f8181526002602052604090207f51eedbe668e048aec37e4dc0104031dbf295c9f3b35bfd9cb73a217b6ff8125990606090613e0b610d1f613df283613fb2565b865f525f60205261ffff60405f205460581c1690614859565b9060028101906001600160801b0380931691826001600160801b031982541617905554604051928116835260801c60208301526040820152a2565b604080516370a0823160e01b8082523060048301529194936001600160a01b039384169391926020929091908385602481895afa948515613fa8575f95613f79575b508751916323b872dd60e01b5f52166004523060245285604452825f60648180895af160015f5114811615613f5a575b8188525f60605215613f4457508190602487518096819382523060048301525afa908115613f3a575f91613f0a575b50613ef2925061347c565b10613efa5750565b5163b0a6ea2960e01b8152600490fd5b905082813d8311613f33575b613f208183613396565b8101031261044257613ef291515f613ee7565b503d613f16565b85513d5f823e3d90fd5b635274afe760e01b815260048101859052602490fd5b6001811516613f7057853b15153d151616613eb8565b503d5f823e3d90fd5b9094508381813d8311613fa1575b613f918183613396565b810103126104425751935f613e88565b503d613f87565b88513d5f823e3d90fd5b60018101549054613fcf6001600160801b038281169084166149f4565b908115613fea5761352092613b789160801c9060801c6149f4565b5050505f90565b909161ffff1690676765c793fa10079d601b1b91828102908082048414901517156103ed57612710900482039182116103ed5761352092614031916149f4565b6149f4565b6001600160a01b03165f8181526020819052604090205460ff16156140585750565b60249060405190630f10d83760e11b82526004820152fd5b6001600160a01b0382165f81815260208181526040918290205493959360081c60ff16156141fb57825f5260028152815f20926140ad8587614780565b156141e45782516370a0823160e01b81523060048201528281602481855afa80156141da575f906141ab575b6140ef9150825f5260078452845f20549061347c565b85116141945750676765c793fa10079d601b1b908185029185830414851517156103ed57614122845460801c80936135dd565b5f198101979088116103ed5761418061418d95610d31600161417361414c600698613bfc9e6135bf565b610d1f61415882613bfe565b885f5260058a52610d3160028d5f200191825460801c6135ea565b920191825460801c6135ea565b5f52525f209182546135dd565b9055613da8565b6024908351906380daf1e560e01b82526004820152fd5b508281813d83116141d3575b6141c18183613396565b81010312610442576140ef90516140d9565b503d6141b7565b84513d5f823e3d90fd5b602490835190639eba7a5160e01b82526004820152fd5b8151630f2fa02f60e41b815260048101849052602490fd5b9061421c6133b8565b5060018060a01b038092165f525f60205261424d604091825f2093600185015491165f526001835f20015490614624565b5f526001602052805f20549160ff83165f14614298575061ffff81519261427384613307565b818160081c168452818160181c16602085015260281c16908201526001606082015290565b548151925061ffff906142aa84613307565b818160181c168452818160281c16602085015260381c16908201525f606082015290565b606081018051909492936001600160801b0391821615614469578251604080516341976e0960e01b8082526001600160a01b03938416600483015290968316949290919060209081896024818a5afa988915614430575f9961443a575b5081808901946024838751169186519a8b938492835260048301525afa968715614430575f976143f1575b506143b098856143a8945f61124499989795856103d9968e5116835282825261438760ff8585205460101c16613718565b97511682525261439f60ff825f205460101c16613718565b9a0151166135ac565b975116614533565b9182156143e957612710916143c4916135ac565b0490670de0b6b3a7640000918281029281840414901517156103ed57613520916135bf565b5050505f1990565b92959493918091975083813d8311614429575b61440e8183613396565b810103126104425791519593949293909291906143b0614356565b503d614404565b83513d5f823e3d90fd5b9098508181813d8311614462575b6144528183613396565b810103126104425751975f61432b565b503d614448565b5050505050505f1990565b6001600160a01b03165f9081526020819052604090206003015460801c9081156144b0576144ab90600760205260405f20546135dd565b111590565b5050600190565b600b546001600160a01b031633036144cb57565b60405163118cdaa760e01b8152336004820152602490fd5b5f19811461452e57670de0b6b3a7640000908181111561452857670de0b6b3a763ffff1981019081116103ed57612710908181029181830414901517156103ed570490565b50505f90565b505f90565b908115801561457b575b6145285761454a916135ac565b676765c793fa10079d601b1b90818101908181116103ed576b033b2e3c9fd0803ce7ffffff019081116103ed570490565b50801561453d565b90811580156145b9575b613fea5761459f83916145a4936135ac565b6135dd565b5f198101919082116103ed57613520916135bf565b50801561458d565b919080158015614618575b8015614610575b6146085761ffff6145e59216906135ac565b91612710918281029281840414901517156103ed5761459f83916145a4936135ac565b505050505f90565b5082156145d3565b5061ffff8216156145cc565b908082101561464a576040519060208201928352604082015260408152613a6d8161337a565b906040519060208201928352604082015260408152613a6d8161337a565b905f8091602081519101845af480806146e6575b1561469c5750506040513d81523d5f602083013e60203d82010160405290565b156146c357604051639996b31560e01b81526001600160a01b039091166004820152602490fd5b3d156146d4576040513d5f823e3d90fd5b60405163d6bda27560e01b8152600490fd5b503d15158061467c5750813b151561467c565b6040516370a0823160e01b8152306004820152906001600160a01b0316602082602481845afa91821561044d575f9261474c575b505f52600760205260405f20548082115f14614528576135209161347c565b9091506020813d602011614778575b8161476860209383613396565b810103126104425751905f61472d565b3d915061475b565b6001600160a01b03165f908152602081905260409020600301546001600160801b03169081156144b0576144ab906002602052676765c793fa10079d601b1b6129fb60405f206001810154905460801c9060801c6135ac565b6001600160a01b03165f90815260026020526040902060018101549054676765c793fa10079d601b1b928361481a6001600160801b038481169086166135ac565b04928315614850576129fb85916148379460801c9060801c6135ac565b8281029281840414901517156103ed57613520916135bf565b50505050505f90565b6b0295be96e6406697200000008082116148be576a2116545850052128000000918281029281840414901517156103ed5761ffff9104915b1690676765c793fa10079d601b1b918281029281840414901517156103ed576127106135209204906135dd565b506b0295be96e64066971fffffff1981019081116103ed576b026c62ad77dc602dae000000908181029181830414901517156103ed576aa56fa5b99019a5c80000006a2116545850052128000000910481018091116103ed5761ffff9091614891565b6001600160a01b03828116908216808214614608575f525f60205260ff60405f205416158015614976575b613fea575f5260ff60405f205460081c16156145285761ffff9161496f91614213565b5116151590565b50805f5260ff60405f2054161561494c565b6040519060095480835282602091602082019060095f527f6e1540171b6c0c960b71a7020d9f60077f6af931a8bbf590da0223dacf75c7af935f905b8282106149da57505050613bfc92500383613396565b8554845260019586019588955093810193909101906149c4565b9081158015614a32575b61452857614a0b916135ac565b6b019d971e4fe8401e7400000081018091116103ed57676765c793fa10079d601b1b900490565b5080156149fe565b90676765c793fa10079d601b1b918281029281840414901517156103ed576103d9613520928260011c906135dd565b90600282019081549264ffffffffff91614a88838660801c164261347c565b8015613ac8576001600160801b0380961680151580614b83575b614ad8575b5050835464ffffffffff60801b1916429390931660801b64ffffffffff60801b169290921790925550613bfc915050565b614ae184613fb2565b916301e133809283614af383856135ac565b0494676765c793fa10079d601b1b958601918287116103ed57614b4c94614b47614b27610d1f613b3a968c5460801c6149f4565b8a546001600160801b031660809190911b6001600160801b031916178a55565b613ff1565b0481018091116103ed57613bfc94614b6b610d1f8454938385166149f4565b16906001600160801b0319161790555f808080614aa7565b50600184015460801c1515614aa2565b8054821015613704575f5260205f2001905f90565b805f52600a60205260405f2054155f1461452e57600954600160401b8110156115e55760018101806009558110156137045781907f6e1540171b6c0c960b71a7020d9f60077f6af931a8bbf590da0223dacf75c7af0155600954905f52600a60205260405f2055600190565b6001810190825f528160205260405f2054155f14613fea578054600160401b8110156115e557614c64614c4e826001879401855584614b93565b819391549060031b91821b915f19901b19161790565b905554915f5260205260405f2055600190565b906001820191815f528260205260405f2054908115155f14614608575f19918083018181116103ed578254908482019182116103ed57818103614cff575b50505080548015614ceb57820191614ccd8383614b93565b909182549160031b1b19169055555f526020525f6040812055600190565b634e487b7160e01b5f52603160045260245ffd5b614d1f614d0f614c4e9386614b93565b90549060031b1c92839286614b93565b90555f528460205260405f20555f8080614cb556fe9b779b17422d0df92223018b32b4d1fa46e071723d6817e2486d003becc55f00a2646970667358221220296455de0861e0d086135cc0ec2fe4977644017e3997074b004df53d188050eb64736f6c63430008180033000000000000000000000000ca14e37c862465677caa064c20bdbb6673f6fe4800000000000000000000000039375ed41c100de00c759067774d73d62ab7380b",
        "nonce": "0x48",
        "chainId": "0x4cef52"
      },
      "additionalContracts": [],
      "isFixedGasLimit": false
    },
    {
      "hash": "0x8656fee22aad6a20a049fb006afb703b1fdf8d6c581a51d719ed1dac02ed7dfc",
      "transactionType": "CALL",
      "contractName": "LendingPool",
      "contractAddress": "0x6fc50bbd108f39fc6b0069c29f42e4a120c9df97",
      "function": "setInsuranceFund(address)",
      "arguments": [
        "0xCa14e37C862465677caA064c20BDBB6673F6FE48"
      ],
      "transaction": {
        "from": "0xca14e37c862465677caa064c20bdbb6673f6fe48",
        "to": "0x6fc50bbd108f39fc6b0069c29f42e4a120c9df97",
        "gas": "0x10225",
        "value": "0x0",
        "input": "0xc3c05293000000000000000000000000ca14e37c862465677caa064c20bdbb6673f6fe48",
        "nonce": "0x49",
        "chainId": "0x4cef52"
      },
      "additionalContracts": [],
      "isFixedGasLimit": false
    },
    {
      "hash": "0xa61a66bfc69b2ddc91be0e24bf00fa1e3b2c36c763de304d202444ba9618dc68",
      "transactionType": "CALL",
      "contractName": "LendingPool",
      "contractAddress": "0x6fc50bbd108f39fc6b0069c29f42e4a120c9df97",
      "function": "configureAsset(address,(bool,bool,uint8,uint16,uint16,uint16,uint16,uint16,bytes32,address,uint128,uint128,uint128))",
      "arguments": [
        "0xe94C3c122204a1011EED9Ba9C11Aa8DEA861e91f",
        "(true, true, 6, 7500, 8000, 500, 1000, 100, 0x5553440000000000000000000000000000000000000000000000000000000000, 0x39375eD41C100De00c759067774D73d62Ab7380B, 10000000000000, 10000000000000, 0)"
      ],
      "transaction": {
        "from": "0xca14e37c862465677caa064c20bdbb6673f6fe48",
        "to": "0x6fc50bbd108f39fc6b0069c29f42e4a120c9df97",
        "gas": "0x4e2b3",
        "value": "0x0",
        "input": "0x73fa805e000000000000000000000000e94c3c122204a1011eed9ba9c11aa8dea861e91f0000000000000000000000000000000000000000000000000000000000000001000000000000000000000000000000000000000000000000000000000000000100000000000000000000000000000000000000000000000000000000000000060000000000000000000000000000000000000000000000000000000000001d4c0000000000000000000000000000000000000000000000000000000000001f4000000000000000000000000000000000000000000000000000000000000001f400000000000000000000000000000000000000000000000000000000000003e80000000000000000000000000000000000000000000000000000000000000064555344000000000000000000000000000000000000000000000000000000000000000000000000000000000039375ed41c100de00c759067774d73d62ab7380b000000000000000000000000000000000000000000000000000009184e72a000000000000000000000000000000000000000000000000000000009184e72a0000000000000000000000000000000000000000000000000000000000000000000",
        "nonce": "0x4a",
        "chainId": "0x4cef52"
      },
      "additionalContracts": [],
      "isFixedGasLimit": false
    },
    {
      "hash": "0x2350325868dd121cf7563a818b65c6865e4f1d942748a5ba20b642de656af0b8",
      "transactionType": "CALL",
      "contractName": "LendingPool",
      "contractAddress": "0x6fc50bbd108f39fc6b0069c29f42e4a120c9df97",
      "function": "configureAsset(address,(bool,bool,uint8,uint16,uint16,uint16,uint16,uint16,bytes32,address,uint128,uint128,uint128))",
      "arguments": [
        "0x657ff6937aC8913AD3DbEC44430BcdeD3af1367C",
        "(true, true, 6, 7500, 8000, 500, 1000, 200, 0x4555520000000000000000000000000000000000000000000000000000000000, 0x39375eD41C100De00c759067774D73d62Ab7380B, 5000000000000, 5000000000000, 0)"
      ],
      "transaction": {
        "from": "0xca14e37c862465677caa064c20bdbb6673f6fe48",
        "to": "0x6fc50bbd108f39fc6b0069c29f42e4a120c9df97",
        "gas": "0x4ca95",
        "value": "0x0",
        "input": "0x73fa805e000000000000000000000000657ff6937ac8913ad3dbec44430bcded3af1367c0000000000000000000000000000000000000000000000000000000000000001000000000000000000000000000000000000000000000000000000000000000100000000000000000000000000000000000000000000000000000000000000060000000000000000000000000000000000000000000000000000000000001d4c0000000000000000000000000000000000000000000000000000000000001f4000000000000000000000000000000000000000000000000000000000000001f400000000000000000000000000000000000000000000000000000000000003e800000000000000000000000000000000000000000000000000000000000000c8455552000000000000000000000000000000000000000000000000000000000000000000000000000000000039375ed41c100de00c759067774d73d62ab7380b0000000000000000000000000000000000000000000000000000048c273950000000000000000000000000000000000000000000000000000000048c273950000000000000000000000000000000000000000000000000000000000000000000",
        "nonce": "0x4b",
        "chainId": "0x4cef52"
      },
      "additionalContracts": [],
      "isFixedGasLimit": false
    },
    {
      "hash": "0x4decc14df3f61076a3386232ac49256ad9f621a2d29a877c275e1c27b3168032",
      "transactionType": "CALL",
      "contractName": "LendingPool",
      "contractAddress": "0x6fc50bbd108f39fc6b0069c29f42e4a120c9df97",
      "function": "configureAsset(address,(bool,bool,uint8,uint16,uint16,uint16,uint16,uint16,bytes32,address,uint128,uint128,uint128))",
      "arguments": [
        "0x78F1D761BC1E5D01b136e78A63AE444189ee02FB",
        "(true, true, 18, 7500, 8000, 750, 1000, 0, 0x4554480000000000000000000000000000000000000000000000000000000000, 0x39375eD41C100De00c759067774D73d62Ab7380B, 1000000000000000000000, 2000000000000000000000, 0)"
      ],
      "transaction": {
        "from": "0xca14e37c862465677caa064c20bdbb6673f6fe48",
        "to": "0x6fc50bbd108f39fc6b0069c29f42e4a120c9df97",
        "gas": "0x486a2",
        "value": "0x0",
        "input": "0x73fa805e00000000000000000000000078f1d761bc1e5d01b136e78a63ae444189ee02fb0000000000000000000000000000000000000000000000000000000000000001000000000000000000000000000000000000000000000000000000000000000100000000000000000000000000000000000000000000000000000000000000120000000000000000000000000000000000000000000000000000000000001d4c0000000000000000000000000000000000000000000000000000000000001f4000000000000000000000000000000000000000000000000000000000000002ee00000000000000000000000000000000000000000000000000000000000003e80000000000000000000000000000000000000000000000000000000000000000455448000000000000000000000000000000000000000000000000000000000000000000000000000000000039375ed41c100de00c759067774d73d62ab7380b00000000000000000000000000000000000000000000003635c9adc5dea0000000000000000000000000000000000000000000000000006c6b935b8bbd4000000000000000000000000000000000000000000000000000000000000000000000",
        "nonce": "0x4c",
        "chainId": "0x4cef52"
      },
      "additionalContracts": [],
      "isFixedGasLimit": false
    },
    {
      "hash": "0x30d141531c1a60781d84ea0c3bf510e124c947c7206c319470e4a9f7e1c045ee",
      "transactionType": "CALL",
      "contractName": "LendingPool",
      "contractAddress": "0x6fc50bbd108f39fc6b0069c29f42e4a120c9df97",
      "function": "configureFxCategory(bytes32,bytes32,(bool,uint16,uint16,uint16))",
      "arguments": [
        "0x5553440000000000000000000000000000000000000000000000000000000000",
        "0x4555520000000000000000000000000000000000000000000000000000000000",
        "(true, 9000, 9400, 250)"
      ],
      "transaction": {
        "from": "0xca14e37c862465677caa064c20bdbb6673f6fe48",
        "to": "0x6fc50bbd108f39fc6b0069c29f42e4a120c9df97",
        "gas": "0x10c22",
        "value": "0x0",
        "input": "0xe6d48ed5555344000000000000000000000000000000000000000000000000000000000045555200000000000000000000000000000000000000000000000000000000000000000000000000000000000000000000000000000000000000000000000001000000000000000000000000000000000000000000000000000000000000232800000000000000000000000000000000000000000000000000000000000024b800000000000000000000000000000000000000000000000000000000000000fa",
        "nonce": "0x4d",
        "chainId": "0x4cef52"
      },
      "additionalContracts": [],
      "isFixedGasLimit": false
    },
    {
      "hash": "0xa5cbfcaaf3be71e0b6b0644a9e25b92457464c478e2b0a7cce37996e79726ad4",
      "transactionType": "CALL",
      "contractName": "MockERC20",
      "contractAddress": "0xe94c3c122204a1011eed9ba9c11aa8dea861e91f",
      "function": "mint(address,uint256)",
      "arguments": [
        "0xCa14e37C862465677caA064c20BDBB6673F6FE48",
        "1000000000000"
      ],
      "transaction": {
        "from": "0xca14e37c862465677caa064c20bdbb6673f6fe48",
        "to": "0xe94c3c122204a1011eed9ba9c11aa8dea861e91f",
        "gas": "0x16f69",
        "value": "0x0",
        "input": "0x40c10f19000000000000000000000000ca14e37c862465677caa064c20bdbb6673f6fe48000000000000000000000000000000000000000000000000000000e8d4a51000",
        "nonce": "0x4e",
        "chainId": "0x4cef52"
      },
      "additionalContracts": [],
      "isFixedGasLimit": false
    },
    {
      "hash": "0x057e6035d35225d7345a33d90d1e96caf38e3e1af2cc51bc7692b935ad76f63f",
      "transactionType": "CALL",
      "contractName": "MockERC20",
      "contractAddress": "0x657ff6937ac8913ad3dbec44430bcded3af1367c",
      "function": "mint(address,uint256)",
      "arguments": [
        "0xCa14e37C862465677caA064c20BDBB6673F6FE48",
        "500000000000"
      ],
      "transaction": {
        "from": "0xca14e37c862465677caa064c20bdbb6673f6fe48",
        "to": "0x657ff6937ac8913ad3dbec44430bcded3af1367c",
        "gas": "0x16f69",
        "value": "0x0",
        "input": "0x40c10f19000000000000000000000000ca14e37c862465677caa064c20bdbb6673f6fe48000000000000000000000000000000000000000000000000000000746a528800",
        "nonce": "0x4f",
        "chainId": "0x4cef52"
      },
      "additionalContracts": [],
      "isFixedGasLimit": false
    },
    {
      "hash": "0x4b8498e52a1bea979054e09202f9dabf8b8b57f5697d2013538d115f5c7d1aff",
      "transactionType": "CALL",
      "contractName": "MockERC20",
      "contractAddress": "0x78f1d761bc1e5d01b136e78a63ae444189ee02fb",
      "function": "mint(address,uint256)",
      "arguments": [
        "0xCa14e37C862465677caA064c20BDBB6673F6FE48",
        "100000000000000000000"
      ],
      "transaction": {
        "from": "0xca14e37c862465677caa064c20bdbb6673f6fe48",
        "to": "0x78f1d761bc1e5d01b136e78a63ae444189ee02fb",
        "gas": "0x16f9b",
        "value": "0x0",
        "input": "0x40c10f19000000000000000000000000ca14e37c862465677caa064c20bdbb6673f6fe480000000000000000000000000000000000000000000000056bc75e2d63100000",
        "nonce": "0x50",
        "chainId": "0x4cef52"
      },
      "additionalContracts": [],
      "isFixedGasLimit": false
    },
    {
      "hash": "0x562c4c7819e0a7f99c02ad0f55d64f8f8a3a1d7cba1f117ce97eb78e64ed0d26",
      "transactionType": "CALL",
      "contractName": "MockERC20",
      "contractAddress": "0xe94c3c122204a1011eed9ba9c11aa8dea861e91f",
      "function": "approve(address,uint256)",
      "arguments": [
        "0x6fc50Bbd108F39Fc6B0069c29f42e4A120C9df97",
        "115792089237316195423570985008687907853269984665640564039457584007913129639935"
      ],
      "transaction": {
        "from": "0xca14e37c862465677caa064c20bdbb6673f6fe48",
        "to": "0xe94c3c122204a1011eed9ba9c11aa8dea861e91f",
        "gas": "0xf9a6",
        "value": "0x0",
        "input": "0x095ea7b30000000000000000000000006fc50bbd108f39fc6b0069c29f42e4a120c9df97ffffffffffffffffffffffffffffffffffffffffffffffffffffffffffffffff",
        "nonce": "0x51",
        "chainId": "0x4cef52"
      },
      "additionalContracts": [],
      "isFixedGasLimit": false
    },
    {
      "hash": "0x7bdf40f630312e106cc39f8d91d00d9fefff189c5672bb8663785308e206fb6f",
      "transactionType": "CALL",
      "contractName": "MockERC20",
      "contractAddress": "0x657ff6937ac8913ad3dbec44430bcded3af1367c",
      "function": "approve(address,uint256)",
      "arguments": [
        "0x6fc50Bbd108F39Fc6B0069c29f42e4A120C9df97",
        "115792089237316195423570985008687907853269984665640564039457584007913129639935"
      ],
      "transaction": {
        "from": "0xca14e37c862465677caa064c20bdbb6673f6fe48",
        "to": "0x657ff6937ac8913ad3dbec44430bcded3af1367c",
        "gas": "0xf9a6",
        "value": "0x0",
        "input": "0x095ea7b30000000000000000000000006fc50bbd108f39fc6b0069c29f42e4a120c9df97ffffffffffffffffffffffffffffffffffffffffffffffffffffffffffffffff",
        "nonce": "0x52",
        "chainId": "0x4cef52"
      },
      "additionalContracts": [],
      "isFixedGasLimit": false
    },
    {
      "hash": "0x777689466db6fcac7d81975ebda214f5d9071a4e7b109eaf300ca8055db46cd6",
      "transactionType": "CALL",
      "contractName": "MockERC20",
      "contractAddress": "0x78f1d761bc1e5d01b136e78a63ae444189ee02fb",
      "function": "approve(address,uint256)",
      "arguments": [
        "0x6fc50Bbd108F39Fc6B0069c29f42e4A120C9df97",
        "115792089237316195423570985008687907853269984665640564039457584007913129639935"
      ],
      "transaction": {
        "from": "0xca14e37c862465677caa064c20bdbb6673f6fe48",
        "to": "0x78f1d761bc1e5d01b136e78a63ae444189ee02fb",
        "gas": "0xf9a6",
        "value": "0x0",
        "input": "0x095ea7b30000000000000000000000006fc50bbd108f39fc6b0069c29f42e4a120c9df97ffffffffffffffffffffffffffffffffffffffffffffffffffffffffffffffff",
        "nonce": "0x53",
        "chainId": "0x4cef52"
      },
      "additionalContracts": [],
      "isFixedGasLimit": false
    },
    {
      "hash": "0x37d0e332d68af82b60d79f0a4bcde41903b7bfdd1227fb12e4889999b0aecc21",
      "transactionType": "CALL",
      "contractName": "LendingPool",
      "contractAddress": "0x6fc50bbd108f39fc6b0069c29f42e4a120c9df97",
      "function": "deposit(address,uint256)",
      "arguments": [
        "0xe94C3c122204a1011EED9Ba9C11Aa8DEA861e91f",
        "1000000000000"
      ],
      "transaction": {
        "from": "0xca14e37c862465677caa064c20bdbb6673f6fe48",
        "to": "0x6fc50bbd108f39fc6b0069c29f42e4a120c9df97",
        "gas": "0x322b5",
        "value": "0x0",
        "input": "0x47e7ef24000000000000000000000000e94c3c122204a1011eed9ba9c11aa8dea861e91f000000000000000000000000000000000000000000000000000000e8d4a51000",
        "nonce": "0x54",
        "chainId": "0x4cef52"
      },
      "additionalContracts": [],
      "isFixedGasLimit": false
    },
    {
      "hash": "0x8183bf05070e0e04240efe62e82a16793f7af51a403da55206b061961b1494aa",
      "transactionType": "CALL",
      "contractName": "LendingPool",
      "contractAddress": "0x6fc50bbd108f39fc6b0069c29f42e4a120c9df97",
      "function": "deposit(address,uint256)",
      "arguments": [
        "0x657ff6937aC8913AD3DbEC44430BcdeD3af1367C",
        "500000000000"
      ],
      "transaction": {
        "from": "0xca14e37c862465677caa064c20bdbb6673f6fe48",
        "to": "0x6fc50bbd108f39fc6b0069c29f42e4a120c9df97",
        "gas": "0x322b5",
        "value": "0x0",
        "input": "0x47e7ef24000000000000000000000000657ff6937ac8913ad3dbec44430bcded3af1367c000000000000000000000000000000000000000000000000000000746a528800",
        "nonce": "0x55",
        "chainId": "0x4cef52"
      },
      "additionalContracts": [],
      "isFixedGasLimit": false
    },
    {
      "hash": "0x3a0a38de59ca00bd6dd497b1deedf2797cdbe27d03d09fb112f297030bf7e6ab",
      "transactionType": "CALL",
      "contractName": "LendingPool",
      "contractAddress": "0x6fc50bbd108f39fc6b0069c29f42e4a120c9df97",
      "function": "deposit(address,uint256)",
      "arguments": [
        "0x78F1D761BC1E5D01b136e78A63AE444189ee02FB",
        "100000000000000000000"
      ],
      "transaction": {
        "from": "0xca14e37c862465677caa064c20bdbb6673f6fe48",
        "to": "0x6fc50bbd108f39fc6b0069c29f42e4a120c9df97",
        "gas": "0x34223",
        "value": "0x0",
        "input": "0x47e7ef2400000000000000000000000078f1d761bc1e5d01b136e78a63ae444189ee02fb0000000000000000000000000000000000000000000000056bc75e2d63100000",
        "nonce": "0x56",
        "chainId": "0x4cef52"
      },
      "additionalContracts": [],
      "isFixedGasLimit": false
    }
  ],
  "receipts": [
    {
      "status": "0x1",
      "cumulativeGasUsed": "0x10b6af",
      "logs": [
        {
          "address": "0x39375ed41c100de00c759067774d73d62ab7380b",
          "topics": [
            "0x8be0079c531659141344cd1fd0a4f28419497f9722a3daafe3b4186f6b6457e0",
            "0x0000000000000000000000000000000000000000000000000000000000000000",
            "0x000000000000000000000000ca14e37c862465677caa064c20bdbb6673f6fe48"
          ],
          "data": "0x",
          "blockHash": "0xa43f9098c4d7cca96c4ae0a56a27d5deebf6a8f23d71dfd8ebfef64066fad4c8",
          "blockNumber": "0x2cb49d7",
          "blockTimestamp": "0x6a2d4869",
          "transactionHash": "0x83843845bcc18802e9c0224e6dde498efa190a5afcf149a3c4e0cb2f17c4a461",
          "transactionIndex": "0x7",
          "logIndex": "0x1c",
          "removed": false
        }
      ],
      "logsBloom": "0x00000000000000000000000000000000000000000000040000800000000000000000000000000000000000000000000000000000000000000000000000000000000000000000000000000000000000000001000000000000000000000000000000000000020000000000000000000800000000000000000000000000000000400000000000000000000000000000000000000000000000000000000000000000000000000000000000000000000000000000000000000000000000000000000000000000000000000000000000000000000000000001000000000000000020000080000000000000000000000000000000000000000001000000000000000800",
      "type": "0x2",
      "transactionHash": "0x83843845bcc18802e9c0224e6dde498efa190a5afcf149a3c4e0cb2f17c4a461",
      "transactionIndex": "0x7",
      "blockHash": "0xa43f9098c4d7cca96c4ae0a56a27d5deebf6a8f23d71dfd8ebfef64066fad4c8",
      "blockNumber": "0x2cb49d7",
      "gasUsed": "0x4d681",
      "effectiveGasPrice": "0x4a88ede4a",
      "from": "0xca14e37c862465677caa064c20bdbb6673f6fe48",
      "to": null,
      "contractAddress": "0x39375ed41c100de00c759067774d73d62ab7380b"
    },
    {
      "status": "0x1",
      "cumulativeGasUsed": "0x116f3c",
      "logs": [
        {
          "address": "0x39375ed41c100de00c759067774d73d62ab7380b",
          "topics": [
            "0xe6c09ffe4572dc9ceaa5ddde4ae41befa655d6fdfe8052077af0970f700e942e",
            "0x000000000000000000000000ca14e37c862465677caa064c20bdbb6673f6fe48"
          ],
          "data": "0x",
          "blockHash": "0xa43f9098c4d7cca96c4ae0a56a27d5deebf6a8f23d71dfd8ebfef64066fad4c8",
          "blockNumber": "0x2cb49d7",
          "blockTimestamp": "0x6a2d4869",
          "transactionHash": "0x914059c7010851dfcd1ba54dfc05134869b6dd49ada68e9b90f4f8636c8ee695",
          "transactionIndex": "0x8",
          "logIndex": "0x1d",
          "removed": false
        }
      ],
      "logsBloom": "0x00000000000000000000000000000000000000000000040000000000000000000000000000000000000000000000000000000000000000000000000000000000000000000000000000000000000000000000000000000000000000000000000000000000000000000000000000000000000000000000000000000000000000000000000000000000000000000000000000000000000000000000000000000000000000000000000000000000000000080000000000000000000000000080000000000000000000000000000000000000000000000001000000000000000000000080000000000000000000000000000000000100000001000000000000000800",
      "type": "0x2",
      "transactionHash": "0x914059c7010851dfcd1ba54dfc05134869b6dd49ada68e9b90f4f8636c8ee695",
      "transactionIndex": "0x8",
      "blockHash": "0xa43f9098c4d7cca96c4ae0a56a27d5deebf6a8f23d71dfd8ebfef64066fad4c8",
      "blockNumber": "0x2cb49d7",
      "gasUsed": "0xb88d",
      "effectiveGasPrice": "0x4a88ede4a",
      "from": "0xca14e37c862465677caa064c20bdbb6673f6fe48",
      "to": "0x39375ed41c100de00c759067774d73d62ab7380b",
      "contractAddress": null
    },
    {
      "status": "0x1",
      "cumulativeGasUsed": "0x19d4f0",
      "logs": [],
      "logsBloom": "0x00000000000000000000000000000000000000000000000000000000000000000000000000000000000000000000000000000000000000000000000000000000000000000000000000000000000000000000000000000000000000000000000000000000000000000000000000000000000000000000000000000000000000000000000000000000000000000000000000000000000000000000000000000000000000000000000000000000000000000000000000000000000000000000000000000000000000000000000000000000000000000000000000000000000000000000000000000000000000000000000000000000000000000000000000000000",
      "type": "0x2",
      "transactionHash": "0xc1c8c268f3bc845ba6dfd0a0239abfc718a9519bc264a8838da3b2beb2dc47ee",
      "transactionIndex": "0xa",
      "blockHash": "0xa43f9098c4d7cca96c4ae0a56a27d5deebf6a8f23d71dfd8ebfef64066fad4c8",
      "blockNumber": "0x2cb49d7",
      "gasUsed": "0x7ee6a",
      "effectiveGasPrice": "0x4a88ede4a",
      "from": "0xca14e37c862465677caa064c20bdbb6673f6fe48",
      "to": null,
      "contractAddress": "0xe94c3c122204a1011eed9ba9c11aa8dea861e91f"
    },
    {
      "status": "0x1",
      "cumulativeGasUsed": "0x23d782",
      "logs": [],
      "logsBloom": "0x00000000000000000000000000000000000000000000000000000000000000000000000000000000000000000000000000000000000000000000000000000000000000000000000000000000000000000000000000000000000000000000000000000000000000000000000000000000000000000000000000000000000000000000000000000000000000000000000000000000000000000000000000000000000000000000000000000000000000000000000000000000000000000000000000000000000000000000000000000000000000000000000000000000000000000000000000000000000000000000000000000000000000000000000000000000",
      "type": "0x2",
      "transactionHash": "0xd3d6c0401f2ed59a5dc09627b38d113fc4f083cbb160dfb7d0e2d01f8bb3ac4c",
      "transactionIndex": "0xc",
      "blockHash": "0xa43f9098c4d7cca96c4ae0a56a27d5deebf6a8f23d71dfd8ebfef64066fad4c8",
      "blockNumber": "0x2cb49d7",
      "gasUsed": "0x7ee76",
      "effectiveGasPrice": "0x4a88ede4a",
      "from": "0xca14e37c862465677caa064c20bdbb6673f6fe48",
      "to": null,
      "contractAddress": "0x657ff6937ac8913ad3dbec44430bcded3af1367c"
    },
    {
      "status": "0x1",
      "cumulativeGasUsed": "0x3432ab",
      "logs": [],
      "logsBloom": "0x00000000000000000000000000000000000000000000000000000000000000000000000000000000000000000000000000000000000000000000000000000000000000000000000000000000000000000000000000000000000000000000000000000000000000000000000000000000000000000000000000000000000000000000000000000000000000000000000000000000000000000000000000000000000000000000000000000000000000000000000000000000000000000000000000000000000000000000000000000000000000000000000000000000000000000000000000000000000000000000000000000000000000000000000000000000",
      "type": "0x2",
      "transactionHash": "0xe3778b0aa2bf86925cbbff634a2faa33eb0dccc7e7030835bd7e6d862c841de3",
      "transactionIndex": "0xe",
      "blockHash": "0xa43f9098c4d7cca96c4ae0a56a27d5deebf6a8f23d71dfd8ebfef64066fad4c8",
      "blockNumber": "0x2cb49d7",
      "gasUsed": "0x7eea6",
      "effectiveGasPrice": "0x4a88ede4a",
      "from": "0xca14e37c862465677caa064c20bdbb6673f6fe48",
      "to": null,
      "contractAddress": "0x78f1d761bc1e5d01b136e78a63ae444189ee02fb"
    },
    {
      "status": "0x1",
      "cumulativeGasUsed": "0x34de70",
      "logs": [],
      "logsBloom": "0x00000000000000000000000000000000000000000000000000000000000000000000000000000000000000000000000000000000000000000000000000000000000000000000000000000000000000000000000000000000000000000000000000000000000000000000000000000000000000000000000000000000000000000000000000000000000000000000000000000000000000000000000000000000000000000000000000000000000000000000000000000000000000000000000000000000000000000000000000000000000000000000000000000000000000000000000000000000000000000000000000000000000000000000000000000000",
      "type": "0x2",
      "transactionHash": "0x1bf58069d424341617ab425406f1f217cbf42f5617cb54a9ed44f88b2e5f6020",
      "transactionIndex": "0xf",
      "blockHash": "0xa43f9098c4d7cca96c4ae0a56a27d5deebf6a8f23d71dfd8ebfef64066fad4c8",
      "blockNumber": "0x2cb49d7",
      "gasUsed": "0xabc5",
      "effectiveGasPrice": "0x4a88ede4a",
      "from": "0xca14e37c862465677caa064c20bdbb6673f6fe48",
      "to": "0x39375ed41c100de00c759067774d73d62ab7380b",
      "contractAddress": null
    },
    {
      "status": "0x1",
      "cumulativeGasUsed": "0x36011d",
      "logs": [],
      "logsBloom": "0x00000000000000000000000000000000000000000000000000000000000000000000000000000000000000000000000000000000000000000000000000000000000000000000000000000000000000000000000000000000000000000000000000000000000000000000000000000000000000000000000000000000000000000000000000000000000000000000000000000000000000000000000000000000000000000000000000000000000000000000000000000000000000000000000000000000000000000000000000000000000000000000000000000000000000000000000000000000000000000000000000000000000000000000000000000000",
      "type": "0x2",
      "transactionHash": "0x88eea1bb297863d5980ae87276e8ab6c73f2a5788dca2c4033d93cd7bd97fbc0",
      "transactionIndex": "0x11",
      "blockHash": "0xa43f9098c4d7cca96c4ae0a56a27d5deebf6a8f23d71dfd8ebfef64066fad4c8",
      "blockNumber": "0x2cb49d7",
      "gasUsed": "0xabc5",
      "effectiveGasPrice": "0x4a88ede4a",
      "from": "0xca14e37c862465677caa064c20bdbb6673f6fe48",
      "to": "0x39375ed41c100de00c759067774d73d62ab7380b",
      "contractAddress": null
    },
    {
      "status": "0x1",
      "cumulativeGasUsed": "0x36acee",
      "logs": [],
      "logsBloom": "0x00000000000000000000000000000000000000000000000000000000000000000000000000000000000000000000000000000000000000000000000000000000000000000000000000000000000000000000000000000000000000000000000000000000000000000000000000000000000000000000000000000000000000000000000000000000000000000000000000000000000000000000000000000000000000000000000000000000000000000000000000000000000000000000000000000000000000000000000000000000000000000000000000000000000000000000000000000000000000000000000000000000000000000000000000000000",
      "type": "0x2",
      "transactionHash": "0x493999069c1a2788ca76af1f4bd25c1f3e83995daa88d686985eb22f60f9dfa2",
      "transactionIndex": "0x12",
      "blockHash": "0xa43f9098c4d7cca96c4ae0a56a27d5deebf6a8f23d71dfd8ebfef64066fad4c8",
      "blockNumber": "0x2cb49d7",
      "gasUsed": "0xabd1",
      "effectiveGasPrice": "0x4a88ede4a",
      "from": "0xca14e37c862465677caa064c20bdbb6673f6fe48",
      "to": "0x39375ed41c100de00c759067774d73d62ab7380b",
      "contractAddress": null
    },
    {
      "status": "0x1",
      "cumulativeGasUsed": "0x698ea4",
      "logs": [
        {
          "address": "0x6fc50bbd108f39fc6b0069c29f42e4a120c9df97",
          "topics": [
            "0x8be0079c531659141344cd1fd0a4f28419497f9722a3daafe3b4186f6b6457e0",
            "0x0000000000000000000000000000000000000000000000000000000000000000",
            "0x000000000000000000000000ca14e37c862465677caa064c20bdbb6673f6fe48"
          ],
          "data": "0x",
          "blockHash": "0xb905640a99ef507cb40c0814057e5bf75594b1ccb5cb73d35da58efb24b778d6",
          "blockNumber": "0x2cb49d8",
          "blockTimestamp": "0x6a2d4869",
          "transactionHash": "0x8656fee22aad6a20a049fb006afb703b1fdf8d6c581a51d719ed1dac02ed7dfc",
          "transactionIndex": "0xd",
          "logIndex": "0x2d",
          "removed": false
        }
      ],
      "logsBloom": "0x00000000000000000000000000000000000000000000040000800000000000000000000000000000000000000000000200000000000000000000000000000000000000000000000000000000000000000001000000000000000000000000000000000000020000000000000000000800000000000000000000000000000010400000000000000000000000000000000000000004000000000000000000000000000000000000000000000000000000000000000000000000000000000000000000000000000000000000000000000000000000000000000000000000000020000080000000000000000000000000000000000000000001000000000000000000",
      "type": "0x2",
      "transactionHash": "0x8656fee22aad6a20a049fb006afb703b1fdf8d6c581a51d719ed1dac02ed7dfc",
      "transactionIndex": "0xd",
      "blockHash": "0xb905640a99ef507cb40c0814057e5bf75594b1ccb5cb73d35da58efb24b778d6",
      "blockNumber": "0x2cb49d8",
      "gasUsed": "0x436cc2",
      "effectiveGasPrice": "0x4a88ede4a",
      "from": "0xca14e37c862465677caa064c20bdbb6673f6fe48",
      "to": null,
      "contractAddress": "0x6fc50bbd108f39fc6b0069c29f42e4a120c9df97"
    },
    {
      "status": "0x1",
      "cumulativeGasUsed": "0x6a4989",
      "logs": [
        {
          "address": "0x6fc50bbd108f39fc6b0069c29f42e4a120c9df97",
          "topics": [
            "0x5f5e1360fb9bbf3f1dd392d5153831cc6fa952aad577bbbb06e51fea4174cd08",
            "0x000000000000000000000000ca14e37c862465677caa064c20bdbb6673f6fe48"
          ],
          "data": "0x",
          "blockHash": "0xb905640a99ef507cb40c0814057e5bf75594b1ccb5cb73d35da58efb24b778d6",
          "blockNumber": "0x2cb49d8",
          "blockTimestamp": "0x6a2d4869",
          "transactionHash": "0x1896e3da7f84ee9edc90feb21290405fa983dfb945e5e518854aad27cee86bce",
          "transactionIndex": "0xe",
          "logIndex": "0x2e",
          "removed": false
        }
      ],
      "logsBloom": "0x00000000000000000000000000000020000000000000040000000000000000000000000000000000000000000000000200000000000000000000000000000000000000000000000000000000000000000001000000000000000000000000000000000000000000000000000000000000000000000000000000000000000010000000000000000000000000000000000000000004000000000000000000000000000000000000000000000000000000000000000000000000000000000000000000000000000000000000000000000000000000000000000000000000000000000080000000000000000000000000080000000000000001000000000000000000",
      "type": "0x2",
      "transactionHash": "0x1896e3da7f84ee9edc90feb21290405fa983dfb945e5e518854aad27cee86bce",
      "transactionIndex": "0xe",
      "blockHash": "0xb905640a99ef507cb40c0814057e5bf75594b1ccb5cb73d35da58efb24b778d6",
      "blockNumber": "0x2cb49d8",
      "gasUsed": "0xbae5",
      "effectiveGasPrice": "0x4a88ede4a",
      "from": "0xca14e37c862465677caa064c20bdbb6673f6fe48",
      "to": "0x6fc50bbd108f39fc6b0069c29f42e4a120c9df97",
      "contractAddress": null
    },
    {
      "status": "0x1",
      "cumulativeGasUsed": "0x6dd306",
      "logs": [
        {
          "address": "0x6fc50bbd108f39fc6b0069c29f42e4a120c9df97",
          "topics": [
            "0xa00b5a1af86b3918c33074f107448b7f5472638023dd5354b58dca1bc6384e46",
            "0x000000000000000000000000e94c3c122204a1011eed9ba9c11aa8dea861e91f"
          ],
          "data": "0x",
          "blockHash": "0xb905640a99ef507cb40c0814057e5bf75594b1ccb5cb73d35da58efb24b778d6",
          "blockNumber": "0x2cb49d8",
          "blockTimestamp": "0x6a2d4869",
          "transactionHash": "0x2350325868dd121cf7563a818b65c6865e4f1d942748a5ba20b642de656af0b8",
          "transactionIndex": "0xf",
          "logIndex": "0x2f",
          "removed": false
        }
      ],
      "logsBloom": "0x00000000000000000000000000000000000000000000000000000000000000000000000000000000000000000000000200000000000000000000000000000000000000000000000000000000000000000000000000000000000000000000000000000000000000000000000000000000000008000000080000000000000010000000000000000020000000000000000000000004000000000000000000000000000000000000000000000000000000000000000000000000000000000000000000000000000000000000000000000000000000000001000000000000000000000000004002000000000000000000000000000000000000000000000000000000",
      "type": "0x2",
      "transactionHash": "0x2350325868dd121cf7563a818b65c6865e4f1d942748a5ba20b642de656af0b8",
      "transactionIndex": "0xf",
      "blockHash": "0xb905640a99ef507cb40c0814057e5bf75594b1ccb5cb73d35da58efb24b778d6",
      "blockNumber": "0x2cb49d8",
      "gasUsed": "0x3897d",
      "effectiveGasPrice": "0x4a88ede4a",
      "from": "0xca14e37c862465677caa064c20bdbb6673f6fe48",
      "to": "0x6fc50bbd108f39fc6b0069c29f42e4a120c9df97",
      "contractAddress": null
    },
    {
      "status": "0x1",
      "cumulativeGasUsed": "0x7119b7",
      "logs": [
        {
          "address": "0x6fc50bbd108f39fc6b0069c29f42e4a120c9df97",
          "topics": [
            "0xa00b5a1af86b3918c33074f107448b7f5472638023dd5354b58dca1bc6384e46",
            "0x000000000000000000000000657ff6937ac8913ad3dbec44430bcded3af1367c"
          ],
          "data": "0x",
          "blockHash": "0xb905640a99ef507cb40c0814057e5bf75594b1ccb5cb73d35da58efb24b778d6",
          "blockNumber": "0x2cb49d8",
          "blockTimestamp": "0x6a2d4869",
          "transactionHash": "0xa61a66bfc69b2ddc91be0e24bf00fa1e3b2c36c763de304d202444ba9618dc68",
          "transactionIndex": "0x10",
          "logIndex": "0x30",
          "removed": false
        }
      ],
      "logsBloom": "0x00000000000000000400000000000000000000000000000002000000000000000000000000000000000000000000000200000000000000000000000000000000000000000000000000400000000000000000000000000000000000000000000000000000000000000000000000000000000008000000000000000000000010000000000000000000000000000000000000000004000000000000000000000000000000000000000000000000000000000000000000000000000000000000000000000000000000000000000000000000000000000001000000000000000000000000000002000000000000000000000000000000000000000000000000000000",
      "type": "0x2",
      "transactionHash": "0xa61a66bfc69b2ddc91be0e24bf00fa1e3b2c36c763de304d202444ba9618dc68",
      "transactionIndex": "0x10",
      "blockHash": "0xb905640a99ef507cb40c0814057e5bf75594b1ccb5cb73d35da58efb24b778d6",
      "blockNumber": "0x2cb49d8",
      "gasUsed": "0x346b1",
      "effectiveGasPrice": "0x4a88ede4a",
      "from": "0xca14e37c862465677caa064c20bdbb6673f6fe48",
      "to": "0x6fc50bbd108f39fc6b0069c29f42e4a120c9df97",
      "contractAddress": null
    },
    {
      "status": "0x1",
      "cumulativeGasUsed": "0x74608c",
      "logs": [
        {
          "address": "0x6fc50bbd108f39fc6b0069c29f42e4a120c9df97",
          "topics": [
            "0xa00b5a1af86b3918c33074f107448b7f5472638023dd5354b58dca1bc6384e46",
            "0x00000000000000000000000078f1d761bc1e5d01b136e78a63ae444189ee02fb"
          ],
          "data": "0x",
          "blockHash": "0xb905640a99ef507cb40c0814057e5bf75594b1ccb5cb73d35da58efb24b778d6",
          "blockNumber": "0x2cb49d8",
          "blockTimestamp": "0x6a2d4869",
          "transactionHash": "0x30d141531c1a60781d84ea0c3bf510e124c947c7206c319470e4a9f7e1c045ee",
          "transactionIndex": "0x11",
          "logIndex": "0x31",
          "removed": false
        }
      ],
      "logsBloom": "0x00000000000000000000000000000000000000000000000000000000000000000000100000000000000000000000000200000000000200000000000000000000000000000000000000000000008000000000000000000000000000000000000000000000000000000000000000000000000008000000000000000000000010000000000000000000000000000000000000000004000000000000000000000000000000000000000000000000000000000000000000000000000000000000000000000000000000000000000000000000000000000001000000000000000000000000000002000000000000000000000000000000000000000000000000000000",
      "type": "0x2",
      "transactionHash": "0x30d141531c1a60781d84ea0c3bf510e124c947c7206c319470e4a9f7e1c045ee",
      "transactionIndex": "0x11",
      "blockHash": "0xb905640a99ef507cb40c0814057e5bf75594b1ccb5cb73d35da58efb24b778d6",
      "blockNumber": "0x2cb49d8",
      "gasUsed": "0x346d5",
      "effectiveGasPrice": "0x4a88ede4a",
      "from": "0xca14e37c862465677caa064c20bdbb6673f6fe48",
      "to": "0x6fc50bbd108f39fc6b0069c29f42e4a120c9df97",
      "contractAddress": null
    },
    {
      "status": "0x1",
      "cumulativeGasUsed": "0xf2a90",
      "logs": [
        {
          "address": "0x6fc50bbd108f39fc6b0069c29f42e4a120c9df97",
          "topics": [
            "0xbc880007dd2fa1a4ba4546a4d7b84022dfa435a85cdfaf32c934f547c69bbabc",
            "0x0e7ee5309ab2a09aece1eb4df9ac5bec17bf70ae1e05e4517316b8a631607506"
          ],
          "data": "0x",
          "blockHash": "0xbb899390dc22d0bd7eed2e26131d927bc69463c5f2a06f8f87547868f4e96da4",
          "blockNumber": "0x2cb49db",
          "blockTimestamp": "0x6a2d486b",
          "transactionHash": "0x4b8498e52a1bea979054e09202f9dabf8b8b57f5697d2013538d115f5c7d1aff",
          "transactionIndex": "0x8",
          "logIndex": "0x11",
          "removed": false
        }
      ],
      "logsBloom": "0x00000000000000000000000000000000000000000000000000000004001000000000000000000800000000000000000200000000000000000000000000000000000000000000000000000000000000000008000000000000000000000000000000000000000000000000000000000000000000000000000000000000000010000000000000000000000000000000000000000004000000080000000000000000000000000000000000000000000000000000000000000000000000004000000000000000000000000000000000000000000000000000000000000000000000000000000000000000000000000000000000000000000000000000000000000000",
      "type": "0x2",
      "transactionHash": "0x4b8498e52a1bea979054e09202f9dabf8b8b57f5697d2013538d115f5c7d1aff",
      "transactionIndex": "0x8",
      "blockHash": "0xbb899390dc22d0bd7eed2e26131d927bc69463c5f2a06f8f87547868f4e96da4",
      "blockNumber": "0x2cb49db",
      "gasUsed": "0xc220",
      "effectiveGasPrice": "0x4a88ede4a",
      "from": "0xca14e37c862465677caa064c20bdbb6673f6fe48",
      "to": "0x6fc50bbd108f39fc6b0069c29f42e4a120c9df97",
      "contractAddress": null
    },
    {
      "status": "0x1",
      "cumulativeGasUsed": "0x103490",
      "logs": [
        {
          "address": "0xe94c3c122204a1011eed9ba9c11aa8dea861e91f",
          "topics": [
            "0xddf252ad1be2c89b69c2b068fc378daa952ba7f163c4a11628f55a4df523b3ef",
            "0x0000000000000000000000000000000000000000000000000000000000000000",
            "0x000000000000000000000000ca14e37c862465677caa064c20bdbb6673f6fe48"
          ],
          "data": "0x000000000000000000000000000000000000000000000000000000e8d4a51000",
          "blockHash": "0xbb899390dc22d0bd7eed2e26131d927bc69463c5f2a06f8f87547868f4e96da4",
          "blockNumber": "0x2cb49db",
          "blockTimestamp": "0x6a2d486b",
          "transactionHash": "0x4decc14df3f61076a3386232ac49256ad9f621a2d29a877c275e1c27b3168032",
          "transactionIndex": "0x9",
          "logIndex": "0x12",
          "removed": false
        }
      ],
      "logsBloom": "0x00000000000000000000000000000000000000000000240000000000000000000000000000000000000000000000000000000000000000000000000000000000000000000000000000000008000000000000000000000000000000000000000000000000020000000000000000000800000000000000000000000010000000000000000000000000000000000000000000000000000000000000000000000000000000000000000000000004000000000000000000000000000002000000000000000002000000000000000000000000000000000000000000000000000020000080000000000000000000000000000000000000000001000000000000000000",
      "type": "0x2",
      "transactionHash": "0x4decc14df3f61076a3386232ac49256ad9f621a2d29a877c275e1c27b3168032",
      "transactionIndex": "0x9",
      "blockHash": "0xbb899390dc22d0bd7eed2e26131d927bc69463c5f2a06f8f87547868f4e96da4",
      "blockNumber": "0x2cb49db",
      "gasUsed": "0x10a00",
      "effectiveGasPrice": "0x4a88ede4a",
      "from": "0xca14e37c862465677caa064c20bdbb6673f6fe48",
      "to": "0xe94c3c122204a1011eed9ba9c11aa8dea861e91f",
      "contractAddress": null
    },
    {
      "status": "0x1",
      "cumulativeGasUsed": "0x113e90",
      "logs": [
        {
          "address": "0x657ff6937ac8913ad3dbec44430bcded3af1367c",
          "topics": [
            "0xddf252ad1be2c89b69c2b068fc378daa952ba7f163c4a11628f55a4df523b3ef",
            "0x0000000000000000000000000000000000000000000000000000000000000000",
            "0x000000000000000000000000ca14e37c862465677caa064c20bdbb6673f6fe48"
          ],
          "data": "0x000000000000000000000000000000000000000000000000000000746a528800",
          "blockHash": "0xbb899390dc22d0bd7eed2e26131d927bc69463c5f2a06f8f87547868f4e96da4",
          "blockNumber": "0x2cb49db",
          "blockTimestamp": "0x6a2d486b",
          "transactionHash": "0xa5cbfcaaf3be71e0b6b0644a9e25b92457464c478e2b0a7cce37996e79726ad4",
          "transactionIndex": "0xa",
          "logIndex": "0x13",
          "removed": false
        }
      ],
      "logsBloom": "0x00000000000000000000000000000000000000000000040000000000000000000000000000000000000000000008000000000000000000000000000000000000000000000000000000000008000000020000000000000000000000000000000000000000020000000000000000000800000000000000000000000010000000000000000000000000000000000000000000000000000000000000000000000000000000000000000000000000000000000000000000000000000000000000000000000002400000000000000000000000000000000000000000000000000020000080000000000000000000000000000000000000000001000000000000000000",
      "type": "0x2",
      "transactionHash": "0xa5cbfcaaf3be71e0b6b0644a9e25b92457464c478e2b0a7cce37996e79726ad4",
      "transactionIndex": "0xa",
      "blockHash": "0xbb899390dc22d0bd7eed2e26131d927bc69463c5f2a06f8f87547868f4e96da4",
      "blockNumber": "0x2cb49db",
      "gasUsed": "0x10a00",
      "effectiveGasPrice": "0x4a88ede4a",
      "from": "0xca14e37c862465677caa064c20bdbb6673f6fe48",
      "to": "0x657ff6937ac8913ad3dbec44430bcded3af1367c",
      "contractAddress": null
    },
    {
      "status": "0x1",
      "cumulativeGasUsed": "0x1248b4",
      "logs": [
        {
          "address": "0x78f1d761bc1e5d01b136e78a63ae444189ee02fb",
          "topics": [
            "0xddf252ad1be2c89b69c2b068fc378daa952ba7f163c4a11628f55a4df523b3ef",
            "0x0000000000000000000000000000000000000000000000000000000000000000",
            "0x000000000000000000000000ca14e37c862465677caa064c20bdbb6673f6fe48"
          ],
          "data": "0x0000000000000000000000000000000000000000000000056bc75e2d63100000",
          "blockHash": "0xbb899390dc22d0bd7eed2e26131d927bc69463c5f2a06f8f87547868f4e96da4",
          "blockNumber": "0x2cb49db",
          "blockTimestamp": "0x6a2d486b",
          "transactionHash": "0x777689466db6fcac7d81975ebda214f5d9071a4e7b109eaf300ca8055db46cd6",
          "transactionIndex": "0xb",
          "logIndex": "0x14",
          "removed": false
        }
      ],
      "logsBloom": "0x00000000000000000000000000000000000000000000040000000000000000000000000000000000000000000000000000000000000000000000000000000000000000000000000000000008000000000000000000000000000000000000000000000000020000000000000000000800000000000000000000000010000000000000000000000000000000000000000000000000000000000000000000000000000000002000000000000000000000000010000000000000000000000000000000000002000000000000000000000000000000000000000000000000000020000080000000000000000000000000000000000000000001000000040000000000",
      "type": "0x2",
      "transactionHash": "0x777689466db6fcac7d81975ebda214f5d9071a4e7b109eaf300ca8055db46cd6",
      "transactionIndex": "0xb",
      "blockHash": "0xbb899390dc22d0bd7eed2e26131d927bc69463c5f2a06f8f87547868f4e96da4",
      "blockNumber": "0x2cb49db",
      "gasUsed": "0x10a24",
      "effectiveGasPrice": "0x4a88ede4a",
      "from": "0xca14e37c862465677caa064c20bdbb6673f6fe48",
      "to": "0x78f1d761bc1e5d01b136e78a63ae444189ee02fb",
      "contractAddress": null
    },
    {
      "status": "0x1",
      "cumulativeGasUsed": "0x12fd73",
      "logs": [
        {
          "address": "0xe94c3c122204a1011eed9ba9c11aa8dea861e91f",
          "topics": [
            "0x8c5be1e5ebec7d5bd14f71427d1e84f3dd0314c0f7b2291e5b200ac8c7c3b925",
            "0x000000000000000000000000ca14e37c862465677caa064c20bdbb6673f6fe48",
            "0x0000000000000000000000006fc50bbd108f39fc6b0069c29f42e4a120c9df97"
          ],
          "data": "0xffffffffffffffffffffffffffffffffffffffffffffffffffffffffffffffff",
          "blockHash": "0xbb899390dc22d0bd7eed2e26131d927bc69463c5f2a06f8f87547868f4e96da4",
          "blockNumber": "0x2cb49db",
          "blockTimestamp": "0x6a2d486b",
          "transactionHash": "0x057e6035d35225d7345a33d90d1e96caf38e3e1af2cc51bc7692b935ad76f63f",
          "transactionIndex": "0xc",
          "logIndex": "0x15",
          "removed": false
        }
      ],
      "logsBloom": "0x00010000000000000000000000000000000000000000240000000000000000000000000000000000000000000000000000000000000000000000000000200000000000000000000000000000000000000000000000000000000000000000000000000000000000000000000000000000000000000000000008000000000000000000000000000000000000000000000000000000000000000000000000000000020000000000000000000004000000000000000000000000000002000000000000000000000000000000000000000000000000000000000000000000000080000090000000000000000000000000000000000000000001000000000000000000",
      "type": "0x2",
      "transactionHash": "0x057e6035d35225d7345a33d90d1e96caf38e3e1af2cc51bc7692b935ad76f63f",
      "transactionIndex": "0xc",
      "blockHash": "0xbb899390dc22d0bd7eed2e26131d927bc69463c5f2a06f8f87547868f4e96da4",
      "blockNumber": "0x2cb49db",
      "gasUsed": "0xb4bf",
      "effectiveGasPrice": "0x4a88ede4a",
      "from": "0xca14e37c862465677caa064c20bdbb6673f6fe48",
      "to": "0xe94c3c122204a1011eed9ba9c11aa8dea861e91f",
      "contractAddress": null
    },
    {
      "status": "0x1",
      "cumulativeGasUsed": "0x13b232",
      "logs": [
        {
          "address": "0x657ff6937ac8913ad3dbec44430bcded3af1367c",
          "topics": [
            "0x8c5be1e5ebec7d5bd14f71427d1e84f3dd0314c0f7b2291e5b200ac8c7c3b925",
            "0x000000000000000000000000ca14e37c862465677caa064c20bdbb6673f6fe48",
            "0x0000000000000000000000006fc50bbd108f39fc6b0069c29f42e4a120c9df97"
          ],
          "data": "0xffffffffffffffffffffffffffffffffffffffffffffffffffffffffffffffff",
          "blockHash": "0xbb899390dc22d0bd7eed2e26131d927bc69463c5f2a06f8f87547868f4e96da4",
          "blockNumber": "0x2cb49db",
          "blockTimestamp": "0x6a2d486b",
          "transactionHash": "0x37d0e332d68af82b60d79f0a4bcde41903b7bfdd1227fb12e4889999b0aecc21",
          "transactionIndex": "0xd",
          "logIndex": "0x16",
          "removed": false
        }
      ],
      "logsBloom": "0x00010000000000000000000000000000000000000000040000000000000000000000000000000000000000000008000000000000000000000000000000200000000000000000000000000000000000020000000000000000000000000000000000000000000000000000000000000000000000000000000008000000000000000000000000000000000000000000000000000000000000000000000000000000020000000000000000000000000000000000000000000000000000000000000000000000400000000000000000000000000000000000000000000000000080000090000000000000000000000000000000000000000001000000000000000000",
      "type": "0x2",
      "transactionHash": "0x37d0e332d68af82b60d79f0a4bcde41903b7bfdd1227fb12e4889999b0aecc21",
      "transactionIndex": "0xd",
      "blockHash": "0xbb899390dc22d0bd7eed2e26131d927bc69463c5f2a06f8f87547868f4e96da4",
      "blockNumber": "0x2cb49db",
      "gasUsed": "0xb4bf",
      "effectiveGasPrice": "0x4a88ede4a",
      "from": "0xca14e37c862465677caa064c20bdbb6673f6fe48",
      "to": "0x657ff6937ac8913ad3dbec44430bcded3af1367c",
      "contractAddress": null
    },
    {
      "status": "0x1",
      "cumulativeGasUsed": "0x1466f1",
      "logs": [
        {
          "address": "0x78f1d761bc1e5d01b136e78a63ae444189ee02fb",
          "topics": [
            "0x8c5be1e5ebec7d5bd14f71427d1e84f3dd0314c0f7b2291e5b200ac8c7c3b925",
            "0x000000000000000000000000ca14e37c862465677caa064c20bdbb6673f6fe48",
            "0x0000000000000000000000006fc50bbd108f39fc6b0069c29f42e4a120c9df97"
          ],
          "data": "0xffffffffffffffffffffffffffffffffffffffffffffffffffffffffffffffff",
          "blockHash": "0xbb899390dc22d0bd7eed2e26131d927bc69463c5f2a06f8f87547868f4e96da4",
          "blockNumber": "0x2cb49db",
          "blockTimestamp": "0x6a2d486b",
          "transactionHash": "0x7bdf40f630312e106cc39f8d91d00d9fefff189c5672bb8663785308e206fb6f",
          "transactionIndex": "0xe",
          "logIndex": "0x17",
          "removed": false
        }
      ],
      "logsBloom": "0x00010000000000000000000000000000000000000000040000000000000000000000000000000000000000000000000000000000000000000000000000200000000000000000000000000000000000000000000000000000000000000000000000000000000000000000000000000000000000000000000008000000000000000000000000000000000000000000000000000000000000000000000000000000020000002000000000000000000000000010000000000000000000000000000000000000000000000000000000000000000000000000000000000000000080000090000000000000000000000000000000000000000001000000040000000000",
      "type": "0x2",
      "transactionHash": "0x7bdf40f630312e106cc39f8d91d00d9fefff189c5672bb8663785308e206fb6f",
      "transactionIndex": "0xe",
      "blockHash": "0xbb899390dc22d0bd7eed2e26131d927bc69463c5f2a06f8f87547868f4e96da4",
      "blockNumber": "0x2cb49db",
      "gasUsed": "0xb4bf",
      "effectiveGasPrice": "0x4a88ede4a",
      "from": "0xca14e37c862465677caa064c20bdbb6673f6fe48",
      "to": "0x78f1d761bc1e5d01b136e78a63ae444189ee02fb",
      "contractAddress": null
    },
    {
      "status": "0x1",
      "cumulativeGasUsed": "0x16ad6f",
      "logs": [
        {
          "address": "0x6fc50bbd108f39fc6b0069c29f42e4a120c9df97",
          "topics": [
            "0x51eedbe668e048aec37e4dc0104031dbf295c9f3b35bfd9cb73a217b6ff81259",
            "0x000000000000000000000000e94c3c122204a1011eed9ba9c11aa8dea861e91f"
          ],
          "data": "0x0000000000000000000000000000000000000000033b2e3c9fd0803ce80000000000000000000000000000000000000000000000033b2e3c9fd0803ce8000000000000000000000000000000000000000000000000084595161401484a000000",
          "blockHash": "0xbb899390dc22d0bd7eed2e26131d927bc69463c5f2a06f8f87547868f4e96da4",
          "blockNumber": "0x2cb49db",
          "blockTimestamp": "0x6a2d486b",
          "transactionHash": "0x8183bf05070e0e04240efe62e82a16793f7af51a403da55206b061961b1494aa",
          "transactionIndex": "0xf",
          "logIndex": "0x18",
          "removed": false
        },
        {
          "address": "0xe94c3c122204a1011eed9ba9c11aa8dea861e91f",
          "topics": [
            "0xddf252ad1be2c89b69c2b068fc378daa952ba7f163c4a11628f55a4df523b3ef",
            "0x000000000000000000000000ca14e37c862465677caa064c20bdbb6673f6fe48",
            "0x0000000000000000000000006fc50bbd108f39fc6b0069c29f42e4a120c9df97"
          ],
          "data": "0x000000000000000000000000000000000000000000000000000000e8d4a51000",
          "blockHash": "0xbb899390dc22d0bd7eed2e26131d927bc69463c5f2a06f8f87547868f4e96da4",
          "blockNumber": "0x2cb49db",
          "blockTimestamp": "0x6a2d486b",
          "transactionHash": "0x8183bf05070e0e04240efe62e82a16793f7af51a403da55206b061961b1494aa",
          "transactionIndex": "0xf",
          "logIndex": "0x19",
          "removed": false
        },
        {
          "address": "0x6fc50bbd108f39fc6b0069c29f42e4a120c9df97",
          "topics": [
            "0xf5681f9d0db1b911ac18ee83d515a1cf1051853a9eae418316a2fdf7dea427c5",
            "0x000000000000000000000000e94c3c122204a1011eed9ba9c11aa8dea861e91f",
            "0x000000000000000000000000ca14e37c862465677caa064c20bdbb6673f6fe48"
          ],
          "data": "0x000000000000000000000000000000000000000000000000000000e8d4a51000000000000000000000000000000000000000000000000000000000e8d4a51000",
          "blockHash": "0xbb899390dc22d0bd7eed2e26131d927bc69463c5f2a06f8f87547868f4e96da4",
          "blockNumber": "0x2cb49db",
          "blockTimestamp": "0x6a2d486b",
          "transactionHash": "0x8183bf05070e0e04240efe62e82a16793f7af51a403da55206b061961b1494aa",
          "transactionIndex": "0xf",
          "logIndex": "0x1a",
          "removed": false
        }
      ],
      "logsBloom": "0x00010000000000000000000000000000000000000000240000000000000000000000100000000000000000000000000280000000000000000000000000000000000000800000000000000008000000000000000000000000000000000000000000000000000008000000000000000000000000000000180008000010000010000000000000000020000000000000000000000004000000000000000000000000000000000000000000000004000000000000000000000000000002000000000000000002000000000000000000000010000000000000000000000000000080000080004000000000000000000000000000000000000001000000000000000000",
      "type": "0x2",
      "transactionHash": "0x8183bf05070e0e04240efe62e82a16793f7af51a403da55206b061961b1494aa",
      "transactionIndex": "0xf",
      "blockHash": "0xbb899390dc22d0bd7eed2e26131d927bc69463c5f2a06f8f87547868f4e96da4",
      "blockNumber": "0x2cb49db",
      "gasUsed": "0x2467e",
      "effectiveGasPrice": "0x4a88ede4a",
      "from": "0xca14e37c862465677caa064c20bdbb6673f6fe48",
      "to": "0x6fc50bbd108f39fc6b0069c29f42e4a120c9df97",
      "contractAddress": null
    },
    {
      "status": "0x1",
      "cumulativeGasUsed": "0x18f3ed",
      "logs": [
        {
          "address": "0x6fc50bbd108f39fc6b0069c29f42e4a120c9df97",
          "topics": [
            "0x51eedbe668e048aec37e4dc0104031dbf295c9f3b35bfd9cb73a217b6ff81259",
            "0x000000000000000000000000657ff6937ac8913ad3dbec44430bcded3af1367c"
          ],
          "data": "0x0000000000000000000000000000000000000000033b2e3c9fd0803ce80000000000000000000000000000000000000000000000033b2e3c9fd0803ce8000000000000000000000000000000000000000000000000108b2a2c28029094000000",
          "blockHash": "0xbb899390dc22d0bd7eed2e26131d927bc69463c5f2a06f8f87547868f4e96da4",
          "blockNumber": "0x2cb49db",
          "blockTimestamp": "0x6a2d486b",
          "transactionHash": "0x562c4c7819e0a7f99c02ad0f55d64f8f8a3a1d7cba1f117ce97eb78e64ed0d26",
          "transactionIndex": "0x10",
          "logIndex": "0x1b",
          "removed": false
        },
        {
          "address": "0x657ff6937ac8913ad3dbec44430bcded3af1367c",
          "topics": [
            "0xddf252ad1be2c89b69c2b068fc378daa952ba7f163c4a11628f55a4df523b3ef",
            "0x000000000000000000000000ca14e37c862465677caa064c20bdbb6673f6fe48",
            "0x0000000000000000000000006fc50bbd108f39fc6b0069c29f42e4a120c9df97"
          ],
          "data": "0x000000000000000000000000000000000000000000000000000000746a528800",
          "blockHash": "0xbb899390dc22d0bd7eed2e26131d927bc69463c5f2a06f8f87547868f4e96da4",
          "blockNumber": "0x2cb49db",
          "blockTimestamp": "0x6a2d486b",
          "transactionHash": "0x562c4c7819e0a7f99c02ad0f55d64f8f8a3a1d7cba1f117ce97eb78e64ed0d26",
          "transactionIndex": "0x10",
          "logIndex": "0x1c",
          "removed": false
        },
        {
          "address": "0x6fc50bbd108f39fc6b0069c29f42e4a120c9df97",
          "topics": [
            "0xf5681f9d0db1b911ac18ee83d515a1cf1051853a9eae418316a2fdf7dea427c5",
            "0x000000000000000000000000657ff6937ac8913ad3dbec44430bcded3af1367c",
            "0x000000000000000000000000ca14e37c862465677caa064c20bdbb6673f6fe48"
          ],
          "data": "0x000000000000000000000000000000000000000000000000000000746a528800000000000000000000000000000000000000000000000000000000746a528800",
          "blockHash": "0xbb899390dc22d0bd7eed2e26131d927bc69463c5f2a06f8f87547868f4e96da4",
          "blockNumber": "0x2cb49db",
          "blockTimestamp": "0x6a2d486b",
          "transactionHash": "0x562c4c7819e0a7f99c02ad0f55d64f8f8a3a1d7cba1f117ce97eb78e64ed0d26",
          "transactionIndex": "0x10",
          "logIndex": "0x1d",
          "removed": false
        }
      ],
      "logsBloom": "0x00010000000000000400000000000000000000000000040002000000000000000000100000000000000000000008000280000000000000000000000000000000000000800000000000400008000000020000000000000000000000000000000000000000000008000000000000000000000000000000100008000010000010000000000000000000000000000000000000000004000000000000000000000000000000000000000000000000000000000000000000000000000000000000000000000002400000000000000000000010000000000000000000000000000080000080000000000000000000000000000000000000000001000000000000000000",
      "type": "0x2",
      "transactionHash": "0x562c4c7819e0a7f99c02ad0f55d64f8f8a3a1d7cba1f117ce97eb78e64ed0d26",
      "transactionIndex": "0x10",
      "blockHash": "0xbb899390dc22d0bd7eed2e26131d927bc69463c5f2a06f8f87547868f4e96da4",
      "blockNumber": "0x2cb49db",
      "gasUsed": "0x2467e",
      "effectiveGasPrice": "0x4a88ede4a",
      "from": "0xca14e37c862465677caa064c20bdbb6673f6fe48",
      "to": "0x6fc50bbd108f39fc6b0069c29f42e4a120c9df97",
      "contractAddress": null
    },
    {
      "status": "0x1",
      "cumulativeGasUsed": "0x1b3a8f",
      "logs": [
        {
          "address": "0x6fc50bbd108f39fc6b0069c29f42e4a120c9df97",
          "topics": [
            "0x51eedbe668e048aec37e4dc0104031dbf295c9f3b35bfd9cb73a217b6ff81259",
            "0x00000000000000000000000078f1d761bc1e5d01b136e78a63ae444189ee02fb"
          ],
          "data": "0x0000000000000000000000000000000000000000033b2e3c9fd0803ce80000000000000000000000000000000000000000000000033b2e3c9fd0803ce80000000000000000000000000000000000000000000000000000000000000000000000",
          "blockHash": "0xbb899390dc22d0bd7eed2e26131d927bc69463c5f2a06f8f87547868f4e96da4",
          "blockNumber": "0x2cb49db",
          "blockTimestamp": "0x6a2d486b",
          "transactionHash": "0x3a0a38de59ca00bd6dd497b1deedf2797cdbe27d03d09fb112f297030bf7e6ab",
          "transactionIndex": "0x11",
          "logIndex": "0x1e",
          "removed": false
        },
        {
          "address": "0x78f1d761bc1e5d01b136e78a63ae444189ee02fb",
          "topics": [
            "0xddf252ad1be2c89b69c2b068fc378daa952ba7f163c4a11628f55a4df523b3ef",
            "0x000000000000000000000000ca14e37c862465677caa064c20bdbb6673f6fe48",
            "0x0000000000000000000000006fc50bbd108f39fc6b0069c29f42e4a120c9df97"
          ],
          "data": "0x0000000000000000000000000000000000000000000000056bc75e2d63100000",
          "blockHash": "0xbb899390dc22d0bd7eed2e26131d927bc69463c5f2a06f8f87547868f4e96da4",
          "blockNumber": "0x2cb49db",
          "blockTimestamp": "0x6a2d486b",
          "transactionHash": "0x3a0a38de59ca00bd6dd497b1deedf2797cdbe27d03d09fb112f297030bf7e6ab",
          "transactionIndex": "0x11",
          "logIndex": "0x1f",
          "removed": false
        },
        {
          "address": "0x6fc50bbd108f39fc6b0069c29f42e4a120c9df97",
          "topics": [
            "0xf5681f9d0db1b911ac18ee83d515a1cf1051853a9eae418316a2fdf7dea427c5",
            "0x00000000000000000000000078f1d761bc1e5d01b136e78a63ae444189ee02fb",
            "0x000000000000000000000000ca14e37c862465677caa064c20bdbb6673f6fe48"
          ],
          "data": "0x0000000000000000000000000000000000000000000000056bc75e2d631000000000000000000000000000000000000000000000000000056bc75e2d63100000",
          "blockHash": "0xbb899390dc22d0bd7eed2e26131d927bc69463c5f2a06f8f87547868f4e96da4",
          "blockNumber": "0x2cb49db",
          "blockTimestamp": "0x6a2d486b",
          "transactionHash": "0x3a0a38de59ca00bd6dd497b1deedf2797cdbe27d03d09fb112f297030bf7e6ab",
          "transactionIndex": "0x11",
          "logIndex": "0x20",
          "removed": false
        }
      ],
      "logsBloom": "0x00010000000000000000000000000000000000000000040000000000000000000000100000000000000000000000000280000000000200000000000000000000000000800000000000000008008000000000000000000000000000000000000000000000000008000000000000000000000000000000100008000010000010000000000000000000000000000000000000000004000000000000000000000000000000002000000000000000000000000010000000000000000000000000000000000002000000000000000000000010000000000000000000000000000080000080000000000000000000000000000000000000000001000000040000000000",
      "type": "0x2",
      "transactionHash": "0x3a0a38de59ca00bd6dd497b1deedf2797cdbe27d03d09fb112f297030bf7e6ab",
      "transactionIndex": "0x11",
      "blockHash": "0xbb899390dc22d0bd7eed2e26131d927bc69463c5f2a06f8f87547868f4e96da4",
      "blockNumber": "0x2cb49db",
      "gasUsed": "0x246a2",
      "effectiveGasPrice": "0x4a88ede4a",
      "from": "0xca14e37c862465677caa064c20bdbb6673f6fe48",
      "to": "0x6fc50bbd108f39fc6b0069c29f42e4a120c9df97",
      "contractAddress": null
    }
  ],
  "libraries": [],
  "pending": [],
  "returns": {},
  "timestamp": 1781352556548,
  "chain": 5042002,
  "commit": "56b8140"
}